{
  "_format": "hh-sol-artifact-1",
  "contractName": "ERC20KP3ROracle",
  "sourceName": "contracts/oracle/ERC20KP3ROracle.sol",
  "abi": [
    {
      "inputs": [
        {
          "internalType": "contract IKeep3rV1Oracle",
          "name": "_kp3r",
          "type": "address"
        }
      ],
      "stateMutability": "nonpayable",
      "type": "constructor"
    },
    {
      "inputs": [],
      "name": "MAX_TWAP_TIME",
      "outputs": [
        {
          "internalType": "uint256",
          "name": "",
          "type": "uint256"
        }
      ],
      "stateMutability": "view",
      "type": "function"
    },
    {
      "inputs": [],
      "name": "MIN_TWAP_TIME",
      "outputs": [
        {
          "internalType": "uint256",
          "name": "",
          "type": "uint256"
        }
      ],
      "stateMutability": "view",
      "type": "function"
    },
    {
      "inputs": [
        {
          "internalType": "address",
          "name": "pair",
          "type": "address"
        }
      ],
      "name": "currentPx0Cumu",
      "outputs": [
        {
          "internalType": "uint256",
          "name": "px0Cumu",
          "type": "uint256"
        }
      ],
      "stateMutability": "view",
      "type": "function"
    },
    {
      "inputs": [
        {
          "internalType": "address",
          "name": "pair",
          "type": "address"
        }
      ],
      "name": "currentPx1Cumu",
      "outputs": [
        {
          "internalType": "uint256",
          "name": "px1Cumu",
          "type": "uint256"
        }
      ],
      "stateMutability": "view",
      "type": "function"
    },
    {
      "inputs": [],
      "name": "factory",
      "outputs": [
        {
          "internalType": "address",
          "name": "",
          "type": "address"
        }
      ],
      "stateMutability": "view",
      "type": "function"
    },
    {
      "inputs": [
        {
          "internalType": "address",
          "name": "token",
          "type": "address"
        }
      ],
      "name": "getETHPx",
      "outputs": [
        {
          "internalType": "uint256",
          "name": "",
          "type": "uint256"
        }
      ],
      "stateMutability": "view",
      "type": "function"
    },
    {
      "inputs": [],
      "name": "kp3r",
      "outputs": [
        {
          "internalType": "contract IKeep3rV1Oracle",
          "name": "",
          "type": "address"
        }
      ],
      "stateMutability": "view",
      "type": "function"
    },
    {
      "inputs": [
        {
          "internalType": "address",
          "name": "pair",
          "type": "address"
        }
      ],
      "name": "price0TWAP",
      "outputs": [
        {
          "internalType": "uint256",
          "name": "",
          "type": "uint256"
        }
      ],
      "stateMutability": "view",
      "type": "function"
    },
    {
      "inputs": [
        {
          "internalType": "address",
          "name": "pair",
          "type": "address"
        }
      ],
      "name": "price1TWAP",
      "outputs": [
        {
          "internalType": "uint256",
          "name": "",
          "type": "uint256"
        }
      ],
      "stateMutability": "view",
      "type": "function"
    },
    {
      "inputs": [],
      "name": "weth",
      "outputs": [
        {
          "internalType": "address",
          "name": "",
          "type": "address"
        }
      ],
      "stateMutability": "view",
      "type": "function"
    }
  ],
  "bytecode": "0x60e060405234801561001057600080fd5b506040516113ff3803806113ff8339818101604052602081101561003357600080fd5b8101908080519060200190929190505050808073ffffffffffffffffffffffffffffffffffffffff1660808173ffffffffffffffffffffffffffffffffffffffff1660601b815250508073ffffffffffffffffffffffffffffffffffffffff1663c45a01556040518163ffffffff1660e01b815260040160206040518083038186803b1580156100c257600080fd5b505afa1580156100d6573d6000803e3d6000fd5b505050506040513d60208110156100ec57600080fd5b810190808051906020019092919050505073ffffffffffffffffffffffffffffffffffffffff1660a08173ffffffffffffffffffffffffffffffffffffffff1660601b815250508073ffffffffffffffffffffffffffffffffffffffff1663ad5c46486040518163ffffffff1660e01b815260040160206040518083038186803b15801561017957600080fd5b505afa15801561018d573d6000803e3d6000fd5b505050506040513d60208110156101a357600080fd5b810190808051906020019092919050505073ffffffffffffffffffffffffffffffffffffffff1660c08173ffffffffffffffffffffffffffffffffffffffff1660601b81525050505060805160601c60a05160601c60c05160601c6111ac610253600039806107835280610d965280610e8a5280610f4f525080610e4d5280610fcc52508061033e528061047b52806105e352806107a752806107ce528061090b5280610a7352506111ac6000f3fe608060405234801561001057600080fd5b506004361061009e5760003560e01c8063a09c840411610066578063a09c8404146101d9578063ab9aadfe14610231578063af8a9ba514610289578063c45a0155146102a7578063eb84b2f6146102db5761009e565b806309cd510e146100a35780630bbfeedd146100c15780633fc8cef31461011957806359e25a941461014d578063990ae00f14610181575b600080fd5b6100ab610333565b6040518082815260200191505060405180910390f35b610103600480360360208110156100d757600080fd5b81019080803573ffffffffffffffffffffffffffffffffffffffff169060200190929190505050610339565b6040518082815260200191505060405180910390f35b610121610781565b604051808273ffffffffffffffffffffffffffffffffffffffff16815260200191505060405180910390f35b6101556107a5565b604051808273ffffffffffffffffffffffffffffffffffffffff16815260200191505060405180910390f35b6101c36004803603602081101561019757600080fd5b81019080803573ffffffffffffffffffffffffffffffffffffffff1690602001909291905050506107c9565b6040518082815260200191505060405180910390f35b61021b600480360360208110156101ef57600080fd5b81019080803573ffffffffffffffffffffffffffffffffffffffff169060200190929190505050610c10565b6040518082815260200191505060405180910390f35b6102736004803603602081101561024757600080fd5b81019080803573ffffffffffffffffffffffffffffffffffffffff169060200190929190505050610d92565b6040518082815260200191505060405180910390f35b610291610fc4565b6040518082815260200191505060405180910390f35b6102af610fca565b604051808273ffffffffffffffffffffffffffffffffffffffff16815260200191505060405180910390f35b61031d600480360360208110156102f157600080fd5b81019080803573ffffffffffffffffffffffffffffffffffffffff169060200190929190505050610fee565b6040518082815260200191505060405180910390f35b610e1081565b6000807f000000000000000000000000000000000000000000000000000000000000000073ffffffffffffffffffffffffffffffffffffffff166381bfb885846040518263ffffffff1660e01b8152600401808273ffffffffffffffffffffffffffffffffffffffff16815260200191505060206040518083038186803b1580156103c357600080fd5b505afa1580156103d7573d6000803e3d6000fd5b505050506040513d60208110156103ed57600080fd5b8101908080519060200190929190505050905060008111610476576040517f08c379a00000000000000000000000000000000000000000000000000000000081526004018080602001828103825260178152602001807f6e6f206c656e6774682d31206f62736572766174696f6e00000000000000000081525060200191505060405180910390fd5b6000807f000000000000000000000000000000000000000000000000000000000000000073ffffffffffffffffffffffffffffffffffffffff16630245996686600186036040518363ffffffff1660e01b8152600401808373ffffffffffffffffffffffffffffffffffffffff1681526020018281526020019250505060606040518083038186803b15801561050b57600080fd5b505afa15801561051f573d6000803e3d6000fd5b505050506040513d606081101561053557600080fd5b81019080805190602001909291908051906020019092919080519060200190929190505050925050915061038442038211156106cd57600183116105e1576040517f08c379a00000000000000000000000000000000000000000000000000000000081526004018080602001828103825260178152602001807f6e6f206c656e6774682d32206f62736572766174696f6e00000000000000000081525060200191505060405180910390fd5b7f000000000000000000000000000000000000000000000000000000000000000073ffffffffffffffffffffffffffffffffffffffff16630245996686600286036040518363ffffffff1660e01b8152600401808373ffffffffffffffffffffffffffffffffffffffff1681526020018281526020019250505060606040518083038186803b15801561067357600080fd5b505afa158015610687573d6000803e3d6000fd5b505050506040513d606081101561069d57600080fd5b81019080805190602001909291908051906020019092919080519060200190929190505050905080925081935050505b6000824203905061038481101580156106e85750610e108111155b61075a576040517f08c379a000000000000000000000000000000000000000000000000000000000815260040180806020018281038252600d8152602001807f62616420545741502074696d650000000000000000000000000000000000000081525060200191505060405180910390fd5b600061076587610fee565b90508342038382038161077457fe5b0495505050505050919050565b7f000000000000000000000000000000000000000000000000000000000000000081565b7f000000000000000000000000000000000000000000000000000000000000000081565b6000807f000000000000000000000000000000000000000000000000000000000000000073ffffffffffffffffffffffffffffffffffffffff166381bfb885846040518263ffffffff1660e01b8152600401808273ffffffffffffffffffffffffffffffffffffffff16815260200191505060206040518083038186803b15801561085357600080fd5b505afa158015610867573d6000803e3d6000fd5b505050506040513d602081101561087d57600080fd5b8101908080519060200190929190505050905060008111610906576040517f08c379a00000000000000000000000000000000000000000000000000000000081526004018080602001828103825260178152602001807f6e6f206c656e6774682d31206f62736572766174696f6e00000000000000000081525060200191505060405180910390fd5b6000807f000000000000000000000000000000000000000000000000000000000000000073ffffffffffffffffffffffffffffffffffffffff16630245996686600186036040518363ffffffff1660e01b8152600401808373ffffffffffffffffffffffffffffffffffffffff1681526020018281526020019250505060606040518083038186803b15801561099b57600080fd5b505afa1580156109af573d6000803e3d6000fd5b505050506040513d60608110156109c557600080fd5b8101908080519060200190929190805190602001909291908051906020019092919050505050915091506103844203821115610b5c5760018311610a71576040517f08c379a00000000000000000000000000000000000000000000000000000000081526004018080602001828103825260178152602001807f6e6f206c656e6774682d32206f62736572766174696f6e00000000000000000081525060200191505060405180910390fd5b7f000000000000000000000000000000000000000000000000000000000000000073ffffffffffffffffffffffffffffffffffffffff16630245996686600286036040518363ffffffff1660e01b8152600401808373ffffffffffffffffffffffffffffffffffffffff1681526020018281526020019250505060606040518083038186803b158015610b0357600080fd5b505afa158015610b17573d6000803e3d6000fd5b505050506040513d6060811015610b2d57600080fd5b810190808051906020019092919080519060200190929190805190602001909291905050505080925081935050505b600082420390506103848110158015610b775750610e108111155b610be9576040517f08c379a000000000000000000000000000000000000000000000000000000000815260040180806020018281038252600d8152602001807f62616420545741502074696d650000000000000000000000000000000000000081525060200191505060405180910390fd5b6000610bf487610c10565b905083420383820381610c0357fe5b0495505050505050919050565b6000804290508273ffffffffffffffffffffffffffffffffffffffff16635909c0d56040518163ffffffff1660e01b815260040160206040518083038186803b158015610c5c57600080fd5b505afa158015610c70573d6000803e3d6000fd5b505050506040513d6020811015610c8657600080fd5b8101908080519060200190929190505050915060008060008573ffffffffffffffffffffffffffffffffffffffff16630902f1ac6040518163ffffffff1660e01b815260040160606040518083038186803b158015610ce457600080fd5b505afa158015610cf8573d6000803e3d6000fd5b505050506040513d6060811015610d0e57600080fd5b8101908080519060200190929190805190602001909291908051906020019092919050505092506dffffffffffffffffffffffffffff1692506dffffffffffffffffffffffffffff169250428163ffffffff1614610d8957600081850390508063ffffffff1684607085901b81610d8157fe5b040286019550505b50505050919050565b60007f000000000000000000000000000000000000000000000000000000000000000073ffffffffffffffffffffffffffffffffffffffff168273ffffffffffffffffffffffffffffffffffffffff161480610e2d575073eeeeeeeeeeeeeeeeeeeeeeeeeeeeeeeeeeeeeeee73ffffffffffffffffffffffffffffffffffffffff168273ffffffffffffffffffffffffffffffffffffffff16145b15610e49576e0100000000000000000000000000009050610fbf565b60007f000000000000000000000000000000000000000000000000000000000000000073ffffffffffffffffffffffffffffffffffffffff1663e6a43905847f00000000000000000000000000000000000000000000000000000000000000006040518363ffffffff1660e01b8152600401808373ffffffffffffffffffffffffffffffffffffffff1681526020018273ffffffffffffffffffffffffffffffffffffffff1681526020019250505060206040518083038186803b158015610f1057600080fd5b505afa158015610f24573d6000803e3d6000fd5b505050506040513d6020811015610f3a57600080fd5b810190808051906020019092919050505090507f000000000000000000000000000000000000000000000000000000000000000073ffffffffffffffffffffffffffffffffffffffff168373ffffffffffffffffffffffffffffffffffffffff161015610fb257610faa816107c9565b915050610fbf565b610fbb81610339565b9150505b919050565b61038481565b7f000000000000000000000000000000000000000000000000000000000000000081565b6000804290508273ffffffffffffffffffffffffffffffffffffffff16635a3d54936040518163ffffffff1660e01b815260040160206040518083038186803b15801561103a57600080fd5b505afa15801561104e573d6000803e3d6000fd5b505050506040513d602081101561106457600080fd5b8101908080519060200190929190505050915060008060008573ffffffffffffffffffffffffffffffffffffffff16630902f1ac6040518163ffffffff1660e01b815260040160606040518083038186803b1580156110c257600080fd5b505afa1580156110d6573d6000803e3d6000fd5b505050506040513d60608110156110ec57600080fd5b8101908080519060200190929190805190602001909291908051906020019092919050505092506dffffffffffffffffffffffffffff1692506dffffffffffffffffffffffffffff1692508363ffffffff168163ffffffff161461116d57600081850390508063ffffffff1683607086901b8161116557fe5b040286019550505b5050505091905056fea264697066735822122094e6c15a61e2ead5572991a1160d628710e61bf5deaba80c1915c83ff6d8f4c964736f6c634300060c0033",
  "linkReferences": {},
  "deployedLinkReferences": {}
}