{
  "_format": "hh-sol-artifact-1",
  "contractName": "WMasterChef",
  "sourceName": "contracts/wrapper/WMasterChef.sol",
  "abi": [
    {
      "inputs": [
        {
          "internalType": "contract IMasterChef",
          "name": "_chef",
          "type": "address"
        }
      ],
      "stateMutability": "nonpayable",
      "type": "constructor"
    },
    {
      "anonymous": false,
      "inputs": [
        {
          "indexed": true,
          "internalType": "address",
          "name": "account",
          "type": "address"
        },
        {
          "indexed": true,
          "internalType": "address",
          "name": "operator",
          "type": "address"
        },
        {
          "indexed": false,
          "internalType": "bool",
          "name": "approved",
          "type": "bool"
        }
      ],
      "name": "ApprovalForAll",
      "type": "event"
    },
    {
      "anonymous": false,
      "inputs": [
        {
          "indexed": true,
          "internalType": "address",
          "name": "operator",
          "type": "address"
        },
        {
          "indexed": true,
          "internalType": "address",
          "name": "from",
          "type": "address"
        },
        {
          "indexed": true,
          "internalType": "address",
          "name": "to",
          "type": "address"
        },
        {
          "indexed": false,
          "internalType": "uint256[]",
          "name": "ids",
          "type": "uint256[]"
        },
        {
          "indexed": false,
          "internalType": "uint256[]",
          "name": "values",
          "type": "uint256[]"
        }
      ],
      "name": "TransferBatch",
      "type": "event"
    },
    {
      "anonymous": false,
      "inputs": [
        {
          "indexed": true,
          "internalType": "address",
          "name": "operator",
          "type": "address"
        },
        {
          "indexed": true,
          "internalType": "address",
          "name": "from",
          "type": "address"
        },
        {
          "indexed": true,
          "internalType": "address",
          "name": "to",
          "type": "address"
        },
        {
          "indexed": false,
          "internalType": "uint256",
          "name": "id",
          "type": "uint256"
        },
        {
          "indexed": false,
          "internalType": "uint256",
          "name": "value",
          "type": "uint256"
        }
      ],
      "name": "TransferSingle",
      "type": "event"
    },
    {
      "anonymous": false,
      "inputs": [
        {
          "indexed": false,
          "internalType": "string",
          "name": "value",
          "type": "string"
        },
        {
          "indexed": true,
          "internalType": "uint256",
          "name": "id",
          "type": "uint256"
        }
      ],
      "name": "URI",
      "type": "event"
    },
    {
      "inputs": [
        {
          "internalType": "address",
          "name": "account",
          "type": "address"
        },
        {
          "internalType": "uint256",
          "name": "id",
          "type": "uint256"
        }
      ],
      "name": "balanceOf",
      "outputs": [
        {
          "internalType": "uint256",
          "name": "",
          "type": "uint256"
        }
      ],
      "stateMutability": "view",
      "type": "function"
    },
    {
      "inputs": [
        {
          "internalType": "address[]",
          "name": "accounts",
          "type": "address[]"
        },
        {
          "internalType": "uint256[]",
          "name": "ids",
          "type": "uint256[]"
        }
      ],
      "name": "balanceOfBatch",
      "outputs": [
        {
          "internalType": "uint256[]",
          "name": "",
          "type": "uint256[]"
        }
      ],
      "stateMutability": "view",
      "type": "function"
    },
    {
      "inputs": [
        {
          "internalType": "uint256",
          "name": "id",
          "type": "uint256"
        },
        {
          "internalType": "uint256",
          "name": "amount",
          "type": "uint256"
        }
      ],
      "name": "burn",
      "outputs": [
        {
          "internalType": "uint256",
          "name": "",
          "type": "uint256"
        }
      ],
      "stateMutability": "nonpayable",
      "type": "function"
    },
    {
      "inputs": [],
      "name": "chef",
      "outputs": [
        {
          "internalType": "contract IMasterChef",
          "name": "",
          "type": "address"
        }
      ],
      "stateMutability": "view",
      "type": "function"
    },
    {
      "inputs": [
        {
          "internalType": "uint256",
          "name": "id",
          "type": "uint256"
        }
      ],
      "name": "decodeId",
      "outputs": [
        {
          "internalType": "uint256",
          "name": "pid",
          "type": "uint256"
        },
        {
          "internalType": "uint256",
          "name": "sushiPerShare",
          "type": "uint256"
        }
      ],
      "stateMutability": "pure",
      "type": "function"
    },
    {
      "inputs": [
        {
          "internalType": "uint256",
          "name": "pid",
          "type": "uint256"
        },
        {
          "internalType": "uint256",
          "name": "sushiPerShare",
          "type": "uint256"
        }
      ],
      "name": "encodeId",
      "outputs": [
        {
          "internalType": "uint256",
          "name": "id",
          "type": "uint256"
        }
      ],
      "stateMutability": "pure",
      "type": "function"
    },
    {
      "inputs": [
        {
          "internalType": "uint256",
          "name": "",
          "type": "uint256"
        }
      ],
      "name": "getUnderlyingRate",
      "outputs": [
        {
          "internalType": "uint256",
          "name": "",
          "type": "uint256"
        }
      ],
      "stateMutability": "view",
      "type": "function"
    },
    {
      "inputs": [
        {
          "internalType": "uint256",
          "name": "id",
          "type": "uint256"
        }
      ],
      "name": "getUnderlyingToken",
      "outputs": [
        {
          "internalType": "address",
          "name": "",
          "type": "address"
        }
      ],
      "stateMutability": "view",
      "type": "function"
    },
    {
      "inputs": [
        {
          "internalType": "address",
          "name": "account",
          "type": "address"
        },
        {
          "internalType": "address",
          "name": "operator",
          "type": "address"
        }
      ],
      "name": "isApprovedForAll",
      "outputs": [
        {
          "internalType": "bool",
          "name": "",
          "type": "bool"
        }
      ],
      "stateMutability": "view",
      "type": "function"
    },
    {
      "inputs": [
        {
          "internalType": "uint256",
          "name": "pid",
          "type": "uint256"
        },
        {
          "internalType": "uint256",
          "name": "amount",
          "type": "uint256"
        }
      ],
      "name": "mint",
      "outputs": [
        {
          "internalType": "uint256",
          "name": "",
          "type": "uint256"
        }
      ],
      "stateMutability": "nonpayable",
      "type": "function"
    },
    {
      "inputs": [
        {
          "internalType": "address",
          "name": "from",
          "type": "address"
        },
        {
          "internalType": "address",
          "name": "to",
          "type": "address"
        },
        {
          "internalType": "uint256[]",
          "name": "ids",
          "type": "uint256[]"
        },
        {
          "internalType": "uint256[]",
          "name": "amounts",
          "type": "uint256[]"
        },
        {
          "internalType": "bytes",
          "name": "data",
          "type": "bytes"
        }
      ],
      "name": "safeBatchTransferFrom",
      "outputs": [],
      "stateMutability": "nonpayable",
      "type": "function"
    },
    {
      "inputs": [
        {
          "internalType": "address",
          "name": "from",
          "type": "address"
        },
        {
          "internalType": "address",
          "name": "to",
          "type": "address"
        },
        {
          "internalType": "uint256",
          "name": "id",
          "type": "uint256"
        },
        {
          "internalType": "uint256",
          "name": "amount",
          "type": "uint256"
        },
        {
          "internalType": "bytes",
          "name": "data",
          "type": "bytes"
        }
      ],
      "name": "safeTransferFrom",
      "outputs": [],
      "stateMutability": "nonpayable",
      "type": "function"
    },
    {
      "inputs": [
        {
          "internalType": "address",
          "name": "operator",
          "type": "address"
        },
        {
          "internalType": "bool",
          "name": "approved",
          "type": "bool"
        }
      ],
      "name": "setApprovalForAll",
      "outputs": [],
      "stateMutability": "nonpayable",
      "type": "function"
    },
    {
      "inputs": [
        {
          "internalType": "bytes4",
          "name": "interfaceId",
          "type": "bytes4"
        }
      ],
      "name": "supportsInterface",
      "outputs": [
        {
          "internalType": "bool",
          "name": "",
          "type": "bool"
        }
      ],
      "stateMutability": "view",
      "type": "function"
    },
    {
      "inputs": [],
      "name": "sushi",
      "outputs": [
        {
          "internalType": "contract IERC20",
          "name": "",
          "type": "address"
        }
      ],
      "stateMutability": "view",
      "type": "function"
    },
    {
      "inputs": [
        {
          "internalType": "uint256",
          "name": "",
          "type": "uint256"
        }
      ],
      "name": "uri",
      "outputs": [
        {
          "internalType": "string",
          "name": "",
          "type": "string"
        }
      ],
      "stateMutability": "view",
      "type": "function"
    }
  ],
  "bytecode": "0x60c06040523480156200001157600080fd5b5060405162003e8e38038062003e8e833981810160405260208110156200003757600080fd5b81019080805190602001909291905050506040518060400160405280600b81526020017f574d617374657243686566000000000000000000000000000000000000000000815250620000966301ffc9a760e01b620001d860201b60201c565b620000a781620002e160201b60201c565b620000bf63d9b67a2660e01b620001d860201b60201c565b620000d7630e89341c60e01b620001d860201b60201c565b5060016004819055508073ffffffffffffffffffffffffffffffffffffffff1660808173ffffffffffffffffffffffffffffffffffffffff1660601b815250508073ffffffffffffffffffffffffffffffffffffffff16630a0879036040518163ffffffff1660e01b815260040160206040518083038186803b1580156200015e57600080fd5b505afa15801562000173573d6000803e3d6000fd5b505050506040513d60208110156200018a57600080fd5b810190808051906020019092919050505073ffffffffffffffffffffffffffffffffffffffff1660a08173ffffffffffffffffffffffffffffffffffffffff1660601b8152505050620003a3565b63ffffffff60e01b817bffffffffffffffffffffffffffffffffffffffffffffffffffffffff1916141562000275576040517f08c379a000000000000000000000000000000000000000000000000000000000815260040180806020018281038252601c8152602001807f4552433136353a20696e76616c696420696e746572666163652069640000000081525060200191505060405180910390fd5b6001600080837bffffffffffffffffffffffffffffffffffffffffffffffffffffffff19167bffffffffffffffffffffffffffffffffffffffffffffffffffffffff1916815260200190815260200160002060006101000a81548160ff02191690831515021790555050565b8060039080519060200190620002f9929190620002fd565b5050565b828054600181600116156101000203166002900490600052602060002090601f016020900481019282601f106200034057805160ff191683800117855562000371565b8280016001018555821562000371579182015b828111156200037057825182559160200191906001019062000353565b5b50905062000380919062000384565b5090565b5b808211156200039f57600081600090555060010162000385565b5090565b60805160601c60a05160601c613a94620003fa60003980610b855280611d3a525080610cd25280610e0c5280610ed75280610f405280610fd552806110e152806119695280611b2e5280611bc45250613a946000f3fe608060405234801561001057600080fd5b50600436106100ff5760003560e01c80634e1273f411610097578063b390c0ab11610066578063b390c0ab1461081e578063dc20c6fa1461086a578063e985e9c5146108b3578063f242432a1461092d576100ff565b80634e1273f414610593578063a22cb46514610734578063a477577214610784578063af8002df146107dc576100ff565b80631b2ef1ca116100d35780631b2ef1ca146102a45780631fc8bc5d146102f057806329f2b5bd146103245780632eb2c2d614610370576100ff565b8062fdd58e1461010457806301ffc9a7146101665780630a087903146101c95780630e89341c146101fd575b600080fd5b6101506004803603604081101561011a57600080fd5b81019080803573ffffffffffffffffffffffffffffffffffffffff16906020019092919080359060200190929190505050610a3c565b6040518082815260200191505060405180910390f35b6101b16004803603602081101561017c57600080fd5b8101908080357bffffffffffffffffffffffffffffffffffffffffffffffffffffffff19169060200190929190505050610b1c565b60405180821515815260200191505060405180910390f35b6101d1610b83565b604051808273ffffffffffffffffffffffffffffffffffffffff16815260200191505060405180910390f35b6102296004803603602081101561021357600080fd5b8101908080359060200190929190505050610ba7565b6040518080602001828103825283818151815260200191508051906020019080838360005b8381101561026957808201518184015260208101905061024e565b50505050905090810190601f1680156102965780820380516001836020036101000a031916815260200191505b509250505060405180910390f35b6102da600480360360408110156102ba57600080fd5b810190808035906020019092919080359060200190929190505050610c4b565b6040518082815260200191505060405180910390f35b6102f86110df565b604051808273ffffffffffffffffffffffffffffffffffffffff16815260200191505060405180910390f35b61035a6004803603604081101561033a57600080fd5b810190808035906020019092919080359060200190929190505050611103565b6040518082815260200191505060405180910390f35b610591600480360360a081101561038657600080fd5b81019080803573ffffffffffffffffffffffffffffffffffffffff169060200190929190803573ffffffffffffffffffffffffffffffffffffffff169060200190929190803590602001906401000000008111156103e357600080fd5b8201836020820111156103f557600080fd5b8035906020019184602083028401116401000000008311171561041757600080fd5b919080806020026020016040519081016040528093929190818152602001838360200280828437600081840152601f19601f8201169050808301925050505050505091929192908035906020019064010000000081111561047757600080fd5b82018360208201111561048957600080fd5b803590602001918460208302840111640100000000831117156104ab57600080fd5b919080806020026020016040519081016040528093929190818152602001838360200280828437600081840152601f19601f8201169050808301925050505050505091929192908035906020019064010000000081111561050b57600080fd5b82018360208201111561051d57600080fd5b8035906020019184600183028401116401000000008311171561053f57600080fd5b91908080601f016020809104026020016040519081016040528093929190818152602001838380828437600081840152601f19601f820116905080830192505050505050509192919290505050611220565b005b6106dd600480360360408110156105a957600080fd5b81019080803590602001906401000000008111156105c657600080fd5b8201836020820111156105d857600080fd5b803590602001918460208302840111640100000000831117156105fa57600080fd5b919080806020026020016040519081016040528093929190818152602001838360200280828437600081840152601f19601f8201169050808301925050505050505091929192908035906020019064010000000081111561065a57600080fd5b82018360208201111561066c57600080fd5b8035906020019184602083028401116401000000008311171561068e57600080fd5b919080806020026020016040519081016040528093929190818152602001838360200280828437600081840152601f19601f8201169050808301925050505050505091929192905050506116ab565b6040518080602001828103825283818151815260200191508051906020019060200280838360005b83811015610720578082015181840152602081019050610705565b505050509050019250505060405180910390f35b6107826004803603604081101561074a57600080fd5b81019080803573ffffffffffffffffffffffffffffffffffffffff1690602001909291908035151590602001909291905050506117bd565b005b6107b06004803603602081101561079a57600080fd5b8101908080359060200190929190505050611956565b604051808273ffffffffffffffffffffffffffffffffffffffff16815260200191505060405180910390f35b610808600480360360208110156107f257600080fd5b8101908080359060200190929190505050611a40565b6040518082815260200191505060405180910390f35b6108546004803603604081101561083457600080fd5b810190808035906020019092919080359060200190929190505050611a59565b6040518082815260200191505060405180910390f35b6108966004803603602081101561088057600080fd5b8101908080359060200190929190505050611d96565b604051808381526020018281526020019250505060405180910390f35b610915600480360360408110156108c957600080fd5b81019080803573ffffffffffffffffffffffffffffffffffffffff169060200190929190803573ffffffffffffffffffffffffffffffffffffffff169060200190929190505050611dc8565b60405180821515815260200191505060405180910390f35b610a3a600480360360a081101561094357600080fd5b81019080803573ffffffffffffffffffffffffffffffffffffffff169060200190929190803573ffffffffffffffffffffffffffffffffffffffff1690602001909291908035906020019092919080359060200190929190803590602001906401000000008111156109b457600080fd5b8201836020820111156109c657600080fd5b803590602001918460018302840111640100000000831117156109e857600080fd5b91908080601f016020809104026020016040519081016040528093929190818152602001838380828437600081840152601f19601f820116905080830192505050505050509192919290505050611e5c565b005b60008073ffffffffffffffffffffffffffffffffffffffff168373ffffffffffffffffffffffffffffffffffffffff161415610ac3576040517f08c379a000000000000000000000000000000000000000000000000000000000815260040180806020018281038252602b815260200180613801602b913960400191505060405180910390fd5b6001600083815260200190815260200160002060008473ffffffffffffffffffffffffffffffffffffffff1673ffffffffffffffffffffffffffffffffffffffff16815260200190815260200160002054905092915050565b6000806000837bffffffffffffffffffffffffffffffffffffffffffffffffffffffff19167bffffffffffffffffffffffffffffffffffffffffffffffffffffffff1916815260200190815260200160002060009054906101000a900460ff169050919050565b7f000000000000000000000000000000000000000000000000000000000000000081565b606060038054600181600116156101000203166002900480601f016020809104026020016040519081016040528092919081815260200182805460018160011615610100020316600290048015610c3f5780601f10610c1457610100808354040283529160200191610c3f565b820191906000526020600020905b815481529060010190602001808311610c2257829003601f168201915b50505050509050919050565b600060026004541415610cc6576040517f08c379a000000000000000000000000000000000000000000000000000000000815260040180806020018281038252601f8152602001807f5265656e7472616e637947756172643a207265656e7472616e742063616c6c0081525060200191505060405180910390fd5b600260048190555060007f000000000000000000000000000000000000000000000000000000000000000073ffffffffffffffffffffffffffffffffffffffff16631526fe27856040518263ffffffff1660e01b81526004018082815260200191505060806040518083038186803b158015610d4157600080fd5b505afa158015610d55573d6000803e3d6000fd5b505050506040513d6080811015610d6b57600080fd5b81019080805190602001909291908051906020019092919080519060200190929190805190602001909291905050505050509050610dcc3330858473ffffffffffffffffffffffffffffffffffffffff166121d1909392919063ffffffff16565b7fffffffffffffffffffffffffffffffffffffffffffffffffffffffffffffffff8173ffffffffffffffffffffffffffffffffffffffff1663dd62ed3e307f00000000000000000000000000000000000000000000000000000000000000006040518363ffffffff1660e01b8152600401808373ffffffffffffffffffffffffffffffffffffffff1681526020018273ffffffffffffffffffffffffffffffffffffffff1681526020019250505060206040518083038186803b158015610e9257600080fd5b505afa158015610ea6573d6000803e3d6000fd5b505050506040513d6020811015610ebc57600080fd5b810190808051906020019092919050505014610f3e57610f3d7f00000000000000000000000000000000000000000000000000000000000000007fffffffffffffffffffffffffffffffffffffffffffffffffffffffffffffffff8373ffffffffffffffffffffffffffffffffffffffff166122929092919063ffffffff16565b5b7f000000000000000000000000000000000000000000000000000000000000000073ffffffffffffffffffffffffffffffffffffffff1663e2bbb15885856040518363ffffffff1660e01b81526004018083815260200182815260200192505050600060405180830381600087803b158015610fb957600080fd5b505af1158015610fcd573d6000803e3d6000fd5b5050505060007f000000000000000000000000000000000000000000000000000000000000000073ffffffffffffffffffffffffffffffffffffffff16631526fe27866040518263ffffffff1660e01b81526004018082815260200191505060806040518083038186803b15801561104457600080fd5b505afa158015611058573d6000803e3d6000fd5b505050506040513d608081101561106e57600080fd5b8101908080519060200190929190805190602001909291908051906020019092919080519060200190929190505050935050505060006110ae8683611103565b90506110cb33828760405180602001604052806000815250612457565b809350505050600160048190555092915050565b7f000000000000000000000000000000000000000000000000000000000000000081565b600062010000831061117d576040517f08c379a00000000000000000000000000000000000000000000000000000000081526004018080602001828103825260078152602001807f626164207069640000000000000000000000000000000000000000000000000081525060200191505060405180910390fd5b7e010000000000000000000000000000000000000000000000000000000000008210611211576040517f08c379a00000000000000000000000000000000000000000000000000000000081526004018080602001828103825260138152602001807f626164207375736869207065722073686172650000000000000000000000000081525060200191505060405180910390fd5b8160f084901b17905092915050565b815183511461127a576040517f08c379a00000000000000000000000000000000000000000000000000000000081526004018080602001828103825260288152602001806139e06028913960400191505060405180910390fd5b600073ffffffffffffffffffffffffffffffffffffffff168473ffffffffffffffffffffffffffffffffffffffff161415611300576040517f08c379a000000000000000000000000000000000000000000000000000000000815260040180806020018281038252602581526020018061389f6025913960400191505060405180910390fd5b61130861265a565b73ffffffffffffffffffffffffffffffffffffffff168573ffffffffffffffffffffffffffffffffffffffff16148061134e575061134d8561134861265a565b611dc8565b5b6113a3576040517f08c379a00000000000000000000000000000000000000000000000000000000081526004018080602001828103825260328152602001806138c46032913960400191505060405180910390fd5b60006113ad61265a565b90506113bd818787878787612662565b60005b845181101561158e5760008582815181106113d757fe5b6020026020010151905060008583815181106113ef57fe5b60200260200101519050611476816040518060600160405280602a8152602001613919602a91396001600086815260200190815260200160002060008d73ffffffffffffffffffffffffffffffffffffffff1673ffffffffffffffffffffffffffffffffffffffff1681526020019081526020016000205461266a9092919063ffffffff16565b6001600084815260200190815260200160002060008b73ffffffffffffffffffffffffffffffffffffffff1673ffffffffffffffffffffffffffffffffffffffff1681526020019081526020016000208190555061152d816001600085815260200190815260200160002060008b73ffffffffffffffffffffffffffffffffffffffff1673ffffffffffffffffffffffffffffffffffffffff1681526020019081526020016000205461272490919063ffffffff16565b6001600084815260200190815260200160002060008a73ffffffffffffffffffffffffffffffffffffffff1673ffffffffffffffffffffffffffffffffffffffff1681526020019081526020016000208190555050508060010190506113c0565b508473ffffffffffffffffffffffffffffffffffffffff168673ffffffffffffffffffffffffffffffffffffffff168273ffffffffffffffffffffffffffffffffffffffff167f4a39dc06d4c0dbc64b70af90fd698a233a518aa5d07e595d983b8c0526c8f7fb8787604051808060200180602001838103835285818151815260200191508051906020019060200280838360005b8381101561163e578082015181840152602081019050611623565b50505050905001838103825284818151815260200191508051906020019060200280838360005b83811015611680578082015181840152602081019050611665565b5050505090500194505050505060405180910390a46116a38187878787876127ac565b505050505050565b60608151835114611707576040517f08c379a00000000000000000000000000000000000000000000000000000000081526004018080602001828103825260298152602001806139b76029913960400191505060405180910390fd5b6060835167ffffffffffffffff8111801561172157600080fd5b506040519080825280602002602001820160405280156117505781602001602082028036833780820191505090505b50905060005b84518110156117b25761178f85828151811061176e57fe5b602002602001015185838151811061178257fe5b6020026020010151610a3c565b82828151811061179b57fe5b602002602001018181525050806001019050611756565b508091505092915050565b8173ffffffffffffffffffffffffffffffffffffffff166117dc61265a565b73ffffffffffffffffffffffffffffffffffffffff161415611849576040517f08c379a00000000000000000000000000000000000000000000000000000000081526004018080602001828103825260298152602001806139646029913960400191505060405180910390fd5b806002600061185661265a565b73ffffffffffffffffffffffffffffffffffffffff1673ffffffffffffffffffffffffffffffffffffffff16815260200190815260200160002060008473ffffffffffffffffffffffffffffffffffffffff1673ffffffffffffffffffffffffffffffffffffffff16815260200190815260200160002060006101000a81548160ff0219169083151502179055508173ffffffffffffffffffffffffffffffffffffffff1661190361265a565b73ffffffffffffffffffffffffffffffffffffffff167f17307eab39ab6107e8899845ad3d59bd9653f200f220920489ca2b5937696c318360405180821515815260200191505060405180910390a35050565b60008061196283611d96565b50905060007f000000000000000000000000000000000000000000000000000000000000000073ffffffffffffffffffffffffffffffffffffffff16631526fe27836040518263ffffffff1660e01b81526004018082815260200191505060806040518083038186803b1580156119d857600080fd5b505afa1580156119ec573d6000803e3d6000fd5b505050506040513d6080811015611a0257600080fd5b810190808051906020019092919080519060200190929190805190602001909291908051906020019092919050505050505090508092505050919050565b60006e0100000000000000000000000000009050919050565b600060026004541415611ad4576040517f08c379a000000000000000000000000000000000000000000000000000000000815260040180806020018281038252601f8152602001807f5265656e7472616e637947756172643a207265656e7472616e742063616c6c0081525060200191505060405180910390fd5b60026004819055507fffffffffffffffffffffffffffffffffffffffffffffffffffffffffffffffff821415611b1157611b0e3384610a3c565b91505b600080611b1d85611d96565b91509150611b2c338686612b3b565b7f000000000000000000000000000000000000000000000000000000000000000073ffffffffffffffffffffffffffffffffffffffff1663441a3e7083866040518363ffffffff1660e01b81526004018083815260200182815260200192505050600060405180830381600087803b158015611ba757600080fd5b505af1158015611bbb573d6000803e3d6000fd5b505050506000807f000000000000000000000000000000000000000000000000000000000000000073ffffffffffffffffffffffffffffffffffffffff16631526fe27856040518263ffffffff1660e01b81526004018082815260200191505060806040518083038186803b158015611c3357600080fd5b505afa158015611c47573d6000803e3d6000fd5b505050506040513d6080811015611c5d57600080fd5b8101908080519060200190929190805190602001909291908051906020019092919080519060200190929190505050935050509150611cbd33878473ffffffffffffffffffffffffffffffffffffffff16612d579092919063ffffffff16565b6000611ce964e8d4a51000611cdb8987612df990919063ffffffff16565b612e7f90919063ffffffff16565b90506000611d1764e8d4a51000611d098a86612df990919063ffffffff16565b612eb890919063ffffffff16565b905081811115611d7f57611d7e33611d388484612f4190919063ffffffff16565b7f000000000000000000000000000000000000000000000000000000000000000073ffffffffffffffffffffffffffffffffffffffff16612d579092919063ffffffff16565b5b859650505050505050600160048190555092915050565b60008060f083901c91507dffffffffffffffffffffffffffffffffffffffffffffffffffffffffffff83169050915091565b6000600260008473ffffffffffffffffffffffffffffffffffffffff1673ffffffffffffffffffffffffffffffffffffffff16815260200190815260200160002060008373ffffffffffffffffffffffffffffffffffffffff1673ffffffffffffffffffffffffffffffffffffffff16815260200190815260200160002060009054906101000a900460ff16905092915050565b600073ffffffffffffffffffffffffffffffffffffffff168473ffffffffffffffffffffffffffffffffffffffff161415611ee2576040517f08c379a000000000000000000000000000000000000000000000000000000000815260040180806020018281038252602581526020018061389f6025913960400191505060405180910390fd5b611eea61265a565b73ffffffffffffffffffffffffffffffffffffffff168573ffffffffffffffffffffffffffffffffffffffff161480611f305750611f2f85611f2a61265a565b611dc8565b5b611f85576040517f08c379a00000000000000000000000000000000000000000000000000000000081526004018080602001828103825260298152602001806138506029913960400191505060405180910390fd5b6000611f8f61265a565b9050611faf818787611fa088612fc4565b611fa988612fc4565b87612662565b61202c836040518060600160405280602a8152602001613919602a91396001600088815260200190815260200160002060008a73ffffffffffffffffffffffffffffffffffffffff1673ffffffffffffffffffffffffffffffffffffffff1681526020019081526020016000205461266a9092919063ffffffff16565b6001600086815260200190815260200160002060008873ffffffffffffffffffffffffffffffffffffffff1673ffffffffffffffffffffffffffffffffffffffff168152602001908152602001600020819055506120e3836001600087815260200190815260200160002060008873ffffffffffffffffffffffffffffffffffffffff1673ffffffffffffffffffffffffffffffffffffffff1681526020019081526020016000205461272490919063ffffffff16565b6001600086815260200190815260200160002060008773ffffffffffffffffffffffffffffffffffffffff1673ffffffffffffffffffffffffffffffffffffffff168152602001908152602001600020819055508473ffffffffffffffffffffffffffffffffffffffff168673ffffffffffffffffffffffffffffffffffffffff168273ffffffffffffffffffffffffffffffffffffffff167fc3d58168c5ae7397731d063d5bbf3d657854427343f4c083240f7aacaa2d0f628787604051808381526020018281526020019250505060405180910390a46121c9818787878787613034565b505050505050565b61228c846323b872dd60e01b858585604051602401808473ffffffffffffffffffffffffffffffffffffffff1681526020018373ffffffffffffffffffffffffffffffffffffffff1681526020018281526020019350505050604051602081830303815290604052907bffffffffffffffffffffffffffffffffffffffffffffffffffffffff19166020820180517bffffffffffffffffffffffffffffffffffffffffffffffffffffffff8381831617835250505050613341565b50505050565b6000811480612360575060008373ffffffffffffffffffffffffffffffffffffffff1663dd62ed3e30856040518363ffffffff1660e01b8152600401808373ffffffffffffffffffffffffffffffffffffffff1681526020018273ffffffffffffffffffffffffffffffffffffffff1681526020019250505060206040518083038186803b15801561232357600080fd5b505afa158015612337573d6000803e3d6000fd5b505050506040513d602081101561234d57600080fd5b8101908080519060200190929190505050145b6123b5576040517f08c379a0000000000000000000000000000000000000000000000000000000008152600401808060200182810382526036815260200180613a296036913960400191505060405180910390fd5b6124528363095ea7b360e01b8484604051602401808373ffffffffffffffffffffffffffffffffffffffff16815260200182815260200192505050604051602081830303815290604052907bffffffffffffffffffffffffffffffffffffffffffffffffffffffff19166020820180517bffffffffffffffffffffffffffffffffffffffffffffffffffffffff8381831617835250505050613341565b505050565b600073ffffffffffffffffffffffffffffffffffffffff168473ffffffffffffffffffffffffffffffffffffffff1614156124dd576040517f08c379a0000000000000000000000000000000000000000000000000000000008152600401808060200182810382526021815260200180613a086021913960400191505060405180910390fd5b60006124e761265a565b9050612508816000876124f988612fc4565b61250288612fc4565b87612662565b61256b836001600087815260200190815260200160002060008873ffffffffffffffffffffffffffffffffffffffff1673ffffffffffffffffffffffffffffffffffffffff1681526020019081526020016000205461272490919063ffffffff16565b6001600086815260200190815260200160002060008773ffffffffffffffffffffffffffffffffffffffff1673ffffffffffffffffffffffffffffffffffffffff168152602001908152602001600020819055508473ffffffffffffffffffffffffffffffffffffffff16600073ffffffffffffffffffffffffffffffffffffffff168273ffffffffffffffffffffffffffffffffffffffff167fc3d58168c5ae7397731d063d5bbf3d657854427343f4c083240f7aacaa2d0f628787604051808381526020018281526020019250505060405180910390a461265381600087878787613034565b5050505050565b600033905090565b505050505050565b6000838311158290612717576040517f08c379a00000000000000000000000000000000000000000000000000000000081526004018080602001828103825283818151815260200191508051906020019080838360005b838110156126dc5780820151818401526020810190506126c1565b50505050905090810190601f1680156127095780820380516001836020036101000a031916815260200191505b509250505060405180910390fd5b5082840390509392505050565b6000808284019050838110156127a2576040517f08c379a000000000000000000000000000000000000000000000000000000000815260040180806020018281038252601b8152602001807f536166654d6174683a206164646974696f6e206f766572666c6f77000000000081525060200191505060405180910390fd5b8091505092915050565b6127cb8473ffffffffffffffffffffffffffffffffffffffff16613430565b15612b33578373ffffffffffffffffffffffffffffffffffffffff1663bc197c8187878686866040518663ffffffff1660e01b8152600401808673ffffffffffffffffffffffffffffffffffffffff1681526020018573ffffffffffffffffffffffffffffffffffffffff168152602001806020018060200180602001848103845287818151815260200191508051906020019060200280838360005b83811015612883578082015181840152602081019050612868565b50505050905001848103835286818151815260200191508051906020019060200280838360005b838110156128c55780820151818401526020810190506128aa565b50505050905001848103825285818151815260200191508051906020019080838360005b838110156129045780820151818401526020810190506128e9565b50505050905090810190601f1680156129315780820380516001836020036101000a031916815260200191505b5098505050505050505050602060405180830381600087803b15801561295657600080fd5b505af192505050801561298a57506040513d602081101561297657600080fd5b810190808051906020019092919050505060015b612a94576129966136ee565b806129a15750612a43565b806040517f08c379a00000000000000000000000000000000000000000000000000000000081526004018080602001828103825283818151815260200191508051906020019080838360005b83811015612a085780820151818401526020810190506129ed565b50505050905090810190601f168015612a355780820380516001836020036101000a031916815260200191505b509250505060405180910390fd5b6040517f08c379a00000000000000000000000000000000000000000000000000000000081526004018080602001828103825260348152602001806137a56034913960400191505060405180910390fd5b63bc197c8160e01b7bffffffffffffffffffffffffffffffffffffffffffffffffffffffff1916817bffffffffffffffffffffffffffffffffffffffffffffffffffffffff191614612b31576040517f08c379a00000000000000000000000000000000000000000000000000000000081526004018080602001828103825260288152602001806137d96028913960400191505060405180910390fd5b505b505050505050565b600073ffffffffffffffffffffffffffffffffffffffff168373ffffffffffffffffffffffffffffffffffffffff161415612bc1576040517f08c379a00000000000000000000000000000000000000000000000000000000081526004018080602001828103825260238152602001806138f66023913960400191505060405180910390fd5b6000612bcb61265a565b9050612bfb81856000612bdd87612fc4565b612be687612fc4565b60405180602001604052806000815250612662565b612c788260405180606001604052806024815260200161382c602491396001600087815260200190815260200160002060008873ffffffffffffffffffffffffffffffffffffffff1673ffffffffffffffffffffffffffffffffffffffff1681526020019081526020016000205461266a9092919063ffffffff16565b6001600085815260200190815260200160002060008673ffffffffffffffffffffffffffffffffffffffff1673ffffffffffffffffffffffffffffffffffffffff16815260200190815260200160002081905550600073ffffffffffffffffffffffffffffffffffffffff168473ffffffffffffffffffffffffffffffffffffffff168273ffffffffffffffffffffffffffffffffffffffff167fc3d58168c5ae7397731d063d5bbf3d657854427343f4c083240f7aacaa2d0f628686604051808381526020018281526020019250505060405180910390a450505050565b612df48363a9059cbb60e01b8484604051602401808373ffffffffffffffffffffffffffffffffffffffff16815260200182815260200192505050604051602081830303815290604052907bffffffffffffffffffffffffffffffffffffffffffffffffffffffff19166020820180517bffffffffffffffffffffffffffffffffffffffffffffffffffffffff8381831617835250505050613341565b505050565b600080831415612e0c5760009050612e79565b6000828402905082848281612e1d57fe5b0414612e74576040517f08c379a00000000000000000000000000000000000000000000000000000000081526004018080602001828103825260218152602001806139436021913960400191505060405180910390fd5b809150505b92915050565b600081612ea86001612e9a858761272490919063ffffffff16565b612f4190919063ffffffff16565b81612eaf57fe5b04905092915050565b6000808211612f2f576040517f08c379a000000000000000000000000000000000000000000000000000000000815260040180806020018281038252601a8152602001807f536166654d6174683a206469766973696f6e206279207a65726f00000000000081525060200191505060405180910390fd5b818381612f3857fe5b04905092915050565b600082821115612fb9576040517f08c379a000000000000000000000000000000000000000000000000000000000815260040180806020018281038252601e8152602001807f536166654d6174683a207375627472616374696f6e206f766572666c6f77000081525060200191505060405180910390fd5b818303905092915050565b606080600167ffffffffffffffff81118015612fdf57600080fd5b5060405190808252806020026020018201604052801561300e5781602001602082028036833780820191505090505b509050828160008151811061301f57fe5b60200260200101818152505080915050919050565b6130538473ffffffffffffffffffffffffffffffffffffffff16613430565b15613339578373ffffffffffffffffffffffffffffffffffffffff1663f23a6e6187878686866040518663ffffffff1660e01b8152600401808673ffffffffffffffffffffffffffffffffffffffff1681526020018573ffffffffffffffffffffffffffffffffffffffff16815260200184815260200183815260200180602001828103825283818151815260200191508051906020019080838360005b8381101561310c5780820151818401526020810190506130f1565b50505050905090810190601f1680156131395780820380516001836020036101000a031916815260200191505b509650505050505050602060405180830381600087803b15801561315c57600080fd5b505af192505050801561319057506040513d602081101561317c57600080fd5b810190808051906020019092919050505060015b61329a5761319c6136ee565b806131a75750613249565b806040517f08c379a00000000000000000000000000000000000000000000000000000000081526004018080602001828103825283818151815260200191508051906020019080838360005b8381101561320e5780820151818401526020810190506131f3565b50505050905090810190601f16801561323b5780820380516001836020036101000a031916815260200191505b509250505060405180910390fd5b6040517f08c379a00000000000000000000000000000000000000000000000000000000081526004018080602001828103825260348152602001806137a56034913960400191505060405180910390fd5b63f23a6e6160e01b7bffffffffffffffffffffffffffffffffffffffffffffffffffffffff1916817bffffffffffffffffffffffffffffffffffffffffffffffffffffffff191614613337576040517f08c379a00000000000000000000000000000000000000000000000000000000081526004018080602001828103825260288152602001806137d96028913960400191505060405180910390fd5b505b505050505050565b60606133a3826040518060400160405280602081526020017f5361666545524332303a206c6f772d6c6576656c2063616c6c206661696c65648152508573ffffffffffffffffffffffffffffffffffffffff166134439092919063ffffffff16565b905060008151111561342b578080602001905160208110156133c457600080fd5b810190808051906020019092919050505061342a576040517f08c379a000000000000000000000000000000000000000000000000000000000815260040180806020018281038252602a81526020018061398d602a913960400191505060405180910390fd5b5b505050565b600080823b905060008111915050919050565b6060613452848460008561345b565b90509392505050565b6060824710156134b6576040517f08c379a00000000000000000000000000000000000000000000000000000000081526004018080602001828103825260268152602001806138796026913960400191505060405180910390fd5b6134bf85613430565b613531576040517f08c379a000000000000000000000000000000000000000000000000000000000815260040180806020018281038252601d8152602001807f416464726573733a2063616c6c20746f206e6f6e2d636f6e747261637400000081525060200191505060405180910390fd5b600060608673ffffffffffffffffffffffffffffffffffffffff1685876040518082805190602001908083835b60208310613581578051825260208201915060208101905060208303925061355e565b6001836020036101000a03801982511681845116808217855250505050505090500191505060006040518083038185875af1925050503d80600081146135e3576040519150601f19603f3d011682016040523d82523d6000602084013e6135e8565b606091505b50915091506135f8828286613604565b92505050949350505050565b60608315613614578290506136c9565b6000835111156136275782518084602001fd5b816040517f08c379a00000000000000000000000000000000000000000000000000000000081526004018080602001828103825283818151815260200191508051906020019080838360005b8381101561368e578082015181840152602081019050613673565b50505050905090810190601f1680156136bb5780820380516001836020036101000a031916815260200191505b509250505060405180910390fd5b9392505050565b6000601f19601f8301169050919050565b60008160e01c9050919050565b600060443d10156136fe576137a1565b60046000803e61370f6000516136e1565b6308c379a0811461372057506137a1565b60405160043d036004823e80513d602482011167ffffffffffffffff8211171561374c575050506137a1565b808201805167ffffffffffffffff81111561376b5750505050506137a1565b8060208301013d8501811115613786575050505050506137a1565b61378f826136d0565b60208401016040528296505050505050505b9056fe455243313135353a207472616e7366657220746f206e6f6e2045524331313535526563656976657220696d706c656d656e746572455243313135353a204552433131353552656365697665722072656a656374656420746f6b656e73455243313135353a2062616c616e636520717565727920666f7220746865207a65726f2061646472657373455243313135353a206275726e20616d6f756e7420657863656564732062616c616e6365455243313135353a2063616c6c6572206973206e6f74206f776e6572206e6f7220617070726f766564416464726573733a20696e73756666696369656e742062616c616e636520666f722063616c6c455243313135353a207472616e7366657220746f20746865207a65726f2061646472657373455243313135353a207472616e736665722063616c6c6572206973206e6f74206f776e6572206e6f7220617070726f766564455243313135353a206275726e2066726f6d20746865207a65726f2061646472657373455243313135353a20696e73756666696369656e742062616c616e636520666f72207472616e73666572536166654d6174683a206d756c7469706c69636174696f6e206f766572666c6f77455243313135353a2073657474696e6720617070726f76616c2073746174757320666f722073656c665361666545524332303a204552433230206f7065726174696f6e20646964206e6f742073756363656564455243313135353a206163636f756e747320616e6420696473206c656e677468206d69736d61746368455243313135353a2069647320616e6420616d6f756e7473206c656e677468206d69736d61746368455243313135353a206d696e7420746f20746865207a65726f20616464726573735361666545524332303a20617070726f76652066726f6d206e6f6e2d7a65726f20746f206e6f6e2d7a65726f20616c6c6f77616e6365a2646970667358221220f4b930c11f960ca25634c34c299d8c38321e020b15d30825d7a6ee4ec44a74a364736f6c634300060c0033",
  "linkReferences": {},
  "deployedLinkReferences": {}
}