{
  "_format": "hh-sol-artifact-1",
  "contractName": "BalancerPairOracle",
  "sourceName": "contracts/oracle/BalancerPairOracle.sol",
  "abi": [
    {
      "inputs": [
        {
          "internalType": "contract IBaseOracle",
          "name": "_base",
          "type": "address"
        }
      ],
      "stateMutability": "nonpayable",
      "type": "constructor"
    },
    {
      "inputs": [],
      "name": "BONE",
      "outputs": [
        {
          "internalType": "uint256",
          "name": "",
          "type": "uint256"
        }
      ],
      "stateMutability": "view",
      "type": "function"
    },
    {
      "inputs": [],
      "name": "BPOW_PRECISION",
      "outputs": [
        {
          "internalType": "uint256",
          "name": "",
          "type": "uint256"
        }
      ],
      "stateMutability": "view",
      "type": "function"
    },
    {
      "inputs": [],
      "name": "EXIT_FEE",
      "outputs": [
        {
          "internalType": "uint256",
          "name": "",
          "type": "uint256"
        }
      ],
      "stateMutability": "view",
      "type": "function"
    },
    {
      "inputs": [],
      "name": "INIT_POOL_SUPPLY",
      "outputs": [
        {
          "internalType": "uint256",
          "name": "",
          "type": "uint256"
        }
      ],
      "stateMutability": "view",
      "type": "function"
    },
    {
      "inputs": [],
      "name": "MAX_BOUND_TOKENS",
      "outputs": [
        {
          "internalType": "uint256",
          "name": "",
          "type": "uint256"
        }
      ],
      "stateMutability": "view",
      "type": "function"
    },
    {
      "inputs": [],
      "name": "MAX_BPOW_BASE",
      "outputs": [
        {
          "internalType": "uint256",
          "name": "",
          "type": "uint256"
        }
      ],
      "stateMutability": "view",
      "type": "function"
    },
    {
      "inputs": [],
      "name": "MAX_FEE",
      "outputs": [
        {
          "internalType": "uint256",
          "name": "",
          "type": "uint256"
        }
      ],
      "stateMutability": "view",
      "type": "function"
    },
    {
      "inputs": [],
      "name": "MAX_IN_RATIO",
      "outputs": [
        {
          "internalType": "uint256",
          "name": "",
          "type": "uint256"
        }
      ],
      "stateMutability": "view",
      "type": "function"
    },
    {
      "inputs": [],
      "name": "MAX_OUT_RATIO",
      "outputs": [
        {
          "internalType": "uint256",
          "name": "",
          "type": "uint256"
        }
      ],
      "stateMutability": "view",
      "type": "function"
    },
    {
      "inputs": [],
      "name": "MAX_TOTAL_WEIGHT",
      "outputs": [
        {
          "internalType": "uint256",
          "name": "",
          "type": "uint256"
        }
      ],
      "stateMutability": "view",
      "type": "function"
    },
    {
      "inputs": [],
      "name": "MAX_WEIGHT",
      "outputs": [
        {
          "internalType": "uint256",
          "name": "",
          "type": "uint256"
        }
      ],
      "stateMutability": "view",
      "type": "function"
    },
    {
      "inputs": [],
      "name": "MIN_BALANCE",
      "outputs": [
        {
          "internalType": "uint256",
          "name": "",
          "type": "uint256"
        }
      ],
      "stateMutability": "view",
      "type": "function"
    },
    {
      "inputs": [],
      "name": "MIN_BOUND_TOKENS",
      "outputs": [
        {
          "internalType": "uint256",
          "name": "",
          "type": "uint256"
        }
      ],
      "stateMutability": "view",
      "type": "function"
    },
    {
      "inputs": [],
      "name": "MIN_BPOW_BASE",
      "outputs": [
        {
          "internalType": "uint256",
          "name": "",
          "type": "uint256"
        }
      ],
      "stateMutability": "view",
      "type": "function"
    },
    {
      "inputs": [],
      "name": "MIN_FEE",
      "outputs": [
        {
          "internalType": "uint256",
          "name": "",
          "type": "uint256"
        }
      ],
      "stateMutability": "view",
      "type": "function"
    },
    {
      "inputs": [],
      "name": "MIN_WEIGHT",
      "outputs": [
        {
          "internalType": "uint256",
          "name": "",
          "type": "uint256"
        }
      ],
      "stateMutability": "view",
      "type": "function"
    },
    {
      "inputs": [],
      "name": "base",
      "outputs": [
        {
          "internalType": "contract IBaseOracle",
          "name": "",
          "type": "address"
        }
      ],
      "stateMutability": "view",
      "type": "function"
    },
    {
      "inputs": [
        {
          "internalType": "address",
          "name": "token",
          "type": "address"
        }
      ],
      "name": "getETHPx",
      "outputs": [
        {
          "internalType": "uint256",
          "name": "",
          "type": "uint256"
        }
      ],
      "stateMutability": "view",
      "type": "function"
    }
  ],
  "bytecode": "0x60a060405234801561001057600080fd5b506040516116b83803806116b88339818101604052602081101561003357600080fd5b8101908080519060200190929190505050808073ffffffffffffffffffffffffffffffffffffffff1660808173ffffffffffffffffffffffffffffffffffffffff1660601b81525050505060805160601c6116136100a5600039806103be528061068b528061075152506116136000f3fe608060405234801561001057600080fd5b50600436106101165760003560e01c8063b0e0d136116100a2578063bc694ea211610071578063bc694ea2146102f1578063c36596a61461030f578063c6580d121461032d578063e4a28a521461034b578063ec0930211461036957610116565b8063b0e0d13614610279578063b7b800a414610297578063ba019dab146102b5578063bc063e1a146102d357610116565b806376c7a3c7116100e957806376c7a3c7146101a9578063867378c5146101c75780639381cd2b146101e5578063992e2a9214610203578063ab9aadfe1461022157610116565b806309a3bbe41461011b578063189d00ca14610139578063218b5382146101575780635001f3b514610175575b600080fd5b610123610387565b6040518082815260200191505060405180910390f35b610141610396565b6040518082815260200191505060405180910390f35b61015f6103b0565b6040518082815260200191505060405180910390f35b61017d6103bc565b604051808273ffffffffffffffffffffffffffffffffffffffff16815260200191505060405180910390f35b6101b16103e0565b6040518082815260200191505060405180910390f35b6101cf6103f8565b6040518082815260200191505060405180910390f35b6101ed610412565b6040518082815260200191505060405180910390f35b61020b610421565b6040518082815260200191505060405180910390f35b6102636004803603602081101561023757600080fd5b81019080803573ffffffffffffffffffffffffffffffffffffffff16906020019092919050505061043a565b6040518082815260200191505060405180910390f35b610281610b84565b6040518082815260200191505060405180910390f35b61029f610b89565b6040518082815260200191505060405180910390f35b6102bd610b8e565b6040518082815260200191505060405180910390f35b6102db610b93565b6040518082815260200191505060405180910390f35b6102f9610ba9565b6040518082815260200191505060405180910390f35b610317610bbb565b6040518082815260200191505060405180910390f35b610335610bc7565b6040518082815260200191505060405180910390f35b610353610bcc565b6040518082815260200191505060405180910390f35b610371610bdb565b6040518082815260200191505060405180910390f35b6032670de0b6b3a76400000281565b6402540be400670de0b6b3a7640000816103ac57fe5b0481565b670de0b6b3a764000081565b7f000000000000000000000000000000000000000000000000000000000000000081565b620f4240670de0b6b3a7640000816103f457fe5b0481565b64e8d4a51000670de0b6b3a76400008161040e57fe5b0481565b6064670de0b6b3a76400000281565b60016003670de0b6b3a76400008161043557fe5b040181565b60008082905060028173ffffffffffffffffffffffffffffffffffffffff1663cd2ed8fb6040518163ffffffff1660e01b815260040160206040518083038186803b15801561048857600080fd5b505afa15801561049c573d6000803e3d6000fd5b505050506040513d60208110156104b257600080fd5b810190808051906020019092919050505014610536576040517f08c379a00000000000000000000000000000000000000000000000000000000081526004018080602001828103825260148152602001807f6e756d20746f6b656e73206d757374206265203200000000000000000000000081525060200191505060405180910390fd5b60608173ffffffffffffffffffffffffffffffffffffffff1663be3bbd2e6040518163ffffffff1660e01b815260040160006040518083038186803b15801561057e57600080fd5b505afa158015610592573d6000803e3d6000fd5b505050506040513d6000823e3d601f19601f8201168201806040525060208110156105bc57600080fd5b81019080805160405193929190846401000000008211156105dc57600080fd5b838201915060208201858111156105f257600080fd5b825186602082028301116401000000008211171561060f57600080fd5b8083526020830192505050908051906020019060200280838360005b8381101561064657808201518184015260208101905061062b565b50505050905001604052505050905060008160008151811061066457fe5b6020026020010151905060008260018151811061067d57fe5b6020026020010151905060007f000000000000000000000000000000000000000000000000000000000000000073ffffffffffffffffffffffffffffffffffffffff1663ab9aadfe846040518263ffffffff1660e01b8152600401808273ffffffffffffffffffffffffffffffffffffffff16815260200191505060206040518083038186803b15801561071057600080fd5b505afa158015610724573d6000803e3d6000fd5b505050506040513d602081101561073a57600080fd5b8101908080519060200190929190505050905060007f000000000000000000000000000000000000000000000000000000000000000073ffffffffffffffffffffffffffffffffffffffff1663ab9aadfe846040518263ffffffff1660e01b8152600401808273ffffffffffffffffffffffffffffffffffffffff16815260200191505060206040518083038186803b1580156107d657600080fd5b505afa1580156107ea573d6000803e3d6000fd5b505050506040513d602081101561080057600080fd5b81019080805190602001909291905050509050600080610aa88873ffffffffffffffffffffffffffffffffffffffff1663f8b2cb4f886040518263ffffffff1660e01b8152600401808273ffffffffffffffffffffffffffffffffffffffff16815260200191505060206040518083038186803b15801561088057600080fd5b505afa158015610894573d6000803e3d6000fd5b505050506040513d60208110156108aa57600080fd5b81019080805190602001909291905050508973ffffffffffffffffffffffffffffffffffffffff1663f8b2cb4f886040518263ffffffff1660e01b8152600401808273ffffffffffffffffffffffffffffffffffffffff16815260200191505060206040518083038186803b15801561092257600080fd5b505afa158015610936573d6000803e3d6000fd5b505050506040513d602081101561094c57600080fd5b81019080805190602001909291905050508a73ffffffffffffffffffffffffffffffffffffffff1663f1b8a9b78a6040518263ffffffff1660e01b8152600401808273ffffffffffffffffffffffffffffffffffffffff16815260200191505060206040518083038186803b1580156109c457600080fd5b505afa1580156109d8573d6000803e3d6000fd5b505050506040513d60208110156109ee57600080fd5b81019080805190602001909291905050508b73ffffffffffffffffffffffffffffffffffffffff1663f1b8a9b78a6040518263ffffffff1660e01b8152600401808273ffffffffffffffffffffffffffffffffffffffff16815260200191505060206040518083038186803b158015610a6657600080fd5b505afa158015610a7a573d6000803e3d6000fd5b505050506040513d6020811015610a9057600080fd5b81019080805190602001909291905050508888610bf1565b91509150610b758873ffffffffffffffffffffffffffffffffffffffff166318160ddd6040518163ffffffff1660e01b815260040160206040518083038186803b158015610af557600080fd5b505afa158015610b09573d6000803e3d6000fd5b505050506040513d6020811015610b1f57600080fd5b8101908080519060200190929190505050610b67610b468685610caf90919063ffffffff16565b610b598887610caf90919063ffffffff16565b610d3590919063ffffffff16565b610dbd90919063ffffffff16565b98505050505050505050919050565b600881565b600281565b600181565b600a670de0b6b3a764000081610ba557fe5b0481565b6001670de0b6b3a76400006002020381565b670de0b6b3a764000081565b600081565b6032670de0b6b3a76400000281565b6002670de0b6b3a764000081610bed57fe5b0481565b6000806000610c008989610e46565b90506000610c20610c118987610fff565b610c1b8989610fff565b610e46565b905080821115610c68576000610c368284610e46565b9050610c4b8b610c46838b611141565b610fff565b9450610c608a610c5b838c611141565b610e46565b935050610ca2565b6000610c748383610e46565b9050610c898b610c84838b611141565b610e46565b9450610c9e8a610c99838c611141565b610fff565b9350505b5050965096945050505050565b600080831415610cc25760009050610d2f565b6000828402905082848281610cd357fe5b0414610d2a576040517f08c379a00000000000000000000000000000000000000000000000000000000081526004018080602001828103825260218152602001806115bd6021913960400191505060405180910390fd5b809150505b92915050565b600080828401905083811015610db3576040517f08c379a000000000000000000000000000000000000000000000000000000000815260040180806020018281038252601b8152602001807f536166654d6174683a206164646974696f6e206f766572666c6f77000000000081525060200191505060405180910390fd5b8091505092915050565b6000808211610e34576040517f08c379a000000000000000000000000000000000000000000000000000000000815260040180806020018281038252601a8152602001807f536166654d6174683a206469766973696f6e206279207a65726f00000000000081525060200191505060405180910390fd5b818381610e3d57fe5b04905092915050565b600080821415610ebe576040517f08c379a000000000000000000000000000000000000000000000000000000000815260040180806020018281038252600c8152602001807f4552525f4449565f5a45524f000000000000000000000000000000000000000081525060200191505060405180910390fd5b6000670de0b6b3a7640000840290506000841480610eec5750670de0b6b3a7640000848281610ee957fe5b04145b610f5e576040517f08c379a00000000000000000000000000000000000000000000000000000000081526004018080602001828103825260108152602001807f4552525f4449565f494e5445524e414c0000000000000000000000000000000081525060200191505060405180910390fd5b600060028481610f6a57fe5b048201905081811015610fe5576040517f08c379a00000000000000000000000000000000000000000000000000000000081526004018080602001828103825260108152602001807f4552525f4449565f494e5445524e414c0000000000000000000000000000000081525060200191505060405180910390fd5b6000848281610ff057fe5b04905080935050505092915050565b6000808284029050600084148061101e57508284828161101b57fe5b04145b611090576040517f08c379a00000000000000000000000000000000000000000000000000000000081526004018080602001828103825260108152602001807f4552525f4d554c5f4f564552464c4f570000000000000000000000000000000081525060200191505060405180910390fd5b60006002670de0b6b3a7640000816110a457fe5b04820190508181101561111f576040517f08c379a00000000000000000000000000000000000000000000000000000000081526004018080602001828103825260108152602001807f4552525f4d554c5f4f564552464c4f570000000000000000000000000000000081525060200191505060405180910390fd5b6000670de0b6b3a7640000828161113257fe5b04905080935050505092915050565b600060018310156111ba576040517f08c379a00000000000000000000000000000000000000000000000000000000081526004018080602001828103825260158152602001807f4552525f42504f575f424153455f544f4f5f4c4f57000000000000000000000081525060200191505060405180910390fd5b6001670de0b6b3a76400006002020383111561123e576040517f08c379a00000000000000000000000000000000000000000000000000000000081526004018080602001828103825260168152602001807f4552525f42504f575f424153455f544f4f5f484947480000000000000000000081525060200191505060405180910390fd5b6000611249836112bf565b9050600061125784836112db565b9050600061126d866112688561136d565b611388565b90506000821415611283578093505050506112b9565b60006112a687846402540be400670de0b6b3a7640000816112a057fe5b0461140d565b90506112b28282610fff565b9450505050505b92915050565b6000670de0b6b3a76400006112d38361136d565b029050919050565b60008060006112ea858561150b565b915091508015611362576040517f08c379a00000000000000000000000000000000000000000000000000000000081526004018080602001828103825260118152602001807f4552525f5355425f554e444552464c4f5700000000000000000000000000000081525060200191505060405180910390fd5b819250505092915050565b6000670de0b6b3a7640000828161138057fe5b049050919050565b60008060006002848161139757fe5b0614156113ac57670de0b6b3a76400006113ae565b835b9050600283816113ba57fe5b0492505b60008314611403576113d08485610fff565b93506000600284816113de57fe5b06146113f1576113ee8185610fff565b90505b600283816113fb57fe5b0492506113be565b8091505092915050565b60008083905060008061142887670de0b6b3a764000061150b565b915091506000670de0b6b3a764000090506000819050600080600190505b8884106114fa576000670de0b6b3a76400008202905060008061147a8a61147585670de0b6b3a76400006112db565b61150b565b915091506114918761148c848c610fff565b610fff565b965061149d8784610e46565b965060008714156114b0575050506114fa565b87156114bb57841594505b80156114c657841594505b84156114dd576114d686886112db565b95506114ea565b6114e78688611534565b95505b5050508080600101915050611446565b508196505050505050509392505050565b6000808284106115235782840360009150915061152d565b8383036001915091505b9250929050565b6000808284019050838110156115b2576040517f08c379a00000000000000000000000000000000000000000000000000000000081526004018080602001828103825260108152602001807f4552525f4144445f4f564552464c4f570000000000000000000000000000000081525060200191505060405180910390fd5b809150509291505056fe536166654d6174683a206d756c7469706c69636174696f6e206f766572666c6f77a264697066735822122015fa5837da89c2b55e93181e8e64c54ebcb036730c1a18e5b614f5dfb9cd5e6864736f6c634300060c0033",
  "linkReferences": {},
  "deployedLinkReferences": {}
}