{
  "_format": "hh-sol-artifact-1",
  "contractName": "BalancerSpellV1",
  "sourceName": "contracts/spell/BalancerSpellV1.sol",
  "abi": [
    {
      "inputs": [
        {
          "internalType": "contract IBank",
          "name": "_bank",
          "type": "address"
        },
        {
          "internalType": "address",
          "name": "_werc20",
          "type": "address"
        },
        {
          "internalType": "address",
          "name": "_weth",
          "type": "address"
        }
      ],
      "stateMutability": "nonpayable",
      "type": "constructor"
    },
    {
      "anonymous": false,
      "inputs": [
        {
          "indexed": false,
          "internalType": "address",
          "name": "governor",
          "type": "address"
        }
      ],
      "name": "AcceptGovernor",
      "type": "event"
    },
    {
      "anonymous": false,
      "inputs": [
        {
          "indexed": false,
          "internalType": "address",
          "name": "governor",
          "type": "address"
        }
      ],
      "name": "SetGovernor",
      "type": "event"
    },
    {
      "anonymous": false,
      "inputs": [
        {
          "indexed": false,
          "internalType": "address",
          "name": "pendingGovernor",
          "type": "address"
        }
      ],
      "name": "SetPendingGovernor",
      "type": "event"
    },
    {
      "inputs": [],
      "name": "acceptGovernor",
      "outputs": [],
      "stateMutability": "nonpayable",
      "type": "function"
    },
    {
      "inputs": [
        {
          "internalType": "address",
          "name": "lp",
          "type": "address"
        },
        {
          "components": [
            {
              "internalType": "uint256",
              "name": "amtAUser",
              "type": "uint256"
            },
            {
              "internalType": "uint256",
              "name": "amtBUser",
              "type": "uint256"
            },
            {
              "internalType": "uint256",
              "name": "amtLPUser",
              "type": "uint256"
            },
            {
              "internalType": "uint256",
              "name": "amtABorrow",
              "type": "uint256"
            },
            {
              "internalType": "uint256",
              "name": "amtBBorrow",
              "type": "uint256"
            },
            {
              "internalType": "uint256",
              "name": "amtLPBorrow",
              "type": "uint256"
            },
            {
              "internalType": "uint256",
              "name": "amtLPDesired",
              "type": "uint256"
            }
          ],
          "internalType": "struct BalancerSpellV1.Amounts",
          "name": "amt",
          "type": "tuple"
        }
      ],
      "name": "addLiquidityWERC20",
      "outputs": [],
      "stateMutability": "payable",
      "type": "function"
    },
    {
      "inputs": [
        {
          "internalType": "address",
          "name": "lp",
          "type": "address"
        },
        {
          "components": [
            {
              "internalType": "uint256",
              "name": "amtAUser",
              "type": "uint256"
            },
            {
              "internalType": "uint256",
              "name": "amtBUser",
              "type": "uint256"
            },
            {
              "internalType": "uint256",
              "name": "amtLPUser",
              "type": "uint256"
            },
            {
              "internalType": "uint256",
              "name": "amtABorrow",
              "type": "uint256"
            },
            {
              "internalType": "uint256",
              "name": "amtBBorrow",
              "type": "uint256"
            },
            {
              "internalType": "uint256",
              "name": "amtLPBorrow",
              "type": "uint256"
            },
            {
              "internalType": "uint256",
              "name": "amtLPDesired",
              "type": "uint256"
            }
          ],
          "internalType": "struct BalancerSpellV1.Amounts",
          "name": "amt",
          "type": "tuple"
        },
        {
          "internalType": "address",
          "name": "wstaking",
          "type": "address"
        }
      ],
      "name": "addLiquidityWStakingRewards",
      "outputs": [],
      "stateMutability": "payable",
      "type": "function"
    },
    {
      "inputs": [
        {
          "internalType": "address",
          "name": "",
          "type": "address"
        },
        {
          "internalType": "address",
          "name": "",
          "type": "address"
        }
      ],
      "name": "approved",
      "outputs": [
        {
          "internalType": "bool",
          "name": "",
          "type": "bool"
        }
      ],
      "stateMutability": "view",
      "type": "function"
    },
    {
      "inputs": [],
      "name": "bank",
      "outputs": [
        {
          "internalType": "contract IBank",
          "name": "",
          "type": "address"
        }
      ],
      "stateMutability": "view",
      "type": "function"
    },
    {
      "inputs": [
        {
          "internalType": "address",
          "name": "lp",
          "type": "address"
        }
      ],
      "name": "getAndApprovePair",
      "outputs": [
        {
          "internalType": "address",
          "name": "",
          "type": "address"
        },
        {
          "internalType": "address",
          "name": "",
          "type": "address"
        }
      ],
      "stateMutability": "nonpayable",
      "type": "function"
    },
    {
      "inputs": [],
      "name": "governor",
      "outputs": [
        {
          "internalType": "address",
          "name": "",
          "type": "address"
        }
      ],
      "stateMutability": "view",
      "type": "function"
    },
    {
      "inputs": [
        {
          "internalType": "address",
          "name": "wstaking",
          "type": "address"
        }
      ],
      "name": "harvestWStakingRewards",
      "outputs": [],
      "stateMutability": "nonpayable",
      "type": "function"
    },
    {
      "inputs": [
        {
          "internalType": "address",
          "name": "",
          "type": "address"
        },
        {
          "internalType": "address",
          "name": "",
          "type": "address"
        },
        {
          "internalType": "uint256[]",
          "name": "",
          "type": "uint256[]"
        },
        {
          "internalType": "uint256[]",
          "name": "",
          "type": "uint256[]"
        },
        {
          "internalType": "bytes",
          "name": "",
          "type": "bytes"
        }
      ],
      "name": "onERC1155BatchReceived",
      "outputs": [
        {
          "internalType": "bytes4",
          "name": "",
          "type": "bytes4"
        }
      ],
      "stateMutability": "nonpayable",
      "type": "function"
    },
    {
      "inputs": [
        {
          "internalType": "address",
          "name": "",
          "type": "address"
        },
        {
          "internalType": "address",
          "name": "",
          "type": "address"
        },
        {
          "internalType": "uint256",
          "name": "",
          "type": "uint256"
        },
        {
          "internalType": "uint256",
          "name": "",
          "type": "uint256"
        },
        {
          "internalType": "bytes",
          "name": "",
          "type": "bytes"
        }
      ],
      "name": "onERC1155Received",
      "outputs": [
        {
          "internalType": "bytes4",
          "name": "",
          "type": "bytes4"
        }
      ],
      "stateMutability": "nonpayable",
      "type": "function"
    },
    {
      "inputs": [
        {
          "internalType": "address",
          "name": "",
          "type": "address"
        },
        {
          "internalType": "uint256",
          "name": "",
          "type": "uint256"
        }
      ],
      "name": "pairs",
      "outputs": [
        {
          "internalType": "address",
          "name": "",
          "type": "address"
        }
      ],
      "stateMutability": "view",
      "type": "function"
    },
    {
      "inputs": [],
      "name": "pendingGovernor",
      "outputs": [
        {
          "internalType": "address",
          "name": "",
          "type": "address"
        }
      ],
      "stateMutability": "view",
      "type": "function"
    },
    {
      "inputs": [
        {
          "internalType": "address",
          "name": "lp",
          "type": "address"
        },
        {
          "components": [
            {
              "internalType": "uint256",
              "name": "amtLPTake",
              "type": "uint256"
            },
            {
              "internalType": "uint256",
              "name": "amtLPWithdraw",
              "type": "uint256"
            },
            {
              "internalType": "uint256",
              "name": "amtARepay",
              "type": "uint256"
            },
            {
              "internalType": "uint256",
              "name": "amtBRepay",
              "type": "uint256"
            },
            {
              "internalType": "uint256",
              "name": "amtLPRepay",
              "type": "uint256"
            },
            {
              "internalType": "uint256",
              "name": "amtAMin",
              "type": "uint256"
            },
            {
              "internalType": "uint256",
              "name": "amtBMin",
              "type": "uint256"
            }
          ],
          "internalType": "struct BalancerSpellV1.RepayAmounts",
          "name": "amt",
          "type": "tuple"
        }
      ],
      "name": "removeLiquidityWERC20",
      "outputs": [],
      "stateMutability": "nonpayable",
      "type": "function"
    },
    {
      "inputs": [
        {
          "internalType": "address",
          "name": "lp",
          "type": "address"
        },
        {
          "components": [
            {
              "internalType": "uint256",
              "name": "amtLPTake",
              "type": "uint256"
            },
            {
              "internalType": "uint256",
              "name": "amtLPWithdraw",
              "type": "uint256"
            },
            {
              "internalType": "uint256",
              "name": "amtARepay",
              "type": "uint256"
            },
            {
              "internalType": "uint256",
              "name": "amtBRepay",
              "type": "uint256"
            },
            {
              "internalType": "uint256",
              "name": "amtLPRepay",
              "type": "uint256"
            },
            {
              "internalType": "uint256",
              "name": "amtAMin",
              "type": "uint256"
            },
            {
              "internalType": "uint256",
              "name": "amtBMin",
              "type": "uint256"
            }
          ],
          "internalType": "struct BalancerSpellV1.RepayAmounts",
          "name": "amt",
          "type": "tuple"
        },
        {
          "internalType": "address",
          "name": "wstaking",
          "type": "address"
        }
      ],
      "name": "removeLiquidityWStakingRewards",
      "outputs": [],
      "stateMutability": "nonpayable",
      "type": "function"
    },
    {
      "inputs": [
        {
          "internalType": "address",
          "name": "_pendingGovernor",
          "type": "address"
        }
      ],
      "name": "setPendingGovernor",
      "outputs": [],
      "stateMutability": "nonpayable",
      "type": "function"
    },
    {
      "inputs": [
        {
          "internalType": "address[]",
          "name": "lpTokens",
          "type": "address[]"
        },
        {
          "internalType": "bool[]",
          "name": "statuses",
          "type": "bool[]"
        }
      ],
      "name": "setWhitelistLPTokens",
      "outputs": [],
      "stateMutability": "nonpayable",
      "type": "function"
    },
    {
      "inputs": [
        {
          "internalType": "bytes4",
          "name": "interfaceId",
          "type": "bytes4"
        }
      ],
      "name": "supportsInterface",
      "outputs": [
        {
          "internalType": "bool",
          "name": "",
          "type": "bool"
        }
      ],
      "stateMutability": "view",
      "type": "function"
    },
    {
      "inputs": [],
      "name": "werc20",
      "outputs": [
        {
          "internalType": "contract IWERC20",
          "name": "",
          "type": "address"
        }
      ],
      "stateMutability": "view",
      "type": "function"
    },
    {
      "inputs": [],
      "name": "weth",
      "outputs": [
        {
          "internalType": "address",
          "name": "",
          "type": "address"
        }
      ],
      "stateMutability": "view",
      "type": "function"
    },
    {
      "inputs": [
        {
          "internalType": "address",
          "name": "",
          "type": "address"
        }
      ],
      "name": "whitelistedLpTokens",
      "outputs": [
        {
          "internalType": "bool",
          "name": "",
          "type": "bool"
        }
      ],
      "stateMutability": "view",
      "type": "function"
    },
    {
      "stateMutability": "payable",
      "type": "receive"
    }
  ],
  "bytecode": "0x60e06040523480156200001157600080fd5b5060405162006f1938038062006f19833981810160405281019062000037919062000a83565b828282828282620000556301ffc9a760e01b620001be60201b60201c565b6200007663bc197c8160e01b63f23a6e6160e01b18620001be60201b60201c565b8273ffffffffffffffffffffffffffffffffffffffff1660808173ffffffffffffffffffffffffffffffffffffffff1660601b815250508173ffffffffffffffffffffffffffffffffffffffff1660a08173ffffffffffffffffffffffffffffffffffffffff1660601b815250508073ffffffffffffffffffffffffffffffffffffffff1660c08173ffffffffffffffffffffffffffffffffffffffff1660601b815250506200012d81846200029660201b60201c565b8173ffffffffffffffffffffffffffffffffffffffff1663a22cb4658460016040518363ffffffff1660e01b81526004016200016b92919062000e48565b600060405180830381600087803b1580156200018657600080fd5b505af11580156200019b573d6000803e3d6000fd5b50505050505050620001b26200041160201b60201c565b5050505050506200110d565b63ffffffff60e01b817bffffffffffffffffffffffffffffffffffffffffffffffffffffffff191614156200022a576040517f08c379a0000000000000000000000000000000000000000000000000000000008152600401620002219062000ec6565b60405180910390fd5b6001600080837bffffffffffffffffffffffffffffffffffffffffffffffffffffffff19167bffffffffffffffffffffffffffffffffffffffffffffffffffffffff1916815260200190815260200160002060006101000a81548160ff02191690831515021790555050565b604160008373ffffffffffffffffffffffffffffffffffffffff1673ffffffffffffffffffffffffffffffffffffffff16815260200190815260200160002060008273ffffffffffffffffffffffffffffffffffffffff1673ffffffffffffffffffffffffffffffffffffffff16815260200190815260200160002060009054906101000a900460ff166200040d5762000377817fffffffffffffffffffffffffffffffffffffffffffffffffffffffffffffffff8473ffffffffffffffffffffffffffffffffffffffff16620005c960201b620020be179092919060201c565b6001604160008473ffffffffffffffffffffffffffffffffffffffff1673ffffffffffffffffffffffffffffffffffffffff16815260200190815260200160002060008373ffffffffffffffffffffffffffffffffffffffff1673ffffffffffffffffffffffffffffffffffffffff16815260200190815260200160002060006101000a81548160ff0219169083151502179055505b5050565b604260019054906101000a900460ff1680620004395750620004386200073b60201b60201c565b5b80620004525750604260009054906101000a900460ff16155b62000494576040517f08c379a00000000000000000000000000000000000000000000000000000000081526004016200048b9062000f0a565b60405180910390fd5b6000604260019054906101000a900460ff161590508015620004e7576001604260016101000a81548160ff0219169083151502179055506001604260006101000a81548160ff0219169083151502179055505b33604260026101000a81548173ffffffffffffffffffffffffffffffffffffffff021916908373ffffffffffffffffffffffffffffffffffffffff1602179055506000604360006101000a81548173ffffffffffffffffffffffffffffffffffffffff021916908373ffffffffffffffffffffffffffffffffffffffff1602179055507fbce074c8369e26e70e1ae2f14fc944da352cfe6f52e2de9572f0c9942a24b7fc336040516200059b919062000dfe565b60405180910390a18015620005c6576000604260016101000a81548160ff0219169083151502179055505b50565b600081148062000669575060008373ffffffffffffffffffffffffffffffffffffffff1663dd62ed3e30856040518363ffffffff1660e01b81526004016200061392919062000e1b565b60206040518083038186803b1580156200062c57600080fd5b505afa15801562000641573d6000803e3d6000fd5b505050506040513d601f19601f8201168201806040525081019062000667919062000ad9565b145b620006ab576040517f08c379a0000000000000000000000000000000000000000000000000000000008152600401620006a29062000f70565b60405180910390fd5b620007368363095ea7b360e01b8484604051602401620006cd92919062000e75565b604051602081830303815290604052907bffffffffffffffffffffffffffffffffffffffffffffffffffffffff19166020820180517bffffffffffffffffffffffffffffffffffffffffffffffffffffffff83818316178352505050506200075960201b60201c565b505050565b600062000753306200082d60201b6200221c1760201c565b15905090565b6060620007c2826040518060400160405280602081526020017f5361666545524332303a206c6f772d6c6576656c2063616c6c206661696c65648152508573ffffffffffffffffffffffffffffffffffffffff166200084060201b6200222f179092919060201c565b9050600081511115620008285780806020019051810190620007e5919062000a57565b62000827576040517f08c379a00000000000000000000000000000000000000000000000000000000081526004016200081e9062000f4e565b60405180910390fd5b5b505050565b600080823b905060008111915050919050565b60606200085784846000856200086060201b60201c565b90509392505050565b606082471015620008a8576040517f08c379a00000000000000000000000000000000000000000000000000000000081526004016200089f9062000ee8565b60405180910390fd5b620008b9856200082d60201b60201c565b620008fb576040517f08c379a0000000000000000000000000000000000000000000000000000000008152600401620008f29062000f2c565b60405180910390fd5b600060608673ffffffffffffffffffffffffffffffffffffffff16858760405162000927919062000de5565b60006040518083038185875af1925050503d806000811462000966576040519150601f19603f3d011682016040523d82523d6000602084013e6200096b565b606091505b5091509150620009838282866200098f60201b60201c565b92505050949350505050565b60608315620009a157829050620009f4565b600083511115620009b55782518084602001fd5b816040517f08c379a0000000000000000000000000000000000000000000000000000000008152600401620009eb919062000ea2565b60405180910390fd5b9392505050565b60008151905062000a0c81620010a5565b92915050565b60008151905062000a2381620010bf565b92915050565b60008151905062000a3a81620010d9565b92915050565b60008151905062000a5181620010f3565b92915050565b60006020828403121562000a6a57600080fd5b600062000a7a8482850162000a12565b91505092915050565b60008060006060848603121562000a9957600080fd5b600062000aa98682870162000a29565b935050602062000abc86828701620009fb565b925050604062000acf86828701620009fb565b9150509250925092565b60006020828403121562000aec57600080fd5b600062000afc8482850162000a40565b91505092915050565b62000b108162001022565b82525050565b62000b218162000fc4565b82525050565b62000b328162000fd8565b82525050565b600062000b458262000f92565b62000b51818562000fa8565b935062000b638185602086016200105e565b80840191505092915050565b600062000b7c8262000f9d565b62000b88818562000fb3565b935062000b9a8185602086016200105e565b62000ba58162001094565b840191505092915050565b600062000bbf601c8362000fb3565b91507f4552433136353a20696e76616c696420696e74657266616365206964000000006000830152602082019050919050565b600062000c0160268362000fb3565b91507f416464726573733a20696e73756666696369656e742062616c616e636520666f60008301527f722063616c6c00000000000000000000000000000000000000000000000000006020830152604082019050919050565b600062000c69602e8362000fb3565b91507f496e697469616c697a61626c653a20636f6e747261637420697320616c72656160008301527f647920696e697469616c697a65640000000000000000000000000000000000006020830152604082019050919050565b600062000cd1601d8362000fb3565b91507f416464726573733a2063616c6c20746f206e6f6e2d636f6e74726163740000006000830152602082019050919050565b600062000d13602a8362000fb3565b91507f5361666545524332303a204552433230206f7065726174696f6e20646964206e60008301527f6f742073756363656564000000000000000000000000000000000000000000006020830152604082019050919050565b600062000d7b60368362000fb3565b91507f5361666545524332303a20617070726f76652066726f6d206e6f6e2d7a65726f60008301527f20746f206e6f6e2d7a65726f20616c6c6f77616e6365000000000000000000006020830152604082019050919050565b62000ddf8162001018565b82525050565b600062000df3828462000b38565b915081905092915050565b600060208201905062000e15600083018462000b05565b92915050565b600060408201905062000e32600083018562000b16565b62000e41602083018462000b16565b9392505050565b600060408201905062000e5f600083018562000b16565b62000e6e602083018462000b27565b9392505050565b600060408201905062000e8c600083018562000b16565b62000e9b602083018462000dd4565b9392505050565b6000602082019050818103600083015262000ebe818462000b6f565b905092915050565b6000602082019050818103600083015262000ee18162000bb0565b9050919050565b6000602082019050818103600083015262000f038162000bf2565b9050919050565b6000602082019050818103600083015262000f258162000c5a565b9050919050565b6000602082019050818103600083015262000f478162000cc2565b9050919050565b6000602082019050818103600083015262000f698162000d04565b9050919050565b6000602082019050818103600083015262000f8b8162000d6c565b9050919050565b600081519050919050565b600081519050919050565b600081905092915050565b600082825260208201905092915050565b600062000fd18262000ff8565b9050919050565b60008115159050919050565b600062000ff18262000fc4565b9050919050565b600073ffffffffffffffffffffffffffffffffffffffff82169050919050565b6000819050919050565b60006200102f8262001036565b9050919050565b600062001043826200104a565b9050919050565b6000620010578262000ff8565b9050919050565b60005b838110156200107e57808201518184015260208101905062001061565b838111156200108e576000848401525b50505050565b6000601f19601f8301169050919050565b620010b08162000fc4565b8114620010bc57600080fd5b50565b620010ca8162000fd8565b8114620010d657600080fd5b50565b620010e48162000fe4565b8114620010f057600080fd5b50565b620010fe8162001018565b81146200110a57600080fd5b50565b60805160601c60a05160601c60c05160601c615d31620011e86000398061012a52806109ab5280613870528061392652806142df5250806113885280613c655280613cee5280613d8d5280613db35280613e7c5250806109d25280610bfd5280610e805280610fc252806111ca52806113ac52806113e052806115f25280611853528061190152806119745280611dbc528061245552806125d852806126a05280612778528061285052806139b35280613b7d5280613c295280613e40528061421e5280614244528061436c52806144075250615d316000f3fe6080604052600436106101235760003560e01c806377e902b3116100a0578063e58bb63911610064578063e58bb63914610479578063ee42c6f414610490578063f235757f146104b9578063f23a6e61146104e2578063f4b160451461051f576101b8565b806377e902b3146103b0578063a6a4258c146103cc578063a9afb570146103f5578063bc197c8114610411578063e3056a341461044e576101b8565b806345174f18116100e757806345174f18146102cb5780634bab09f6146102f45780634f6d7dab146103315780635741229c1461035a57806376cdb03b14610385576101b8565b806301ffc9a7146101bd57806303d40513146101fa578063061ff4c4146102375780630c340a24146102755780633fc8cef3146102a0576101b8565b366101b8577f000000000000000000000000000000000000000000000000000000000000000073ffffffffffffffffffffffffffffffffffffffff163373ffffffffffffffffffffffffffffffffffffffff16146101b6576040517f08c379a00000000000000000000000000000000000000000000000000000000081526004016101ad906158fa565b60405180910390fd5b005b600080fd5b3480156101c957600080fd5b506101e460048036038101906101df9190614dc1565b61055c565b6040516101f1919061570c565b60405180910390f35b34801561020657600080fd5b50610221600480360381019061021c9190614c7d565b6105c3565b60405161022e9190615571565b60405180910390f35b34801561024357600080fd5b5061025e60048036038101906102599190614912565b610605565b60405161026c9291906155d0565b60405180910390f35b34801561028157600080fd5b5061028a610983565b6040516102979190615571565b60405180910390f35b3480156102ac57600080fd5b506102b56109a9565b6040516102c29190615571565b60405180910390f35b3480156102d757600080fd5b506102f260048036038101906102ed9190614912565b6109cd565b005b34801561030057600080fd5b5061031b60048036038101906103169190614912565b610f9d565b604051610328919061570c565b60405180910390f35b34801561033d57600080fd5b5061035860048036038101906103539190614c2c565b610fbd565b005b34801561036657600080fd5b5061036f611386565b60405161037c919061575d565b60405180910390f35b34801561039157600080fd5b5061039a6113aa565b6040516103a79190615742565b60405180910390f35b6103ca60048036038101906103c59190614b9e565b6113ce565b005b3480156103d857600080fd5b506103f360048036038101906103ee9190614bef565b611abf565b005b61040f600480360381019061040a9190614b61565b611adb565b005b34801561041d57600080fd5b50610438600480360381019061043391906149a0565b611b24565b6040516104459190615727565b60405180910390f35b34801561045a57600080fd5b50610463611b3c565b6040516104709190615571565b60405180910390f35b34801561048557600080fd5b5061048e611b62565b005b34801561049c57600080fd5b506104b760048036038101906104b29190614cb9565b611cae565b005b3480156104c557600080fd5b506104e060048036038101906104db9190614912565b611f6e565b005b3480156104ee57600080fd5b5061050960048036038101906105049190614acf565b612079565b6040516105169190615727565b60405180910390f35b34801561052b57600080fd5b5061054660048036038101906105419190614964565b61208f565b604051610553919061570c565b60405180910390f35b6000806000837bffffffffffffffffffffffffffffffffffffffffffffffffffffffff19167bffffffffffffffffffffffffffffffffffffffffffffffffffffffff1916815260200190815260200160002060009054906101000a900460ff169050919050565b608560205281600052604060002081600281106105dc57fe5b016000915091509054906101000a900473ffffffffffffffffffffffffffffffffffffffff1681565b6000806106106145c4565b608560008573ffffffffffffffffffffffffffffffffffffffff1673ffffffffffffffffffffffffffffffffffffffff1681526020019081526020016000206002806020026040519081016040528092919082600280156106bc576020028201915b8160009054906101000a900473ffffffffffffffffffffffffffffffffffffffff1673ffffffffffffffffffffffffffffffffffffffff1681526020019060010190808311610672575b50505050509050600073ffffffffffffffffffffffffffffffffffffffff16816000600281106106e857fe5b602002015173ffffffffffffffffffffffffffffffffffffffff16148061074c5750600073ffffffffffffffffffffffffffffffffffffffff168160016002811061072f57fe5b602002015173ffffffffffffffffffffffffffffffffffffffff16145b156109555760608473ffffffffffffffffffffffffffffffffffffffff1663be3bbd2e6040518163ffffffff1660e01b815260040160006040518083038186803b15801561079957600080fd5b505afa1580156107ad573d6000803e3d6000fd5b505050506040513d6000823e3d601f19601f820116820180604052508101906107d69190614d2e565b9050600281511461081c576040517f08c379a00000000000000000000000000000000000000000000000000000000081526004016108139061591a565b60405180910390fd5b8060008151811061082957fe5b60200260200101518260006002811061083e57fe5b602002019073ffffffffffffffffffffffffffffffffffffffff16908173ffffffffffffffffffffffffffffffffffffffff16815250508060018151811061088257fe5b60200260200101518260016002811061089757fe5b602002019073ffffffffffffffffffffffffffffffffffffffff16908173ffffffffffffffffffffffffffffffffffffffff168152505081608560008773ffffffffffffffffffffffffffffffffffffffff1673ffffffffffffffffffffffffffffffffffffffff16815260200190815260200160002090600261091c9291906145e6565b506109388260006002811061092d57fe5b602002015186612247565b6109538260016002811061094857fe5b602002015186612247565b505b8060006002811061096257fe5b60200201518160016002811061097457fe5b60200201519250925050915091565b604260029054906101000a900473ffffffffffffffffffffffffffffffffffffffff1681565b7f000000000000000000000000000000000000000000000000000000000000000081565b6000807f000000000000000000000000000000000000000000000000000000000000000073ffffffffffffffffffffffffffffffffffffffff1663f70aedd96040518163ffffffff1660e01b815260040160806040518083038186803b158015610a3657600080fd5b505afa158015610a4a573d6000803e3d6000fd5b505050506040513d601f19601f82011682018060405250810190610a6e9190614a6c565b50925092505060008373ffffffffffffffffffffffffffffffffffffffff1663a4775772836040518263ffffffff1660e01b8152600401610aaf91906159fa565b60206040518083038186803b158015610ac757600080fd5b505afa158015610adb573d6000803e3d6000fd5b505050506040513d601f19601f82011682018060405250810190610aff919061493b565b9050608460008273ffffffffffffffffffffffffffffffffffffffff1673ffffffffffffffffffffffffffffffffffffffff16815260200190815260200160002060009054906101000a900460ff16610b8d576040517f08c379a0000000000000000000000000000000000000000000000000000000008152600401610b84906158da565b60405180910390fd5b8373ffffffffffffffffffffffffffffffffffffffff168373ffffffffffffffffffffffffffffffffffffffff1614610bfb576040517f08c379a0000000000000000000000000000000000000000000000000000000008152600401610bf2906157ba565b60405180910390fd5b7f000000000000000000000000000000000000000000000000000000000000000073ffffffffffffffffffffffffffffffffffffffff166368eb4ba885847fffffffffffffffffffffffffffffffffffffffffffffffffffffffffffffffff6040518463ffffffff1660e01b8152600401610c78939291906156d5565b600060405180830381600087803b158015610c9257600080fd5b505af1158015610ca6573d6000803e3d6000fd5b505050508373ffffffffffffffffffffffffffffffffffffffff1663b390c0ab837fffffffffffffffffffffffffffffffffffffffffffffffffffffffffffffffff6040518363ffffffff1660e01b8152600401610d05929190615a6e565b602060405180830381600087803b158015610d1f57600080fd5b505af1158015610d33573d6000803e3d6000fd5b505050506040513d601f19601f82011682018060405250810190610d579190614dea565b5060008173ffffffffffffffffffffffffffffffffffffffff166370a08231306040518263ffffffff1660e01b8152600401610d93919061558c565b60206040518083038186803b158015610dab57600080fd5b505afa158015610dbf573d6000803e3d6000fd5b505050506040513d601f19601f82011682018060405250810190610de39190614dea565b9050610def8286612247565b60008573ffffffffffffffffffffffffffffffffffffffff1663a0712d68836040518263ffffffff1660e01b8152600401610e2a91906159fa565b602060405180830381600087803b158015610e4457600080fd5b505af1158015610e58573d6000803e3d6000fd5b505050506040513d601f19601f82011682018060405250810190610e7c9190614dea565b90507f000000000000000000000000000000000000000000000000000000000000000073ffffffffffffffffffffffffffffffffffffffff1663314568d98783856040518463ffffffff1660e01b8152600401610edb939291906156d5565b600060405180830381600087803b158015610ef557600080fd5b505af1158015610f09573d6000803e3d6000fd5b50505050610f958673ffffffffffffffffffffffffffffffffffffffff1663228cb7336040518163ffffffff1660e01b8152600401602060405180830381600087803b158015610f5857600080fd5b505af1158015610f6c573d6000803e3d6000fd5b505050506040513d601f19601f82011682018060405250810190610f90919061493b565b6123ba565b505050505050565b60846020528060005260406000206000915054906101000a900460ff1681565b6000807f000000000000000000000000000000000000000000000000000000000000000073ffffffffffffffffffffffffffffffffffffffff1663f70aedd96040518163ffffffff1660e01b815260040160806040518083038186803b15801561102657600080fd5b505afa15801561103a573d6000803e3d6000fd5b505050506040513d601f19601f8201168201806040525081019061105e9190614a6c565b5092509250508473ffffffffffffffffffffffffffffffffffffffff168273ffffffffffffffffffffffffffffffffffffffff1663a4775772836040518263ffffffff1660e01b81526004016110b491906159fa565b60206040518083038186803b1580156110cc57600080fd5b505afa1580156110e0573d6000803e3d6000fd5b505050506040513d601f19601f82011682018060405250810190611104919061493b565b73ffffffffffffffffffffffffffffffffffffffff161461115a576040517f08c379a00000000000000000000000000000000000000000000000000000000081526004016111519061597a565b60405180910390fd5b8273ffffffffffffffffffffffffffffffffffffffff168273ffffffffffffffffffffffffffffffffffffffff16146111c8576040517f08c379a00000000000000000000000000000000000000000000000000000000081526004016111bf906157ba565b60405180910390fd5b7f000000000000000000000000000000000000000000000000000000000000000073ffffffffffffffffffffffffffffffffffffffff166368eb4ba8848387600001356040518463ffffffff1660e01b8152600401611229939291906156d5565b600060405180830381600087803b15801561124357600080fd5b505af1158015611257573d6000803e3d6000fd5b505050508273ffffffffffffffffffffffffffffffffffffffff1663b390c0ab8286600001356040518363ffffffff1660e01b815260040161129a929190615a6e565b602060405180830381600087803b1580156112b457600080fd5b505af11580156112c8573d6000803e3d6000fd5b505050506040513d601f19601f820116820180604052508101906112ec9190614dea565b506112f7858561251d565b61137f8373ffffffffffffffffffffffffffffffffffffffff1663228cb7336040518163ffffffff1660e01b8152600401602060405180830381600087803b15801561134257600080fd5b505af1158015611356573d6000803e3d6000fd5b505050506040513d601f19601f8201168201806040525081019061137a919061493b565b6123ba565b5050505050565b7f000000000000000000000000000000000000000000000000000000000000000081565b7f000000000000000000000000000000000000000000000000000000000000000081565b6113d88383612fad565b5060008060007f000000000000000000000000000000000000000000000000000000000000000073ffffffffffffffffffffffffffffffffffffffff1663f70aedd96040518163ffffffff1660e01b815260040160806040518083038186803b15801561144457600080fd5b505afa158015611458573d6000803e3d6000fd5b505050506040513d601f19601f8201168201806040525081019061147c9190614a6c565b93509350935050600081111561170e578573ffffffffffffffffffffffffffffffffffffffff168373ffffffffffffffffffffffffffffffffffffffff1663a4775772846040518263ffffffff1660e01b81526004016114dc91906159fa565b60206040518083038186803b1580156114f457600080fd5b505afa158015611508573d6000803e3d6000fd5b505050506040513d601f19601f8201168201806040525081019061152c919061493b565b73ffffffffffffffffffffffffffffffffffffffff1614611582576040517f08c379a00000000000000000000000000000000000000000000000000000000081526004016115799061597a565b60405180910390fd5b8373ffffffffffffffffffffffffffffffffffffffff168373ffffffffffffffffffffffffffffffffffffffff16146115f0576040517f08c379a00000000000000000000000000000000000000000000000000000000081526004016115e7906157ba565b60405180910390fd5b7f000000000000000000000000000000000000000000000000000000000000000073ffffffffffffffffffffffffffffffffffffffff166368eb4ba88584846040518463ffffffff1660e01b815260040161164d939291906156d5565b600060405180830381600087803b15801561166757600080fd5b505af115801561167b573d6000803e3d6000fd5b505050508373ffffffffffffffffffffffffffffffffffffffff1663b390c0ab83836040518363ffffffff1660e01b81526004016116ba929190615a6e565b602060405180830381600087803b1580156116d457600080fd5b505af11580156116e8573d6000803e3d6000fd5b505050506040513d601f19601f8201168201806040525081019061170c9190614dea565b505b6117188685612247565b60008673ffffffffffffffffffffffffffffffffffffffff166370a08231306040518263ffffffff1660e01b8152600401611753919061558c565b60206040518083038186803b15801561176b57600080fd5b505afa15801561177f573d6000803e3d6000fd5b505050506040513d601f19601f820116820180604052508101906117a39190614dea565b905060008573ffffffffffffffffffffffffffffffffffffffff1663a0712d68836040518263ffffffff1660e01b81526004016117e091906159fa565b602060405180830381600087803b1580156117fa57600080fd5b505af115801561180e573d6000803e3d6000fd5b505050506040513d601f19601f820116820180604052508101906118329190614dea565b90508573ffffffffffffffffffffffffffffffffffffffff1663e985e9c5307f00000000000000000000000000000000000000000000000000000000000000006040518363ffffffff1660e01b815260040161188f9291906155a7565b60206040518083038186803b1580156118a757600080fd5b505afa1580156118bb573d6000803e3d6000fd5b505050506040513d601f19601f820116820180604052508101906118df9190614d98565b611972578573ffffffffffffffffffffffffffffffffffffffff1663a22cb4657f000000000000000000000000000000000000000000000000000000000000000060016040518363ffffffff1660e01b815260040161193f9291906155f9565b600060405180830381600087803b15801561195957600080fd5b505af115801561196d573d6000803e3d6000fd5b505050505b7f000000000000000000000000000000000000000000000000000000000000000073ffffffffffffffffffffffffffffffffffffffff1663314568d98783856040518463ffffffff1660e01b81526004016119cf939291906156d5565b600060405180830381600087803b1580156119e957600080fd5b505af11580156119fd573d6000803e3d6000fd5b50505050600080611a0d8a610605565b91509150611a1961386c565b611a22826123ba565b611a2b816123ba565b611ab38873ffffffffffffffffffffffffffffffffffffffff1663228cb7336040518163ffffffff1660e01b8152600401602060405180830381600087803b158015611a7657600080fd5b505af1158015611a8a573d6000803e3d6000fd5b505050506040513d601f19601f82011682018060405250810190611aae919061493b565b6123ba565b50505050505050505050565b611acd828260000135613b4a565b611ad7828261251d565b5050565b6000611ae78383612fad565b9050611af38382613d7e565b600080611aff85610605565b91509150611b0b61386c565b611b14826123ba565b611b1d816123ba565b5050505050565b600063bc197c8160e01b905098975050505050505050565b604360009054906101000a900473ffffffffffffffffffffffffffffffffffffffff1681565b604360009054906101000a900473ffffffffffffffffffffffffffffffffffffffff1673ffffffffffffffffffffffffffffffffffffffff163373ffffffffffffffffffffffffffffffffffffffff1614611bf2576040517f08c379a0000000000000000000000000000000000000000000000000000000008152600401611be9906157da565b60405180910390fd5b6000604360006101000a81548173ffffffffffffffffffffffffffffffffffffffff021916908373ffffffffffffffffffffffffffffffffffffffff16021790555033604260026101000a81548173ffffffffffffffffffffffffffffffffffffffff021916908373ffffffffffffffffffffffffffffffffffffffff1602179055507fd345d81ce68c70b119a17eee79dc1421700bd9cb21ca148a62dc90983964e82f33604051611ca4919061558c565b60405180910390a1565b604260029054906101000a900473ffffffffffffffffffffffffffffffffffffffff1673ffffffffffffffffffffffffffffffffffffffff163373ffffffffffffffffffffffffffffffffffffffff1614611d3e576040517f08c379a0000000000000000000000000000000000000000000000000000000008152600401611d359061589a565b60405180910390fd5b818190508484905014611d86576040517f08c379a0000000000000000000000000000000000000000000000000000000008152600401611d7d906158ba565b60405180910390fd5b60005b84849050811015611f6757828282818110611da057fe5b9050602002016020810190611db59190614d6f565b15611ec3577f000000000000000000000000000000000000000000000000000000000000000073ffffffffffffffffffffffffffffffffffffffff1663e660cc08868684818110611e0257fe5b9050602002016020810190611e179190614912565b6040518263ffffffff1660e01b8152600401611e339190615571565b60206040518083038186803b158015611e4b57600080fd5b505afa158015611e5f573d6000803e3d6000fd5b505050506040513d601f19601f82011682018060405250810190611e839190614d98565b611ec2576040517f08c379a0000000000000000000000000000000000000000000000000000000008152600401611eb99061581a565b60405180910390fd5b5b828282818110611ecf57fe5b9050602002016020810190611ee49190614d6f565b60846000878785818110611ef457fe5b9050602002016020810190611f099190614912565b73ffffffffffffffffffffffffffffffffffffffff1673ffffffffffffffffffffffffffffffffffffffff16815260200190815260200160002060006101000a81548160ff0219169083151502179055508080600101915050611d89565b5050505050565b604260029054906101000a900473ffffffffffffffffffffffffffffffffffffffff1673ffffffffffffffffffffffffffffffffffffffff163373ffffffffffffffffffffffffffffffffffffffff1614611ffe576040517f08c379a0000000000000000000000000000000000000000000000000000000008152600401611ff59061589a565b60405180910390fd5b80604360006101000a81548173ffffffffffffffffffffffffffffffffffffffff021916908373ffffffffffffffffffffffffffffffffffffffff1602179055507f964dea888b00b2ab53f13dfe7ca334b46e99338c222ae232d98547a1da019f608160405161206e9190615571565b60405180910390a150565b600063f23a6e6160e01b90509695505050505050565b60416020528160005260406000206020528060005260406000206000915091509054906101000a900460ff1681565b6000811480612157575060008373ffffffffffffffffffffffffffffffffffffffff1663dd62ed3e30856040518363ffffffff1660e01b81526004016121059291906155d0565b60206040518083038186803b15801561211d57600080fd5b505afa158015612131573d6000803e3d6000fd5b505050506040513d601f19601f820116820180604052508101906121559190614dea565b145b612196576040517f08c379a000000000000000000000000000000000000000000000000000000000815260040161218d906159da565b60405180910390fd5b6122178363095ea7b360e01b84846040516024016121b5929190615622565b604051602081830303815290604052907bffffffffffffffffffffffffffffffffffffffffffffffffffffffff19166020820180517bffffffffffffffffffffffffffffffffffffffffffffffffffffffff8381831617835250505050613f08565b505050565b600080823b905060008111915050919050565b606061223e8484600085613fcf565b90509392505050565b604160008373ffffffffffffffffffffffffffffffffffffffff1673ffffffffffffffffffffffffffffffffffffffff16815260200190815260200160002060008273ffffffffffffffffffffffffffffffffffffffff1673ffffffffffffffffffffffffffffffffffffffff16815260200190815260200160002060009054906101000a900460ff166123b657612320817fffffffffffffffffffffffffffffffffffffffffffffffffffffffffffffffff8473ffffffffffffffffffffffffffffffffffffffff166120be9092919063ffffffff16565b6001604160008473ffffffffffffffffffffffffffffffffffffffff1673ffffffffffffffffffffffffffffffffffffffff16815260200190815260200160002060008373ffffffffffffffffffffffffffffffffffffffff1673ffffffffffffffffffffffffffffffffffffffff16815260200190815260200160002060006101000a81548160ff0219169083151502179055505b5050565b60008173ffffffffffffffffffffffffffffffffffffffff166370a08231306040518263ffffffff1660e01b81526004016123f5919061558c565b60206040518083038186803b15801561240d57600080fd5b505afa158015612421573d6000803e3d6000fd5b505050506040513d601f19601f820116820180604052508101906124459190614dea565b90506000811115612519576125187f000000000000000000000000000000000000000000000000000000000000000073ffffffffffffffffffffffffffffffffffffffff1663630dc7cb6040518163ffffffff1660e01b815260040160206040518083038186803b1580156124b957600080fd5b505afa1580156124cd573d6000803e3d6000fd5b505050506040513d601f19601f820116820180604052508101906124f1919061493b565b828473ffffffffffffffffffffffffffffffffffffffff166140e49092919063ffffffff16565b5b5050565b608460008373ffffffffffffffffffffffffffffffffffffffff1673ffffffffffffffffffffffffffffffffffffffff16815260200190815260200160002060009054906101000a900460ff166125a9576040517f08c379a00000000000000000000000000000000000000000000000000000000081526004016125a0906158da565b60405180910390fd5b6000806125b584610605565b9150915060008360400135905060008460600135905060008560800135905060007f000000000000000000000000000000000000000000000000000000000000000073ffffffffffffffffffffffffffffffffffffffff1663d7ac71ff6040518163ffffffff1660e01b815260040160206040518083038186803b15801561263c57600080fd5b505afa158015612650573d6000803e3d6000fd5b505050506040513d601f19601f820116820180604052508101906126749190614dea565b90507fffffffffffffffffffffffffffffffffffffffffffffffffffffffffffffffff84141561274e577f000000000000000000000000000000000000000000000000000000000000000073ffffffffffffffffffffffffffffffffffffffff166382a2fb9c82886040518363ffffffff1660e01b81526004016126f9929190615a15565b602060405180830381600087803b15801561271357600080fd5b505af1158015612727573d6000803e3d6000fd5b505050506040513d601f19601f8201168201806040525081019061274b9190614dea565b93505b7fffffffffffffffffffffffffffffffffffffffffffffffffffffffffffffffff831415612826577f000000000000000000000000000000000000000000000000000000000000000073ffffffffffffffffffffffffffffffffffffffff166382a2fb9c82876040518363ffffffff1660e01b81526004016127d1929190615a15565b602060405180830381600087803b1580156127eb57600080fd5b505af11580156127ff573d6000803e3d6000fd5b505050506040513d601f19601f820116820180604052508101906128239190614dea565b92505b7fffffffffffffffffffffffffffffffffffffffffffffffffffffffffffffffff8214156128fe577f000000000000000000000000000000000000000000000000000000000000000073ffffffffffffffffffffffffffffffffffffffff166382a2fb9c828a6040518363ffffffff1660e01b81526004016128a9929190615a15565b602060405180830381600087803b1580156128c357600080fd5b505af11580156128d7573d6000803e3d6000fd5b505050506040513d601f19601f820116820180604052508101906128fb9190614dea565b91505b5060006129a087602001358973ffffffffffffffffffffffffffffffffffffffff166370a08231306040518263ffffffff1660e01b8152600401612942919061558c565b60206040518083038186803b15801561295a57600080fd5b505afa15801561296e573d6000803e3d6000fd5b505050506040513d601f19601f820116820180604052508101906129929190614dea565b61416a90919063ffffffff16565b90506000811115612a66576060600267ffffffffffffffff811180156129c557600080fd5b506040519080825280602002602001820160405280156129f45781602001602082028036833780820191505090505b5090508873ffffffffffffffffffffffffffffffffffffffff1663b02f0b7383836040518363ffffffff1660e01b8152600401612a32929190615a3e565b600060405180830381600087803b158015612a4c57600080fd5b505af1158015612a60573d6000803e3d6000fd5b50505050505b6000612a7f8860a00135866141ba90919063ffffffff16565b90506000612a9a8960c00135866141ba90919063ffffffff16565b905060008873ffffffffffffffffffffffffffffffffffffffff166370a08231306040518263ffffffff1660e01b8152600401612ad7919061558c565b60206040518083038186803b158015612aef57600080fd5b505afa158015612b03573d6000803e3d6000fd5b505050506040513d601f19601f82011682018060405250810190612b279190614dea565b905060008873ffffffffffffffffffffffffffffffffffffffff166370a08231306040518263ffffffff1660e01b8152600401612b64919061558c565b60206040518083038186803b158015612b7c57600080fd5b505afa158015612b90573d6000803e3d6000fd5b505050506040513d601f19601f82011682018060405250810190612bb49190614dea565b90508382108015612bc457508281115b15612ca6578b73ffffffffffffffffffffffffffffffffffffffff16637c5e9ea48a612bf9868561416a90919063ffffffff16565b8d612c0d878a61416a90919063ffffffff16565b7fffffffffffffffffffffffffffffffffffffffffffffffffffffffffffffffff6040518663ffffffff1660e01b8152600401612c4e95949392919061564b565b6040805180830381600087803b158015612c6757600080fd5b505af1158015612c7b573d6000803e3d6000fd5b505050506040513d601f19601f82011682018060405250810190612c9f9190614e13565b5050612d93565b8382118015612cb457508281105b15612d92578b73ffffffffffffffffffffffffffffffffffffffff16637c5e9ea48b612ce9878661416a90919063ffffffff16565b8c612cfd868961416a90919063ffffffff16565b7fffffffffffffffffffffffffffffffffffffffffffffffffffffffffffffffff6040518663ffffffff1660e01b8152600401612d3e95949392919061564b565b6040805180830381600087803b158015612d5757600080fd5b505af1158015612d6b573d6000803e3d6000fd5b505050506040513d601f19601f82011682018060405250810190612d8f9190614e13565b50505b5b612d9d8a8961420f565b612da7898861420f565b612db18c8761420f565b8a60a001358a73ffffffffffffffffffffffffffffffffffffffff166370a08231306040518263ffffffff1660e01b8152600401612def919061558c565b60206040518083038186803b158015612e0757600080fd5b505afa158015612e1b573d6000803e3d6000fd5b505050506040513d601f19601f82011682018060405250810190612e3f9190614dea565b1015612e4a57600080fd5b8a60c001358973ffffffffffffffffffffffffffffffffffffffff166370a08231306040518263ffffffff1660e01b8152600401612e88919061558c565b60206040518083038186803b158015612ea057600080fd5b505afa158015612eb4573d6000803e3d6000fd5b505050506040513d601f19601f82011682018060405250810190612ed89190614dea565b1015612ee357600080fd5b8a602001358c73ffffffffffffffffffffffffffffffffffffffff166370a08231306040518263ffffffff1660e01b8152600401612f21919061558c565b60206040518083038186803b158015612f3957600080fd5b505afa158015612f4d573d6000803e3d6000fd5b505050506040513d601f19601f82011682018060405250810190612f719190614dea565b1015612f7c57600080fd5b612f8461386c565b612f8d8a6123ba565b612f96896123ba565b612f9f8c6123ba565b505050505050505050505050565b6000608460008473ffffffffffffffffffffffffffffffffffffffff1673ffffffffffffffffffffffffffffffffffffffff16815260200190815260200160002060009054906101000a900460ff1661303b576040517f08c379a0000000000000000000000000000000000000000000000000000000008152600401613032906158da565b60405180910390fd5b60008061304785610605565b915091506130536142d4565b613061828560000135614361565b61306f818560200135614361565b61307d858560400135614361565b61308b8285606001356143fc565b6130998185608001356143fc565b6130a7858560a001356143fc565b6060600267ffffffffffffffff811180156130c157600080fd5b506040519080825280602002602001820160405280156130f05781602001602082028036833780820191505090505b5090508273ffffffffffffffffffffffffffffffffffffffff166370a08231306040518263ffffffff1660e01b815260040161312c919061558c565b60206040518083038186803b15801561314457600080fd5b505afa158015613158573d6000803e3d6000fd5b505050506040513d601f19601f8201168201806040525081019061317c9190614dea565b8160008151811061318957fe5b6020026020010181815250508173ffffffffffffffffffffffffffffffffffffffff166370a08231306040518263ffffffff1660e01b81526004016131ce919061558c565b60206040518083038186803b1580156131e657600080fd5b505afa1580156131fa573d6000803e3d6000fd5b505050506040513d601f19601f8201168201806040525081019061321e9190614dea565b8160018151811061322b57fe5b60200260200101818152505060008673ffffffffffffffffffffffffffffffffffffffff166318160ddd6040518163ffffffff1660e01b815260040160206040518083038186803b15801561327f57600080fd5b505afa158015613293573d6000803e3d6000fd5b505050506040513d601f19601f820116820180604052508101906132b79190614dea565b905060006133b0670de0b6b3a76400006133a2846133948c73ffffffffffffffffffffffffffffffffffffffff1663f8b2cb4f8b6040518263ffffffff1660e01b81526004016133079190615571565b60206040518083038186803b15801561331f57600080fd5b505afa158015613333573d6000803e3d6000fd5b505050506040513d601f19601f820116820180604052508101906133579190614dea565b613386670de0b6b3a76400008a60008151811061337057fe5b602002602001015161449790919063ffffffff16565b61450790919063ffffffff16565b61449790919063ffffffff16565b61450790919063ffffffff16565b905060006134a9670de0b6b3a764000061349b8561348d8d73ffffffffffffffffffffffffffffffffffffffff1663f8b2cb4f8b6040518263ffffffff1660e01b81526004016134009190615571565b60206040518083038186803b15801561341857600080fd5b505afa15801561342c573d6000803e3d6000fd5b505050506040513d601f19601f820116820180604052508101906134509190614dea565b61347f670de0b6b3a76400008b60018151811061346957fe5b602002602001015161449790919063ffffffff16565b61450790919063ffffffff16565b61449790919063ffffffff16565b61450790919063ffffffff16565b905060008183116134ba57826134bc565b815b90506000811115613535578973ffffffffffffffffffffffffffffffffffffffff16634f69c0d482876040518363ffffffff1660e01b8152600401613502929190615a3e565b600060405180830381600087803b15801561351c57600080fd5b505af1158015613530573d6000803e3d6000fd5b505050505b60008773ffffffffffffffffffffffffffffffffffffffff166370a08231306040518263ffffffff1660e01b8152600401613570919061558c565b60206040518083038186803b15801561358857600080fd5b505afa15801561359c573d6000803e3d6000fd5b505050506040513d601f19601f820116820180604052508101906135c09190614dea565b905060008773ffffffffffffffffffffffffffffffffffffffff166370a08231306040518263ffffffff1660e01b81526004016135fd919061558c565b60206040518083038186803b15801561361557600080fd5b505afa158015613629573d6000803e3d6000fd5b505050506040513d601f19601f8201168201806040525081019061364d9190614dea565b905060008211156136ea578b73ffffffffffffffffffffffffffffffffffffffff16635db342778a8460006040518463ffffffff1660e01b81526004016136969392919061569e565b602060405180830381600087803b1580156136b057600080fd5b505af11580156136c4573d6000803e3d6000fd5b505050506040513d601f19601f820116820180604052508101906136e89190614dea565b505b6000811115613785578b73ffffffffffffffffffffffffffffffffffffffff16635db34277898360006040518463ffffffff1660e01b81526004016137319392919061569e565b602060405180830381600087803b15801561374b57600080fd5b505af115801561375f573d6000803e3d6000fd5b505050506040513d601f19601f820116820180604052508101906137839190614dea565b505b60008c73ffffffffffffffffffffffffffffffffffffffff166370a08231306040518263ffffffff1660e01b81526004016137c0919061558c565b60206040518083038186803b1580156137d857600080fd5b505afa1580156137ec573d6000803e3d6000fd5b505050506040513d601f19601f820116820180604052508101906138109190614dea565b90508b60c00135811015613859576040517f08c379a00000000000000000000000000000000000000000000000000000000081526004016138509061599a565b60405180910390fd5b809a505050505050505050505092915050565b60007f000000000000000000000000000000000000000000000000000000000000000073ffffffffffffffffffffffffffffffffffffffff166370a08231306040518263ffffffff1660e01b81526004016138c7919061558c565b602060405180830381600087803b1580156138e157600080fd5b505af11580156138f5573d6000803e3d6000fd5b505050506040513d601f19601f820116820180604052508101906139199190614dea565b90506000811115613b47577f000000000000000000000000000000000000000000000000000000000000000073ffffffffffffffffffffffffffffffffffffffff16632e1a7d4d826040518263ffffffff1660e01b815260040161397d91906159fa565b600060405180830381600087803b15801561399757600080fd5b505af11580156139ab573d6000803e3d6000fd5b5050505060007f000000000000000000000000000000000000000000000000000000000000000073ffffffffffffffffffffffffffffffffffffffff1663630dc7cb6040518163ffffffff1660e01b815260040160206040518083038186803b158015613a1757600080fd5b505afa158015613a2b573d6000803e3d6000fd5b505050506040513d601f19601f82011682018060405250810190613a4f919061493b565b73ffffffffffffffffffffffffffffffffffffffff1682600067ffffffffffffffff81118015613a7e57600080fd5b506040519080825280601f01601f191660200182016040528015613ab15781602001600182028036833780820191505090505b50604051613abf919061555a565b60006040518083038185875af1925050503d8060008114613afc576040519150601f19603f3d011682016040523d82523d6000602084013e613b01565b606091505b5050905080613b45576040517f08c379a0000000000000000000000000000000000000000000000000000000008152600401613b3c9061579a565b60405180910390fd5b505b50565b6000811115613d7a577fffffffffffffffffffffffffffffffffffffffffffffffffffffffffffffffff811415613c27577f000000000000000000000000000000000000000000000000000000000000000073ffffffffffffffffffffffffffffffffffffffff1663f70aedd96040518163ffffffff1660e01b815260040160806040518083038186803b158015613be157600080fd5b505afa158015613bf5573d6000803e3d6000fd5b505050506040513d601f19601f82011682018060405250810190613c199190614a6c565b909192509091509050809150505b7f000000000000000000000000000000000000000000000000000000000000000073ffffffffffffffffffffffffffffffffffffffff166368eb4ba87f00000000000000000000000000000000000000000000000000000000000000008473ffffffffffffffffffffffffffffffffffffffff16846040518463ffffffff1660e01b8152600401613cba939291906156d5565b600060405180830381600087803b158015613cd457600080fd5b505af1158015613ce8573d6000803e3d6000fd5b505050507f000000000000000000000000000000000000000000000000000000000000000073ffffffffffffffffffffffffffffffffffffffff16639dc29fac83836040518363ffffffff1660e01b8152600401613d47929190615622565b600060405180830381600087803b158015613d6157600080fd5b505af1158015613d75573d6000803e3d6000fd5b505050505b5050565b6000811115613f0457613db1827f0000000000000000000000000000000000000000000000000000000000000000612247565b7f000000000000000000000000000000000000000000000000000000000000000073ffffffffffffffffffffffffffffffffffffffff166340c10f1983836040518363ffffffff1660e01b8152600401613e0c929190615622565b600060405180830381600087803b158015613e2657600080fd5b505af1158015613e3a573d6000803e3d6000fd5b505050507f000000000000000000000000000000000000000000000000000000000000000073ffffffffffffffffffffffffffffffffffffffff1663314568d97f00000000000000000000000000000000000000000000000000000000000000008473ffffffffffffffffffffffffffffffffffffffff16846040518463ffffffff1660e01b8152600401613ed1939291906156d5565b600060405180830381600087803b158015613eeb57600080fd5b505af1158015613eff573d6000803e3d6000fd5b505050505b5050565b6060613f6a826040518060400160405280602081526020017f5361666545524332303a206c6f772d6c6576656c2063616c6c206661696c65648152508573ffffffffffffffffffffffffffffffffffffffff1661222f9092919063ffffffff16565b9050600081511115613fca5780806020019051810190613f8a9190614d98565b613fc9576040517f08c379a0000000000000000000000000000000000000000000000000000000008152600401613fc0906159ba565b60405180910390fd5b5b505050565b606082471015614014576040517f08c379a000000000000000000000000000000000000000000000000000000000815260040161400b9061585a565b60405180910390fd5b61401d8561221c565b61405c576040517f08c379a00000000000000000000000000000000000000000000000000000000081526004016140539061595a565b60405180910390fd5b600060608673ffffffffffffffffffffffffffffffffffffffff168587604051614086919061555a565b60006040518083038185875af1925050503d80600081146140c3576040519150601f19603f3d011682016040523d82523d6000602084013e6140c8565b606091505b50915091506140d882828661455d565b92505050949350505050565b6141658363a9059cbb60e01b8484604051602401614103929190615622565b604051602081830303815290604052907bffffffffffffffffffffffffffffffffffffffffffffffffffffffff19166020820180517bffffffffffffffffffffffffffffffffffffffffffffffffffffffff8381831617835250505050613f08565b505050565b6000828211156141af576040517f08c379a00000000000000000000000000000000000000000000000000000000081526004016141a69061583a565b60405180910390fd5b818303905092915050565b600080828401905083811015614205576040517f08c379a00000000000000000000000000000000000000000000000000000000081526004016141fc906157fa565b60405180910390fd5b8091505092915050565b60008111156142d057614242827f0000000000000000000000000000000000000000000000000000000000000000612247565b7f000000000000000000000000000000000000000000000000000000000000000073ffffffffffffffffffffffffffffffffffffffff166322867d7883836040518363ffffffff1660e01b815260040161429d929190615622565b600060405180830381600087803b1580156142b757600080fd5b505af11580156142cb573d6000803e3d6000fd5b505050505b5050565b600034111561435f577f000000000000000000000000000000000000000000000000000000000000000073ffffffffffffffffffffffffffffffffffffffff1663d0e30db0346040518263ffffffff1660e01b81526004016000604051808303818588803b15801561434557600080fd5b505af1158015614359573d6000803e3d6000fd5b50505050505b565b60008111156143f8577f000000000000000000000000000000000000000000000000000000000000000073ffffffffffffffffffffffffffffffffffffffff166348d6bbc283836040518363ffffffff1660e01b81526004016143c5929190615622565b600060405180830381600087803b1580156143df57600080fd5b505af11580156143f3573d6000803e3d6000fd5b505050505b5050565b6000811115614493577f000000000000000000000000000000000000000000000000000000000000000073ffffffffffffffffffffffffffffffffffffffff16634b8a352983836040518363ffffffff1660e01b8152600401614460929190615622565b600060405180830381600087803b15801561447a57600080fd5b505af115801561448e573d6000803e3d6000fd5b505050505b5050565b6000808314156144aa5760009050614501565b60008284029050828482816144bb57fe5b04146144fc576040517f08c379a00000000000000000000000000000000000000000000000000000000081526004016144f39061593a565b60405180910390fd5b809150505b92915050565b600080821161454b576040517f08c379a00000000000000000000000000000000000000000000000000000000081526004016145429061587a565b60405180910390fd5b81838161455457fe5b04905092915050565b6060831561456d578290506145bd565b6000835111156145805782518084602001fd5b816040517f08c379a00000000000000000000000000000000000000000000000000000000081526004016145b49190615778565b60405180910390fd5b9392505050565b6040518060400160405280600290602082028036833780820191505090505090565b8260028101928215614652579160200282015b828111156146515782518260006101000a81548173ffffffffffffffffffffffffffffffffffffffff021916908373ffffffffffffffffffffffffffffffffffffffff160217905550916020019190600101906145f9565b5b50905061465f9190614663565b5090565b5b8082111561469a57600081816101000a81549073ffffffffffffffffffffffffffffffffffffffff021916905550600101614664565b5090565b6000813590506146ad81615c9f565b92915050565b6000815190506146c281615c9f565b92915050565b60008083601f8401126146da57600080fd5b8235905067ffffffffffffffff8111156146f357600080fd5b60208301915083602082028301111561470b57600080fd5b9250929050565b600082601f83011261472357600080fd5b815161473661473182615ac4565b615a97565b9150818183526020840193506020810190508385602084028201111561475b57600080fd5b60005b8381101561478b578161477188826146b3565b84526020840193506020830192505060018101905061475e565b5050505092915050565b60008083601f8401126147a757600080fd5b8235905067ffffffffffffffff8111156147c057600080fd5b6020830191508360208202830111156147d857600080fd5b9250929050565b60008083601f8401126147f157600080fd5b8235905067ffffffffffffffff81111561480a57600080fd5b60208301915083602082028301111561482257600080fd5b9250929050565b60008135905061483881615cb6565b92915050565b60008151905061484d81615cb6565b92915050565b60008135905061486281615ccd565b92915050565b60008083601f84011261487a57600080fd5b8235905067ffffffffffffffff81111561489357600080fd5b6020830191508360018202830111156148ab57600080fd5b9250929050565b600060e082840312156148c457600080fd5b81905092915050565b600060e082840312156148df57600080fd5b81905092915050565b6000813590506148f781615ce4565b92915050565b60008151905061490c81615ce4565b92915050565b60006020828403121561492457600080fd5b60006149328482850161469e565b91505092915050565b60006020828403121561494d57600080fd5b600061495b848285016146b3565b91505092915050565b6000806040838503121561497757600080fd5b60006149858582860161469e565b92505060206149968582860161469e565b9150509250929050565b60008060008060008060008060a0898b0312156149bc57600080fd5b60006149ca8b828c0161469e565b98505060206149db8b828c0161469e565b975050604089013567ffffffffffffffff8111156149f857600080fd5b614a048b828c016147df565b9650965050606089013567ffffffffffffffff811115614a2357600080fd5b614a2f8b828c016147df565b9450945050608089013567ffffffffffffffff811115614a4e57600080fd5b614a5a8b828c01614868565b92509250509295985092959890939650565b60008060008060808587031215614a8257600080fd5b6000614a90878288016146b3565b9450506020614aa1878288016146b3565b9350506040614ab2878288016148fd565b9250506060614ac3878288016148fd565b91505092959194509250565b60008060008060008060a08789031215614ae857600080fd5b6000614af689828a0161469e565b9650506020614b0789828a0161469e565b9550506040614b1889828a016148e8565b9450506060614b2989828a016148e8565b935050608087013567ffffffffffffffff811115614b4657600080fd5b614b5289828a01614868565b92509250509295509295509295565b6000806101008385031215614b7557600080fd5b6000614b838582860161469e565b9250506020614b94858286016148b2565b9150509250929050565b60008060006101208486031215614bb457600080fd5b6000614bc28682870161469e565b9350506020614bd3868287016148b2565b925050610100614be58682870161469e565b9150509250925092565b6000806101008385031215614c0357600080fd5b6000614c118582860161469e565b9250506020614c22858286016148cd565b9150509250929050565b60008060006101208486031215614c4257600080fd5b6000614c508682870161469e565b9350506020614c61868287016148cd565b925050610100614c738682870161469e565b9150509250925092565b60008060408385031215614c9057600080fd5b6000614c9e8582860161469e565b9250506020614caf858286016148e8565b9150509250929050565b60008060008060408587031215614ccf57600080fd5b600085013567ffffffffffffffff811115614ce957600080fd5b614cf5878288016146c8565b9450945050602085013567ffffffffffffffff811115614d1457600080fd5b614d2087828801614795565b925092505092959194509250565b600060208284031215614d4057600080fd5b600082015167ffffffffffffffff811115614d5a57600080fd5b614d6684828501614712565b91505092915050565b600060208284031215614d8157600080fd5b6000614d8f84828501614829565b91505092915050565b600060208284031215614daa57600080fd5b6000614db88482850161483e565b91505092915050565b600060208284031215614dd357600080fd5b6000614de184828501614853565b91505092915050565b600060208284031215614dfc57600080fd5b6000614e0a848285016148fd565b91505092915050565b60008060408385031215614e2657600080fd5b6000614e34858286016148fd565b9250506020614e45858286016148fd565b9150509250929050565b6000614e5b838361553c565b60208301905092915050565b614e7081615bcb565b82525050565b614e7f81615b57565b82525050565b6000614e9082615afc565b614e9a8185615b2a565b9350614ea583615aec565b8060005b83811015614ed6578151614ebd8882614e4f565b9750614ec883615b1d565b925050600181019050614ea9565b5085935050505092915050565b614eec81615b69565b82525050565b614efb81615b75565b82525050565b6000614f0c82615b07565b614f168185615b3b565b9350614f26818560208601615c5b565b80840191505092915050565b614f3b81615bdd565b82525050565b614f4a81615c01565b82525050565b614f5981615c25565b82525050565b6000614f6a82615b12565b614f748185615b46565b9350614f84818560208601615c5b565b614f8d81615c8e565b840191505092915050565b6000614fa5601183615b46565b91507f726566756e6420455448206661696c65640000000000000000000000000000006000830152602082019050919050565b6000614fe5602683615b46565b91507f636f6c6c61746572616c20746f6b656e202620777374616b696e67206d69736d60008301527f61746368656400000000000000000000000000000000000000000000000000006020830152604082019050919050565b600061504b601883615b46565b91507f6e6f74207468652070656e64696e6720676f7665726e6f7200000000000000006000830152602082019050919050565b600061508b601b83615b46565b91507f536166654d6174683a206164646974696f6e206f766572666c6f7700000000006000830152602082019050919050565b60006150cb601b83615b46565b91507f6f7261636c65206e6f7420737570706f7274206c7020746f6b656e00000000006000830152602082019050919050565b600061510b601e83615b46565b91507f536166654d6174683a207375627472616374696f6e206f766572666c6f7700006000830152602082019050919050565b600061514b602683615b46565b91507f416464726573733a20696e73756666696369656e742062616c616e636520666f60008301527f722063616c6c00000000000000000000000000000000000000000000000000006020830152604082019050919050565b60006151b1601a83615b46565b91507f536166654d6174683a206469766973696f6e206279207a65726f0000000000006000830152602082019050919050565b60006151f1601083615b46565b91507f6e6f742074686520676f7665726e6f72000000000000000000000000000000006000830152602082019050919050565b6000615231602583615b46565b91507f6c70546f6b656e732026207374617475736573206c656e677468206d69736d6160008301527f74636865640000000000000000000000000000000000000000000000000000006020830152604082019050919050565b6000615297601883615b46565b91507f6c7020746f6b656e206e6f742077686974656c697374656400000000000000006000830152602082019050919050565b60006152d7601783615b46565b91507f455448206d75737420636f6d652066726f6d20574554480000000000000000006000830152602082019050919050565b6000615317601783615b46565b91507f756e6465726c79696e6720746f6b656e73206e6f7420320000000000000000006000830152602082019050919050565b6000615357602183615b46565b91507f536166654d6174683a206d756c7469706c69636174696f6e206f766572666c6f60008301527f77000000000000000000000000000000000000000000000000000000000000006020830152604082019050919050565b60006153bd601d83615b46565b91507f416464726573733a2063616c6c20746f206e6f6e2d636f6e74726163740000006000830152602082019050919050565b60006153fd601483615b46565b91507f696e636f727265637420756e6465726c79696e670000000000000000000000006000830152602082019050919050565b600061543d601283615b46565b91507f6c702064657369726564206e6f74206d657400000000000000000000000000006000830152602082019050919050565b600061547d602a83615b46565b91507f5361666545524332303a204552433230206f7065726174696f6e20646964206e60008301527f6f742073756363656564000000000000000000000000000000000000000000006020830152604082019050919050565b60006154e3603683615b46565b91507f5361666545524332303a20617070726f76652066726f6d206e6f6e2d7a65726f60008301527f20746f206e6f6e2d7a65726f20616c6c6f77616e6365000000000000000000006020830152604082019050919050565b61554581615bc1565b82525050565b61555481615bc1565b82525050565b60006155668284614f01565b915081905092915050565b60006020820190506155866000830184614e76565b92915050565b60006020820190506155a16000830184614e67565b92915050565b60006040820190506155bc6000830185614e67565b6155c96020830184614e76565b9392505050565b60006040820190506155e56000830185614e76565b6155f26020830184614e76565b9392505050565b600060408201905061560e6000830185614e76565b61561b6020830184614ee3565b9392505050565b60006040820190506156376000830185614e76565b615644602083018461554b565b9392505050565b600060a0820190506156606000830188614e76565b61566d602083018761554b565b61567a6040830186614e76565b615687606083018561554b565b615694608083018461554b565b9695505050505050565b60006060820190506156b36000830186614e76565b6156c0602083018561554b565b6156cd6040830184614f50565b949350505050565b60006060820190506156ea6000830186614e76565b6156f7602083018561554b565b615704604083018461554b565b949350505050565b60006020820190506157216000830184614ee3565b92915050565b600060208201905061573c6000830184614ef2565b92915050565b60006020820190506157576000830184614f32565b92915050565b60006020820190506157726000830184614f41565b92915050565b600060208201905081810360008301526157928184614f5f565b905092915050565b600060208201905081810360008301526157b381614f98565b9050919050565b600060208201905081810360008301526157d381614fd8565b9050919050565b600060208201905081810360008301526157f38161503e565b9050919050565b600060208201905081810360008301526158138161507e565b9050919050565b60006020820190508181036000830152615833816150be565b9050919050565b60006020820190508181036000830152615853816150fe565b9050919050565b600060208201905081810360008301526158738161513e565b9050919050565b60006020820190508181036000830152615893816151a4565b9050919050565b600060208201905081810360008301526158b3816151e4565b9050919050565b600060208201905081810360008301526158d381615224565b9050919050565b600060208201905081810360008301526158f38161528a565b9050919050565b60006020820190508181036000830152615913816152ca565b9050919050565b600060208201905081810360008301526159338161530a565b9050919050565b600060208201905081810360008301526159538161534a565b9050919050565b60006020820190508181036000830152615973816153b0565b9050919050565b60006020820190508181036000830152615993816153f0565b9050919050565b600060208201905081810360008301526159b381615430565b9050919050565b600060208201905081810360008301526159d381615470565b9050919050565b600060208201905081810360008301526159f3816154d6565b9050919050565b6000602082019050615a0f600083018461554b565b92915050565b6000604082019050615a2a600083018561554b565b615a376020830184614e76565b9392505050565b6000604082019050615a53600083018561554b565b8181036020830152615a658184614e85565b90509392505050565b6000604082019050615a83600083018561554b565b615a90602083018461554b565b9392505050565b6000604051905081810181811067ffffffffffffffff82111715615aba57600080fd5b8060405250919050565b600067ffffffffffffffff821115615adb57600080fd5b602082029050602081019050919050565b6000819050602082019050919050565b600081519050919050565b600081519050919050565b600081519050919050565b6000602082019050919050565b600082825260208201905092915050565b600081905092915050565b600082825260208201905092915050565b6000615b6282615ba1565b9050919050565b60008115159050919050565b60007fffffffff0000000000000000000000000000000000000000000000000000000082169050919050565b600073ffffffffffffffffffffffffffffffffffffffff82169050919050565b6000819050919050565b6000615bd682615c37565b9050919050565b6000615be882615bef565b9050919050565b6000615bfa82615ba1565b9050919050565b6000615c0c82615c13565b9050919050565b6000615c1e82615ba1565b9050919050565b6000615c3082615bc1565b9050919050565b6000615c4282615c49565b9050919050565b6000615c5482615ba1565b9050919050565b60005b83811015615c79578082015181840152602081019050615c5e565b83811115615c88576000848401525b50505050565b6000601f19601f8301169050919050565b615ca881615b57565b8114615cb357600080fd5b50565b615cbf81615b69565b8114615cca57600080fd5b50565b615cd681615b75565b8114615ce157600080fd5b50565b615ced81615bc1565b8114615cf857600080fd5b5056fea264697066735822122093c0841a146b5144b63b24275a6fec25c672c3911f94bbdd44d3c21f53860d9964736f6c634300060c0033",
  "linkReferences": {},
  "deployedLinkReferences": {}
}