{
  "_format": "hh-sol-artifact-1",
  "contractName": "SimpleOracle",
  "sourceName": "contracts/oracle/SimpleOracle.sol",
  "abi": [
    {
      "inputs": [],
      "stateMutability": "nonpayable",
      "type": "constructor"
    },
    {
      "anonymous": false,
      "inputs": [
        {
          "indexed": false,
          "internalType": "address",
          "name": "governor",
          "type": "address"
        }
      ],
      "name": "AcceptGovernor",
      "type": "event"
    },
    {
      "anonymous": false,
      "inputs": [
        {
          "indexed": false,
          "internalType": "address",
          "name": "token",
          "type": "address"
        },
        {
          "indexed": false,
          "internalType": "uint256",
          "name": "px",
          "type": "uint256"
        }
      ],
      "name": "SetETHPx",
      "type": "event"
    },
    {
      "anonymous": false,
      "inputs": [
        {
          "indexed": false,
          "internalType": "address",
          "name": "governor",
          "type": "address"
        }
      ],
      "name": "SetGovernor",
      "type": "event"
    },
    {
      "anonymous": false,
      "inputs": [
        {
          "indexed": false,
          "internalType": "address",
          "name": "pendingGovernor",
          "type": "address"
        }
      ],
      "name": "SetPendingGovernor",
      "type": "event"
    },
    {
      "inputs": [],
      "name": "acceptGovernor",
      "outputs": [],
      "stateMutability": "nonpayable",
      "type": "function"
    },
    {
      "inputs": [
        {
          "internalType": "address",
          "name": "token",
          "type": "address"
        }
      ],
      "name": "getETHPx",
      "outputs": [
        {
          "internalType": "uint256",
          "name": "",
          "type": "uint256"
        }
      ],
      "stateMutability": "view",
      "type": "function"
    },
    {
      "inputs": [],
      "name": "governor",
      "outputs": [
        {
          "internalType": "address",
          "name": "",
          "type": "address"
        }
      ],
      "stateMutability": "view",
      "type": "function"
    },
    {
      "inputs": [],
      "name": "pendingGovernor",
      "outputs": [
        {
          "internalType": "address",
          "name": "",
          "type": "address"
        }
      ],
      "stateMutability": "view",
      "type": "function"
    },
    {
      "inputs": [
        {
          "internalType": "address",
          "name": "",
          "type": "address"
        }
      ],
      "name": "prices",
      "outputs": [
        {
          "internalType": "uint256",
          "name": "",
          "type": "uint256"
        }
      ],
      "stateMutability": "view",
      "type": "function"
    },
    {
      "inputs": [
        {
          "internalType": "address[]",
          "name": "tokens",
          "type": "address[]"
        },
        {
          "internalType": "uint256[]",
          "name": "pxs",
          "type": "uint256[]"
        }
      ],
      "name": "setETHPx",
      "outputs": [],
      "stateMutability": "nonpayable",
      "type": "function"
    },
    {
      "inputs": [
        {
          "internalType": "address",
          "name": "_pendingGovernor",
          "type": "address"
        }
      ],
      "name": "setPendingGovernor",
      "outputs": [],
      "stateMutability": "nonpayable",
      "type": "function"
    }
  ],
  "bytecode": "0x608060405234801561001057600080fd5b5061001f61002460201b60201c565b610226565b600060019054906101000a900460ff168061004957506100486101f860201b60201c565b5b8061005f575060008054906101000a900460ff16155b6100b4576040517f08c379a000000000000000000000000000000000000000000000000000000000815260040180806020018281038252602e815260200180610c01602e913960400191505060405180910390fd5b60008060019054906101000a900460ff161590508015610104576001600060016101000a81548160ff02191690831515021790555060016000806101000a81548160ff0219169083151502179055505b33600060026101000a81548173ffffffffffffffffffffffffffffffffffffffff021916908373ffffffffffffffffffffffffffffffffffffffff1602179055506000600160006101000a81548173ffffffffffffffffffffffffffffffffffffffff021916908373ffffffffffffffffffffffffffffffffffffffff1602179055507fbce074c8369e26e70e1ae2f14fc944da352cfe6f52e2de9572f0c9942a24b7fc33604051808273ffffffffffffffffffffffffffffffffffffffff16815260200191505060405180910390a180156101f55760008060016101000a81548160ff0219169083151502179055505b50565b600061020d3061021360201b6109831760201c565b15905090565b600080823b905060008111915050919050565b6109cc806102356000396000f3fe608060405234801561001057600080fd5b506004361061007d5760003560e01c8063cfed246b1161005b578063cfed246b1461025a578063e3056a34146102b2578063e58bb639146102e6578063f235757f146102f05761007d565b80630c340a241461008257806331f4ebcf146100b6578063ab9aadfe14610202575b600080fd5b61008a610334565b604051808273ffffffffffffffffffffffffffffffffffffffff16815260200191505060405180910390f35b610200600480360360408110156100cc57600080fd5b81019080803590602001906401000000008111156100e957600080fd5b8201836020820111156100fb57600080fd5b8035906020019184602083028401116401000000008311171561011d57600080fd5b919080806020026020016040519081016040528093929190818152602001838360200280828437600081840152601f19601f8201169050808301925050505050505091929192908035906020019064010000000081111561017d57600080fd5b82018360208201111561018f57600080fd5b803590602001918460208302840111640100000000831117156101b157600080fd5b919080806020026020016040519081016040528093929190818152602001838360200280828437600081840152601f19601f82011690508083019250505050505050919291929050505061035a565b005b6102446004803603602081101561021857600080fd5b81019080803573ffffffffffffffffffffffffffffffffffffffff169060200190929190505050610597565b6040518082815260200191505060405180910390f35b61029c6004803603602081101561027057600080fd5b81019080803573ffffffffffffffffffffffffffffffffffffffff16906020019092919050505061065c565b6040518082815260200191505060405180910390f35b6102ba610674565b604051808273ffffffffffffffffffffffffffffffffffffffff16815260200191505060405180910390f35b6102ee61069a565b005b6103326004803603602081101561030657600080fd5b81019080803573ffffffffffffffffffffffffffffffffffffffff16906020019092919050505061082f565b005b600060029054906101000a900473ffffffffffffffffffffffffffffffffffffffff1681565b600060029054906101000a900473ffffffffffffffffffffffffffffffffffffffff1673ffffffffffffffffffffffffffffffffffffffff163373ffffffffffffffffffffffffffffffffffffffff161461041d576040517f08c379a00000000000000000000000000000000000000000000000000000000081526004018080602001828103825260108152602001807f6e6f742074686520676f7665726e6f720000000000000000000000000000000081525060200191505060405180910390fd5b8051825114610494576040517f08c379a00000000000000000000000000000000000000000000000000000000081526004018080602001828103825260138152602001807f696e636f6e73697374656e74206c656e6774680000000000000000000000000081525060200191505060405180910390fd5b60005b8251811015610592578181815181106104ac57fe5b6020026020010151604260008584815181106104c457fe5b602002602001015173ffffffffffffffffffffffffffffffffffffffff1673ffffffffffffffffffffffffffffffffffffffff168152602001908152602001600020819055507fced56f32dd0ea86ccae3f6689b9265dd4e25af47561151ff7168f4d5f7f6a0f783828151811061053757fe5b602002602001015183838151811061054b57fe5b6020026020010151604051808373ffffffffffffffffffffffffffffffffffffffff1681526020018281526020019250505060405180910390a18080600101915050610497565b505050565b600080604260008473ffffffffffffffffffffffffffffffffffffffff1673ffffffffffffffffffffffffffffffffffffffff1681526020019081526020016000205490506000811415610653576040517f08c379a00000000000000000000000000000000000000000000000000000000081526004018080602001828103825260058152602001807f6e6f20707800000000000000000000000000000000000000000000000000000081525060200191505060405180910390fd5b80915050919050565b60426020528060005260406000206000915090505481565b600160009054906101000a900473ffffffffffffffffffffffffffffffffffffffff1681565b600160009054906101000a900473ffffffffffffffffffffffffffffffffffffffff1673ffffffffffffffffffffffffffffffffffffffff163373ffffffffffffffffffffffffffffffffffffffff161461075d576040517f08c379a00000000000000000000000000000000000000000000000000000000081526004018080602001828103825260188152602001807f6e6f74207468652070656e64696e6720676f7665726e6f72000000000000000081525060200191505060405180910390fd5b6000600160006101000a81548173ffffffffffffffffffffffffffffffffffffffff021916908373ffffffffffffffffffffffffffffffffffffffff16021790555033600060026101000a81548173ffffffffffffffffffffffffffffffffffffffff021916908373ffffffffffffffffffffffffffffffffffffffff1602179055507fd345d81ce68c70b119a17eee79dc1421700bd9cb21ca148a62dc90983964e82f33604051808273ffffffffffffffffffffffffffffffffffffffff16815260200191505060405180910390a1565b600060029054906101000a900473ffffffffffffffffffffffffffffffffffffffff1673ffffffffffffffffffffffffffffffffffffffff163373ffffffffffffffffffffffffffffffffffffffff16146108f2576040517f08c379a00000000000000000000000000000000000000000000000000000000081526004018080602001828103825260108152602001807f6e6f742074686520676f7665726e6f720000000000000000000000000000000081525060200191505060405180910390fd5b80600160006101000a81548173ffffffffffffffffffffffffffffffffffffffff021916908373ffffffffffffffffffffffffffffffffffffffff1602179055507f964dea888b00b2ab53f13dfe7ca334b46e99338c222ae232d98547a1da019f6081604051808273ffffffffffffffffffffffffffffffffffffffff16815260200191505060405180910390a150565b600080823b90506000811191505091905056fea2646970667358221220c530531c48068825009cf9623fbf939bbaef1b3a26bdfa5042769db5a9f61c0964736f6c634300060c0033496e697469616c697a61626c653a20636f6e747261637420697320616c726561647920696e697469616c697a6564",
  "linkReferences": {},
  "deployedLinkReferences": {}
}