{
  "_format": "hh-sol-artifact-1",
  "contractName": "BNum",
  "sourceName": "contracts/utils/BNum.sol",
  "abi": [
    {
      "inputs": [],
      "name": "BONE",
      "outputs": [
        {
          "internalType": "uint256",
          "name": "",
          "type": "uint256"
        }
      ],
      "stateMutability": "view",
      "type": "function"
    },
    {
      "inputs": [],
      "name": "BPOW_PRECISION",
      "outputs": [
        {
          "internalType": "uint256",
          "name": "",
          "type": "uint256"
        }
      ],
      "stateMutability": "view",
      "type": "function"
    },
    {
      "inputs": [],
      "name": "EXIT_FEE",
      "outputs": [
        {
          "internalType": "uint256",
          "name": "",
          "type": "uint256"
        }
      ],
      "stateMutability": "view",
      "type": "function"
    },
    {
      "inputs": [],
      "name": "INIT_POOL_SUPPLY",
      "outputs": [
        {
          "internalType": "uint256",
          "name": "",
          "type": "uint256"
        }
      ],
      "stateMutability": "view",
      "type": "function"
    },
    {
      "inputs": [],
      "name": "MAX_BOUND_TOKENS",
      "outputs": [
        {
          "internalType": "uint256",
          "name": "",
          "type": "uint256"
        }
      ],
      "stateMutability": "view",
      "type": "function"
    },
    {
      "inputs": [],
      "name": "MAX_BPOW_BASE",
      "outputs": [
        {
          "internalType": "uint256",
          "name": "",
          "type": "uint256"
        }
      ],
      "stateMutability": "view",
      "type": "function"
    },
    {
      "inputs": [],
      "name": "MAX_FEE",
      "outputs": [
        {
          "internalType": "uint256",
          "name": "",
          "type": "uint256"
        }
      ],
      "stateMutability": "view",
      "type": "function"
    },
    {
      "inputs": [],
      "name": "MAX_IN_RATIO",
      "outputs": [
        {
          "internalType": "uint256",
          "name": "",
          "type": "uint256"
        }
      ],
      "stateMutability": "view",
      "type": "function"
    },
    {
      "inputs": [],
      "name": "MAX_OUT_RATIO",
      "outputs": [
        {
          "internalType": "uint256",
          "name": "",
          "type": "uint256"
        }
      ],
      "stateMutability": "view",
      "type": "function"
    },
    {
      "inputs": [],
      "name": "MAX_TOTAL_WEIGHT",
      "outputs": [
        {
          "internalType": "uint256",
          "name": "",
          "type": "uint256"
        }
      ],
      "stateMutability": "view",
      "type": "function"
    },
    {
      "inputs": [],
      "name": "MAX_WEIGHT",
      "outputs": [
        {
          "internalType": "uint256",
          "name": "",
          "type": "uint256"
        }
      ],
      "stateMutability": "view",
      "type": "function"
    },
    {
      "inputs": [],
      "name": "MIN_BALANCE",
      "outputs": [
        {
          "internalType": "uint256",
          "name": "",
          "type": "uint256"
        }
      ],
      "stateMutability": "view",
      "type": "function"
    },
    {
      "inputs": [],
      "name": "MIN_BOUND_TOKENS",
      "outputs": [
        {
          "internalType": "uint256",
          "name": "",
          "type": "uint256"
        }
      ],
      "stateMutability": "view",
      "type": "function"
    },
    {
      "inputs": [],
      "name": "MIN_BPOW_BASE",
      "outputs": [
        {
          "internalType": "uint256",
          "name": "",
          "type": "uint256"
        }
      ],
      "stateMutability": "view",
      "type": "function"
    },
    {
      "inputs": [],
      "name": "MIN_FEE",
      "outputs": [
        {
          "internalType": "uint256",
          "name": "",
          "type": "uint256"
        }
      ],
      "stateMutability": "view",
      "type": "function"
    },
    {
      "inputs": [],
      "name": "MIN_WEIGHT",
      "outputs": [
        {
          "internalType": "uint256",
          "name": "",
          "type": "uint256"
        }
      ],
      "stateMutability": "view",
      "type": "function"
    }
  ],
  "bytecode": "0x608060405234801561001057600080fd5b50610417806100206000396000f3fe608060405234801561001057600080fd5b50600436106101005760003560e01c8063b7b800a411610097578063c36596a611610066578063c36596a61461026d578063c6580d121461028b578063e4a28a52146102a9578063ec093021146102c757610100565b8063b7b800a4146101f5578063ba019dab14610213578063bc063e1a14610231578063bc694ea21461024f57610100565b8063867378c5116100d3578063867378c51461017d5780639381cd2b1461019b578063992e2a92146101b9578063b0e0d136146101d757610100565b806309a3bbe414610105578063189d00ca14610123578063218b53821461014157806376c7a3c71461015f575b600080fd5b61010d6102e5565b6040518082815260200191505060405180910390f35b61012b6102f4565b6040518082815260200191505060405180910390f35b61014961030e565b6040518082815260200191505060405180910390f35b61016761031a565b6040518082815260200191505060405180910390f35b610185610332565b6040518082815260200191505060405180910390f35b6101a361034c565b6040518082815260200191505060405180910390f35b6101c161035b565b6040518082815260200191505060405180910390f35b6101df610374565b6040518082815260200191505060405180910390f35b6101fd610379565b6040518082815260200191505060405180910390f35b61021b61037e565b6040518082815260200191505060405180910390f35b610239610383565b6040518082815260200191505060405180910390f35b610257610399565b6040518082815260200191505060405180910390f35b6102756103ab565b6040518082815260200191505060405180910390f35b6102936103b7565b6040518082815260200191505060405180910390f35b6102b16103bc565b6040518082815260200191505060405180910390f35b6102cf6103cb565b6040518082815260200191505060405180910390f35b6032670de0b6b3a76400000281565b6402540be400670de0b6b3a76400008161030a57fe5b0481565b670de0b6b3a764000081565b620f4240670de0b6b3a76400008161032e57fe5b0481565b64e8d4a51000670de0b6b3a76400008161034857fe5b0481565b6064670de0b6b3a76400000281565b60016003670de0b6b3a76400008161036f57fe5b040181565b600881565b600281565b600181565b600a670de0b6b3a76400008161039557fe5b0481565b6001670de0b6b3a76400006002020381565b670de0b6b3a764000081565b600081565b6032670de0b6b3a76400000281565b6002670de0b6b3a7640000816103dd57fe5b048156fea26469706673582212207c8d7d310ea9664947f3ca41ff886f9d466e13269cccfd647002fc0e03dbeb1b64736f6c634300060c0033",
  "linkReferences": {},
  "deployedLinkReferences": {}
}