{
  "_format": "hh-sol-artifact-1",
  "contractName": "ProxyOracle",
  "sourceName": "contracts/oracle/ProxyOracle.sol",
  "abi": [
    {
      "inputs": [
        {
          "internalType": "contract IBaseOracle",
          "name": "_source",
          "type": "address"
        }
      ],
      "stateMutability": "nonpayable",
      "type": "constructor"
    },
    {
      "anonymous": false,
      "inputs": [
        {
          "indexed": false,
          "internalType": "address",
          "name": "governor",
          "type": "address"
        }
      ],
      "name": "AcceptGovernor",
      "type": "event"
    },
    {
      "anonymous": false,
      "inputs": [
        {
          "indexed": false,
          "internalType": "address",
          "name": "governor",
          "type": "address"
        }
      ],
      "name": "SetGovernor",
      "type": "event"
    },
    {
      "anonymous": false,
      "inputs": [
        {
          "indexed": false,
          "internalType": "address",
          "name": "pendingGovernor",
          "type": "address"
        }
      ],
      "name": "SetPendingGovernor",
      "type": "event"
    },
    {
      "anonymous": false,
      "inputs": [
        {
          "indexed": true,
          "internalType": "address",
          "name": "token",
          "type": "address"
        },
        {
          "components": [
            {
              "internalType": "uint16",
              "name": "borrowFactor",
              "type": "uint16"
            },
            {
              "internalType": "uint16",
              "name": "collateralFactor",
              "type": "uint16"
            },
            {
              "internalType": "uint16",
              "name": "liqIncentive",
              "type": "uint16"
            }
          ],
          "indexed": false,
          "internalType": "struct ProxyOracle.TokenFactors",
          "name": "tokenFactor",
          "type": "tuple"
        }
      ],
      "name": "SetTokenFactor",
      "type": "event"
    },
    {
      "anonymous": false,
      "inputs": [
        {
          "indexed": true,
          "internalType": "address",
          "name": "token",
          "type": "address"
        },
        {
          "indexed": false,
          "internalType": "bool",
          "name": "ok",
          "type": "bool"
        }
      ],
      "name": "SetWhitelist",
      "type": "event"
    },
    {
      "anonymous": false,
      "inputs": [
        {
          "indexed": true,
          "internalType": "address",
          "name": "token",
          "type": "address"
        }
      ],
      "name": "UnsetTokenFactor",
      "type": "event"
    },
    {
      "inputs": [],
      "name": "acceptGovernor",
      "outputs": [],
      "stateMutability": "nonpayable",
      "type": "function"
    },
    {
      "inputs": [
        {
          "internalType": "address",
          "name": "token",
          "type": "address"
        },
        {
          "internalType": "uint256",
          "name": "amount",
          "type": "uint256"
        },
        {
          "internalType": "address",
          "name": "owner",
          "type": "address"
        }
      ],
      "name": "asETHBorrow",
      "outputs": [
        {
          "internalType": "uint256",
          "name": "",
          "type": "uint256"
        }
      ],
      "stateMutability": "view",
      "type": "function"
    },
    {
      "inputs": [
        {
          "internalType": "address",
          "name": "token",
          "type": "address"
        },
        {
          "internalType": "uint256",
          "name": "id",
          "type": "uint256"
        },
        {
          "internalType": "uint256",
          "name": "amount",
          "type": "uint256"
        },
        {
          "internalType": "address",
          "name": "owner",
          "type": "address"
        }
      ],
      "name": "asETHCollateral",
      "outputs": [
        {
          "internalType": "uint256",
          "name": "",
          "type": "uint256"
        }
      ],
      "stateMutability": "view",
      "type": "function"
    },
    {
      "inputs": [
        {
          "internalType": "address",
          "name": "tokenIn",
          "type": "address"
        },
        {
          "internalType": "address",
          "name": "tokenOut",
          "type": "address"
        },
        {
          "internalType": "uint256",
          "name": "tokenOutId",
          "type": "uint256"
        },
        {
          "internalType": "uint256",
          "name": "amountIn",
          "type": "uint256"
        }
      ],
      "name": "convertForLiquidation",
      "outputs": [
        {
          "internalType": "uint256",
          "name": "",
          "type": "uint256"
        }
      ],
      "stateMutability": "view",
      "type": "function"
    },
    {
      "inputs": [],
      "name": "governor",
      "outputs": [
        {
          "internalType": "address",
          "name": "",
          "type": "address"
        }
      ],
      "stateMutability": "view",
      "type": "function"
    },
    {
      "inputs": [],
      "name": "pendingGovernor",
      "outputs": [
        {
          "internalType": "address",
          "name": "",
          "type": "address"
        }
      ],
      "stateMutability": "view",
      "type": "function"
    },
    {
      "inputs": [
        {
          "internalType": "address",
          "name": "_pendingGovernor",
          "type": "address"
        }
      ],
      "name": "setPendingGovernor",
      "outputs": [],
      "stateMutability": "nonpayable",
      "type": "function"
    },
    {
      "inputs": [
        {
          "internalType": "address[]",
          "name": "tokens",
          "type": "address[]"
        },
        {
          "components": [
            {
              "internalType": "uint16",
              "name": "borrowFactor",
              "type": "uint16"
            },
            {
              "internalType": "uint16",
              "name": "collateralFactor",
              "type": "uint16"
            },
            {
              "internalType": "uint16",
              "name": "liqIncentive",
              "type": "uint16"
            }
          ],
          "internalType": "struct ProxyOracle.TokenFactors[]",
          "name": "_tokenFactors",
          "type": "tuple[]"
        }
      ],
      "name": "setTokenFactors",
      "outputs": [],
      "stateMutability": "nonpayable",
      "type": "function"
    },
    {
      "inputs": [
        {
          "internalType": "address[]",
          "name": "tokens",
          "type": "address[]"
        },
        {
          "internalType": "bool",
          "name": "ok",
          "type": "bool"
        }
      ],
      "name": "setWhitelistERC1155",
      "outputs": [],
      "stateMutability": "nonpayable",
      "type": "function"
    },
    {
      "inputs": [],
      "name": "source",
      "outputs": [
        {
          "internalType": "contract IBaseOracle",
          "name": "",
          "type": "address"
        }
      ],
      "stateMutability": "view",
      "type": "function"
    },
    {
      "inputs": [
        {
          "internalType": "address",
          "name": "token",
          "type": "address"
        }
      ],
      "name": "support",
      "outputs": [
        {
          "internalType": "bool",
          "name": "",
          "type": "bool"
        }
      ],
      "stateMutability": "view",
      "type": "function"
    },
    {
      "inputs": [
        {
          "internalType": "address",
          "name": "token",
          "type": "address"
        },
        {
          "internalType": "uint256",
          "name": "id",
          "type": "uint256"
        }
      ],
      "name": "supportWrappedToken",
      "outputs": [
        {
          "internalType": "bool",
          "name": "",
          "type": "bool"
        }
      ],
      "stateMutability": "view",
      "type": "function"
    },
    {
      "inputs": [
        {
          "internalType": "address",
          "name": "",
          "type": "address"
        }
      ],
      "name": "tokenFactors",
      "outputs": [
        {
          "internalType": "uint16",
          "name": "borrowFactor",
          "type": "uint16"
        },
        {
          "internalType": "uint16",
          "name": "collateralFactor",
          "type": "uint16"
        },
        {
          "internalType": "uint16",
          "name": "liqIncentive",
          "type": "uint16"
        }
      ],
      "stateMutability": "view",
      "type": "function"
    },
    {
      "inputs": [
        {
          "internalType": "address[]",
          "name": "tokens",
          "type": "address[]"
        }
      ],
      "name": "unsetTokenFactors",
      "outputs": [],
      "stateMutability": "nonpayable",
      "type": "function"
    },
    {
      "inputs": [
        {
          "internalType": "address",
          "name": "",
          "type": "address"
        }
      ],
      "name": "whitelistERC1155",
      "outputs": [
        {
          "internalType": "bool",
          "name": "",
          "type": "bool"
        }
      ],
      "stateMutability": "view",
      "type": "function"
    }
  ],
  "bytecode": "0x60a06040523480156200001157600080fd5b5060405162002e6d38038062002e6d833981810160405281019062000037919062000280565b8073ffffffffffffffffffffffffffffffffffffffff1660808173ffffffffffffffffffffffffffffffffffffffff1660601b815250506200007e6200008560201b60201c565b5062000413565b600060019054906101000a900460ff1680620000ad5750620000ac6200023860201b60201c565b5b80620000c4575060008054906101000a900460ff16155b62000106576040517f08c379a0000000000000000000000000000000000000000000000000000000008152600401620000fd9062000342565b60405180910390fd5b60008060019054906101000a900460ff16159050801562000157576001600060016101000a81548160ff02191690831515021790555060016000806101000a81548160ff0219169083151502179055505b33600060026101000a81548173ffffffffffffffffffffffffffffffffffffffff021916908373ffffffffffffffffffffffffffffffffffffffff1602179055506000600160006101000a81548173ffffffffffffffffffffffffffffffffffffffff021916908373ffffffffffffffffffffffffffffffffffffffff1602179055507fbce074c8369e26e70e1ae2f14fc944da352cfe6f52e2de9572f0c9942a24b7fc336040516200020b919062000325565b60405180910390a18015620002355760008060016101000a81548160ff0219169083151502179055505b50565b600062000250306200025660201b62001b661760201c565b15905090565b600080823b905060008111915050919050565b6000815190506200027a81620003f9565b92915050565b6000602082840312156200029357600080fd5b6000620002a38482850162000269565b91505092915050565b620002b781620003bd565b82525050565b6000620002cc602e8362000364565b91507f496e697469616c697a61626c653a20636f6e747261637420697320616c72656160008301527f647920696e697469616c697a65640000000000000000000000000000000000006020830152604082019050919050565b60006020820190506200033c6000830184620002ac565b92915050565b600060208201905081810360008301526200035d81620002bd565b9050919050565b600082825260208201905092915050565b600062000382826200039d565b9050919050565b6000620003968262000375565b9050919050565b600073ffffffffffffffffffffffffffffffffffffffff82169050919050565b6000620003ca82620003d1565b9050919050565b6000620003de82620003e5565b9050919050565b6000620003f2826200039d565b9050919050565b620004048162000389565b81146200041057600080fd5b50565b60805160601c612a236200044a6000398061064b5280610b355280610fe45280611091528061131252806115875250612a236000f3fe608060405234801561001057600080fd5b50600436106100f55760003560e01c80638345483211610097578063e58bb63911610066578063e58bb639146102ae578063e660cc08146102b8578063e7a9883e146102e8578063f235757f14610304576100f5565b80638345483214610200578063c38e795c14610230578063d596bc0314610260578063e3056a3414610290576100f5565b80636437388a116100d35780636437388a1461017857806367e828bf1461019457806378513230146101b25780637b3b022d146101ce576100f5565b80630c340a24146100fa5780632461a40914610118578063495621fb14610148575b600080fd5b610102610320565b60405161010f91906125ba565b60405180910390f35b610132600480360381019061012d9190611f05565b610346565b60405161013f91906125f0565b60405180910390f35b610162600480360381019061015d9190611e50565b610492565b60405161016f91906125f0565b60405180910390f35b610192600480360381019061018d9190611ff3565b6104b2565b005b61019c610649565b6040516101a9919061260b565b60405180910390f35b6101cc60048036038101906101c791906120a0565b61066d565b005b6101e860048036038101906101e39190611e50565b6107e6565b6040516101f793929190612801565b60405180910390f35b61021a60048036038101906102159190611f90565b61083a565b6040516102279190612838565b60405180910390f35b61024a60048036038101906102459190611ea2565b610c38565b6040516102579190612838565b60405180910390f35b61027a60048036038101906102759190611f41565b6111f5565b6040516102879190612838565b60405180910390f35b610298611411565b6040516102a591906125ba565b60405180910390f35b6102b6611437565b005b6102d260048036038101906102cd9190611e50565b611583565b6040516102df91906125f0565b60405180910390f35b61030260048036038101906102fd9190612034565b6116a3565b005b61031e60048036038101906103199190611e50565b611a5b565b005b600060029054906101000a900473ffffffffffffffffffffffffffffffffffffffff1681565b6000604360008473ffffffffffffffffffffffffffffffffffffffff1673ffffffffffffffffffffffffffffffffffffffff16815260200190815260200160002060009054906101000a900460ff166103a2576000905061048c565b60008373ffffffffffffffffffffffffffffffffffffffff1663a4775772846040518263ffffffff1660e01b81526004016103dd9190612838565b60206040518083038186803b1580156103f557600080fd5b505afa158015610409573d6000803e3d6000fd5b505050506040513d601f19601f8201168201806040525081019061042d9190611e79565b90506000604260008373ffffffffffffffffffffffffffffffffffffffff1673ffffffffffffffffffffffffffffffffffffffff16815260200190815260200160002060000160049054906101000a900461ffff1661ffff1614159150505b92915050565b60436020528060005260406000206000915054906101000a900460ff1681565b600060029054906101000a900473ffffffffffffffffffffffffffffffffffffffff1673ffffffffffffffffffffffffffffffffffffffff163373ffffffffffffffffffffffffffffffffffffffff1614610542576040517f08c379a0000000000000000000000000000000000000000000000000000000008152600401610539906126a6565b60405180910390fd5b60005b8151811015610645576042600083838151811061055e57fe5b602002602001015173ffffffffffffffffffffffffffffffffffffffff1673ffffffffffffffffffffffffffffffffffffffff168152602001908152602001600020600080820160006101000a81549061ffff02191690556000820160026101000a81549061ffff02191690556000820160046101000a81549061ffff021916905550508181815181106105ee57fe5b602002602001015173ffffffffffffffffffffffffffffffffffffffff167f995b73152d62a9a92bd554852db356f087e63690e0cb9656cedd21a8d0e27c1b60405160405180910390a28080600101915050610545565b5050565b7f000000000000000000000000000000000000000000000000000000000000000081565b600060029054906101000a900473ffffffffffffffffffffffffffffffffffffffff1673ffffffffffffffffffffffffffffffffffffffff163373ffffffffffffffffffffffffffffffffffffffff16146106fd576040517f08c379a00000000000000000000000000000000000000000000000000000000081526004016106f4906126a6565b60405180910390fd5b60005b82518110156107e157816043600085848151811061071a57fe5b602002602001015173ffffffffffffffffffffffffffffffffffffffff1673ffffffffffffffffffffffffffffffffffffffff16815260200190815260200160002060006101000a81548160ff02191690831515021790555082818151811061077f57fe5b602002602001015173ffffffffffffffffffffffffffffffffffffffff167ff6019ec0a78d156d249a1ec7579e2321f6ac7521d6e1d2eacf90ba4a184dcceb836040516107cc91906125f0565b60405180910390a28080600101915050610700565b505050565b60426020528060005260406000206000915090508060000160009054906101000a900461ffff16908060000160029054906101000a900461ffff16908060000160049054906101000a900461ffff16905083565b6000604360008673ffffffffffffffffffffffffffffffffffffffff1673ffffffffffffffffffffffffffffffffffffffff16815260200190815260200160002060009054906101000a900460ff166108c8576040517f08c379a00000000000000000000000000000000000000000000000000000000081526004016108bf906126c6565b60405180910390fd5b60008573ffffffffffffffffffffffffffffffffffffffff1663a4775772866040518263ffffffff1660e01b81526004016109039190612838565b60206040518083038186803b15801561091b57600080fd5b505afa15801561092f573d6000803e3d6000fd5b505050506040513d601f19601f820116820180604052508101906109539190611e79565b905060008673ffffffffffffffffffffffffffffffffffffffff1663af8002df876040518263ffffffff1660e01b81526004016109909190612838565b60206040518083038186803b1580156109a857600080fd5b505afa1580156109bc573d6000803e3d6000fd5b505050506040513d601f19601f820116820180604052508101906109e091906120f4565b90506000610a186e010000000000000000000000000000610a0a8489611b7990919063ffffffff16565b611be990919063ffffffff16565b9050610a22611c3f565b604260008573ffffffffffffffffffffffffffffffffffffffff1673ffffffffffffffffffffffffffffffffffffffff1681526020019081526020016000206040518060600160405290816000820160009054906101000a900461ffff1661ffff1661ffff1681526020016000820160029054906101000a900461ffff1661ffff1661ffff1681526020016000820160049054906101000a900461ffff1661ffff1661ffff168152505090506000816040015161ffff161415610b1a576040517f08c379a0000000000000000000000000000000000000000000000000000000008152600401610b1190612626565b60405180910390fd5b6000610bf86e010000000000000000000000000000610bea857f000000000000000000000000000000000000000000000000000000000000000073ffffffffffffffffffffffffffffffffffffffff1663ab9aadfe8a6040518263ffffffff1660e01b8152600401610b8c91906125ba565b60206040518083038186803b158015610ba457600080fd5b505afa158015610bb8573d6000803e3d6000fd5b505050506040513d601f19601f82011682018060405250810190610bdc91906120f4565b611b7990919063ffffffff16565b611be990919063ffffffff16565b9050610c29612710610c1b846020015161ffff1684611b7990919063ffffffff16565b611be990919063ffffffff16565b95505050505050949350505050565b6000604360008573ffffffffffffffffffffffffffffffffffffffff1673ffffffffffffffffffffffffffffffffffffffff16815260200190815260200160002060009054906101000a900460ff16610cc6576040517f08c379a0000000000000000000000000000000000000000000000000000000008152600401610cbd906126c6565b60405180910390fd5b60008473ffffffffffffffffffffffffffffffffffffffff1663a4775772856040518263ffffffff1660e01b8152600401610d019190612838565b60206040518083038186803b158015610d1957600080fd5b505afa158015610d2d573d6000803e3d6000fd5b505050506040513d601f19601f82011682018060405250810190610d519190611e79565b905060008573ffffffffffffffffffffffffffffffffffffffff1663af8002df866040518263ffffffff1660e01b8152600401610d8e9190612838565b60206040518083038186803b158015610da657600080fd5b505afa158015610dba573d6000803e3d6000fd5b505050506040513d601f19601f82011682018060405250810190610dde91906120f4565b9050610de8611c3f565b604260008973ffffffffffffffffffffffffffffffffffffffff1673ffffffffffffffffffffffffffffffffffffffff1681526020019081526020016000206040518060600160405290816000820160009054906101000a900461ffff1661ffff1661ffff1681526020016000820160029054906101000a900461ffff1661ffff1661ffff1681526020016000820160049054906101000a900461ffff1661ffff1661ffff16815250509050610e9c611c3f565b604260008573ffffffffffffffffffffffffffffffffffffffff1673ffffffffffffffffffffffffffffffffffffffff1681526020019081526020016000206040518060600160405290816000820160009054906101000a900461ffff1661ffff1661ffff1681526020016000820160029054906101000a900461ffff1661ffff1661ffff1681526020016000820160049054906101000a900461ffff1661ffff1661ffff168152505090506000826040015161ffff161415610f94576040517f08c379a0000000000000000000000000000000000000000000000000000000008152600401610f8b90612786565b60405180910390fd5b6000816040015161ffff161415610fe0576040517f08c379a0000000000000000000000000000000000000000000000000000000008152600401610fd790612646565b60405180910390fd5b60007f000000000000000000000000000000000000000000000000000000000000000073ffffffffffffffffffffffffffffffffffffffff1663ab9aadfe8b6040518263ffffffff1660e01b815260040161103b91906125ba565b60206040518083038186803b15801561105357600080fd5b505afa158015611067573d6000803e3d6000fd5b505050506040513d601f19601f8201168201806040525081019061108b91906120f4565b905060007f000000000000000000000000000000000000000000000000000000000000000073ffffffffffffffffffffffffffffffffffffffff1663ab9aadfe876040518263ffffffff1660e01b81526004016110e891906125ba565b60206040518083038186803b15801561110057600080fd5b505afa158015611114573d6000803e3d6000fd5b505050506040513d601f19601f8201168201806040525081019061113891906120f4565b9050600061116182611153858c611b7990919063ffffffff16565b611be990919063ffffffff16565b9050611197866111896e01000000000000000000000000000084611b7990919063ffffffff16565b611be990919063ffffffff16565b90506111e46305f5e1006111d6866040015161ffff166111c8896040015161ffff1686611b7990919063ffffffff16565b611b7990919063ffffffff16565b611be990919063ffffffff16565b975050505050505050949350505050565b60006111ff611c3f565b604260008673ffffffffffffffffffffffffffffffffffffffff1673ffffffffffffffffffffffffffffffffffffffff1681526020019081526020016000206040518060600160405290816000820160009054906101000a900461ffff1661ffff1661ffff1681526020016000820160029054906101000a900461ffff1661ffff1661ffff1681526020016000820160049054906101000a900461ffff1661ffff1661ffff168152505090506000816040015161ffff1614156112f7576040517f08c379a00000000000000000000000000000000000000000000000000000000081526004016112ee906126e6565b60405180910390fd5b60006113d56e0100000000000000000000000000006113c7877f000000000000000000000000000000000000000000000000000000000000000073ffffffffffffffffffffffffffffffffffffffff1663ab9aadfe8b6040518263ffffffff1660e01b815260040161136991906125ba565b60206040518083038186803b15801561138157600080fd5b505afa158015611395573d6000803e3d6000fd5b505050506040513d601f19601f820116820180604052508101906113b991906120f4565b611b7990919063ffffffff16565b611be990919063ffffffff16565b90506114066127106113f8846000015161ffff1684611b7990919063ffffffff16565b611be990919063ffffffff16565b925050509392505050565b600160009054906101000a900473ffffffffffffffffffffffffffffffffffffffff1681565b600160009054906101000a900473ffffffffffffffffffffffffffffffffffffffff1673ffffffffffffffffffffffffffffffffffffffff163373ffffffffffffffffffffffffffffffffffffffff16146114c7576040517f08c379a00000000000000000000000000000000000000000000000000000000081526004016114be90612666565b60405180910390fd5b6000600160006101000a81548173ffffffffffffffffffffffffffffffffffffffff021916908373ffffffffffffffffffffffffffffffffffffffff16021790555033600060026101000a81548173ffffffffffffffffffffffffffffffffffffffff021916908373ffffffffffffffffffffffffffffffffffffffff1602179055507fd345d81ce68c70b119a17eee79dc1421700bd9cb21ca148a62dc90983964e82f3360405161157991906125d5565b60405180910390a1565b60007f000000000000000000000000000000000000000000000000000000000000000073ffffffffffffffffffffffffffffffffffffffff1663ab9aadfe836040518263ffffffff1660e01b81526004016115de91906125ba565b60206040518083038186803b1580156115f657600080fd5b505afa92505050801561162757506040513d601f19601f8201168201806040525081019061162491906120f4565b60015b611634576000905061169e565b6000811415801561169a57506000604260008573ffffffffffffffffffffffffffffffffffffffff1673ffffffffffffffffffffffffffffffffffffffff16815260200190815260200160002060000160049054906101000a900461ffff1661ffff1614155b9150505b919050565b600060029054906101000a900473ffffffffffffffffffffffffffffffffffffffff1673ffffffffffffffffffffffffffffffffffffffff163373ffffffffffffffffffffffffffffffffffffffff1614611733576040517f08c379a000000000000000000000000000000000000000000000000000000000815260040161172a906126a6565b60405180910390fd5b8051825114611777576040517f08c379a000000000000000000000000000000000000000000000000000000000815260040161176e906127a6565b60405180910390fd5b60005b8251811015611a565761271082828151811061179257fe5b60200260200101516000015161ffff1610156117e3576040517f08c379a00000000000000000000000000000000000000000000000000000000081526004016117da90612766565b60405180910390fd5b6127108282815181106117f257fe5b60200260200101516020015161ffff161115611843576040517f08c379a000000000000000000000000000000000000000000000000000000000815260040161183a90612726565b60405180910390fd5b61271082828151811061185257fe5b60200260200101516040015161ffff1610156118a3576040517f08c379a000000000000000000000000000000000000000000000000000000000815260040161189a90612746565b60405180910390fd5b614e208282815181106118b257fe5b60200260200101516040015161ffff161115611903576040517f08c379a00000000000000000000000000000000000000000000000000000000081526004016118fa906127c6565b60405180910390fd5b81818151811061190f57fe5b60200260200101516042600085848151811061192757fe5b602002602001015173ffffffffffffffffffffffffffffffffffffffff1673ffffffffffffffffffffffffffffffffffffffff16815260200190815260200160002060008201518160000160006101000a81548161ffff021916908361ffff16021790555060208201518160000160026101000a81548161ffff021916908361ffff16021790555060408201518160000160046101000a81548161ffff021916908361ffff1602179055509050508281815181106119e157fe5b602002602001015173ffffffffffffffffffffffffffffffffffffffff167fc35b295ca62f561378f46da3a41b523fb1dc01cfb8d4036f8aa13363958ed458838381518110611a2c57fe5b6020026020010151604051611a4191906127e6565b60405180910390a2808060010191505061177a565b505050565b600060029054906101000a900473ffffffffffffffffffffffffffffffffffffffff1673ffffffffffffffffffffffffffffffffffffffff163373ffffffffffffffffffffffffffffffffffffffff1614611aeb576040517f08c379a0000000000000000000000000000000000000000000000000000000008152600401611ae2906126a6565b60405180910390fd5b80600160006101000a81548173ffffffffffffffffffffffffffffffffffffffff021916908373ffffffffffffffffffffffffffffffffffffffff1602179055507f964dea888b00b2ab53f13dfe7ca334b46e99338c222ae232d98547a1da019f6081604051611b5b91906125ba565b60405180910390a150565b600080823b905060008111915050919050565b600080831415611b8c5760009050611be3565b6000828402905082848281611b9d57fe5b0414611bde576040517f08c379a0000000000000000000000000000000000000000000000000000000008152600401611bd590612706565b60405180910390fd5b809150505b92915050565b6000808211611c2d576040517f08c379a0000000000000000000000000000000000000000000000000000000008152600401611c2490612686565b60405180910390fd5b818381611c3657fe5b04905092915050565b6040518060600160405280600061ffff168152602001600061ffff168152602001600061ffff1681525090565b600081359050611c7b81612991565b92915050565b600081519050611c9081612991565b92915050565b600082601f830112611ca757600080fd5b8135611cba611cb582612880565b612853565b91508181835260208401935060208101905083856020840282011115611cdf57600080fd5b60005b83811015611d0f5781611cf58882611c6c565b845260208401935060208301925050600181019050611ce2565b5050505092915050565b600082601f830112611d2a57600080fd5b8135611d3d611d38826128a8565b612853565b91508181835260208401935060208101905083856060840282011115611d6257600080fd5b60005b83811015611d925781611d788882611db1565b845260208401935060608301925050600181019050611d65565b5050505092915050565b600081359050611dab816129a8565b92915050565b600060608284031215611dc357600080fd5b611dcd6060612853565b90506000611ddd84828501611e11565b6000830152506020611df184828501611e11565b6020830152506040611e0584828501611e11565b60408301525092915050565b600081359050611e20816129bf565b92915050565b600081359050611e35816129d6565b92915050565b600081519050611e4a816129d6565b92915050565b600060208284031215611e6257600080fd5b6000611e7084828501611c6c565b91505092915050565b600060208284031215611e8b57600080fd5b6000611e9984828501611c81565b91505092915050565b60008060008060808587031215611eb857600080fd5b6000611ec687828801611c6c565b9450506020611ed787828801611c6c565b9350506040611ee887828801611e26565b9250506060611ef987828801611e26565b91505092959194509250565b60008060408385031215611f1857600080fd5b6000611f2685828601611c6c565b9250506020611f3785828601611e26565b9150509250929050565b600080600060608486031215611f5657600080fd5b6000611f6486828701611c6c565b9350506020611f7586828701611e26565b9250506040611f8686828701611c6c565b9150509250925092565b60008060008060808587031215611fa657600080fd5b6000611fb487828801611c6c565b9450506020611fc587828801611e26565b9350506040611fd687828801611e26565b9250506060611fe787828801611c6c565b91505092959194509250565b60006020828403121561200557600080fd5b600082013567ffffffffffffffff81111561201f57600080fd5b61202b84828501611c96565b91505092915050565b6000806040838503121561204757600080fd5b600083013567ffffffffffffffff81111561206157600080fd5b61206d85828601611c96565b925050602083013567ffffffffffffffff81111561208a57600080fd5b61209685828601611d19565b9150509250929050565b600080604083850312156120b357600080fd5b600083013567ffffffffffffffff8111156120cd57600080fd5b6120d985828601611c96565b92505060206120ea85828601611d9c565b9150509250929050565b60006020828403121561210657600080fd5b600061211484828501611e3b565b91505092915050565b61212681612937565b82525050565b612135816128e1565b82525050565b612144816128f3565b82525050565b61215381612949565b82525050565b60006121666019836128d0565b91507f62616420756e6465726c79696e6720636f6c6c61746572616c000000000000006000830152602082019050919050565b60006121a66012836128d0565b91507f62616420756e6465726c79696e67206f757400000000000000000000000000006000830152602082019050919050565b60006121e66018836128d0565b91507f6e6f74207468652070656e64696e6720676f7665726e6f7200000000000000006000830152602082019050919050565b6000612226601a836128d0565b91507f536166654d6174683a206469766973696f6e206279207a65726f0000000000006000830152602082019050919050565b60006122666010836128d0565b91507f6e6f742074686520676f7665726e6f72000000000000000000000000000000006000830152602082019050919050565b60006122a66009836128d0565b91507f62616420746f6b656e00000000000000000000000000000000000000000000006000830152602082019050919050565b60006122e66015836128d0565b91507f62616420756e6465726c79696e6720626f72726f7700000000000000000000006000830152602082019050919050565b60006123266021836128d0565b91507f536166654d6174683a206d756c7469706c69636174696f6e206f766572666c6f60008301527f77000000000000000000000000000000000000000000000000000000000000006020830152604082019050919050565b600061238c6026836128d0565b91507f636f6c6c61746572616c20666163746f72206d757374206265206174206d6f7360008301527f74203130302500000000000000000000000000000000000000000000000000006020830152604082019050919050565b60006123f2601f836128d0565b91507f696e63656e74697665206d757374206265206174206c656173742031303025006000830152602082019050919050565b60006124326023836128d0565b91507f626f72726f7720666163746f72206d757374206265206174206c65617374203160008301527f30302500000000000000000000000000000000000000000000000000000000006020830152604082019050919050565b60006124986011836128d0565b91507f62616420756e6465726c79696e6720696e0000000000000000000000000000006000830152602082019050919050565b60006124d86013836128d0565b91507f696e636f6e73697374656e74206c656e677468000000000000000000000000006000830152602082019050919050565b6000612518601e836128d0565b91507f696e63656e74697665206d757374206265206174206d6f7374203230302500006000830152602082019050919050565b606082016000820151612561600085018261258d565b506020820151612574602085018261258d565b506040820151612587604085018261258d565b50505050565b612596816128ff565b82525050565b6125a5816128ff565b82525050565b6125b48161292d565b82525050565b60006020820190506125cf600083018461212c565b92915050565b60006020820190506125ea600083018461211d565b92915050565b6000602082019050612605600083018461213b565b92915050565b6000602082019050612620600083018461214a565b92915050565b6000602082019050818103600083015261263f81612159565b9050919050565b6000602082019050818103600083015261265f81612199565b9050919050565b6000602082019050818103600083015261267f816121d9565b9050919050565b6000602082019050818103600083015261269f81612219565b9050919050565b600060208201905081810360008301526126bf81612259565b9050919050565b600060208201905081810360008301526126df81612299565b9050919050565b600060208201905081810360008301526126ff816122d9565b9050919050565b6000602082019050818103600083015261271f81612319565b9050919050565b6000602082019050818103600083015261273f8161237f565b9050919050565b6000602082019050818103600083015261275f816123e5565b9050919050565b6000602082019050818103600083015261277f81612425565b9050919050565b6000602082019050818103600083015261279f8161248b565b9050919050565b600060208201905081810360008301526127bf816124cb565b9050919050565b600060208201905081810360008301526127df8161250b565b9050919050565b60006060820190506127fb600083018461254b565b92915050565b6000606082019050612816600083018661259c565b612823602083018561259c565b612830604083018461259c565b949350505050565b600060208201905061284d60008301846125ab565b92915050565b6000604051905081810181811067ffffffffffffffff8211171561287657600080fd5b8060405250919050565b600067ffffffffffffffff82111561289757600080fd5b602082029050602081019050919050565b600067ffffffffffffffff8211156128bf57600080fd5b602082029050602081019050919050565b600082825260208201905092915050565b60006128ec8261290d565b9050919050565b60008115159050919050565b600061ffff82169050919050565b600073ffffffffffffffffffffffffffffffffffffffff82169050919050565b6000819050919050565b60006129428261296d565b9050919050565b60006129548261295b565b9050919050565b60006129668261290d565b9050919050565b60006129788261297f565b9050919050565b600061298a8261290d565b9050919050565b61299a816128e1565b81146129a557600080fd5b50565b6129b1816128f3565b81146129bc57600080fd5b50565b6129c8816128ff565b81146129d357600080fd5b50565b6129df8161292d565b81146129ea57600080fd5b5056fea264697066735822122006d42f7947e389810d1c969022a9dfd444779a1dfb2d9c59e42ac9cc42fa8fd464736f6c634300060c0033",
  "linkReferences": {},
  "deployedLinkReferences": {}
}