{
  "_format": "hh-sol-artifact-1",
  "contractName": "HomoraCaster",
  "sourceName": "contracts/HomoraBank.sol",
  "abi": [
    {
      "inputs": [
        {
          "internalType": "address",
          "name": "target",
          "type": "address"
        },
        {
          "internalType": "bytes",
          "name": "data",
          "type": "bytes"
        }
      ],
      "name": "cast",
      "outputs": [],
      "stateMutability": "payable",
      "type": "function"
    }
  ],
  "bytecode": "0x608060405234801561001057600080fd5b506101f9806100206000396000f3fe60806040526004361061001e5760003560e01c8063be2a1f7914610023575b600080fd5b6100ba6004803603604081101561003957600080fd5b81019080803573ffffffffffffffffffffffffffffffffffffffff1690602001909291908035906020019064010000000081111561007657600080fd5b82018360208201111561008857600080fd5b803590602001918460018302840111640100000000831117156100aa57600080fd5b90919293919293905050506100bc565b005b600060608473ffffffffffffffffffffffffffffffffffffffff1634858560405180838380828437808301925050509250505060006040518083038185875af1925050503d806000811461012c576040519150601f19603f3d011682016040523d82523d6000602084013e610131565b606091505b5091509150816101bc5760008151111561014e5780518082602001fd5b6040517f08c379a000000000000000000000000000000000000000000000000000000000815260040180806020018281038252600d8152602001807f62616420636173742063616c6c0000000000000000000000000000000000000081525060200191505060405180910390fd5b505050505056fea264697066735822122008a0b6030956fc44bc8ed908e6565f0f0aab9d717756ddf938e92e925b520eee64736f6c634300060c0033",
  "linkReferences": {},
  "deployedLinkReferences": {}
}