{
  "_format": "hh-sol-artifact-1",
  "contractName": "HomoraBank",
  "sourceName": "contracts/HomoraBank.sol",
  "abi": [
    {
      "anonymous": false,
      "inputs": [
        {
          "indexed": false,
          "internalType": "address",
          "name": "governor",
          "type": "address"
        }
      ],
      "name": "AcceptGovernor",
      "type": "event"
    },
    {
      "anonymous": false,
      "inputs": [
        {
          "indexed": false,
          "internalType": "address",
          "name": "token",
          "type": "address"
        },
        {
          "indexed": false,
          "internalType": "address",
          "name": "cToken",
          "type": "address"
        }
      ],
      "name": "AddBank",
      "type": "event"
    },
    {
      "anonymous": false,
      "inputs": [
        {
          "indexed": false,
          "internalType": "uint256",
          "name": "positionId",
          "type": "uint256"
        },
        {
          "indexed": false,
          "internalType": "address",
          "name": "caller",
          "type": "address"
        },
        {
          "indexed": false,
          "internalType": "address",
          "name": "token",
          "type": "address"
        },
        {
          "indexed": false,
          "internalType": "uint256",
          "name": "amount",
          "type": "uint256"
        },
        {
          "indexed": false,
          "internalType": "uint256",
          "name": "share",
          "type": "uint256"
        }
      ],
      "name": "Borrow",
      "type": "event"
    },
    {
      "anonymous": false,
      "inputs": [
        {
          "indexed": false,
          "internalType": "uint256",
          "name": "positionId",
          "type": "uint256"
        },
        {
          "indexed": false,
          "internalType": "address",
          "name": "liquidator",
          "type": "address"
        },
        {
          "indexed": false,
          "internalType": "address",
          "name": "debtToken",
          "type": "address"
        },
        {
          "indexed": false,
          "internalType": "uint256",
          "name": "amount",
          "type": "uint256"
        },
        {
          "indexed": false,
          "internalType": "uint256",
          "name": "share",
          "type": "uint256"
        },
        {
          "indexed": false,
          "internalType": "uint256",
          "name": "bounty",
          "type": "uint256"
        }
      ],
      "name": "Liquidate",
      "type": "event"
    },
    {
      "anonymous": false,
      "inputs": [
        {
          "indexed": false,
          "internalType": "uint256",
          "name": "positionId",
          "type": "uint256"
        },
        {
          "indexed": false,
          "internalType": "address",
          "name": "caller",
          "type": "address"
        },
        {
          "indexed": false,
          "internalType": "address",
          "name": "token",
          "type": "address"
        },
        {
          "indexed": false,
          "internalType": "uint256",
          "name": "id",
          "type": "uint256"
        },
        {
          "indexed": false,
          "internalType": "uint256",
          "name": "amount",
          "type": "uint256"
        }
      ],
      "name": "PutCollateral",
      "type": "event"
    },
    {
      "anonymous": false,
      "inputs": [
        {
          "indexed": false,
          "internalType": "uint256",
          "name": "positionId",
          "type": "uint256"
        },
        {
          "indexed": false,
          "internalType": "address",
          "name": "caller",
          "type": "address"
        },
        {
          "indexed": false,
          "internalType": "address",
          "name": "token",
          "type": "address"
        },
        {
          "indexed": false,
          "internalType": "uint256",
          "name": "amount",
          "type": "uint256"
        },
        {
          "indexed": false,
          "internalType": "uint256",
          "name": "share",
          "type": "uint256"
        }
      ],
      "name": "Repay",
      "type": "event"
    },
    {
      "anonymous": false,
      "inputs": [
        {
          "indexed": false,
          "internalType": "uint256",
          "name": "feeBps",
          "type": "uint256"
        }
      ],
      "name": "SetFeeBps",
      "type": "event"
    },
    {
      "anonymous": false,
      "inputs": [
        {
          "indexed": false,
          "internalType": "address",
          "name": "governor",
          "type": "address"
        }
      ],
      "name": "SetGovernor",
      "type": "event"
    },
    {
      "anonymous": false,
      "inputs": [
        {
          "indexed": false,
          "internalType": "address",
          "name": "oracle",
          "type": "address"
        }
      ],
      "name": "SetOracle",
      "type": "event"
    },
    {
      "anonymous": false,
      "inputs": [
        {
          "indexed": false,
          "internalType": "address",
          "name": "pendingGovernor",
          "type": "address"
        }
      ],
      "name": "SetPendingGovernor",
      "type": "event"
    },
    {
      "anonymous": false,
      "inputs": [
        {
          "indexed": false,
          "internalType": "uint256",
          "name": "positionId",
          "type": "uint256"
        },
        {
          "indexed": false,
          "internalType": "address",
          "name": "caller",
          "type": "address"
        },
        {
          "indexed": false,
          "internalType": "address",
          "name": "token",
          "type": "address"
        },
        {
          "indexed": false,
          "internalType": "uint256",
          "name": "id",
          "type": "uint256"
        },
        {
          "indexed": false,
          "internalType": "uint256",
          "name": "amount",
          "type": "uint256"
        }
      ],
      "name": "TakeCollateral",
      "type": "event"
    },
    {
      "anonymous": false,
      "inputs": [
        {
          "indexed": false,
          "internalType": "address",
          "name": "user",
          "type": "address"
        },
        {
          "indexed": false,
          "internalType": "address",
          "name": "token",
          "type": "address"
        },
        {
          "indexed": false,
          "internalType": "uint256",
          "name": "amount",
          "type": "uint256"
        }
      ],
      "name": "WithdrawReserve",
      "type": "event"
    },
    {
      "inputs": [],
      "name": "EXECUTOR",
      "outputs": [
        {
          "internalType": "address",
          "name": "",
          "type": "address"
        }
      ],
      "stateMutability": "view",
      "type": "function"
    },
    {
      "inputs": [],
      "name": "POSITION_ID",
      "outputs": [
        {
          "internalType": "uint256",
          "name": "",
          "type": "uint256"
        }
      ],
      "stateMutability": "view",
      "type": "function"
    },
    {
      "inputs": [],
      "name": "SPELL",
      "outputs": [
        {
          "internalType": "address",
          "name": "",
          "type": "address"
        }
      ],
      "stateMutability": "view",
      "type": "function"
    },
    {
      "inputs": [],
      "name": "_GENERAL_LOCK",
      "outputs": [
        {
          "internalType": "uint256",
          "name": "",
          "type": "uint256"
        }
      ],
      "stateMutability": "view",
      "type": "function"
    },
    {
      "inputs": [],
      "name": "_IN_EXEC_LOCK",
      "outputs": [
        {
          "internalType": "uint256",
          "name": "",
          "type": "uint256"
        }
      ],
      "stateMutability": "view",
      "type": "function"
    },
    {
      "inputs": [],
      "name": "acceptGovernor",
      "outputs": [],
      "stateMutability": "nonpayable",
      "type": "function"
    },
    {
      "inputs": [
        {
          "internalType": "address",
          "name": "token",
          "type": "address"
        }
      ],
      "name": "accrue",
      "outputs": [],
      "stateMutability": "nonpayable",
      "type": "function"
    },
    {
      "inputs": [
        {
          "internalType": "address[]",
          "name": "tokens",
          "type": "address[]"
        }
      ],
      "name": "accrueAll",
      "outputs": [],
      "stateMutability": "nonpayable",
      "type": "function"
    },
    {
      "inputs": [
        {
          "internalType": "address",
          "name": "token",
          "type": "address"
        },
        {
          "internalType": "address",
          "name": "cToken",
          "type": "address"
        }
      ],
      "name": "addBank",
      "outputs": [],
      "stateMutability": "nonpayable",
      "type": "function"
    },
    {
      "inputs": [
        {
          "internalType": "uint256",
          "name": "",
          "type": "uint256"
        }
      ],
      "name": "allBanks",
      "outputs": [
        {
          "internalType": "address",
          "name": "",
          "type": "address"
        }
      ],
      "stateMutability": "view",
      "type": "function"
    },
    {
      "inputs": [],
      "name": "allowBorrowStatus",
      "outputs": [
        {
          "internalType": "bool",
          "name": "",
          "type": "bool"
        }
      ],
      "stateMutability": "view",
      "type": "function"
    },
    {
      "inputs": [],
      "name": "allowContractCalls",
      "outputs": [
        {
          "internalType": "bool",
          "name": "",
          "type": "bool"
        }
      ],
      "stateMutability": "view",
      "type": "function"
    },
    {
      "inputs": [],
      "name": "allowRepayStatus",
      "outputs": [
        {
          "internalType": "bool",
          "name": "",
          "type": "bool"
        }
      ],
      "stateMutability": "view",
      "type": "function"
    },
    {
      "inputs": [],
      "name": "bankStatus",
      "outputs": [
        {
          "internalType": "uint256",
          "name": "",
          "type": "uint256"
        }
      ],
      "stateMutability": "view",
      "type": "function"
    },
    {
      "inputs": [
        {
          "internalType": "address",
          "name": "",
          "type": "address"
        }
      ],
      "name": "banks",
      "outputs": [
        {
          "internalType": "bool",
          "name": "isListed",
          "type": "bool"
        },
        {
          "internalType": "uint8",
          "name": "index",
          "type": "uint8"
        },
        {
          "internalType": "address",
          "name": "cToken",
          "type": "address"
        },
        {
          "internalType": "uint256",
          "name": "reserve",
          "type": "uint256"
        },
        {
          "internalType": "uint256",
          "name": "totalDebt",
          "type": "uint256"
        },
        {
          "internalType": "uint256",
          "name": "totalShare",
          "type": "uint256"
        }
      ],
      "stateMutability": "view",
      "type": "function"
    },
    {
      "inputs": [
        {
          "internalType": "address",
          "name": "token",
          "type": "address"
        },
        {
          "internalType": "uint256",
          "name": "amount",
          "type": "uint256"
        }
      ],
      "name": "borrow",
      "outputs": [],
      "stateMutability": "nonpayable",
      "type": "function"
    },
    {
      "inputs": [
        {
          "internalType": "uint256",
          "name": "positionId",
          "type": "uint256"
        },
        {
          "internalType": "address",
          "name": "token",
          "type": "address"
        }
      ],
      "name": "borrowBalanceCurrent",
      "outputs": [
        {
          "internalType": "uint256",
          "name": "",
          "type": "uint256"
        }
      ],
      "stateMutability": "nonpayable",
      "type": "function"
    },
    {
      "inputs": [
        {
          "internalType": "uint256",
          "name": "positionId",
          "type": "uint256"
        },
        {
          "internalType": "address",
          "name": "token",
          "type": "address"
        }
      ],
      "name": "borrowBalanceStored",
      "outputs": [
        {
          "internalType": "uint256",
          "name": "",
          "type": "uint256"
        }
      ],
      "stateMutability": "view",
      "type": "function"
    },
    {
      "inputs": [
        {
          "internalType": "address",
          "name": "",
          "type": "address"
        }
      ],
      "name": "cTokenInBank",
      "outputs": [
        {
          "internalType": "bool",
          "name": "",
          "type": "bool"
        }
      ],
      "stateMutability": "view",
      "type": "function"
    },
    {
      "inputs": [],
      "name": "caster",
      "outputs": [
        {
          "internalType": "address",
          "name": "",
          "type": "address"
        }
      ],
      "stateMutability": "view",
      "type": "function"
    },
    {
      "inputs": [
        {
          "internalType": "uint256",
          "name": "positionId",
          "type": "uint256"
        },
        {
          "internalType": "address",
          "name": "spell",
          "type": "address"
        },
        {
          "internalType": "bytes",
          "name": "data",
          "type": "bytes"
        }
      ],
      "name": "execute",
      "outputs": [
        {
          "internalType": "uint256",
          "name": "",
          "type": "uint256"
        }
      ],
      "stateMutability": "payable",
      "type": "function"
    },
    {
      "inputs": [],
      "name": "feeBps",
      "outputs": [
        {
          "internalType": "uint256",
          "name": "",
          "type": "uint256"
        }
      ],
      "stateMutability": "view",
      "type": "function"
    },
    {
      "inputs": [
        {
          "internalType": "address",
          "name": "token",
          "type": "address"
        }
      ],
      "name": "getBankInfo",
      "outputs": [
        {
          "internalType": "bool",
          "name": "isListed",
          "type": "bool"
        },
        {
          "internalType": "address",
          "name": "cToken",
          "type": "address"
        },
        {
          "internalType": "uint256",
          "name": "reserve",
          "type": "uint256"
        },
        {
          "internalType": "uint256",
          "name": "totalDebt",
          "type": "uint256"
        },
        {
          "internalType": "uint256",
          "name": "totalShare",
          "type": "uint256"
        }
      ],
      "stateMutability": "view",
      "type": "function"
    },
    {
      "inputs": [
        {
          "internalType": "uint256",
          "name": "positionId",
          "type": "uint256"
        }
      ],
      "name": "getBorrowETHValue",
      "outputs": [
        {
          "internalType": "uint256",
          "name": "",
          "type": "uint256"
        }
      ],
      "stateMutability": "view",
      "type": "function"
    },
    {
      "inputs": [
        {
          "internalType": "uint256",
          "name": "positionId",
          "type": "uint256"
        }
      ],
      "name": "getCollateralETHValue",
      "outputs": [
        {
          "internalType": "uint256",
          "name": "",
          "type": "uint256"
        }
      ],
      "stateMutability": "view",
      "type": "function"
    },
    {
      "inputs": [],
      "name": "getCurrentPositionInfo",
      "outputs": [
        {
          "internalType": "address",
          "name": "owner",
          "type": "address"
        },
        {
          "internalType": "address",
          "name": "collToken",
          "type": "address"
        },
        {
          "internalType": "uint256",
          "name": "collId",
          "type": "uint256"
        },
        {
          "internalType": "uint256",
          "name": "collateralSize",
          "type": "uint256"
        }
      ],
      "stateMutability": "view",
      "type": "function"
    },
    {
      "inputs": [
        {
          "internalType": "uint256",
          "name": "positionId",
          "type": "uint256"
        },
        {
          "internalType": "address",
          "name": "token",
          "type": "address"
        }
      ],
      "name": "getPositionDebtShareOf",
      "outputs": [
        {
          "internalType": "uint256",
          "name": "",
          "type": "uint256"
        }
      ],
      "stateMutability": "view",
      "type": "function"
    },
    {
      "inputs": [
        {
          "internalType": "uint256",
          "name": "positionId",
          "type": "uint256"
        }
      ],
      "name": "getPositionDebts",
      "outputs": [
        {
          "internalType": "address[]",
          "name": "tokens",
          "type": "address[]"
        },
        {
          "internalType": "uint256[]",
          "name": "debts",
          "type": "uint256[]"
        }
      ],
      "stateMutability": "view",
      "type": "function"
    },
    {
      "inputs": [
        {
          "internalType": "uint256",
          "name": "positionId",
          "type": "uint256"
        }
      ],
      "name": "getPositionInfo",
      "outputs": [
        {
          "internalType": "address",
          "name": "owner",
          "type": "address"
        },
        {
          "internalType": "address",
          "name": "collToken",
          "type": "address"
        },
        {
          "internalType": "uint256",
          "name": "collId",
          "type": "uint256"
        },
        {
          "internalType": "uint256",
          "name": "collateralSize",
          "type": "uint256"
        }
      ],
      "stateMutability": "view",
      "type": "function"
    },
    {
      "inputs": [],
      "name": "governor",
      "outputs": [
        {
          "internalType": "address",
          "name": "",
          "type": "address"
        }
      ],
      "stateMutability": "view",
      "type": "function"
    },
    {
      "inputs": [
        {
          "internalType": "contract IOracle",
          "name": "_oracle",
          "type": "address"
        },
        {
          "internalType": "uint256",
          "name": "_feeBps",
          "type": "uint256"
        }
      ],
      "name": "initialize",
      "outputs": [],
      "stateMutability": "nonpayable",
      "type": "function"
    },
    {
      "inputs": [
        {
          "internalType": "uint256",
          "name": "positionId",
          "type": "uint256"
        },
        {
          "internalType": "address",
          "name": "debtToken",
          "type": "address"
        },
        {
          "internalType": "uint256",
          "name": "amountCall",
          "type": "uint256"
        }
      ],
      "name": "liquidate",
      "outputs": [],
      "stateMutability": "nonpayable",
      "type": "function"
    },
    {
      "inputs": [],
      "name": "nextPositionId",
      "outputs": [
        {
          "internalType": "uint256",
          "name": "",
          "type": "uint256"
        }
      ],
      "stateMutability": "view",
      "type": "function"
    },
    {
      "inputs": [
        {
          "internalType": "address",
          "name": "",
          "type": "address"
        },
        {
          "internalType": "address",
          "name": "",
          "type": "address"
        },
        {
          "internalType": "uint256[]",
          "name": "",
          "type": "uint256[]"
        },
        {
          "internalType": "uint256[]",
          "name": "",
          "type": "uint256[]"
        },
        {
          "internalType": "bytes",
          "name": "",
          "type": "bytes"
        }
      ],
      "name": "onERC1155BatchReceived",
      "outputs": [
        {
          "internalType": "bytes4",
          "name": "",
          "type": "bytes4"
        }
      ],
      "stateMutability": "nonpayable",
      "type": "function"
    },
    {
      "inputs": [
        {
          "internalType": "address",
          "name": "",
          "type": "address"
        },
        {
          "internalType": "address",
          "name": "",
          "type": "address"
        },
        {
          "internalType": "uint256",
          "name": "",
          "type": "uint256"
        },
        {
          "internalType": "uint256",
          "name": "",
          "type": "uint256"
        },
        {
          "internalType": "bytes",
          "name": "",
          "type": "bytes"
        }
      ],
      "name": "onERC1155Received",
      "outputs": [
        {
          "internalType": "bytes4",
          "name": "",
          "type": "bytes4"
        }
      ],
      "stateMutability": "nonpayable",
      "type": "function"
    },
    {
      "inputs": [],
      "name": "oracle",
      "outputs": [
        {
          "internalType": "contract IOracle",
          "name": "",
          "type": "address"
        }
      ],
      "stateMutability": "view",
      "type": "function"
    },
    {
      "inputs": [],
      "name": "pendingGovernor",
      "outputs": [
        {
          "internalType": "address",
          "name": "",
          "type": "address"
        }
      ],
      "stateMutability": "view",
      "type": "function"
    },
    {
      "inputs": [
        {
          "internalType": "uint256",
          "name": "",
          "type": "uint256"
        }
      ],
      "name": "positions",
      "outputs": [
        {
          "internalType": "address",
          "name": "owner",
          "type": "address"
        },
        {
          "internalType": "address",
          "name": "collToken",
          "type": "address"
        },
        {
          "internalType": "uint256",
          "name": "collId",
          "type": "uint256"
        },
        {
          "internalType": "uint256",
          "name": "collateralSize",
          "type": "uint256"
        },
        {
          "internalType": "uint256",
          "name": "debtMap",
          "type": "uint256"
        }
      ],
      "stateMutability": "view",
      "type": "function"
    },
    {
      "inputs": [
        {
          "internalType": "address",
          "name": "collToken",
          "type": "address"
        },
        {
          "internalType": "uint256",
          "name": "collId",
          "type": "uint256"
        },
        {
          "internalType": "uint256",
          "name": "amountCall",
          "type": "uint256"
        }
      ],
      "name": "putCollateral",
      "outputs": [],
      "stateMutability": "nonpayable",
      "type": "function"
    },
    {
      "inputs": [
        {
          "internalType": "address",
          "name": "token",
          "type": "address"
        },
        {
          "internalType": "uint256",
          "name": "amountCall",
          "type": "uint256"
        }
      ],
      "name": "repay",
      "outputs": [],
      "stateMutability": "nonpayable",
      "type": "function"
    },
    {
      "inputs": [
        {
          "internalType": "bool",
          "name": "ok",
          "type": "bool"
        }
      ],
      "name": "setAllowContractCalls",
      "outputs": [],
      "stateMutability": "nonpayable",
      "type": "function"
    },
    {
      "inputs": [
        {
          "internalType": "uint256",
          "name": "_bankStatus",
          "type": "uint256"
        }
      ],
      "name": "setBankStatus",
      "outputs": [],
      "stateMutability": "nonpayable",
      "type": "function"
    },
    {
      "inputs": [
        {
          "internalType": "uint256",
          "name": "_feeBps",
          "type": "uint256"
        }
      ],
      "name": "setFeeBps",
      "outputs": [],
      "stateMutability": "nonpayable",
      "type": "function"
    },
    {
      "inputs": [
        {
          "internalType": "contract IOracle",
          "name": "_oracle",
          "type": "address"
        }
      ],
      "name": "setOracle",
      "outputs": [],
      "stateMutability": "nonpayable",
      "type": "function"
    },
    {
      "inputs": [
        {
          "internalType": "address",
          "name": "_pendingGovernor",
          "type": "address"
        }
      ],
      "name": "setPendingGovernor",
      "outputs": [],
      "stateMutability": "nonpayable",
      "type": "function"
    },
    {
      "inputs": [
        {
          "internalType": "address[]",
          "name": "spells",
          "type": "address[]"
        },
        {
          "internalType": "bool[]",
          "name": "statuses",
          "type": "bool[]"
        }
      ],
      "name": "setWhitelistSpells",
      "outputs": [],
      "stateMutability": "nonpayable",
      "type": "function"
    },
    {
      "inputs": [
        {
          "internalType": "address[]",
          "name": "tokens",
          "type": "address[]"
        },
        {
          "internalType": "bool[]",
          "name": "statuses",
          "type": "bool[]"
        }
      ],
      "name": "setWhitelistTokens",
      "outputs": [],
      "stateMutability": "nonpayable",
      "type": "function"
    },
    {
      "inputs": [
        {
          "internalType": "address[]",
          "name": "users",
          "type": "address[]"
        },
        {
          "internalType": "bool[]",
          "name": "statuses",
          "type": "bool[]"
        }
      ],
      "name": "setWhitelistUsers",
      "outputs": [],
      "stateMutability": "nonpayable",
      "type": "function"
    },
    {
      "inputs": [
        {
          "internalType": "address",
          "name": "token",
          "type": "address"
        }
      ],
      "name": "support",
      "outputs": [
        {
          "internalType": "bool",
          "name": "",
          "type": "bool"
        }
      ],
      "stateMutability": "view",
      "type": "function"
    },
    {
      "inputs": [
        {
          "internalType": "bytes4",
          "name": "interfaceId",
          "type": "bytes4"
        }
      ],
      "name": "supportsInterface",
      "outputs": [
        {
          "internalType": "bool",
          "name": "",
          "type": "bool"
        }
      ],
      "stateMutability": "view",
      "type": "function"
    },
    {
      "inputs": [
        {
          "internalType": "address",
          "name": "collToken",
          "type": "address"
        },
        {
          "internalType": "uint256",
          "name": "collId",
          "type": "uint256"
        },
        {
          "internalType": "uint256",
          "name": "amount",
          "type": "uint256"
        }
      ],
      "name": "takeCollateral",
      "outputs": [],
      "stateMutability": "nonpayable",
      "type": "function"
    },
    {
      "inputs": [
        {
          "internalType": "address",
          "name": "token",
          "type": "address"
        },
        {
          "internalType": "uint256",
          "name": "amount",
          "type": "uint256"
        }
      ],
      "name": "transmit",
      "outputs": [],
      "stateMutability": "nonpayable",
      "type": "function"
    },
    {
      "inputs": [
        {
          "internalType": "address",
          "name": "",
          "type": "address"
        }
      ],
      "name": "whitelistedSpells",
      "outputs": [
        {
          "internalType": "bool",
          "name": "",
          "type": "bool"
        }
      ],
      "stateMutability": "view",
      "type": "function"
    },
    {
      "inputs": [
        {
          "internalType": "address",
          "name": "",
          "type": "address"
        }
      ],
      "name": "whitelistedTokens",
      "outputs": [
        {
          "internalType": "bool",
          "name": "",
          "type": "bool"
        }
      ],
      "stateMutability": "view",
      "type": "function"
    },
    {
      "inputs": [
        {
          "internalType": "address",
          "name": "",
          "type": "address"
        }
      ],
      "name": "whitelistedUsers",
      "outputs": [
        {
          "internalType": "bool",
          "name": "",
          "type": "bool"
        }
      ],
      "stateMutability": "view",
      "type": "function"
    },
    {
      "inputs": [
        {
          "internalType": "address",
          "name": "token",
          "type": "address"
        },
        {
          "internalType": "uint256",
          "name": "amount",
          "type": "uint256"
        }
      ],
      "name": "withdrawReserve",
      "outputs": [],
      "stateMutability": "nonpayable",
      "type": "function"
    }
  ],
  "bytecode": "0x60806040523480156200001157600080fd5b506200002a6301ffc9a760e01b6200005160201b60201c565b6200004b63bc197c8160e01b63f23a6e6160e01b186200005160201b60201c565b6200015b565b63ffffffff60e01b817bffffffffffffffffffffffffffffffffffffffffffffffffffffffff19161415620000ee576040517f08c379a000000000000000000000000000000000000000000000000000000000815260040180806020018281038252601c8152602001807f4552433136353a20696e76616c696420696e746572666163652069640000000081525060200191505060405180910390fd5b600160426000837bffffffffffffffffffffffffffffffffffffffffffffffffffffffff19167bffffffffffffffffffffffffffffffffffffffffffffffffffffffff1916815260200190815260200160002060006101000a81548160ff02191690831515021790555050565b6181e2806200016b6000396000f3fe60806040526004361061036b5760003560e01c80637b79413a116101c6578063d05e44a4116100f7578063e58bb63911610095578063f23a6e611161006f578063f23a6e61146118bd578063f621cc48146119ca578063f70aedd914611a31578063fc5d28a814611a9d5761036b565b8063e58bb639146117ee578063e660cc0814611805578063f235757f1461186c5761036b565b8063d7ac71ff116100d1578063d7ac71ff146116b6578063daf9c210146116e1578063dd6f3c7014611748578063e3056a34146117ad5761036b565b8063d05e44a4146115ef578063d2ffc9f31461161a578063d44b11f0146116475761036b565b806392ff1ad911610164578063b60dae121161013e578063b60dae1214611377578063bc197c81146113c6578063c9a4bb3f14611569578063cd6dc687146115945761036b565b806392ff1ad9146111c457806399fbab8814611205578063a20a59061461129c5761036b565b806380c3b8c2116101a057806380c3b8c21461102057806382a2fb9c146110c357806386c0dc8814611132578063899346c7146111995761036b565b80637b79413a14610f0b5780637cbdae6f14610fa45780637dc0d1d014610fdf5761036b565b806348d6bbc2116102a057806368eb4ba81161023e57806372c27b621161021857806372c27b6214610dd95780637663672214610e1457806379bd1eac14610e555780637adbf97314610eba5761036b565b806368eb4ba814610ba35780636d6af33414610c08578063710a9f6814610ce05761036b565b8063519f50991161027a578063519f509914610a325780635787d29114610ac2578063630dc7cb14610b115780636680ac0b14610b525761036b565b806348d6bbc2146108a15780634b8a3529146108fc5780634df890f6146109575761036b565b80632ffd889b1161030d57806338bd678a116102e757806338bd678a146106d75780633a55f85e1461079c5780633d30fb48146108035780633d581d8e146108745761036b565b80632ffd889b1461056a578063314568d914610597578063331d9364146105fc5761036b565b80630e5641e6116103495780630e5641e61461045e5780631c58ce141461048957806322867d78146104e457806324a9d8531461053f5761036b565b806301ffc9a714610370578063071feca3146103e05780630c340a241461041d575b600080fd5b34801561037c57600080fd5b506103c86004803603602081101561039357600080fd5b8101908080357bffffffffffffffffffffffffffffffffffffffffffffffffffffffff19169060200190929190505050611b0c565b60405180821515815260200191505060405180910390f35b3480156103ec57600080fd5b5061041b6004803603602081101561040357600080fd5b81019080803515159060200190929190505050611b74565b005b34801561042957600080fd5b50610432611c54565b604051808273ffffffffffffffffffffffffffffffffffffffff16815260200191505060405180910390f35b34801561046a57600080fd5b50610473611c7a565b6040518082815260200191505060405180910390f35b34801561049557600080fd5b506104e2600480360360408110156104ac57600080fd5b81019080803573ffffffffffffffffffffffffffffffffffffffff16906020019092919080359060200190929190505050611c80565b005b3480156104f057600080fd5b5061053d6004803603604081101561050757600080fd5b81019080803573ffffffffffffffffffffffffffffffffffffffff16906020019092919080359060200190929190505050611f54565b005b34801561054b57600080fd5b5061055461231a565b6040518082815260200191505060405180910390f35b34801561057657600080fd5b5061057f612320565b60405180821515815260200191505060405180910390f35b3480156105a357600080fd5b506105fa600480360360608110156105ba57600080fd5b81019080803573ffffffffffffffffffffffffffffffffffffffff169060200190929190803590602001909291908035906020019092919050505061232f565b005b34801561060857600080fd5b506106d56004803603604081101561061f57600080fd5b810190808035906020019064010000000081111561063c57600080fd5b82018360208201111561064e57600080fd5b8035906020019184602083028401116401000000008311171561067057600080fd5b90919293919293908035906020019064010000000081111561069157600080fd5b8201836020820111156106a357600080fd5b803590602001918460208302840111640100000000831117156106c557600080fd5b9091929391929390505050612835565b005b3480156106e357600080fd5b5061079a600480360360208110156106fa57600080fd5b810190808035906020019064010000000081111561071757600080fd5b82018360208201111561072957600080fd5b8035906020019184602083028401116401000000008311171561074b57600080fd5b919080806020026020016040519081016040528093929190818152602001838360200280828437600081840152601f19601f820116905080830192505050505050509192919290505050612ac7565b005b3480156107a857600080fd5b506107eb600480360360208110156107bf57600080fd5b81019080803573ffffffffffffffffffffffffffffffffffffffff169060200190929190505050612b00565b60405180821515815260200191505060405180910390f35b34801561080f57600080fd5b506108726004803603604081101561082657600080fd5b81019080803573ffffffffffffffffffffffffffffffffffffffff169060200190929190803573ffffffffffffffffffffffffffffffffffffffff169060200190929190505050612b20565b005b34801561088057600080fd5b5061088961300b565b60405180821515815260200191505060405180910390f35b3480156108ad57600080fd5b506108fa600480360360408110156108c457600080fd5b81019080803573ffffffffffffffffffffffffffffffffffffffff1690602001909291908035906020019092919050505061301a565b005b34801561090857600080fd5b506109556004803603604081101561091f57600080fd5b81019080803573ffffffffffffffffffffffffffffffffffffffff1690602001909291908035906020019092919050505061326c565b005b34801561096357600080fd5b50610a306004803603604081101561097a57600080fd5b810190808035906020019064010000000081111561099757600080fd5b8201836020820111156109a957600080fd5b803590602001918460208302840111640100000000831117156109cb57600080fd5b9091929391929390803590602001906401000000008111156109ec57600080fd5b8201836020820111156109fe57600080fd5b80359060200191846020830284011164010000000083111715610a2057600080fd5b90919293919293905050506137ec565b005b348015610a3e57600080fd5b50610a6b60048036036020811015610a5557600080fd5b81019080803590602001909291905050506139c2565b604051808573ffffffffffffffffffffffffffffffffffffffff1681526020018473ffffffffffffffffffffffffffffffffffffffff16815260200183815260200182815260200194505050505060405180910390f35b348015610ace57600080fd5b50610afb60048036036020811015610ae557600080fd5b8101908080359060200190929190505050613a43565b6040518082815260200191505060405180910390f35b348015610b1d57600080fd5b50610b26613cc4565b604051808273ffffffffffffffffffffffffffffffffffffffff16815260200191505060405180910390f35b348015610b5e57600080fd5b50610ba160048036036020811015610b7557600080fd5b81019080803573ffffffffffffffffffffffffffffffffffffffff169060200190929190505050613d9f565b005b348015610baf57600080fd5b50610c0660048036036060811015610bc657600080fd5b81019080803573ffffffffffffffffffffffffffffffffffffffff1690602001909291908035906020019092919080359060200190929190505050613fd1565b005b348015610c1457600080fd5b50610c4160048036036020811015610c2b57600080fd5b81019080803590602001909291905050506144a8565b604051808060200180602001838103835285818151815260200191508051906020019060200280838360005b83811015610c88578082015181840152602081019050610c6d565b50505050905001838103825284818151815260200191508051906020019060200280838360005b83811015610cca578082015181840152602081019050610caf565b5050505090500194505050505060405180910390f35b610dc360048036036060811015610cf657600080fd5b8101908080359060200190929190803573ffffffffffffffffffffffffffffffffffffffff16906020019092919080359060200190640100000000811115610d3d57600080fd5b820183602082011115610d4f57600080fd5b80359060200191846001830284011164010000000083111715610d7157600080fd5b91908080601f016020809104026020016040519081016040528093929190818152602001838380828437600081840152601f19601f82011690508083019250505050505050919291929050505061471e565b6040518082815260200191505060405180910390f35b348015610de557600080fd5b50610e1260048036036020811015610dfc57600080fd5b8101908080359060200190929190505050614d98565b005b348015610e2057600080fd5b50610e29614f14565b604051808273ffffffffffffffffffffffffffffffffffffffff16815260200191505060405180910390f35b348015610e6157600080fd5b50610eb860048036036060811015610e7857600080fd5b8101908080359060200190929190803573ffffffffffffffffffffffffffffffffffffffff16906020019092919080359060200190929190505050614f3a565b005b348015610ec657600080fd5b50610f0960048036036020811015610edd57600080fd5b81019080803573ffffffffffffffffffffffffffffffffffffffff169060200190929190505050615417565b005b348015610f1757600080fd5b50610f5a60048036036020811015610f2e57600080fd5b81019080803573ffffffffffffffffffffffffffffffffffffffff16906020019092919050505061560e565b6040518086151581526020018573ffffffffffffffffffffffffffffffffffffffff1681526020018481526020018381526020018281526020019550505050505060405180910390f35b348015610fb057600080fd5b50610fdd60048036036020811015610fc757600080fd5b81019080803590602001909291905050506156b2565b005b348015610feb57600080fd5b50610ff461577f565b604051808273ffffffffffffffffffffffffffffffffffffffff16815260200191505060405180910390f35b34801561102c57600080fd5b5061106f6004803603602081101561104357600080fd5b81019080803573ffffffffffffffffffffffffffffffffffffffff1690602001909291905050506157a5565b6040518087151581526020018660ff1681526020018573ffffffffffffffffffffffffffffffffffffffff168152602001848152602001838152602001828152602001965050505050505060405180910390f35b3480156110cf57600080fd5b5061111c600480360360408110156110e657600080fd5b8101908080359060200190929190803573ffffffffffffffffffffffffffffffffffffffff16906020019092919050505061581b565b6040518082815260200191505060405180910390f35b34801561113e57600080fd5b506111816004803603602081101561115557600080fd5b81019080803573ffffffffffffffffffffffffffffffffffffffff169060200190929190505050615838565b60405180821515815260200191505060405180910390f35b3480156111a557600080fd5b506111ae615858565b6040518082815260200191505060405180910390f35b3480156111d057600080fd5b506111d961585e565b604051808273ffffffffffffffffffffffffffffffffffffffff16815260200191505060405180910390f35b34801561121157600080fd5b5061123e6004803603602081101561122857600080fd5b8101908080359060200190929190505050615884565b604051808673ffffffffffffffffffffffffffffffffffffffff1681526020018573ffffffffffffffffffffffffffffffffffffffff1681526020018481526020018381526020018281526020019550505050505060405180910390f35b3480156112a857600080fd5b50611375600480360360408110156112bf57600080fd5b81019080803590602001906401000000008111156112dc57600080fd5b8201836020820111156112ee57600080fd5b8035906020019184602083028401116401000000008311171561131057600080fd5b90919293919293908035906020019064010000000081111561133157600080fd5b82018360208201111561134357600080fd5b8035906020019184602083028401116401000000008311171561136557600080fd5b90919293919293905050506158fa565b005b34801561138357600080fd5b506113b06004803603602081101561139a57600080fd5b8101908080359060200190929190505050615ad0565b6040518082815260200191505060405180910390f35b3480156113d257600080fd5b50611534600480360360a08110156113e957600080fd5b81019080803573ffffffffffffffffffffffffffffffffffffffff169060200190929190803573ffffffffffffffffffffffffffffffffffffffff1690602001909291908035906020019064010000000081111561144657600080fd5b82018360208201111561145857600080fd5b8035906020019184602083028401116401000000008311171561147a57600080fd5b90919293919293908035906020019064010000000081111561149b57600080fd5b8201836020820111156114ad57600080fd5b803590602001918460208302840111640100000000831117156114cf57600080fd5b9091929391929390803590602001906401000000008111156114f057600080fd5b82018360208201111561150257600080fd5b8035906020019184600183028401116401000000008311171561152457600080fd5b9091929391929390505050615d14565b60405180827bffffffffffffffffffffffffffffffffffffffffffffffffffffffff1916815260200191505060405180910390f35b34801561157557600080fd5b5061157e615d2c565b6040518082815260200191505060405180910390f35b3480156115a057600080fd5b506115ed600480360360408110156115b757600080fd5b81019080803573ffffffffffffffffffffffffffffffffffffffff16906020019092919080359060200190929190505050615d32565b005b3480156115fb57600080fd5b5061160461609b565b6040518082815260200191505060405180910390f35b34801561162657600080fd5b5061162f6160a1565b60405180821515815260200191505060405180910390f35b34801561165357600080fd5b506116a06004803603604081101561166a57600080fd5b8101908080359060200190929190803573ffffffffffffffffffffffffffffffffffffffff1690602001909291905050506160b4565b6040518082815260200191505060405180910390f35b3480156116c257600080fd5b506116cb616112565b6040518082815260200191505060405180910390f35b3480156116ed57600080fd5b506117306004803603602081101561170457600080fd5b81019080803573ffffffffffffffffffffffffffffffffffffffff169060200190929190505050616118565b60405180821515815260200191505060405180910390f35b34801561175457600080fd5b506117816004803603602081101561176b57600080fd5b8101908080359060200190929190505050616138565b604051808273ffffffffffffffffffffffffffffffffffffffff16815260200191505060405180910390f35b3480156117b957600080fd5b506117c2616174565b604051808273ffffffffffffffffffffffffffffffffffffffff16815260200191505060405180910390f35b3480156117fa57600080fd5b5061180361619a565b005b34801561181157600080fd5b506118546004803603602081101561182857600080fd5b81019080803573ffffffffffffffffffffffffffffffffffffffff16906020019092919050505061632f565b60405180821515815260200191505060405180910390f35b34801561187857600080fd5b506118bb6004803603602081101561188f57600080fd5b81019080803573ffffffffffffffffffffffffffffffffffffffff1690602001909291905050506163fc565b005b3480156118c957600080fd5b50611995600480360360a08110156118e057600080fd5b81019080803573ffffffffffffffffffffffffffffffffffffffff169060200190929190803573ffffffffffffffffffffffffffffffffffffffff16906020019092919080359060200190929190803590602001909291908035906020019064010000000081111561195157600080fd5b82018360208201111561196357600080fd5b8035906020019184600183028401116401000000008311171561198557600080fd5b9091929391929390505050616550565b60405180827bffffffffffffffffffffffffffffffffffffffffffffffffffffffff1916815260200191505060405180910390f35b3480156119d657600080fd5b50611a19600480360360208110156119ed57600080fd5b81019080803573ffffffffffffffffffffffffffffffffffffffff169060200190929190505050616566565b60405180821515815260200191505060405180910390f35b348015611a3d57600080fd5b50611a46616586565b604051808573ffffffffffffffffffffffffffffffffffffffff1681526020018473ffffffffffffffffffffffffffffffffffffffff16815260200183815260200182815260200194505050505060405180910390f35b348015611aa957600080fd5b50611af660048036036040811015611ac057600080fd5b8101908080359060200190929190803573ffffffffffffffffffffffffffffffffffffffff16906020019092919050505061663d565b6040518082815260200191505060405180910390f35b600060426000837bffffffffffffffffffffffffffffffffffffffffffffffffffffffff19167bffffffffffffffffffffffffffffffffffffffffffffffffffffffff1916815260200190815260200160002060009054906101000a900460ff169050919050565b600060029054906101000a900473ffffffffffffffffffffffffffffffffffffffff1673ffffffffffffffffffffffffffffffffffffffff163373ffffffffffffffffffffffffffffffffffffffff1614611c37576040517f08c379a00000000000000000000000000000000000000000000000000000000081526004018080602001828103825260108152602001807f6e6f742074686520676f7665726e6f720000000000000000000000000000000081525060200191505060405180910390fd5b80608f60006101000a81548160ff02191690831515021790555050565b600060029054906101000a900473ffffffffffffffffffffffffffffffffffffffff1681565b60935481565b600060029054906101000a900473ffffffffffffffffffffffffffffffffffffffff1673ffffffffffffffffffffffffffffffffffffffff163373ffffffffffffffffffffffffffffffffffffffff1614611d43576040517f08c379a00000000000000000000000000000000000000000000000000000000081526004018080602001828103825260108152602001807f6e6f742074686520676f7665726e6f720000000000000000000000000000000081525060200191505060405180910390fd5b600160835414611dbb576040517f08c379a000000000000000000000000000000000000000000000000000000000815260040180806020018281038252600c8152602001807f67656e6572616c206c6f636b000000000000000000000000000000000000000081525060200191505060405180910390fd5b60026083819055506000608c60008473ffffffffffffffffffffffffffffffffffffffff1673ffffffffffffffffffffffffffffffffffffffff16815260200190815260200160002090508060000160009054906101000a900460ff16611e8a576040517f08c379a000000000000000000000000000000000000000000000000000000000815260040180806020018281038252600e8152602001807f62616e6b206e6f7420657869737400000000000000000000000000000000000081525060200191505060405180910390fd5b611ea182826001015461677590919063ffffffff16565b8160010181905550611ed433838573ffffffffffffffffffffffffffffffffffffffff166167f89092919063ffffffff16565b7f1480bc3d4718a0a5fa9eb55d53e0b79a638148873fc124922bb0ec377425b85b338484604051808473ffffffffffffffffffffffffffffffffffffffff1681526020018373ffffffffffffffffffffffffffffffffffffffff168152602001828152602001935050505060405180910390a15060016083819055505050565b7fffffffffffffffffffffffffffffffffffffffffffffffffffffffffffffffff6085541415611fec576040517f08c379a00000000000000000000000000000000000000000000000000000000081526004018080602001828103825260148152602001807f6e6f742077697468696e20657865637574696f6e00000000000000000000000081525060200191505060405180910390fd5b3373ffffffffffffffffffffffffffffffffffffffff16608660009054906101000a900473ffffffffffffffffffffffffffffffffffffffff1673ffffffffffffffffffffffffffffffffffffffff16146120af576040517f08c379a000000000000000000000000000000000000000000000000000000000815260040180806020018281038252600e8152602001807f6e6f742066726f6d207370656c6c00000000000000000000000000000000000081525060200191505060405180910390fd5b600160845414612127576040517f08c379a000000000000000000000000000000000000000000000000000000000815260040180806020018281038252600c8152602001807f696e2065786563206c6f636b000000000000000000000000000000000000000081525060200191505060405180910390fd5b60026084819055508161213981613d9f565b612141612320565b6121b3576040517f08c379a00000000000000000000000000000000000000000000000000000000081526004018080602001828103825260118152602001807f7265706179206e6f7420616c6c6f77656400000000000000000000000000000081525060200191505060405180910390fd5b609060008473ffffffffffffffffffffffffffffffffffffffff1673ffffffffffffffffffffffffffffffffffffffff16815260200190815260200160002060009054906101000a900460ff16612272576040517f08c379a00000000000000000000000000000000000000000000000000000000081526004018080602001828103825260158152602001807f746f6b656e206e6f742077686974656c6973746564000000000000000000000081525060200191505060405180910390fd5b600080612282608554868661689a565b915091507f9181b2981704b7cf4448130f29cb5da1f41e0418d000e7f8880000b09bcbea4560855433878585604051808681526020018573ffffffffffffffffffffffffffffffffffffffff1681526020018473ffffffffffffffffffffffffffffffffffffffff1681526020018381526020018281526020019550505050505060405180910390a150505060016084819055505050565b60895481565b60008060026093541611905090565b7fffffffffffffffffffffffffffffffffffffffffffffffffffffffffffffffff60855414156123c7576040517f08c379a00000000000000000000000000000000000000000000000000000000081526004018080602001828103825260148152602001807f6e6f742077697468696e20657865637574696f6e00000000000000000000000081525060200191505060405180910390fd5b3373ffffffffffffffffffffffffffffffffffffffff16608660009054906101000a900473ffffffffffffffffffffffffffffffffffffffff1673ffffffffffffffffffffffffffffffffffffffff161461248a576040517f08c379a000000000000000000000000000000000000000000000000000000000815260040180806020018281038252600e8152602001807f6e6f742066726f6d207370656c6c00000000000000000000000000000000000081525060200191505060405180910390fd5b600160845414612502576040517f08c379a000000000000000000000000000000000000000000000000000000000815260040180806020018281038252600c8152602001807f696e2065786563206c6f636b000000000000000000000000000000000000000081525060200191505060405180910390fd5b60026084819055506000608e6000608554815260200190815260200160002090508373ffffffffffffffffffffffffffffffffffffffff168160010160009054906101000a900473ffffffffffffffffffffffffffffffffffffffff1673ffffffffffffffffffffffffffffffffffffffff16141580612586575082816002015414155b1561277357608860009054906101000a900473ffffffffffffffffffffffffffffffffffffffff1673ffffffffffffffffffffffffffffffffffffffff16632461a40985856040518363ffffffff1660e01b8152600401808373ffffffffffffffffffffffffffffffffffffffff1681526020018281526020019250505060206040518083038186803b15801561261c57600080fd5b505afa158015612630573d6000803e3d6000fd5b505050506040513d602081101561264657600080fd5b81019080805190602001909291905050506126c9576040517f08c379a00000000000000000000000000000000000000000000000000000000081526004018080602001828103825260188152602001807f636f6c6c61746572616c206e6f7420737570706f72746564000000000000000081525060200191505060405180910390fd5b6000816003015414612726576040517f08c379a00000000000000000000000000000000000000000000000000000000081526004018080602001828103825260298152602001806180476029913960400191505060405180910390fd5b838160010160006101000a81548173ffffffffffffffffffffffffffffffffffffffff021916908373ffffffffffffffffffffffffffffffffffffffff1602179055508281600201819055505b6000612780858585616b2c565b9050612799818360030154616d6890919063ffffffff16565b82600301819055507f1169c71f6ce3fbf1d6aae39931591c46ed51976eda9f851886fae319970482ff60855433878785604051808681526020018573ffffffffffffffffffffffffffffffffffffffff1681526020018473ffffffffffffffffffffffffffffffffffffffff1681526020018381526020018281526020019550505050505060405180910390a150506001608481905550505050565b600060029054906101000a900473ffffffffffffffffffffffffffffffffffffffff1673ffffffffffffffffffffffffffffffffffffffff163373ffffffffffffffffffffffffffffffffffffffff16146128f8576040517f08c379a00000000000000000000000000000000000000000000000000000000081526004018080602001828103825260108152602001807f6e6f742074686520676f7665726e6f720000000000000000000000000000000081525060200191505060405180910390fd5b818190508484905014612956576040517f08c379a000000000000000000000000000000000000000000000000000000000815260040180806020018281038252602381526020018061812a6023913960400191505060405180910390fd5b60005b84849050811015612ac05782828281811061297057fe5b9050602002013515612a20576129ad85858381811061298b57fe5b9050602002013573ffffffffffffffffffffffffffffffffffffffff1661632f565b612a1f576040517f08c379a00000000000000000000000000000000000000000000000000000000081526004018080602001828103825260188152602001807f6f7261636c65206e6f7420737570706f727420746f6b656e000000000000000081525060200191505060405180910390fd5b5b828282818110612a2c57fe5b90506020020135151560906000878785818110612a4557fe5b9050602002013573ffffffffffffffffffffffffffffffffffffffff1673ffffffffffffffffffffffffffffffffffffffff1673ffffffffffffffffffffffffffffffffffffffff16815260200190815260200160002060006101000a81548160ff0219169083151502179055508080600101915050612959565b5050505050565b60005b8151811015612afc57612aef828281518110612ae257fe5b6020026020010151613d9f565b8080600101915050612aca565b5050565b608d6020528060005260406000206000915054906101000a900460ff1681565b600060029054906101000a900473ffffffffffffffffffffffffffffffffffffffff1673ffffffffffffffffffffffffffffffffffffffff163373ffffffffffffffffffffffffffffffffffffffff1614612be3576040517f08c379a00000000000000000000000000000000000000000000000000000000081526004018080602001828103825260108152602001807f6e6f742074686520676f7665726e6f720000000000000000000000000000000081525060200191505060405180910390fd5b6000608c60008473ffffffffffffffffffffffffffffffffffffffff1673ffffffffffffffffffffffffffffffffffffffff1681526020019081526020016000209050608d60008373ffffffffffffffffffffffffffffffffffffffff1673ffffffffffffffffffffffffffffffffffffffff16815260200190815260200160002060009054906101000a900460ff1615612ce6576040517f08c379a00000000000000000000000000000000000000000000000000000000081526004018080602001828103825260158152602001807f63546f6b656e20616c726561647920657869737473000000000000000000000081525060200191505060405180910390fd5b8060000160009054906101000a900460ff1615612d6b576040517f08c379a00000000000000000000000000000000000000000000000000000000081526004018080602001828103825260138152602001807f62616e6b20616c7265616479206578697374730000000000000000000000000081525060200191505060405180910390fd5b6001608d60008473ffffffffffffffffffffffffffffffffffffffff1673ffffffffffffffffffffffffffffffffffffffff16815260200190815260200160002060006101000a81548160ff02191690831515021790555060018160000160006101000a81548160ff021916908315150217905550610100608b8054905010612e5c576040517f08c379a00000000000000000000000000000000000000000000000000000000081526004018080602001828103825260108152602001807f72656163682062616e6b206c696d69740000000000000000000000000000000081525060200191505060405180910390fd5b608b805490508160000160016101000a81548160ff021916908360ff160217905550818160000160026101000a81548173ffffffffffffffffffffffffffffffffffffffff021916908373ffffffffffffffffffffffffffffffffffffffff160217905550612eed8260008573ffffffffffffffffffffffffffffffffffffffff16616df09092919063ffffffff16565b612f38827fffffffffffffffffffffffffffffffffffffffffffffffffffffffffffffffff8573ffffffffffffffffffffffffffffffffffffffff16616df09092919063ffffffff16565b608b839080600181540180825580915050600190039060005260206000200160009091909190916101000a81548173ffffffffffffffffffffffffffffffffffffffff021916908373ffffffffffffffffffffffffffffffffffffffff1602179055507f0a5ac30137c068c8fa636e5d085a93d6fda52a1c2657df058b91ecaf0044ea8c8383604051808373ffffffffffffffffffffffffffffffffffffffff1681526020018273ffffffffffffffffffffffffffffffffffffffff1681526020019250505060405180910390a1505050565b60008060016093541611905090565b7fffffffffffffffffffffffffffffffffffffffffffffffffffffffffffffffff60855414156130b2576040517f08c379a00000000000000000000000000000000000000000000000000000000081526004018080602001828103825260148152602001807f6e6f742077697468696e20657865637574696f6e00000000000000000000000081525060200191505060405180910390fd5b3373ffffffffffffffffffffffffffffffffffffffff16608660009054906101000a900473ffffffffffffffffffffffffffffffffffffffff1673ffffffffffffffffffffffffffffffffffffffff1614613175576040517f08c379a000000000000000000000000000000000000000000000000000000000815260040180806020018281038252600e8152602001807f6e6f742066726f6d207370656c6c00000000000000000000000000000000000081525060200191505060405180910390fd5b6001608454146131ed576040517f08c379a000000000000000000000000000000000000000000000000000000000815260040180806020018281038252600c8152602001807f696e2065786563206c6f636b000000000000000000000000000000000000000081525060200191505060405180910390fd5b60026084819055506000608e60006085548152602001908152602001600020905061325f8160000160009054906101000a900473ffffffffffffffffffffffffffffffffffffffff1633848673ffffffffffffffffffffffffffffffffffffffff16616fb5909392919063ffffffff16565b5060016084819055505050565b7fffffffffffffffffffffffffffffffffffffffffffffffffffffffffffffffff6085541415613304576040517f08c379a00000000000000000000000000000000000000000000000000000000081526004018080602001828103825260148152602001807f6e6f742077697468696e20657865637574696f6e00000000000000000000000081525060200191505060405180910390fd5b3373ffffffffffffffffffffffffffffffffffffffff16608660009054906101000a900473ffffffffffffffffffffffffffffffffffffffff1673ffffffffffffffffffffffffffffffffffffffff16146133c7576040517f08c379a000000000000000000000000000000000000000000000000000000000815260040180806020018281038252600e8152602001807f6e6f742066726f6d207370656c6c00000000000000000000000000000000000081525060200191505060405180910390fd5b60016084541461343f576040517f08c379a000000000000000000000000000000000000000000000000000000000815260040180806020018281038252600c8152602001807f696e2065786563206c6f636b000000000000000000000000000000000000000081525060200191505060405180910390fd5b60026084819055508161345181613d9f565b61345961300b565b6134cb576040517f08c379a00000000000000000000000000000000000000000000000000000000081526004018080602001828103825260128152602001807f626f72726f77206e6f7420616c6c6f776564000000000000000000000000000081525060200191505060405180910390fd5b609060008473ffffffffffffffffffffffffffffffffffffffff1673ffffffffffffffffffffffffffffffffffffffff16815260200190815260200160002060009054906101000a900460ff1661358a576040517f08c379a00000000000000000000000000000000000000000000000000000000081526004018080602001828103825260158152602001807f746f6b656e206e6f742077686974656c6973746564000000000000000000000081525060200191505060405180910390fd5b6000608c60008573ffffffffffffffffffffffffffffffffffffffff1673ffffffffffffffffffffffffffffffffffffffff16815260200190815260200160002090506000608e600060855481526020019081526020016000209050600082600301549050600083600201549050600080831461362b5761362682613618858a61707690919063ffffffff16565b6170fc90919063ffffffff16565b61362d565b865b9050613646818660030154616d6890919063ffffffff16565b856003018190555060006136a4828660050160008c73ffffffffffffffffffffffffffffffffffffffff1673ffffffffffffffffffffffffffffffffffffffff16815260200190815260200160002054616d6890919063ffffffff16565b9050808560050160008b73ffffffffffffffffffffffffffffffffffffffff1673ffffffffffffffffffffffffffffffffffffffff168152602001908152602001600020819055506000811115613720578560000160019054906101000a900460ff1660ff166001901b85600401600082825417925050819055505b6137543361372e8b8b61713e565b8b73ffffffffffffffffffffffffffffffffffffffff166167f89092919063ffffffff16565b7fef18174796a5d2f91d51dc5e907a4d7867bbd6e800f6225168e0453d581d0dcd608554338b8b86604051808681526020018573ffffffffffffffffffffffffffffffffffffffff1681526020018473ffffffffffffffffffffffffffffffffffffffff1681526020018381526020018281526020019550505050505060405180910390a15050505050505060016084819055505050565b600060029054906101000a900473ffffffffffffffffffffffffffffffffffffffff1673ffffffffffffffffffffffffffffffffffffffff163373ffffffffffffffffffffffffffffffffffffffff16146138af576040517f08c379a00000000000000000000000000000000000000000000000000000000081526004018080602001828103825260108152602001807f6e6f742074686520676f7665726e6f720000000000000000000000000000000081525060200191505060405180910390fd5b81819050848490501461390d576040517f08c379a00000000000000000000000000000000000000000000000000000000081526004018080602001828103825260238152602001806181076023913960400191505060405180910390fd5b60005b848490508110156139bb5782828281811061392757fe5b9050602002013515156091600087878581811061394057fe5b9050602002013573ffffffffffffffffffffffffffffffffffffffff1673ffffffffffffffffffffffffffffffffffffffff1673ffffffffffffffffffffffffffffffffffffffff16815260200190815260200160002060006101000a81548160ff0219169083151502179055508080600101915050613910565b5050505050565b6000806000806000608e600087815260200190815260200160002090508060000160009054906101000a900473ffffffffffffffffffffffffffffffffffffffff168160010160009054906101000a900473ffffffffffffffffffffffffffffffffffffffff16826002015483600301549450945094509450509193509193565b600080600090506000608e6000858152602001908152602001600020905060008160000160009054906101000a900473ffffffffffffffffffffffffffffffffffffffff16905060008260040154905060005b6000821115613cb75760006001831614613ca3576000608b8281548110613ab957fe5b9060005260206000200160009054906101000a900473ffffffffffffffffffffffffffffffffffffffff16905060008560050160008373ffffffffffffffffffffffffffffffffffffffff1673ffffffffffffffffffffffffffffffffffffffff1681526020019081526020016000205490506000608c60008473ffffffffffffffffffffffffffffffffffffffff1673ffffffffffffffffffffffffffffffffffffffff16815260200190815260200160002090506000613b9e8260030154613b9084600201548661707690919063ffffffff16565b6170fc90919063ffffffff16565b9050613c9c608860009054906101000a900473ffffffffffffffffffffffffffffffffffffffff1673ffffffffffffffffffffffffffffffffffffffff1663d596bc0386848b6040518463ffffffff1660e01b8152600401808473ffffffffffffffffffffffffffffffffffffffff1681526020018381526020018273ffffffffffffffffffffffffffffffffffffffff168152602001935050505060206040518083038186803b158015613c5257600080fd5b505afa158015613c66573d6000803e3d6000fd5b505050506040513d6020811015613c7c57600080fd5b81019080805190602001909291905050508a616d6890919063ffffffff16565b9850505050505b8080600101915050600182901c9150613a96565b8495505050505050919050565b60008060855490507fffffffffffffffffffffffffffffffffffffffffffffffffffffffffffffffff811415613d62576040517f08c379a00000000000000000000000000000000000000000000000000000000081526004018080602001828103825260138152602001807f6e6f7420756e64657220657865637574696f6e0000000000000000000000000081525060200191505060405180910390fd5b608e600082815260200190815260200160002060000160009054906101000a900473ffffffffffffffffffffffffffffffffffffffff1691505090565b6000608c60008373ffffffffffffffffffffffffffffffffffffffff1673ffffffffffffffffffffffffffffffffffffffff16815260200190815260200160002090508060000160009054906101000a900460ff16613e66576040517f08c379a000000000000000000000000000000000000000000000000000000000815260040180806020018281038252600e8152602001807f62616e6b206e6f7420657869737400000000000000000000000000000000000081525060200191505060405180910390fd5b60008160020154905060008260000160029054906101000a900473ffffffffffffffffffffffffffffffffffffffff1673ffffffffffffffffffffffffffffffffffffffff166317bfdfbc306040518263ffffffff1660e01b8152600401808273ffffffffffffffffffffffffffffffffffffffff168152602001915050602060405180830381600087803b158015613efe57600080fd5b505af1158015613f12573d6000803e3d6000fd5b505050506040513d6020811015613f2857600080fd5b8101908080519060200190929190505050905081811115613fb9576000613f80612710613f72608954613f64878761677590919063ffffffff16565b61707690919063ffffffff16565b61743290919063ffffffff16565b9050818460020181905550613fab613f98868361713e565b8560010154616d6890919063ffffffff16565b846001018190555050613fcb565b808214613fca578083600201819055505b5b50505050565b7fffffffffffffffffffffffffffffffffffffffffffffffffffffffffffffffff6085541415614069576040517f08c379a00000000000000000000000000000000000000000000000000000000081526004018080602001828103825260148152602001807f6e6f742077697468696e20657865637574696f6e00000000000000000000000081525060200191505060405180910390fd5b3373ffffffffffffffffffffffffffffffffffffffff16608660009054906101000a900473ffffffffffffffffffffffffffffffffffffffff1673ffffffffffffffffffffffffffffffffffffffff161461412c576040517f08c379a000000000000000000000000000000000000000000000000000000000815260040180806020018281038252600e8152602001807f6e6f742066726f6d207370656c6c00000000000000000000000000000000000081525060200191505060405180910390fd5b6001608454146141a4576040517f08c379a000000000000000000000000000000000000000000000000000000000815260040180806020018281038252600c8152602001807f696e2065786563206c6f636b000000000000000000000000000000000000000081525060200191505060405180910390fd5b60026084819055506000608e6000608554815260200190815260200160002090508060010160009054906101000a900473ffffffffffffffffffffffffffffffffffffffff1673ffffffffffffffffffffffffffffffffffffffff168473ffffffffffffffffffffffffffffffffffffffff161461428a576040517f08c379a00000000000000000000000000000000000000000000000000000000081526004018080602001828103825260188152602001807f696e76616c696420636f6c6c61746572616c20746f6b656e000000000000000081525060200191505060405180910390fd5b80600201548314614303576040517f08c379a00000000000000000000000000000000000000000000000000000000081526004018080602001828103825260188152602001807f696e76616c696420636f6c6c61746572616c20746f6b656e000000000000000081525060200191505060405180910390fd5b7fffffffffffffffffffffffffffffffffffffffffffffffffffffffffffffffff82141561433357806003015491505b61434a82826003015461677590919063ffffffff16565b81600301819055508373ffffffffffffffffffffffffffffffffffffffff1663f242432a303386866040518563ffffffff1660e01b8152600401808573ffffffffffffffffffffffffffffffffffffffff1681526020018473ffffffffffffffffffffffffffffffffffffffff1681526020018381526020018281526020018060200182810382526000815260200160200195505050505050600060405180830381600087803b1580156143fd57600080fd5b505af1158015614411573d6000803e3d6000fd5b505050507fa61ee435e629eecbcb5df77d05e802c71092439cdbeb225d95305f5a159755a360855433868686604051808681526020018573ffffffffffffffffffffffffffffffffffffffff1681526020018473ffffffffffffffffffffffffffffffffffffffff1681526020018381526020018281526020019550505050505060405180910390a1506001608481905550505050565b6060806000608e60008581526020019081526020016000209050600080826004015490505b60008111156144f657600060018216146144ea5781806001019250505b600181901c90506144cd565b8167ffffffffffffffff8111801561450d57600080fd5b5060405190808252806020026020018201604052801561453c5781602001602082028036833780820191505090505b5094508167ffffffffffffffff8111801561455657600080fd5b506040519080825280602002602001820160405280156145855781602001602082028036833780820191505090505b509350826004015490506000915060005b60008211156147155760006001831614614701576000608b82815481106145b957fe5b9060005260206000200160009054906101000a900473ffffffffffffffffffffffffffffffffffffffff1690506000608c60008373ffffffffffffffffffffffffffffffffffffffff1673ffffffffffffffffffffffffffffffffffffffff16815260200190815260200160002090508188868151811061463657fe5b602002602001019073ffffffffffffffffffffffffffffffffffffffff16908173ffffffffffffffffffffffffffffffffffffffff16815250506146de81600301546146d083600201548960050160008773ffffffffffffffffffffffffffffffffffffffff1673ffffffffffffffffffffffffffffffffffffffff1681526020019081526020016000205461707690919063ffffffff16565b6170fc90919063ffffffff16565b8786815181106146ea57fe5b602002602001018181525050848060010195505050505b8080600101915050600182901c9150614596565b50505050915091565b6000600160835414614798576040517f08c379a000000000000000000000000000000000000000000000000000000000815260040180806020018281038252600c8152602001807f67656e6572616c206c6f636b000000000000000000000000000000000000000081525060200191505060405180910390fd5b6002608381905550608f60009054906101000a900460ff161580156148075750609260003373ffffffffffffffffffffffffffffffffffffffff1673ffffffffffffffffffffffffffffffffffffffff16815260200190815260200160002060009054906101000a900460ff16155b156148ae573273ffffffffffffffffffffffffffffffffffffffff163373ffffffffffffffffffffffffffffffffffffffff16146148ad576040517f08c379a00000000000000000000000000000000000000000000000000000000081526004018080602001828103825260078152602001807f6e6f7420656f610000000000000000000000000000000000000000000000000081525060200191505060405180910390fd5b5b609160008473ffffffffffffffffffffffffffffffffffffffff1673ffffffffffffffffffffffffffffffffffffffff16815260200190815260200160002060009054906101000a900460ff1661496d576040517f08c379a00000000000000000000000000000000000000000000000000000000081526004018080602001828103825260158152602001807f7370656c6c206e6f742077686974656c6973746564000000000000000000000081525060200191505060405180910390fd5b60008414156149e357608a600081548092919060010191905055935033608e600086815260200190815260200160002060000160006101000a81548173ffffffffffffffffffffffffffffffffffffffff021916908373ffffffffffffffffffffffffffffffffffffffff160217905550614b32565b608a548410614a5a576040517f08c379a00000000000000000000000000000000000000000000000000000000081526004018080602001828103825260168152602001807f706f736974696f6e206964206e6f74206578697374730000000000000000000081525060200191505060405180910390fd5b608e600085815260200190815260200160002060000160009054906101000a900473ffffffffffffffffffffffffffffffffffffffff1673ffffffffffffffffffffffffffffffffffffffff163373ffffffffffffffffffffffffffffffffffffffff1614614b31576040517f08c379a00000000000000000000000000000000000000000000000000000000081526004018080602001828103825260128152602001807f6e6f7420706f736974696f6e206f776e6572000000000000000000000000000081525060200191505060405180910390fd5b5b8360858190555082608660006101000a81548173ffffffffffffffffffffffffffffffffffffffff021916908373ffffffffffffffffffffffffffffffffffffffff160217905550608760009054906101000a900473ffffffffffffffffffffffffffffffffffffffff1673ffffffffffffffffffffffffffffffffffffffff1663be2a1f793485856040518463ffffffff1660e01b8152600401808373ffffffffffffffffffffffffffffffffffffffff16815260200180602001828103825283818151815260200191508051906020019080838360005b83811015614c26578082015181840152602081019050614c0b565b50505050905090810190601f168015614c535780820380516001836020036101000a031916815260200191505b5093505050506000604051808303818588803b158015614c7257600080fd5b505af1158015614c86573d6000803e3d6000fd5b50505050506000614c9685615ad0565b90506000614ca386613a43565b905080821015614d1b576040517f08c379a00000000000000000000000000000000000000000000000000000000081526004018080602001828103825260178152602001807f696e73756666696369656e7420636f6c6c61746572616c00000000000000000081525060200191505060405180910390fd5b7fffffffffffffffffffffffffffffffffffffffffffffffffffffffffffffffff6085819055506001608660006101000a81548173ffffffffffffffffffffffffffffffffffffffff021916908373ffffffffffffffffffffffffffffffffffffffff160217905550859250505060016083819055509392505050565b600060029054906101000a900473ffffffffffffffffffffffffffffffffffffffff1673ffffffffffffffffffffffffffffffffffffffff163373ffffffffffffffffffffffffffffffffffffffff1614614e5b576040517f08c379a00000000000000000000000000000000000000000000000000000000081526004018080602001828103825260108152602001807f6e6f742074686520676f7665726e6f720000000000000000000000000000000081525060200191505060405180910390fd5b612710811115614ed3576040517f08c379a000000000000000000000000000000000000000000000000000000000815260040180806020018281038252600c8152602001807f66656520746f6f2068696768000000000000000000000000000000000000000081525060200191505060405180910390fd5b806089819055507f15b86359c2a1e342ef965d15a848eda1666e575175d1907ea284dab1dcf64ffb816040518082815260200191505060405180910390a150565b608660009054906101000a900473ffffffffffffffffffffffffffffffffffffffff1681565b600160835414614fb2576040517f08c379a000000000000000000000000000000000000000000000000000000000815260040180806020018281038252600c8152602001807f67656e6572616c206c6f636b000000000000000000000000000000000000000081525060200191505060405180910390fd5b600260838190555081614fc481613d9f565b6000614fcf85615ad0565b90506000614fdc86613a43565b9050808210615053576040517f08c379a00000000000000000000000000000000000000000000000000000000081526004018080602001828103825260168152602001807f706f736974696f6e207374696c6c206865616c7468790000000000000000000081525060200191505060405180910390fd5b6000608e6000888152602001908152602001600020905060008061507889898961689a565b91509150600073ffffffffffffffffffffffffffffffffffffffff168360010160009054906101000a900473ffffffffffffffffffffffffffffffffffffffff1673ffffffffffffffffffffffffffffffffffffffff161415615143576040517f08c379a00000000000000000000000000000000000000000000000000000000081526004018080602001828103825260148152602001807f62616420636f6c6c61746572616c20746f6b656e00000000000000000000000081525060200191505060405180910390fd5b600061526c608860009054906101000a900473ffffffffffffffffffffffffffffffffffffffff1673ffffffffffffffffffffffffffffffffffffffff1663c38e795c8b8760010160009054906101000a900473ffffffffffffffffffffffffffffffffffffffff168860020154886040518563ffffffff1660e01b8152600401808573ffffffffffffffffffffffffffffffffffffffff1681526020018473ffffffffffffffffffffffffffffffffffffffff16815260200183815260200182815260200194505050505060206040518083038186803b15801561522757600080fd5b505afa15801561523b573d6000803e3d6000fd5b505050506040513d602081101561525157600080fd5b810190808051906020019092919050505085600301546174bb565b905061528581856003015461677590919063ffffffff16565b84600301819055508360010160009054906101000a900473ffffffffffffffffffffffffffffffffffffffff1673ffffffffffffffffffffffffffffffffffffffff1663f242432a30338760020154856040518563ffffffff1660e01b8152600401808573ffffffffffffffffffffffffffffffffffffffff1681526020018473ffffffffffffffffffffffffffffffffffffffff1681526020018381526020018281526020018060200182810382526000815260200160200195505050505050600060405180830381600087803b15801561536057600080fd5b505af1158015615374573d6000803e3d6000fd5b505050507faa05373fff4a28318417dc16d03c4ed7b22197cb65240cff73fa530f022173498a338b868686604051808781526020018673ffffffffffffffffffffffffffffffffffffffff1681526020018573ffffffffffffffffffffffffffffffffffffffff168152602001848152602001838152602001828152602001965050505050505060405180910390a1505050505050506001608381905550505050565b600060029054906101000a900473ffffffffffffffffffffffffffffffffffffffff1673ffffffffffffffffffffffffffffffffffffffff163373ffffffffffffffffffffffffffffffffffffffff16146154da576040517f08c379a00000000000000000000000000000000000000000000000000000000081526004018080602001828103825260108152602001807f6e6f742074686520676f7665726e6f720000000000000000000000000000000081525060200191505060405180910390fd5b600073ffffffffffffffffffffffffffffffffffffffff168173ffffffffffffffffffffffffffffffffffffffff16141561557d576040517f08c379a000000000000000000000000000000000000000000000000000000000815260040180806020018281038252601e8152602001807f63616e6e6f7420736574207a65726f2061646472657373206f7261636c65000081525060200191505060405180910390fd5b80608860006101000a81548173ffffffffffffffffffffffffffffffffffffffff021916908373ffffffffffffffffffffffffffffffffffffffff1602179055507fd3b5d1e0ffaeff528910f3663f0adace7694ab8241d58e17a91351ced2e0803181604051808273ffffffffffffffffffffffffffffffffffffffff16815260200191505060405180910390a150565b600080600080600080608c60008873ffffffffffffffffffffffffffffffffffffffff1673ffffffffffffffffffffffffffffffffffffffff16815260200190815260200160002090508060000160009054906101000a900460ff168160000160029054906101000a900473ffffffffffffffffffffffffffffffffffffffff16826001015483600201548460030154955095509550955095505091939590929450565b600060029054906101000a900473ffffffffffffffffffffffffffffffffffffffff1673ffffffffffffffffffffffffffffffffffffffff163373ffffffffffffffffffffffffffffffffffffffff1614615775576040517f08c379a00000000000000000000000000000000000000000000000000000000081526004018080602001828103825260108152602001807f6e6f742074686520676f7665726e6f720000000000000000000000000000000081525060200191505060405180910390fd5b8060938190555050565b608860009054906101000a900473ffffffffffffffffffffffffffffffffffffffff1681565b608c6020528060005260406000206000915090508060000160009054906101000a900460ff16908060000160019054906101000a900460ff16908060000160029054906101000a900473ffffffffffffffffffffffffffffffffffffffff16908060010154908060020154908060030154905086565b600061582682613d9f565b615830838361663d565b905092915050565b60916020528060005260406000206000915054906101000a900460ff1681565b608a5481565b608760009054906101000a900473ffffffffffffffffffffffffffffffffffffffff1681565b608e6020528060005260406000206000915090508060000160009054906101000a900473ffffffffffffffffffffffffffffffffffffffff16908060010160009054906101000a900473ffffffffffffffffffffffffffffffffffffffff16908060020154908060030154908060040154905085565b600060029054906101000a900473ffffffffffffffffffffffffffffffffffffffff1673ffffffffffffffffffffffffffffffffffffffff163373ffffffffffffffffffffffffffffffffffffffff16146159bd576040517f08c379a00000000000000000000000000000000000000000000000000000000081526004018080602001828103825260108152602001807f6e6f742074686520676f7665726e6f720000000000000000000000000000000081525060200191505060405180910390fd5b818190508484905014615a1b576040517f08c379a00000000000000000000000000000000000000000000000000000000081526004018080602001828103825260228152602001806180e56022913960400191505060405180910390fd5b60005b84849050811015615ac957828282818110615a3557fe5b90506020020135151560926000878785818110615a4e57fe5b9050602002013573ffffffffffffffffffffffffffffffffffffffff1673ffffffffffffffffffffffffffffffffffffffff1673ffffffffffffffffffffffffffffffffffffffff16815260200190815260200160002060006101000a81548160ff0219169083151502179055508080600101915050615a1e565b5050505050565b600080608e600084815260200190815260200160002090506000816003015490506000811415615b0557600092505050615d0f565b600073ffffffffffffffffffffffffffffffffffffffff168260010160009054906101000a900473ffffffffffffffffffffffffffffffffffffffff1673ffffffffffffffffffffffffffffffffffffffff161415615bcc576040517f08c379a00000000000000000000000000000000000000000000000000000000081526004018080602001828103825260148152602001807f62616420636f6c6c61746572616c20746f6b656e00000000000000000000000081525060200191505060405180910390fd5b608860009054906101000a900473ffffffffffffffffffffffffffffffffffffffff1673ffffffffffffffffffffffffffffffffffffffff1663834548328360010160009054906101000a900473ffffffffffffffffffffffffffffffffffffffff168460020154848660000160009054906101000a900473ffffffffffffffffffffffffffffffffffffffff166040518563ffffffff1660e01b8152600401808573ffffffffffffffffffffffffffffffffffffffff1681526020018481526020018381526020018273ffffffffffffffffffffffffffffffffffffffff16815260200194505050505060206040518083038186803b158015615ccf57600080fd5b505afa158015615ce3573d6000803e3d6000fd5b505050506040513d6020811015615cf957600080fd5b8101908080519060200190929190505050925050505b919050565b600063bc197c8160e01b905098975050505050505050565b60845481565b600060019054906101000a900460ff1680615d515750615d506174d4565b5b80615d67575060008054906101000a900460ff16155b615dbc576040517f08c379a000000000000000000000000000000000000000000000000000000000815260040180806020018281038252602e815260200180618096602e913960400191505060405180910390fd5b60008060019054906101000a900460ff161590508015615e0c576001600060016101000a81548160ff02191690831515021790555060016000806101000a81548160ff0219169083151502179055505b615e146174e5565b600160838190555060016084819055507fffffffffffffffffffffffffffffffffffffffffffffffffffffffffffffffff6085819055506001608660006101000a81548173ffffffffffffffffffffffffffffffffffffffff021916908373ffffffffffffffffffffffffffffffffffffffff160217905550604051615e9990617e20565b604051809103906000f080158015615eb5573d6000803e3d6000fd5b50608760006101000a81548173ffffffffffffffffffffffffffffffffffffffff021916908373ffffffffffffffffffffffffffffffffffffffff16021790555082608860006101000a81548173ffffffffffffffffffffffffffffffffffffffff021916908373ffffffffffffffffffffffffffffffffffffffff160217905550600073ffffffffffffffffffffffffffffffffffffffff168373ffffffffffffffffffffffffffffffffffffffff161415615fda576040517f08c379a00000000000000000000000000000000000000000000000000000000081526004018080602001828103825260128152602001807f626164206f7261636c652061646472657373000000000000000000000000000081525060200191505060405180910390fd5b816089819055506001608a8190555060036093819055507fd3b5d1e0ffaeff528910f3663f0adace7694ab8241d58e17a91351ced2e0803183604051808273ffffffffffffffffffffffffffffffffffffffff16815260200191505060405180910390a17f15b86359c2a1e342ef965d15a848eda1666e575175d1907ea284dab1dcf64ffb826040518082815260200191505060405180910390a180156160965760008060016101000a81548160ff0219169083151502179055505b505050565b60835481565b608f60009054906101000a900460ff1681565b6000608e600084815260200190815260200160002060050160008373ffffffffffffffffffffffffffffffffffffffff1673ffffffffffffffffffffffffffffffffffffffff16815260200190815260200160002054905092915050565b60855481565b60906020528060005260406000206000915054906101000a900460ff1681565b608b818154811061614557fe5b906000526020600020016000915054906101000a900473ffffffffffffffffffffffffffffffffffffffff1681565b600160009054906101000a900473ffffffffffffffffffffffffffffffffffffffff1681565b600160009054906101000a900473ffffffffffffffffffffffffffffffffffffffff1673ffffffffffffffffffffffffffffffffffffffff163373ffffffffffffffffffffffffffffffffffffffff161461625d576040517f08c379a00000000000000000000000000000000000000000000000000000000081526004018080602001828103825260188152602001807f6e6f74207468652070656e64696e6720676f7665726e6f72000000000000000081525060200191505060405180910390fd5b6000600160006101000a81548173ffffffffffffffffffffffffffffffffffffffff021916908373ffffffffffffffffffffffffffffffffffffffff16021790555033600060026101000a81548173ffffffffffffffffffffffffffffffffffffffff021916908373ffffffffffffffffffffffffffffffffffffffff1602179055507fd345d81ce68c70b119a17eee79dc1421700bd9cb21ca148a62dc90983964e82f33604051808273ffffffffffffffffffffffffffffffffffffffff16815260200191505060405180910390a1565b6000608860009054906101000a900473ffffffffffffffffffffffffffffffffffffffff1673ffffffffffffffffffffffffffffffffffffffff1663e660cc08836040518263ffffffff1660e01b8152600401808273ffffffffffffffffffffffffffffffffffffffff16815260200191505060206040518083038186803b1580156163ba57600080fd5b505afa1580156163ce573d6000803e3d6000fd5b505050506040513d60208110156163e457600080fd5b81019080805190602001909291905050509050919050565b600060029054906101000a900473ffffffffffffffffffffffffffffffffffffffff1673ffffffffffffffffffffffffffffffffffffffff163373ffffffffffffffffffffffffffffffffffffffff16146164bf576040517f08c379a00000000000000000000000000000000000000000000000000000000081526004018080602001828103825260108152602001807f6e6f742074686520676f7665726e6f720000000000000000000000000000000081525060200191505060405180910390fd5b80600160006101000a81548173ffffffffffffffffffffffffffffffffffffffff021916908373ffffffffffffffffffffffffffffffffffffffff1602179055507f964dea888b00b2ab53f13dfe7ca334b46e99338c222ae232d98547a1da019f6081604051808273ffffffffffffffffffffffffffffffffffffffff16815260200191505060405180910390a150565b600063f23a6e6160e01b90509695505050505050565b60926020528060005260406000206000915054906101000a900460ff1681565b6000806000807fffffffffffffffffffffffffffffffffffffffffffffffffffffffffffffffff6085541415616624576040517f08c379a00000000000000000000000000000000000000000000000000000000081526004018080602001828103825260058152602001807f6e6f20696400000000000000000000000000000000000000000000000000000081525060200191505060405180910390fd5b61662f6085546139c2565b935093509350935090919293565b600080608c60008473ffffffffffffffffffffffffffffffffffffffff1673ffffffffffffffffffffffffffffffffffffffff1681526020019081526020016000206002015490506000608c60008573ffffffffffffffffffffffffffffffffffffffff1673ffffffffffffffffffffffffffffffffffffffff1681526020019081526020016000206003015490506000608e600087815260200190815260200160002060050160008673ffffffffffffffffffffffffffffffffffffffff1673ffffffffffffffffffffffffffffffffffffffff16815260200190815260200160002054905060008114806167335750600083145b15616744576000935050505061676f565b6167698261675b858461707690919063ffffffff16565b6170fc90919063ffffffff16565b93505050505b92915050565b6000828211156167ed576040517f08c379a000000000000000000000000000000000000000000000000000000000815260040180806020018281038252601e8152602001807f536166654d6174683a207375627472616374696f6e206f766572666c6f77000081525060200191505060405180910390fd5b818303905092915050565b6168958363a9059cbb60e01b8484604051602401808373ffffffffffffffffffffffffffffffffffffffff16815260200182815260200192505050604051602081830303815290604052907bffffffffffffffffffffffffffffffffffffffffffffffffffffffff19166020820180517bffffffffffffffffffffffffffffffffffffffffffffffffffffffff83818316178352505050506176b3565b505050565b6000806000608c60008673ffffffffffffffffffffffffffffffffffffffff1673ffffffffffffffffffffffffffffffffffffffff16815260200190815260200160002090506000608e6000888152602001908152602001600020905060008260030154905060008360020154905060008360050160008a73ffffffffffffffffffffffffffffffffffffffff1673ffffffffffffffffffffffffffffffffffffffff168152602001908152602001600020549050600061697684616968858561707690919063ffffffff16565b6170fc90919063ffffffff16565b90507fffffffffffffffffffffffffffffffffffffffffffffffffffffffffffffffff8914156169a4578098505b60006169b98b6169b48d8d6177a2565b617939565b905081811115616a31576040517f08c379a00000000000000000000000000000000000000000000000000000000081526004018080602001828103825260118152602001807f706169642065786365656473206465627400000000000000000000000000000081525060200191505060405180910390fd5b6000828214616a6457616a5f85616a51888561707690919063ffffffff16565b61743290919063ffffffff16565b616a66565b835b9050616a7b818761677590919063ffffffff16565b88600301819055506000616a98828661677590919063ffffffff16565b9050808860050160008f73ffffffffffffffffffffffffffffffffffffffff1673ffffffffffffffffffffffffffffffffffffffff168152602001908152602001600020819055506000811415616b15578860000160019054906101000a900460ff1660ff166001901b1988600401600082825416925050819055505b82829a509a50505050505050505050935093915050565b6000808473ffffffffffffffffffffffffffffffffffffffff1662fdd58e30866040518363ffffffff1660e01b8152600401808373ffffffffffffffffffffffffffffffffffffffff1681526020018281526020019250505060206040518083038186803b158015616b9d57600080fd5b505afa158015616bb1573d6000803e3d6000fd5b505050506040513d6020811015616bc757600080fd5b810190808051906020019092919050505090508473ffffffffffffffffffffffffffffffffffffffff1663f242432a333087876040518563ffffffff1660e01b8152600401808573ffffffffffffffffffffffffffffffffffffffff1681526020018473ffffffffffffffffffffffffffffffffffffffff1681526020018381526020018281526020018060200182810382526000815260200160200195505050505050600060405180830381600087803b158015616c8557600080fd5b505af1158015616c99573d6000803e3d6000fd5b5050505060008573ffffffffffffffffffffffffffffffffffffffff1662fdd58e30876040518363ffffffff1660e01b8152600401808373ffffffffffffffffffffffffffffffffffffffff1681526020018281526020019250505060206040518083038186803b158015616d0d57600080fd5b505afa158015616d21573d6000803e3d6000fd5b505050506040513d6020811015616d3757600080fd5b81019080805190602001909291905050509050616d5d828261677590919063ffffffff16565b925050509392505050565b600080828401905083811015616de6576040517f08c379a000000000000000000000000000000000000000000000000000000000815260040180806020018281038252601b8152602001807f536166654d6174683a206164646974696f6e206f766572666c6f77000000000081525060200191505060405180910390fd5b8091505092915050565b6000811480616ebe575060008373ffffffffffffffffffffffffffffffffffffffff1663dd62ed3e30856040518363ffffffff1660e01b8152600401808373ffffffffffffffffffffffffffffffffffffffff1681526020018273ffffffffffffffffffffffffffffffffffffffff1681526020019250505060206040518083038186803b158015616e8157600080fd5b505afa158015616e95573d6000803e3d6000fd5b505050506040513d6020811015616eab57600080fd5b8101908080519060200190929190505050145b616f13576040517f08c379a00000000000000000000000000000000000000000000000000000000081526004018080602001828103825260368152602001806181776036913960400191505060405180910390fd5b616fb08363095ea7b360e01b8484604051602401808373ffffffffffffffffffffffffffffffffffffffff16815260200182815260200192505050604051602081830303815290604052907bffffffffffffffffffffffffffffffffffffffffffffffffffffffff19166020820180517bffffffffffffffffffffffffffffffffffffffffffffffffffffffff83818316178352505050506176b3565b505050565b617070846323b872dd60e01b858585604051602401808473ffffffffffffffffffffffffffffffffffffffff1681526020018373ffffffffffffffffffffffffffffffffffffffff1681526020018281526020019350505050604051602081830303815290604052907bffffffffffffffffffffffffffffffffffffffffffffffffffffffff19166020820180517bffffffffffffffffffffffffffffffffffffffffffffffffffffffff83818316178352505050506176b3565b50505050565b60008083141561708957600090506170f6565b600082840290508284828161709a57fe5b04146170f1576040517f08c379a00000000000000000000000000000000000000000000000000000000081526004018080602001828103825260218152602001806180c46021913960400191505060405180910390fd5b809150505b92915050565b600061713682617128600161711a8688616d6890919063ffffffff16565b61677590919063ffffffff16565b61743290919063ffffffff16565b905092915050565b600080608c60008573ffffffffffffffffffffffffffffffffffffffff1673ffffffffffffffffffffffffffffffffffffffff168152602001908152602001600020905060008473ffffffffffffffffffffffffffffffffffffffff166370a08231306040518263ffffffff1660e01b8152600401808273ffffffffffffffffffffffffffffffffffffffff16815260200191505060206040518083038186803b1580156171eb57600080fd5b505afa1580156171ff573d6000803e3d6000fd5b505050506040513d602081101561721557600080fd5b8101908080519060200190929190505050905060008260000160029054906101000a900473ffffffffffffffffffffffffffffffffffffffff1673ffffffffffffffffffffffffffffffffffffffff1663c5ebeaec866040518263ffffffff1660e01b815260040180828152602001915050602060405180830381600087803b1580156172a157600080fd5b505af11580156172b5573d6000803e3d6000fd5b505050506040513d60208110156172cb57600080fd5b81019080805190602001909291905050501461734f576040517f08c379a000000000000000000000000000000000000000000000000000000000815260040180806020018281038252600a8152602001807f62616420626f72726f770000000000000000000000000000000000000000000081525060200191505060405180910390fd5b60008573ffffffffffffffffffffffffffffffffffffffff166370a08231306040518263ffffffff1660e01b8152600401808273ffffffffffffffffffffffffffffffffffffffff16815260200191505060206040518083038186803b1580156173b857600080fd5b505afa1580156173cc573d6000803e3d6000fd5b505050506040513d60208110156173e257600080fd5b8101908080519060200190929190505050905061740c858460020154616d6890919063ffffffff16565b8360020181905550617427828261677590919063ffffffff16565b935050505092915050565b60008082116174a9576040517f08c379a000000000000000000000000000000000000000000000000000000000815260040180806020018281038252601a8152602001807f536166654d6174683a206469766973696f6e206279207a65726f00000000000081525060200191505060405180910390fd5b8183816174b257fe5b04905092915050565b60008183106174ca57816174cc565b825b905092915050565b60006174df30617b80565b15905090565b600060019054906101000a900460ff168061750457506175036174d4565b5b8061751a575060008054906101000a900460ff16155b61756f576040517f08c379a000000000000000000000000000000000000000000000000000000000815260040180806020018281038252602e815260200180618096602e913960400191505060405180910390fd5b60008060019054906101000a900460ff1615905080156175bf576001600060016101000a81548160ff02191690831515021790555060016000806101000a81548160ff0219169083151502179055505b33600060026101000a81548173ffffffffffffffffffffffffffffffffffffffff021916908373ffffffffffffffffffffffffffffffffffffffff1602179055506000600160006101000a81548173ffffffffffffffffffffffffffffffffffffffff021916908373ffffffffffffffffffffffffffffffffffffffff1602179055507fbce074c8369e26e70e1ae2f14fc944da352cfe6f52e2de9572f0c9942a24b7fc33604051808273ffffffffffffffffffffffffffffffffffffffff16815260200191505060405180910390a180156176b05760008060016101000a81548160ff0219169083151502179055505b50565b6060617715826040518060400160405280602081526020017f5361666545524332303a206c6f772d6c6576656c2063616c6c206661696c65648152508573ffffffffffffffffffffffffffffffffffffffff16617b939092919063ffffffff16565b905060008151111561779d5780806020019051602081101561773657600080fd5b810190808051906020019092919050505061779c576040517f08c379a000000000000000000000000000000000000000000000000000000000815260040180806020018281038252602a81526020018061814d602a913960400191505060405180910390fd5b5b505050565b6000808373ffffffffffffffffffffffffffffffffffffffff166370a08231306040518263ffffffff1660e01b8152600401808273ffffffffffffffffffffffffffffffffffffffff16815260200191505060206040518083038186803b15801561780c57600080fd5b505afa158015617820573d6000803e3d6000fd5b505050506040513d602081101561783657600080fd5b810190808051906020019092919050505090506178763330858773ffffffffffffffffffffffffffffffffffffffff16616fb5909392919063ffffffff16565b60008473ffffffffffffffffffffffffffffffffffffffff166370a08231306040518263ffffffff1660e01b8152600401808273ffffffffffffffffffffffffffffffffffffffff16815260200191505060206040518083038186803b1580156178df57600080fd5b505afa1580156178f3573d6000803e3d6000fd5b505050506040513d602081101561790957600080fd5b8101908080519060200190929190505050905061792f828261677590919063ffffffff16565b9250505092915050565b600080608c60008573ffffffffffffffffffffffffffffffffffffffff1673ffffffffffffffffffffffffffffffffffffffff168152602001908152602001600020905060008160000160029054906101000a900473ffffffffffffffffffffffffffffffffffffffff16905060008260020154905060008273ffffffffffffffffffffffffffffffffffffffff16630e752702876040518263ffffffff1660e01b815260040180828152602001915050602060405180830381600087803b158015617a0457600080fd5b505af1158015617a18573d6000803e3d6000fd5b505050506040513d6020811015617a2e57600080fd5b810190808051906020019092919050505014617ab2576040517f08c379a00000000000000000000000000000000000000000000000000000000081526004018080602001828103825260098152602001807f626164207265706179000000000000000000000000000000000000000000000081525060200191505060405180910390fd5b60008273ffffffffffffffffffffffffffffffffffffffff166395dd9193306040518263ffffffff1660e01b8152600401808273ffffffffffffffffffffffffffffffffffffffff16815260200191505060206040518083038186803b158015617b1b57600080fd5b505afa158015617b2f573d6000803e3d6000fd5b505050506040513d6020811015617b4557600080fd5b81019080805190602001909291905050509050808460020181905550617b74818361677590919063ffffffff16565b94505050505092915050565b600080823b905060008111915050919050565b6060617ba28484600085617bab565b90509392505050565b606082471015617c06576040517f08c379a00000000000000000000000000000000000000000000000000000000081526004018080602001828103825260268152602001806180706026913960400191505060405180910390fd5b617c0f85617b80565b617c81576040517f08c379a000000000000000000000000000000000000000000000000000000000815260040180806020018281038252601d8152602001807f416464726573733a2063616c6c20746f206e6f6e2d636f6e747261637400000081525060200191505060405180910390fd5b600060608673ffffffffffffffffffffffffffffffffffffffff1685876040518082805190602001908083835b60208310617cd15780518252602082019150602081019050602083039250617cae565b6001836020036101000a03801982511681845116808217855250505050505090500191505060006040518083038185875af1925050503d8060008114617d33576040519150601f19603f3d011682016040523d82523d6000602084013e617d38565b606091505b5091509150617d48828286617d54565b92505050949350505050565b60608315617d6457829050617e19565b600083511115617d775782518084602001fd5b816040517f08c379a00000000000000000000000000000000000000000000000000000000081526004018080602001828103825283818151815260200191508051906020019080838360005b83811015617dde578082015181840152602081019050617dc3565b50505050905090810190601f168015617e0b5780820380516001836020036101000a031916815260200191505b509250505060405180910390fd5b9392505050565b61021980617e2e8339019056fe608060405234801561001057600080fd5b506101f9806100206000396000f3fe60806040526004361061001e5760003560e01c8063be2a1f7914610023575b600080fd5b6100ba6004803603604081101561003957600080fd5b81019080803573ffffffffffffffffffffffffffffffffffffffff1690602001909291908035906020019064010000000081111561007657600080fd5b82018360208201111561008857600080fd5b803590602001918460018302840111640100000000831117156100aa57600080fd5b90919293919293905050506100bc565b005b600060608473ffffffffffffffffffffffffffffffffffffffff1634858560405180838380828437808301925050509250505060006040518083038185875af1925050503d806000811461012c576040519150601f19603f3d011682016040523d82523d6000602084013e610131565b606091505b5091509150816101bc5760008151111561014e5780518082602001fd5b6040517f08c379a000000000000000000000000000000000000000000000000000000000815260040180806020018281038252600d8152602001807f62616420636173742063616c6c0000000000000000000000000000000000000081525060200191505060405180910390fd5b505050505056fea264697066735822122008a0b6030956fc44bc8ed908e6565f0f0aab9d717756ddf938e92e925b520eee64736f6c634300060c0033616e6f746865722074797065206f6620636f6c6c61746572616c20616c726561647920657869737473416464726573733a20696e73756666696369656e742062616c616e636520666f722063616c6c496e697469616c697a61626c653a20636f6e747261637420697320616c726561647920696e697469616c697a6564536166654d6174683a206d756c7469706c69636174696f6e206f766572666c6f7775736572732026207374617475736573206c656e677468206d69736d6174636865647370656c6c732026207374617475736573206c656e677468206d69736d617463686564746f6b656e732026207374617475736573206c656e677468206d69736d6174636865645361666545524332303a204552433230206f7065726174696f6e20646964206e6f7420737563636565645361666545524332303a20617070726f76652066726f6d206e6f6e2d7a65726f20746f206e6f6e2d7a65726f20616c6c6f77616e6365a26469706673582212202326fef30680a14fe3f9f0628ca55f934d13231f7a43abd35f2a2fb3bdfdd15064736f6c634300060c0033",
  "linkReferences": {},
  "deployedLinkReferences": {}
}