{
  "_format": "hh-sol-artifact-1",
  "contractName": "UsingBaseOracle",
  "sourceName": "contracts/oracle/UsingBaseOracle.sol",
  "abi": [
    {
      "inputs": [
        {
          "internalType": "contract IBaseOracle",
          "name": "_base",
          "type": "address"
        }
      ],
      "stateMutability": "nonpayable",
      "type": "constructor"
    },
    {
      "inputs": [],
      "name": "base",
      "outputs": [
        {
          "internalType": "contract IBaseOracle",
          "name": "",
          "type": "address"
        }
      ],
      "stateMutability": "view",
      "type": "function"
    }
  ],
  "bytecode": "0x60a060405234801561001057600080fd5b5060405161014f38038061014f8339818101604052602081101561003357600080fd5b81019080805190602001909291905050508073ffffffffffffffffffffffffffffffffffffffff1660808173ffffffffffffffffffffffffffffffffffffffff1660601b815250505060805160601c60b9610096600039806061525060b96000f3fe6080604052348015600f57600080fd5b506004361060285760003560e01c80635001f3b514602d575b600080fd5b6033605f565b604051808273ffffffffffffffffffffffffffffffffffffffff16815260200191505060405180910390f35b7f00000000000000000000000000000000000000000000000000000000000000008156fea2646970667358221220aa0eb1a580f0b275aa30eb6d0af9a3cc846f7d8ca6dd8ab266c0953f4558798764736f6c634300060c0033",
  "linkReferences": {},
  "deployedLinkReferences": {}
}