{
  "_format": "hh-sol-artifact-1",
  "contractName": "UniswapV2SpellV1",
  "sourceName": "contracts/spell/UniswapV2SpellV1.sol",
  "abi": [
    {
      "inputs": [
        {
          "internalType": "contract IBank",
          "name": "_bank",
          "type": "address"
        },
        {
          "internalType": "address",
          "name": "_werc20",
          "type": "address"
        },
        {
          "internalType": "contract IUniswapV2Router02",
          "name": "_router",
          "type": "address"
        }
      ],
      "stateMutability": "nonpayable",
      "type": "constructor"
    },
    {
      "anonymous": false,
      "inputs": [
        {
          "indexed": false,
          "internalType": "address",
          "name": "governor",
          "type": "address"
        }
      ],
      "name": "AcceptGovernor",
      "type": "event"
    },
    {
      "anonymous": false,
      "inputs": [
        {
          "indexed": false,
          "internalType": "address",
          "name": "governor",
          "type": "address"
        }
      ],
      "name": "SetGovernor",
      "type": "event"
    },
    {
      "anonymous": false,
      "inputs": [
        {
          "indexed": false,
          "internalType": "address",
          "name": "pendingGovernor",
          "type": "address"
        }
      ],
      "name": "SetPendingGovernor",
      "type": "event"
    },
    {
      "inputs": [],
      "name": "acceptGovernor",
      "outputs": [],
      "stateMutability": "nonpayable",
      "type": "function"
    },
    {
      "inputs": [
        {
          "internalType": "address",
          "name": "tokenA",
          "type": "address"
        },
        {
          "internalType": "address",
          "name": "tokenB",
          "type": "address"
        },
        {
          "components": [
            {
              "internalType": "uint256",
              "name": "amtAUser",
              "type": "uint256"
            },
            {
              "internalType": "uint256",
              "name": "amtBUser",
              "type": "uint256"
            },
            {
              "internalType": "uint256",
              "name": "amtLPUser",
              "type": "uint256"
            },
            {
              "internalType": "uint256",
              "name": "amtABorrow",
              "type": "uint256"
            },
            {
              "internalType": "uint256",
              "name": "amtBBorrow",
              "type": "uint256"
            },
            {
              "internalType": "uint256",
              "name": "amtLPBorrow",
              "type": "uint256"
            },
            {
              "internalType": "uint256",
              "name": "amtAMin",
              "type": "uint256"
            },
            {
              "internalType": "uint256",
              "name": "amtBMin",
              "type": "uint256"
            }
          ],
          "internalType": "struct UniswapV2SpellV1.Amounts",
          "name": "amt",
          "type": "tuple"
        }
      ],
      "name": "addLiquidityWERC20",
      "outputs": [],
      "stateMutability": "payable",
      "type": "function"
    },
    {
      "inputs": [
        {
          "internalType": "address",
          "name": "tokenA",
          "type": "address"
        },
        {
          "internalType": "address",
          "name": "tokenB",
          "type": "address"
        },
        {
          "components": [
            {
              "internalType": "uint256",
              "name": "amtAUser",
              "type": "uint256"
            },
            {
              "internalType": "uint256",
              "name": "amtBUser",
              "type": "uint256"
            },
            {
              "internalType": "uint256",
              "name": "amtLPUser",
              "type": "uint256"
            },
            {
              "internalType": "uint256",
              "name": "amtABorrow",
              "type": "uint256"
            },
            {
              "internalType": "uint256",
              "name": "amtBBorrow",
              "type": "uint256"
            },
            {
              "internalType": "uint256",
              "name": "amtLPBorrow",
              "type": "uint256"
            },
            {
              "internalType": "uint256",
              "name": "amtAMin",
              "type": "uint256"
            },
            {
              "internalType": "uint256",
              "name": "amtBMin",
              "type": "uint256"
            }
          ],
          "internalType": "struct UniswapV2SpellV1.Amounts",
          "name": "amt",
          "type": "tuple"
        },
        {
          "internalType": "address",
          "name": "wstaking",
          "type": "address"
        }
      ],
      "name": "addLiquidityWStakingRewards",
      "outputs": [],
      "stateMutability": "payable",
      "type": "function"
    },
    {
      "inputs": [
        {
          "internalType": "address",
          "name": "",
          "type": "address"
        },
        {
          "internalType": "address",
          "name": "",
          "type": "address"
        }
      ],
      "name": "approved",
      "outputs": [
        {
          "internalType": "bool",
          "name": "",
          "type": "bool"
        }
      ],
      "stateMutability": "view",
      "type": "function"
    },
    {
      "inputs": [],
      "name": "bank",
      "outputs": [
        {
          "internalType": "contract IBank",
          "name": "",
          "type": "address"
        }
      ],
      "stateMutability": "view",
      "type": "function"
    },
    {
      "inputs": [],
      "name": "factory",
      "outputs": [
        {
          "internalType": "contract IUniswapV2Factory",
          "name": "",
          "type": "address"
        }
      ],
      "stateMutability": "view",
      "type": "function"
    },
    {
      "inputs": [
        {
          "internalType": "address",
          "name": "tokenA",
          "type": "address"
        },
        {
          "internalType": "address",
          "name": "tokenB",
          "type": "address"
        }
      ],
      "name": "getAndApprovePair",
      "outputs": [
        {
          "internalType": "address",
          "name": "",
          "type": "address"
        }
      ],
      "stateMutability": "nonpayable",
      "type": "function"
    },
    {
      "inputs": [],
      "name": "governor",
      "outputs": [
        {
          "internalType": "address",
          "name": "",
          "type": "address"
        }
      ],
      "stateMutability": "view",
      "type": "function"
    },
    {
      "inputs": [
        {
          "internalType": "address",
          "name": "wstaking",
          "type": "address"
        }
      ],
      "name": "harvestWStakingRewards",
      "outputs": [],
      "stateMutability": "nonpayable",
      "type": "function"
    },
    {
      "inputs": [
        {
          "internalType": "address",
          "name": "",
          "type": "address"
        },
        {
          "internalType": "address",
          "name": "",
          "type": "address"
        },
        {
          "internalType": "uint256[]",
          "name": "",
          "type": "uint256[]"
        },
        {
          "internalType": "uint256[]",
          "name": "",
          "type": "uint256[]"
        },
        {
          "internalType": "bytes",
          "name": "",
          "type": "bytes"
        }
      ],
      "name": "onERC1155BatchReceived",
      "outputs": [
        {
          "internalType": "bytes4",
          "name": "",
          "type": "bytes4"
        }
      ],
      "stateMutability": "nonpayable",
      "type": "function"
    },
    {
      "inputs": [
        {
          "internalType": "address",
          "name": "",
          "type": "address"
        },
        {
          "internalType": "address",
          "name": "",
          "type": "address"
        },
        {
          "internalType": "uint256",
          "name": "",
          "type": "uint256"
        },
        {
          "internalType": "uint256",
          "name": "",
          "type": "uint256"
        },
        {
          "internalType": "bytes",
          "name": "",
          "type": "bytes"
        }
      ],
      "name": "onERC1155Received",
      "outputs": [
        {
          "internalType": "bytes4",
          "name": "",
          "type": "bytes4"
        }
      ],
      "stateMutability": "nonpayable",
      "type": "function"
    },
    {
      "inputs": [
        {
          "internalType": "address",
          "name": "",
          "type": "address"
        },
        {
          "internalType": "address",
          "name": "",
          "type": "address"
        }
      ],
      "name": "pairs",
      "outputs": [
        {
          "internalType": "address",
          "name": "",
          "type": "address"
        }
      ],
      "stateMutability": "view",
      "type": "function"
    },
    {
      "inputs": [],
      "name": "pendingGovernor",
      "outputs": [
        {
          "internalType": "address",
          "name": "",
          "type": "address"
        }
      ],
      "stateMutability": "view",
      "type": "function"
    },
    {
      "inputs": [
        {
          "internalType": "address",
          "name": "tokenA",
          "type": "address"
        },
        {
          "internalType": "address",
          "name": "tokenB",
          "type": "address"
        },
        {
          "components": [
            {
              "internalType": "uint256",
              "name": "amtLPTake",
              "type": "uint256"
            },
            {
              "internalType": "uint256",
              "name": "amtLPWithdraw",
              "type": "uint256"
            },
            {
              "internalType": "uint256",
              "name": "amtARepay",
              "type": "uint256"
            },
            {
              "internalType": "uint256",
              "name": "amtBRepay",
              "type": "uint256"
            },
            {
              "internalType": "uint256",
              "name": "amtLPRepay",
              "type": "uint256"
            },
            {
              "internalType": "uint256",
              "name": "amtAMin",
              "type": "uint256"
            },
            {
              "internalType": "uint256",
              "name": "amtBMin",
              "type": "uint256"
            }
          ],
          "internalType": "struct UniswapV2SpellV1.RepayAmounts",
          "name": "amt",
          "type": "tuple"
        }
      ],
      "name": "removeLiquidityWERC20",
      "outputs": [],
      "stateMutability": "nonpayable",
      "type": "function"
    },
    {
      "inputs": [
        {
          "internalType": "address",
          "name": "tokenA",
          "type": "address"
        },
        {
          "internalType": "address",
          "name": "tokenB",
          "type": "address"
        },
        {
          "components": [
            {
              "internalType": "uint256",
              "name": "amtLPTake",
              "type": "uint256"
            },
            {
              "internalType": "uint256",
              "name": "amtLPWithdraw",
              "type": "uint256"
            },
            {
              "internalType": "uint256",
              "name": "amtARepay",
              "type": "uint256"
            },
            {
              "internalType": "uint256",
              "name": "amtBRepay",
              "type": "uint256"
            },
            {
              "internalType": "uint256",
              "name": "amtLPRepay",
              "type": "uint256"
            },
            {
              "internalType": "uint256",
              "name": "amtAMin",
              "type": "uint256"
            },
            {
              "internalType": "uint256",
              "name": "amtBMin",
              "type": "uint256"
            }
          ],
          "internalType": "struct UniswapV2SpellV1.RepayAmounts",
          "name": "amt",
          "type": "tuple"
        },
        {
          "internalType": "address",
          "name": "wstaking",
          "type": "address"
        }
      ],
      "name": "removeLiquidityWStakingRewards",
      "outputs": [],
      "stateMutability": "nonpayable",
      "type": "function"
    },
    {
      "inputs": [],
      "name": "router",
      "outputs": [
        {
          "internalType": "contract IUniswapV2Router02",
          "name": "",
          "type": "address"
        }
      ],
      "stateMutability": "view",
      "type": "function"
    },
    {
      "inputs": [
        {
          "internalType": "address",
          "name": "_pendingGovernor",
          "type": "address"
        }
      ],
      "name": "setPendingGovernor",
      "outputs": [],
      "stateMutability": "nonpayable",
      "type": "function"
    },
    {
      "inputs": [
        {
          "internalType": "address[]",
          "name": "lpTokens",
          "type": "address[]"
        },
        {
          "internalType": "bool[]",
          "name": "statuses",
          "type": "bool[]"
        }
      ],
      "name": "setWhitelistLPTokens",
      "outputs": [],
      "stateMutability": "nonpayable",
      "type": "function"
    },
    {
      "inputs": [
        {
          "internalType": "bytes4",
          "name": "interfaceId",
          "type": "bytes4"
        }
      ],
      "name": "supportsInterface",
      "outputs": [
        {
          "internalType": "bool",
          "name": "",
          "type": "bool"
        }
      ],
      "stateMutability": "view",
      "type": "function"
    },
    {
      "inputs": [],
      "name": "werc20",
      "outputs": [
        {
          "internalType": "contract IWERC20",
          "name": "",
          "type": "address"
        }
      ],
      "stateMutability": "view",
      "type": "function"
    },
    {
      "inputs": [],
      "name": "weth",
      "outputs": [
        {
          "internalType": "address",
          "name": "",
          "type": "address"
        }
      ],
      "stateMutability": "view",
      "type": "function"
    },
    {
      "inputs": [
        {
          "internalType": "address",
          "name": "",
          "type": "address"
        }
      ],
      "name": "whitelistedLpTokens",
      "outputs": [
        {
          "internalType": "bool",
          "name": "",
          "type": "bool"
        }
      ],
      "stateMutability": "view",
      "type": "function"
    },
    {
      "stateMutability": "payable",
      "type": "receive"
    }
  ],
  "bytecode": "0x6101206040523480156200001257600080fd5b506040516200785138038062007851833981810160405281019062000038919062000c38565b82828273ffffffffffffffffffffffffffffffffffffffff1663ad5c46486040518163ffffffff1660e01b815260040160206040518083038186803b1580156200008157600080fd5b505afa15801562000096573d6000803e3d6000fd5b505050506040513d601f19601f82011682018060405250810190620000bc919062000be0565b828282620000d76301ffc9a760e01b6200033060201b60201c565b620000f863bc197c8160e01b63f23a6e6160e01b186200033060201b60201c565b8273ffffffffffffffffffffffffffffffffffffffff1660808173ffffffffffffffffffffffffffffffffffffffff1660601b815250508173ffffffffffffffffffffffffffffffffffffffff1660a08173ffffffffffffffffffffffffffffffffffffffff1660601b815250508073ffffffffffffffffffffffffffffffffffffffff1660c08173ffffffffffffffffffffffffffffffffffffffff1660601b81525050620001af81846200040860201b60201c565b8173ffffffffffffffffffffffffffffffffffffffff1663a22cb4658460016040518363ffffffff1660e01b8152600401620001ed92919062000ffd565b600060405180830381600087803b1580156200020857600080fd5b505af11580156200021d573d6000803e3d6000fd5b50505050505050620002346200058360201b60201c565b5050508073ffffffffffffffffffffffffffffffffffffffff166101008173ffffffffffffffffffffffffffffffffffffffff1660601b815250508073ffffffffffffffffffffffffffffffffffffffff1663c45a01556040518163ffffffff1660e01b815260040160206040518083038186803b158015620002b657600080fd5b505afa158015620002cb573d6000803e3d6000fd5b505050506040513d601f19601f82011682018060405250810190620002f1919062000be0565b73ffffffffffffffffffffffffffffffffffffffff1660e08173ffffffffffffffffffffffffffffffffffffffff1660601b81525050505050620012f0565b63ffffffff60e01b817bffffffffffffffffffffffffffffffffffffffffffffffffffffffff191614156200039c576040517f08c379a000000000000000000000000000000000000000000000000000000000815260040162000393906200107b565b60405180910390fd5b6001600080837bffffffffffffffffffffffffffffffffffffffffffffffffffffffff19167bffffffffffffffffffffffffffffffffffffffffffffffffffffffff1916815260200190815260200160002060006101000a81548160ff02191690831515021790555050565b604160008373ffffffffffffffffffffffffffffffffffffffff1673ffffffffffffffffffffffffffffffffffffffff16815260200190815260200160002060008273ffffffffffffffffffffffffffffffffffffffff1673ffffffffffffffffffffffffffffffffffffffff16815260200190815260200160002060009054906101000a900460ff166200057f57620004e9817fffffffffffffffffffffffffffffffffffffffffffffffffffffffffffffffff8473ffffffffffffffffffffffffffffffffffffffff166200073b60201b6200229e179092919060201c565b6001604160008473ffffffffffffffffffffffffffffffffffffffff1673ffffffffffffffffffffffffffffffffffffffff16815260200190815260200160002060008373ffffffffffffffffffffffffffffffffffffffff1673ffffffffffffffffffffffffffffffffffffffff16815260200190815260200160002060006101000a81548160ff0219169083151502179055505b5050565b604260019054906101000a900460ff1680620005ab5750620005aa620008ad60201b60201c565b5b80620005c45750604260009054906101000a900460ff16155b62000606576040517f08c379a0000000000000000000000000000000000000000000000000000000008152600401620005fd90620010bf565b60405180910390fd5b6000604260019054906101000a900460ff16159050801562000659576001604260016101000a81548160ff0219169083151502179055506001604260006101000a81548160ff0219169083151502179055505b33604260026101000a81548173ffffffffffffffffffffffffffffffffffffffff021916908373ffffffffffffffffffffffffffffffffffffffff1602179055506000604360006101000a81548173ffffffffffffffffffffffffffffffffffffffff021916908373ffffffffffffffffffffffffffffffffffffffff1602179055507fbce074c8369e26e70e1ae2f14fc944da352cfe6f52e2de9572f0c9942a24b7fc336040516200070d919062000fb3565b60405180910390a1801562000738576000604260016101000a81548160ff0219169083151502179055505b50565b6000811480620007db575060008373ffffffffffffffffffffffffffffffffffffffff1663dd62ed3e30856040518363ffffffff1660e01b81526004016200078592919062000fd0565b60206040518083038186803b1580156200079e57600080fd5b505afa158015620007b3573d6000803e3d6000fd5b505050506040513d601f19601f82011682018060405250810190620007d9919062000c8e565b145b6200081d576040517f08c379a0000000000000000000000000000000000000000000000000000000008152600401620008149062001125565b60405180910390fd5b620008a88363095ea7b360e01b84846040516024016200083f9291906200102a565b604051602081830303815290604052907bffffffffffffffffffffffffffffffffffffffffffffffffffffffff19166020820180517bffffffffffffffffffffffffffffffffffffffffffffffffffffffff8381831617835250505050620008cb60201b60201c565b505050565b6000620008c5306200099f60201b620023fc1760201c565b15905090565b606062000934826040518060400160405280602081526020017f5361666545524332303a206c6f772d6c6576656c2063616c6c206661696c65648152508573ffffffffffffffffffffffffffffffffffffffff16620009b260201b6200240f179092919060201c565b90506000815111156200099a578080602001905181019062000957919062000c0c565b62000999576040517f08c379a0000000000000000000000000000000000000000000000000000000008152600401620009909062001103565b60405180910390fd5b5b505050565b600080823b905060008111915050919050565b6060620009c98484600085620009d260201b60201c565b90509392505050565b60608247101562000a1a576040517f08c379a000000000000000000000000000000000000000000000000000000000815260040162000a11906200109d565b60405180910390fd5b62000a2b856200099f60201b60201c565b62000a6d576040517f08c379a000000000000000000000000000000000000000000000000000000000815260040162000a6490620010e1565b60405180910390fd5b600060608673ffffffffffffffffffffffffffffffffffffffff16858760405162000a99919062000f9a565b60006040518083038185875af1925050503d806000811462000ad8576040519150601f19603f3d011682016040523d82523d6000602084013e62000add565b606091505b509150915062000af582828662000b0160201b60201c565b92505050949350505050565b6060831562000b135782905062000b66565b60008351111562000b275782518084602001fd5b816040517f08c379a000000000000000000000000000000000000000000000000000000000815260040162000b5d919062001057565b60405180910390fd5b9392505050565b60008151905062000b7e816200126e565b92915050565b60008151905062000b958162001288565b92915050565b60008151905062000bac81620012a2565b92915050565b60008151905062000bc381620012bc565b92915050565b60008151905062000bda81620012d6565b92915050565b60006020828403121562000bf357600080fd5b600062000c038482850162000b6d565b91505092915050565b60006020828403121562000c1f57600080fd5b600062000c2f8482850162000b84565b91505092915050565b60008060006060848603121562000c4e57600080fd5b600062000c5e8682870162000b9b565b935050602062000c718682870162000b6d565b925050604062000c848682870162000bb2565b9150509250925092565b60006020828403121562000ca157600080fd5b600062000cb18482850162000bc9565b91505092915050565b62000cc581620011eb565b82525050565b62000cd68162001179565b82525050565b62000ce7816200118d565b82525050565b600062000cfa8262001147565b62000d0681856200115d565b935062000d1881856020860162001227565b80840191505092915050565b600062000d318262001152565b62000d3d818562001168565b935062000d4f81856020860162001227565b62000d5a816200125d565b840191505092915050565b600062000d74601c8362001168565b91507f4552433136353a20696e76616c696420696e74657266616365206964000000006000830152602082019050919050565b600062000db660268362001168565b91507f416464726573733a20696e73756666696369656e742062616c616e636520666f60008301527f722063616c6c00000000000000000000000000000000000000000000000000006020830152604082019050919050565b600062000e1e602e8362001168565b91507f496e697469616c697a61626c653a20636f6e747261637420697320616c72656160008301527f647920696e697469616c697a65640000000000000000000000000000000000006020830152604082019050919050565b600062000e86601d8362001168565b91507f416464726573733a2063616c6c20746f206e6f6e2d636f6e74726163740000006000830152602082019050919050565b600062000ec8602a8362001168565b91507f5361666545524332303a204552433230206f7065726174696f6e20646964206e60008301527f6f742073756363656564000000000000000000000000000000000000000000006020830152604082019050919050565b600062000f3060368362001168565b91507f5361666545524332303a20617070726f76652066726f6d206e6f6e2d7a65726f60008301527f20746f206e6f6e2d7a65726f20616c6c6f77616e6365000000000000000000006020830152604082019050919050565b62000f9481620011e1565b82525050565b600062000fa8828462000ced565b915081905092915050565b600060208201905062000fca600083018462000cba565b92915050565b600060408201905062000fe7600083018562000ccb565b62000ff6602083018462000ccb565b9392505050565b600060408201905062001014600083018562000ccb565b62001023602083018462000cdc565b9392505050565b600060408201905062001041600083018562000ccb565b62001050602083018462000f89565b9392505050565b6000602082019050818103600083015262001073818462000d24565b905092915050565b60006020820190508181036000830152620010968162000d65565b9050919050565b60006020820190508181036000830152620010b88162000da7565b9050919050565b60006020820190508181036000830152620010da8162000e0f565b9050919050565b60006020820190508181036000830152620010fc8162000e77565b9050919050565b600060208201905081810360008301526200111e8162000eb9565b9050919050565b60006020820190508181036000830152620011408162000f21565b9050919050565b600081519050919050565b600081519050919050565b600081905092915050565b600082825260208201905092915050565b60006200118682620011c1565b9050919050565b60008115159050919050565b6000620011a68262001179565b9050919050565b6000620011ba8262001179565b9050919050565b600073ffffffffffffffffffffffffffffffffffffffff82169050919050565b6000819050919050565b6000620011f882620011ff565b9050919050565b60006200120c8262001213565b9050919050565b60006200122082620011c1565b9050919050565b60005b83811015620012475780820151818401526020810190506200122a565b8381111562001257576000848401525b50505050565b6000601f19601f8301169050919050565b620012798162001179565b81146200128557600080fd5b50565b62001293816200118d565b81146200129f57600080fd5b50565b620012ad8162001199565b8114620012b957600080fd5b50565b620012c781620011ad565b8114620012d357600080fd5b50565b620012e181620011e1565b8114620012ed57600080fd5b50565b60805160601c60a05160601c60c05160601c60e05160601c6101005160601c616440620014116000398061087c52806108a652806108d0528061227c5280612add5280612cbe5280612e8c528061397c5280613b6652508061075b52806115145250806101405280610a775280613dc15280613e775280614472525080611091528061254252806125cb5280613c425280613c685280613d31525080610b225280610d4d5280610fd052806110f7528061112c52806113b852806116a752806118b95280611b1a5280611bc85280611c3b5280611f78528061245a528061250652806126eb52806127ce52806128a6528061297e52806133935280613cf55280613f04528061432b528061435152806144ff528061459a52506164406000f3fe6080604052600436106101395760003560e01c8063bc197c81116100ab578063e58bb6391161006f578063e58bb639146104b9578063ee42c6f4146104d0578063f235757f146104f9578063f23a6e6114610522578063f4b160451461055f578063f887ea401461059c576101ce565b8063bc197c81146103ee578063c45a01551461042b578063cc9b188014610456578063d57cdec514610472578063e3056a341461048e576101ce565b806345174f18116100fd57806345174f18146102cc5780634bab09f6146102f55780635741229c1461033257806369454b861461035d57806376cdb03b1461039a578063b2cfde44146103c5576101ce565b806301ffc9a7146101d35780630c340a24146102105780631387d96d1461023b5780632185059f146102645780633fc8cef3146102a1576101ce565b366101ce577f000000000000000000000000000000000000000000000000000000000000000073ffffffffffffffffffffffffffffffffffffffff163373ffffffffffffffffffffffffffffffffffffffff16146101cc576040517f08c379a00000000000000000000000000000000000000000000000000000000081526004016101c390615f05565b60405180910390fd5b005b600080fd5b3480156101df57600080fd5b506101fa60048036038101906101f59190615257565b6105c7565b6040516102079190615cc1565b60405180910390f35b34801561021c57600080fd5b5061022561062e565b6040516102329190615ac3565b60405180910390f35b34801561024757600080fd5b50610262600480360381019061025d9190614fa5565b610654565b005b34801561027057600080fd5b5061028b60048036038101906102869190614de8565b610682565b6040516102989190615ac3565b60405180910390f35b3480156102ad57600080fd5b506102b6610a75565b6040516102c39190615ac3565b60405180910390f35b3480156102d857600080fd5b506102f360048036038101906102ee9190614d96565b610a99565b005b34801561030157600080fd5b5061031c60048036038101906103179190614d96565b61106f565b6040516103299190615cc1565b60405180910390f35b34801561033e57600080fd5b5061034761108f565b6040516103549190615d48565b60405180910390f35b34801561036957600080fd5b50610384600480360381019061037f9190614de8565b6110b3565b6040516103919190615ac3565b60405180910390f35b3480156103a657600080fd5b506103af6110f5565b6040516103bc9190615cf7565b60405180910390f35b3480156103d157600080fd5b506103ec60048036038101906103e79190614ff5565b611119565b005b3480156103fa57600080fd5b5061041560048036038101906104109190614e24565b6114fa565b6040516104229190615cdc565b60405180910390f35b34801561043757600080fd5b50610440611512565b60405161044d9190615d12565b60405180910390f35b610470600480360381019061046b9190614ef0565b611536565b005b61048c60048036038101906104879190614f40565b611602565b005b34801561049a57600080fd5b506104a3611cf8565b6040516104b09190615ac3565b60405180910390f35b3480156104c557600080fd5b506104ce611d1e565b005b3480156104dc57600080fd5b506104f760048036038101906104f2919061514f565b611e6a565b005b34801561050557600080fd5b50610520600480360381019061051b9190614d96565b61212a565b005b34801561052e57600080fd5b50610549600480360381019061054491906150bd565b612235565b6040516105569190615cdc565b60405180910390f35b34801561056b57600080fd5b5061058660048036038101906105819190614de8565b61224b565b6040516105939190615cc1565b60405180910390f35b3480156105a857600080fd5b506105b161227a565b6040516105be9190615d2d565b60405180910390f35b6000806000837bffffffffffffffffffffffffffffffffffffffffffffffffffffffff19167bffffffffffffffffffffffffffffffffffffffffffffffffffffffff1916815260200190815260200160002060009054906101000a900460ff169050919050565b604260029054906101000a900473ffffffffffffffffffffffffffffffffffffffff1681565b60006106608484610682565b9050610670818360000135612427565b61067c8484848461265b565b50505050565b600080608560008573ffffffffffffffffffffffffffffffffffffffff1673ffffffffffffffffffffffffffffffffffffffff16815260200190815260200160002060008473ffffffffffffffffffffffffffffffffffffffff1673ffffffffffffffffffffffffffffffffffffffff16815260200190815260200160002060009054906101000a900473ffffffffffffffffffffffffffffffffffffffff169050600073ffffffffffffffffffffffffffffffffffffffff168173ffffffffffffffffffffffffffffffffffffffff161415610a6b577f000000000000000000000000000000000000000000000000000000000000000073ffffffffffffffffffffffffffffffffffffffff1663e6a4390585856040518363ffffffff1660e01b81526004016107b4929190615b22565b60206040518083038186803b1580156107cc57600080fd5b505afa1580156107e0573d6000803e3d6000fd5b505050506040513d601f19601f820116820180604052508101906108049190614dbf565b9050600073ffffffffffffffffffffffffffffffffffffffff168173ffffffffffffffffffffffffffffffffffffffff161415610876576040517f08c379a000000000000000000000000000000000000000000000000000000000815260040161086d90615ec5565b60405180910390fd5b6108a0847f0000000000000000000000000000000000000000000000000000000000000000613185565b6108ca837f0000000000000000000000000000000000000000000000000000000000000000613185565b6108f4817f0000000000000000000000000000000000000000000000000000000000000000613185565b80608560008673ffffffffffffffffffffffffffffffffffffffff1673ffffffffffffffffffffffffffffffffffffffff16815260200190815260200160002060008573ffffffffffffffffffffffffffffffffffffffff1673ffffffffffffffffffffffffffffffffffffffff16815260200190815260200160002060006101000a81548173ffffffffffffffffffffffffffffffffffffffff021916908373ffffffffffffffffffffffffffffffffffffffff16021790555080608560008573ffffffffffffffffffffffffffffffffffffffff1673ffffffffffffffffffffffffffffffffffffffff16815260200190815260200160002060008673ffffffffffffffffffffffffffffffffffffffff1673ffffffffffffffffffffffffffffffffffffffff16815260200190815260200160002060006101000a81548173ffffffffffffffffffffffffffffffffffffffff021916908373ffffffffffffffffffffffffffffffffffffffff1602179055505b8091505092915050565b7f000000000000000000000000000000000000000000000000000000000000000081565b60008173ffffffffffffffffffffffffffffffffffffffff1663228cb7336040518163ffffffff1660e01b8152600401602060405180830381600087803b158015610ae357600080fd5b505af1158015610af7573d6000803e3d6000fd5b505050506040513d601f19601f82011682018060405250810190610b1b9190614dbf565b90506000807f000000000000000000000000000000000000000000000000000000000000000073ffffffffffffffffffffffffffffffffffffffff1663f70aedd96040518163ffffffff1660e01b815260040160806040518083038186803b158015610b8657600080fd5b505afa158015610b9a573d6000803e3d6000fd5b505050506040513d601f19601f82011682018060405250810190610bbe919061505a565b50925092505060008473ffffffffffffffffffffffffffffffffffffffff1663a4775772836040518263ffffffff1660e01b8152600401610bff9190615fe5565b60206040518083038186803b158015610c1757600080fd5b505afa158015610c2b573d6000803e3d6000fd5b505050506040513d601f19601f82011682018060405250810190610c4f9190614dbf565b9050608460008273ffffffffffffffffffffffffffffffffffffffff1673ffffffffffffffffffffffffffffffffffffffff16815260200190815260200160002060009054906101000a900460ff16610cdd576040517f08c379a0000000000000000000000000000000000000000000000000000000008152600401610cd490615ee5565b60405180910390fd5b8473ffffffffffffffffffffffffffffffffffffffff168373ffffffffffffffffffffffffffffffffffffffff1614610d4b576040517f08c379a0000000000000000000000000000000000000000000000000000000008152600401610d4290615da5565b60405180910390fd5b7f000000000000000000000000000000000000000000000000000000000000000073ffffffffffffffffffffffffffffffffffffffff166368eb4ba886847fffffffffffffffffffffffffffffffffffffffffffffffffffffffffffffffff6040518463ffffffff1660e01b8152600401610dc893929190615c8a565b600060405180830381600087803b158015610de257600080fd5b505af1158015610df6573d6000803e3d6000fd5b505050508473ffffffffffffffffffffffffffffffffffffffff1663b390c0ab837fffffffffffffffffffffffffffffffffffffffffffffffffffffffffffffffff6040518363ffffffff1660e01b8152600401610e55929190616083565b602060405180830381600087803b158015610e6f57600080fd5b505af1158015610e83573d6000803e3d6000fd5b505050506040513d601f19601f82011682018060405250810190610ea791906152cf565b5060008173ffffffffffffffffffffffffffffffffffffffff166370a08231306040518263ffffffff1660e01b8152600401610ee39190615ade565b60206040518083038186803b158015610efb57600080fd5b505afa158015610f0f573d6000803e3d6000fd5b505050506040513d601f19601f82011682018060405250810190610f3391906152cf565b9050610f3f8287613185565b60008673ffffffffffffffffffffffffffffffffffffffff1663a0712d68836040518263ffffffff1660e01b8152600401610f7a9190615fe5565b602060405180830381600087803b158015610f9457600080fd5b505af1158015610fa8573d6000803e3d6000fd5b505050506040513d601f19601f82011682018060405250810190610fcc91906152cf565b90507f000000000000000000000000000000000000000000000000000000000000000073ffffffffffffffffffffffffffffffffffffffff1663314568d98883856040518463ffffffff1660e01b815260040161102b93929190615c8a565b600060405180830381600087803b15801561104557600080fd5b505af1158015611059573d6000803e3d6000fd5b50505050611066866132f8565b50505050505050565b60846020528060005260406000206000915054906101000a900460ff1681565b7f000000000000000000000000000000000000000000000000000000000000000081565b60856020528160005260406000206020528060005260406000206000915091509054906101000a900473ffffffffffffffffffffffffffffffffffffffff1681565b7f000000000000000000000000000000000000000000000000000000000000000081565b60006111258585610682565b90506000807f000000000000000000000000000000000000000000000000000000000000000073ffffffffffffffffffffffffffffffffffffffff1663f70aedd96040518163ffffffff1660e01b815260040160806040518083038186803b15801561119057600080fd5b505afa1580156111a4573d6000803e3d6000fd5b505050506040513d601f19601f820116820180604052508101906111c8919061505a565b50925092505060008473ffffffffffffffffffffffffffffffffffffffff1663228cb7336040518163ffffffff1660e01b8152600401602060405180830381600087803b15801561121857600080fd5b505af115801561122c573d6000803e3d6000fd5b505050506040513d601f19601f820116820180604052508101906112509190614dbf565b90508373ffffffffffffffffffffffffffffffffffffffff168373ffffffffffffffffffffffffffffffffffffffff1663a4775772846040518263ffffffff1660e01b81526004016112a29190615fe5565b60206040518083038186803b1580156112ba57600080fd5b505afa1580156112ce573d6000803e3d6000fd5b505050506040513d601f19601f820116820180604052508101906112f29190614dbf565b73ffffffffffffffffffffffffffffffffffffffff1614611348576040517f08c379a000000000000000000000000000000000000000000000000000000000815260040161133f90615f85565b60405180910390fd5b8473ffffffffffffffffffffffffffffffffffffffff168373ffffffffffffffffffffffffffffffffffffffff16146113b6576040517f08c379a00000000000000000000000000000000000000000000000000000000081526004016113ad90615da5565b60405180910390fd5b7f000000000000000000000000000000000000000000000000000000000000000073ffffffffffffffffffffffffffffffffffffffff166368eb4ba8868489600001356040518463ffffffff1660e01b815260040161141793929190615c8a565b600060405180830381600087803b15801561143157600080fd5b505af1158015611445573d6000803e3d6000fd5b505050508473ffffffffffffffffffffffffffffffffffffffff1663b390c0ab8388600001356040518363ffffffff1660e01b8152600401611488929190616083565b602060405180830381600087803b1580156114a257600080fd5b505af11580156114b6573d6000803e3d6000fd5b505050506040513d601f19601f820116820180604052508101906114da91906152cf565b506114e78888888761265b565b6114f0816132f8565b5050505050505050565b600063bc197c8160e01b905098975050505050505050565b7f000000000000000000000000000000000000000000000000000000000000000081565b60006115428484610682565b90506115508484848461345b565b6115e2818273ffffffffffffffffffffffffffffffffffffffff166370a08231306040518263ffffffff1660e01b815260040161158d9190615ade565b60206040518083038186803b1580156115a557600080fd5b505afa1580156115b9573d6000803e3d6000fd5b505050506040513d601f19601f820116820180604052508101906115dd91906152cf565b613c33565b6115ea613dbd565b6115f3846132f8565b6115fc836132f8565b50505050565b600061160e8585610682565b905060008273ffffffffffffffffffffffffffffffffffffffff1663228cb7336040518163ffffffff1660e01b8152600401602060405180830381600087803b15801561165a57600080fd5b505af115801561166e573d6000803e3d6000fd5b505050506040513d601f19601f820116820180604052508101906116929190614dbf565b90506116a08686868561345b565b60008060007f000000000000000000000000000000000000000000000000000000000000000073ffffffffffffffffffffffffffffffffffffffff1663f70aedd96040518163ffffffff1660e01b815260040160806040518083038186803b15801561170b57600080fd5b505afa15801561171f573d6000803e3d6000fd5b505050506040513d601f19601f82011682018060405250810190611743919061505a565b9350935093505060008111156119d5578473ffffffffffffffffffffffffffffffffffffffff168373ffffffffffffffffffffffffffffffffffffffff1663a4775772846040518263ffffffff1660e01b81526004016117a39190615fe5565b60206040518083038186803b1580156117bb57600080fd5b505afa1580156117cf573d6000803e3d6000fd5b505050506040513d601f19601f820116820180604052508101906117f39190614dbf565b73ffffffffffffffffffffffffffffffffffffffff1614611849576040517f08c379a000000000000000000000000000000000000000000000000000000000815260040161184090615f85565b60405180910390fd5b8573ffffffffffffffffffffffffffffffffffffffff168373ffffffffffffffffffffffffffffffffffffffff16146118b7576040517f08c379a00000000000000000000000000000000000000000000000000000000081526004016118ae90615da5565b60405180910390fd5b7f000000000000000000000000000000000000000000000000000000000000000073ffffffffffffffffffffffffffffffffffffffff166368eb4ba88784846040518463ffffffff1660e01b815260040161191493929190615c8a565b600060405180830381600087803b15801561192e57600080fd5b505af1158015611942573d6000803e3d6000fd5b505050508573ffffffffffffffffffffffffffffffffffffffff1663b390c0ab83836040518363ffffffff1660e01b8152600401611981929190616083565b602060405180830381600087803b15801561199b57600080fd5b505af11580156119af573d6000803e3d6000fd5b505050506040513d601f19601f820116820180604052508101906119d391906152cf565b505b6119df8587613185565b60008573ffffffffffffffffffffffffffffffffffffffff166370a08231306040518263ffffffff1660e01b8152600401611a1a9190615ade565b60206040518083038186803b158015611a3257600080fd5b505afa158015611a46573d6000803e3d6000fd5b505050506040513d601f19601f82011682018060405250810190611a6a91906152cf565b905060008773ffffffffffffffffffffffffffffffffffffffff1663a0712d68836040518263ffffffff1660e01b8152600401611aa79190615fe5565b602060405180830381600087803b158015611ac157600080fd5b505af1158015611ad5573d6000803e3d6000fd5b505050506040513d601f19601f82011682018060405250810190611af991906152cf565b90508773ffffffffffffffffffffffffffffffffffffffff1663e985e9c5307f00000000000000000000000000000000000000000000000000000000000000006040518363ffffffff1660e01b8152600401611b56929190615af9565b60206040518083038186803b158015611b6e57600080fd5b505afa158015611b82573d6000803e3d6000fd5b505050506040513d601f19601f82011682018060405250810190611ba6919061522e565b611c39578773ffffffffffffffffffffffffffffffffffffffff1663a22cb4657f000000000000000000000000000000000000000000000000000000000000000060016040518363ffffffff1660e01b8152600401611c06929190615c38565b600060405180830381600087803b158015611c2057600080fd5b505af1158015611c34573d6000803e3d6000fd5b505050505b7f000000000000000000000000000000000000000000000000000000000000000073ffffffffffffffffffffffffffffffffffffffff1663314568d98983856040518463ffffffff1660e01b8152600401611c9693929190615c8a565b600060405180830381600087803b158015611cb057600080fd5b505af1158015611cc4573d6000803e3d6000fd5b50505050611cd0613dbd565b611cd98b6132f8565b611ce28a6132f8565b611ceb866132f8565b5050505050505050505050565b604360009054906101000a900473ffffffffffffffffffffffffffffffffffffffff1681565b604360009054906101000a900473ffffffffffffffffffffffffffffffffffffffff1673ffffffffffffffffffffffffffffffffffffffff163373ffffffffffffffffffffffffffffffffffffffff1614611dae576040517f08c379a0000000000000000000000000000000000000000000000000000000008152600401611da590615dc5565b60405180910390fd5b6000604360006101000a81548173ffffffffffffffffffffffffffffffffffffffff021916908373ffffffffffffffffffffffffffffffffffffffff16021790555033604260026101000a81548173ffffffffffffffffffffffffffffffffffffffff021916908373ffffffffffffffffffffffffffffffffffffffff1602179055507fd345d81ce68c70b119a17eee79dc1421700bd9cb21ca148a62dc90983964e82f33604051611e609190615ade565b60405180910390a1565b604260029054906101000a900473ffffffffffffffffffffffffffffffffffffffff1673ffffffffffffffffffffffffffffffffffffffff163373ffffffffffffffffffffffffffffffffffffffff1614611efa576040517f08c379a0000000000000000000000000000000000000000000000000000000008152600401611ef190615e85565b60405180910390fd5b818190508484905014611f42576040517f08c379a0000000000000000000000000000000000000000000000000000000008152600401611f3990615ea5565b60405180910390fd5b60005b8484905081101561212357828282818110611f5c57fe5b9050602002016020810190611f719190615205565b1561207f577f000000000000000000000000000000000000000000000000000000000000000073ffffffffffffffffffffffffffffffffffffffff1663e660cc08868684818110611fbe57fe5b9050602002016020810190611fd39190614d96565b6040518263ffffffff1660e01b8152600401611fef9190615ac3565b60206040518083038186803b15801561200757600080fd5b505afa15801561201b573d6000803e3d6000fd5b505050506040513d601f19601f8201168201806040525081019061203f919061522e565b61207e576040517f08c379a000000000000000000000000000000000000000000000000000000000815260040161207590615e05565b60405180910390fd5b5b82828281811061208b57fe5b90506020020160208101906120a09190615205565b608460008787858181106120b057fe5b90506020020160208101906120c59190614d96565b73ffffffffffffffffffffffffffffffffffffffff1673ffffffffffffffffffffffffffffffffffffffff16815260200190815260200160002060006101000a81548160ff0219169083151502179055508080600101915050611f45565b5050505050565b604260029054906101000a900473ffffffffffffffffffffffffffffffffffffffff1673ffffffffffffffffffffffffffffffffffffffff163373ffffffffffffffffffffffffffffffffffffffff16146121ba576040517f08c379a00000000000000000000000000000000000000000000000000000000081526004016121b190615e85565b60405180910390fd5b80604360006101000a81548173ffffffffffffffffffffffffffffffffffffffff021916908373ffffffffffffffffffffffffffffffffffffffff1602179055507f964dea888b00b2ab53f13dfe7ca334b46e99338c222ae232d98547a1da019f608160405161222a9190615ac3565b60405180910390a150565b600063f23a6e6160e01b90509695505050505050565b60416020528160005260406000206020528060005260406000206000915091509054906101000a900460ff1681565b7f000000000000000000000000000000000000000000000000000000000000000081565b6000811480612337575060008373ffffffffffffffffffffffffffffffffffffffff1663dd62ed3e30856040518363ffffffff1660e01b81526004016122e5929190615b22565b60206040518083038186803b1580156122fd57600080fd5b505afa158015612311573d6000803e3d6000fd5b505050506040513d601f19601f8201168201806040525081019061233591906152cf565b145b612376576040517f08c379a000000000000000000000000000000000000000000000000000000000815260040161236d90615fc5565b60405180910390fd5b6123f78363095ea7b360e01b8484604051602401612395929190615c61565b604051602081830303815290604052907bffffffffffffffffffffffffffffffffffffffffffffffffffffffff19166020820180517bffffffffffffffffffffffffffffffffffffffffffffffffffffffff838183161783525050505061409b565b505050565b600080823b905060008111915050919050565b606061241e8484600085614162565b90509392505050565b6000811115612657577fffffffffffffffffffffffffffffffffffffffffffffffffffffffffffffffff811415612504577f000000000000000000000000000000000000000000000000000000000000000073ffffffffffffffffffffffffffffffffffffffff1663f70aedd96040518163ffffffff1660e01b815260040160806040518083038186803b1580156124be57600080fd5b505afa1580156124d2573d6000803e3d6000fd5b505050506040513d601f19601f820116820180604052508101906124f6919061505a565b909192509091509050809150505b7f000000000000000000000000000000000000000000000000000000000000000073ffffffffffffffffffffffffffffffffffffffff166368eb4ba87f00000000000000000000000000000000000000000000000000000000000000008473ffffffffffffffffffffffffffffffffffffffff16846040518463ffffffff1660e01b815260040161259793929190615c8a565b600060405180830381600087803b1580156125b157600080fd5b505af11580156125c5573d6000803e3d6000fd5b505050507f000000000000000000000000000000000000000000000000000000000000000073ffffffffffffffffffffffffffffffffffffffff16639dc29fac83836040518363ffffffff1660e01b8152600401612624929190615c61565b600060405180830381600087803b15801561263e57600080fd5b505af1158015612652573d6000803e3d6000fd5b505050505b5050565b608460008273ffffffffffffffffffffffffffffffffffffffff1673ffffffffffffffffffffffffffffffffffffffff16815260200190815260200160002060009054906101000a900460ff166126e7576040517f08c379a00000000000000000000000000000000000000000000000000000000081526004016126de90615ee5565b60405180910390fd5b60007f000000000000000000000000000000000000000000000000000000000000000073ffffffffffffffffffffffffffffffffffffffff1663d7ac71ff6040518163ffffffff1660e01b815260040160206040518083038186803b15801561274f57600080fd5b505afa158015612763573d6000803e3d6000fd5b505050506040513d601f19601f8201168201806040525081019061278791906152cf565b90506000836040013590506000846060013590506000856080013590507fffffffffffffffffffffffffffffffffffffffffffffffffffffffffffffffff83141561287c577f000000000000000000000000000000000000000000000000000000000000000073ffffffffffffffffffffffffffffffffffffffff166382a2fb9c858a6040518363ffffffff1660e01b8152600401612827929190616000565b602060405180830381600087803b15801561284157600080fd5b505af1158015612855573d6000803e3d6000fd5b505050506040513d601f19601f8201168201806040525081019061287991906152cf565b92505b7fffffffffffffffffffffffffffffffffffffffffffffffffffffffffffffffff821415612954577f000000000000000000000000000000000000000000000000000000000000000073ffffffffffffffffffffffffffffffffffffffff166382a2fb9c85896040518363ffffffff1660e01b81526004016128ff929190616000565b602060405180830381600087803b15801561291957600080fd5b505af115801561292d573d6000803e3d6000fd5b505050506040513d601f19601f8201168201806040525081019061295191906152cf565b91505b7fffffffffffffffffffffffffffffffffffffffffffffffffffffffffffffffff811415612a2c577f000000000000000000000000000000000000000000000000000000000000000073ffffffffffffffffffffffffffffffffffffffff166382a2fb9c85876040518363ffffffff1660e01b81526004016129d7929190616000565b602060405180830381600087803b1580156129f157600080fd5b505af1158015612a05573d6000803e3d6000fd5b505050506040513d601f19601f82011682018060405250810190612a2991906152cf565b90505b6000612acd87602001358773ffffffffffffffffffffffffffffffffffffffff166370a08231306040518263ffffffff1660e01b8152600401612a6f9190615ade565b60206040518083038186803b158015612a8757600080fd5b505afa158015612a9b573d6000803e3d6000fd5b505050506040513d601f19601f82011682018060405250810190612abf91906152cf565b61427790919063ffffffff16565b90506000806000831115612b9b577f000000000000000000000000000000000000000000000000000000000000000073ffffffffffffffffffffffffffffffffffffffff1663baa2abde8c8c8660008030426040518863ffffffff1660e01b8152600401612b419796959493929190615b4b565b6040805180830381600087803b158015612b5a57600080fd5b505af1158015612b6e573d6000803e3d6000fd5b505050506040513d601f19601f82011682018060405250810190612b9291906152f8565b80925081935050505b6000612bb48a60a00135886142c790919063ffffffff16565b90506000612bcf8b60c00135886142c790919063ffffffff16565b90508184108015612bdf57508083115b15612d9f576060600267ffffffffffffffff81118015612bfe57600080fd5b50604051908082528060200260200182016040528015612c2d5781602001602082028036833780820191505090505b5090508c8e82600081518110612c3f57fe5b6020026020010183600181518110612c5357fe5b602002602001018273ffffffffffffffffffffffffffffffffffffffff1673ffffffffffffffffffffffffffffffffffffffff168152508273ffffffffffffffffffffffffffffffffffffffff1673ffffffffffffffffffffffffffffffffffffffff1681525050507f000000000000000000000000000000000000000000000000000000000000000073ffffffffffffffffffffffffffffffffffffffff16638803dbee612d0b878661427790919063ffffffff16565b612d1e858861427790919063ffffffff16565b8430426040518663ffffffff1660e01b8152600401612d419594939291906160ac565b600060405180830381600087803b158015612d5b57600080fd5b505af1158015612d6f573d6000803e3d6000fd5b505050506040513d6000823e3d601f19601f82011682018060405250810190612d9891906151c4565b5050612f6a565b8184118015612dad57508083105b15612f69576060600267ffffffffffffffff81118015612dcc57600080fd5b50604051908082528060200260200182016040528015612dfb5781602001602082028036833780820191505090505b5090508d8d82600081518110612e0d57fe5b6020026020010183600181518110612e2157fe5b602002602001018273ffffffffffffffffffffffffffffffffffffffff1673ffffffffffffffffffffffffffffffffffffffff168152508273ffffffffffffffffffffffffffffffffffffffff1673ffffffffffffffffffffffffffffffffffffffff1681525050507f000000000000000000000000000000000000000000000000000000000000000073ffffffffffffffffffffffffffffffffffffffff16638803dbee612ed9868561427790919063ffffffff16565b612eec868961427790919063ffffffff16565b8430426040518663ffffffff1660e01b8152600401612f0f9594939291906160ac565b600060405180830381600087803b158015612f2957600080fd5b505af1158015612f3d573d6000803e3d6000fd5b505050506040513d6000823e3d601f19601f82011682018060405250810190612f6691906151c4565b50505b5b612f748d8961431c565b612f7e8c8861431c565b612f888a8761431c565b8a60a001358d73ffffffffffffffffffffffffffffffffffffffff166370a08231306040518263ffffffff1660e01b8152600401612fc69190615ade565b60206040518083038186803b158015612fde57600080fd5b505afa158015612ff2573d6000803e3d6000fd5b505050506040513d601f19601f8201168201806040525081019061301691906152cf565b101561302157600080fd5b8a60c001358c73ffffffffffffffffffffffffffffffffffffffff166370a08231306040518263ffffffff1660e01b815260040161305f9190615ade565b60206040518083038186803b15801561307757600080fd5b505afa15801561308b573d6000803e3d6000fd5b505050506040513d601f19601f820116820180604052508101906130af91906152cf565b10156130ba57600080fd5b8a602001358a73ffffffffffffffffffffffffffffffffffffffff166370a08231306040518263ffffffff1660e01b81526004016130f89190615ade565b60206040518083038186803b15801561311057600080fd5b505afa158015613124573d6000803e3d6000fd5b505050506040513d601f19601f8201168201806040525081019061314891906152cf565b101561315357600080fd5b61315b613dbd565b6131648d6132f8565b61316d8c6132f8565b6131768a6132f8565b50505050505050505050505050565b604160008373ffffffffffffffffffffffffffffffffffffffff1673ffffffffffffffffffffffffffffffffffffffff16815260200190815260200160002060008273ffffffffffffffffffffffffffffffffffffffff1673ffffffffffffffffffffffffffffffffffffffff16815260200190815260200160002060009054906101000a900460ff166132f45761325e817fffffffffffffffffffffffffffffffffffffffffffffffffffffffffffffffff8473ffffffffffffffffffffffffffffffffffffffff1661229e9092919063ffffffff16565b6001604160008473ffffffffffffffffffffffffffffffffffffffff1673ffffffffffffffffffffffffffffffffffffffff16815260200190815260200160002060008373ffffffffffffffffffffffffffffffffffffffff1673ffffffffffffffffffffffffffffffffffffffff16815260200190815260200160002060006101000a81548160ff0219169083151502179055505b5050565b60008173ffffffffffffffffffffffffffffffffffffffff166370a08231306040518263ffffffff1660e01b81526004016133339190615ade565b60206040518083038186803b15801561334b57600080fd5b505afa15801561335f573d6000803e3d6000fd5b505050506040513d601f19601f8201168201806040525081019061338391906152cf565b90506000811115613457576134567f000000000000000000000000000000000000000000000000000000000000000073ffffffffffffffffffffffffffffffffffffffff1663630dc7cb6040518163ffffffff1660e01b815260040160206040518083038186803b1580156133f757600080fd5b505afa15801561340b573d6000803e3d6000fd5b505050506040513d601f19601f8201168201806040525081019061342f9190614dbf565b828473ffffffffffffffffffffffffffffffffffffffff166143e19092919063ffffffff16565b5b5050565b608460008273ffffffffffffffffffffffffffffffffffffffff1673ffffffffffffffffffffffffffffffffffffffff16815260200190815260200160002060009054906101000a900460ff166134e7576040517f08c379a00000000000000000000000000000000000000000000000000000000081526004016134de90615ee5565b60405180910390fd5b6134ef614467565b6134fd8483600001356144f4565b61350b8383602001356144f4565b6135198183604001356144f4565b61352784836060013561458f565b61353583836080013561458f565b613543818360a0013561458f565b60008060008673ffffffffffffffffffffffffffffffffffffffff166370a08231306040518263ffffffff1660e01b81526004016135819190615ade565b60206040518083038186803b15801561359957600080fd5b505afa1580156135ad573d6000803e3d6000fd5b505050506040513d601f19601f820116820180604052508101906135d191906152cf565b905060008673ffffffffffffffffffffffffffffffffffffffff166370a08231306040518263ffffffff1660e01b815260040161360e9190615ade565b60206040518083038186803b15801561362657600080fd5b505afa15801561363a573d6000803e3d6000fd5b505050506040513d601f19601f8201168201806040525081019061365e91906152cf565b90506000808973ffffffffffffffffffffffffffffffffffffffff168773ffffffffffffffffffffffffffffffffffffffff16630dfe16816040518163ffffffff1660e01b815260040160206040518083038186803b1580156136c057600080fd5b505afa1580156136d4573d6000803e3d6000fd5b505050506040513d601f19601f820116820180604052508101906136f89190614dbf565b73ffffffffffffffffffffffffffffffffffffffff1614156137c6578673ffffffffffffffffffffffffffffffffffffffff16630902f1ac6040518163ffffffff1660e01b815260040160606040518083038186803b15801561375a57600080fd5b505afa15801561376e573d6000803e3d6000fd5b505050506040513d601f19601f820116820180604052508101906137929190615280565b826dffffffffffffffffffffffffffff169250816dffffffffffffffffffffffffffff169150508092508193505050613874565b8673ffffffffffffffffffffffffffffffffffffffff16630902f1ac6040518163ffffffff1660e01b815260040160606040518083038186803b15801561380c57600080fd5b505afa158015613820573d6000803e3d6000fd5b505050506040513d601f19601f820116820180604052508101906138449190615280565b826dffffffffffffffffffffffffffff169250816dffffffffffffffffffffffffffff1691505080935081925050505b6138808484848461462a565b8096508197505050505050506000821115613a36576060600267ffffffffffffffff811180156138af57600080fd5b506040519080825280602002602001820160405280156138de5781602001602082028036833780820191505090505b509050816138ed5786866138f0565b85875b826000815181106138fd57fe5b602002602001018360018151811061391157fe5b602002602001018273ffffffffffffffffffffffffffffffffffffffff1673ffffffffffffffffffffffffffffffffffffffff168152508273ffffffffffffffffffffffffffffffffffffffff1673ffffffffffffffffffffffffffffffffffffffff1681525050507f000000000000000000000000000000000000000000000000000000000000000073ffffffffffffffffffffffffffffffffffffffff166338ed17398460008430426040518663ffffffff1660e01b81526004016139dc959493929190616029565b600060405180830381600087803b1580156139f657600080fd5b505af1158015613a0a573d6000803e3d6000fd5b505050506040513d6000823e3d601f19601f82011682018060405250810190613a3391906151c4565b50505b60008673ffffffffffffffffffffffffffffffffffffffff166370a08231306040518263ffffffff1660e01b8152600401613a719190615ade565b60206040518083038186803b158015613a8957600080fd5b505afa158015613a9d573d6000803e3d6000fd5b505050506040513d601f19601f82011682018060405250810190613ac191906152cf565b905060008673ffffffffffffffffffffffffffffffffffffffff166370a08231306040518263ffffffff1660e01b8152600401613afe9190615ade565b60206040518083038186803b158015613b1657600080fd5b505afa158015613b2a573d6000803e3d6000fd5b505050506040513d601f19601f82011682018060405250810190613b4e91906152cf565b90506000821180613b5f5750600081115b15613c29577f000000000000000000000000000000000000000000000000000000000000000073ffffffffffffffffffffffffffffffffffffffff1663e8e33700898985858b60c001358c60e0013530426040518963ffffffff1660e01b8152600401613bd3989796959493929190615bba565b606060405180830381600087803b158015613bed57600080fd5b505af1158015613c01573d6000803e3d6000fd5b505050506040513d601f19601f82011682018060405250810190613c259190615334565b5050505b5050505050505050565b6000811115613db957613c66827f0000000000000000000000000000000000000000000000000000000000000000613185565b7f000000000000000000000000000000000000000000000000000000000000000073ffffffffffffffffffffffffffffffffffffffff166340c10f1983836040518363ffffffff1660e01b8152600401613cc1929190615c61565b600060405180830381600087803b158015613cdb57600080fd5b505af1158015613cef573d6000803e3d6000fd5b505050507f000000000000000000000000000000000000000000000000000000000000000073ffffffffffffffffffffffffffffffffffffffff1663314568d97f00000000000000000000000000000000000000000000000000000000000000008473ffffffffffffffffffffffffffffffffffffffff16846040518463ffffffff1660e01b8152600401613d8693929190615c8a565b600060405180830381600087803b158015613da057600080fd5b505af1158015613db4573d6000803e3d6000fd5b505050505b5050565b60007f000000000000000000000000000000000000000000000000000000000000000073ffffffffffffffffffffffffffffffffffffffff166370a08231306040518263ffffffff1660e01b8152600401613e189190615ade565b602060405180830381600087803b158015613e3257600080fd5b505af1158015613e46573d6000803e3d6000fd5b505050506040513d601f19601f82011682018060405250810190613e6a91906152cf565b90506000811115614098577f000000000000000000000000000000000000000000000000000000000000000073ffffffffffffffffffffffffffffffffffffffff16632e1a7d4d826040518263ffffffff1660e01b8152600401613ece9190615fe5565b600060405180830381600087803b158015613ee857600080fd5b505af1158015613efc573d6000803e3d6000fd5b5050505060007f000000000000000000000000000000000000000000000000000000000000000073ffffffffffffffffffffffffffffffffffffffff1663630dc7cb6040518163ffffffff1660e01b815260040160206040518083038186803b158015613f6857600080fd5b505afa158015613f7c573d6000803e3d6000fd5b505050506040513d601f19601f82011682018060405250810190613fa09190614dbf565b73ffffffffffffffffffffffffffffffffffffffff1682600067ffffffffffffffff81118015613fcf57600080fd5b506040519080825280601f01601f1916602001820160405280156140025781602001600182028036833780820191505090505b506040516140109190615aac565b60006040518083038185875af1925050503d806000811461404d576040519150601f19603f3d011682016040523d82523d6000602084013e614052565b606091505b5050905080614096576040517f08c379a000000000000000000000000000000000000000000000000000000000815260040161408d90615d85565b60405180910390fd5b505b50565b60606140fd826040518060400160405280602081526020017f5361666545524332303a206c6f772d6c6576656c2063616c6c206661696c65648152508573ffffffffffffffffffffffffffffffffffffffff1661240f9092919063ffffffff16565b905060008151111561415d578080602001905181019061411d919061522e565b61415c576040517f08c379a000000000000000000000000000000000000000000000000000000000815260040161415390615fa5565b60405180910390fd5b5b505050565b6060824710156141a7576040517f08c379a000000000000000000000000000000000000000000000000000000000815260040161419e90615e45565b60405180910390fd5b6141b0856123fc565b6141ef576040517f08c379a00000000000000000000000000000000000000000000000000000000081526004016141e690615f65565b60405180910390fd5b600060608673ffffffffffffffffffffffffffffffffffffffff1685876040516142199190615aac565b60006040518083038185875af1925050503d8060008114614256576040519150601f19603f3d011682016040523d82523d6000602084013e61425b565b606091505b509150915061426b82828661468b565b92505050949350505050565b6000828211156142bc576040517f08c379a00000000000000000000000000000000000000000000000000000000081526004016142b390615e25565b60405180910390fd5b818303905092915050565b600080828401905083811015614312576040517f08c379a000000000000000000000000000000000000000000000000000000000815260040161430990615de5565b60405180910390fd5b8091505092915050565b60008111156143dd5761434f827f0000000000000000000000000000000000000000000000000000000000000000613185565b7f000000000000000000000000000000000000000000000000000000000000000073ffffffffffffffffffffffffffffffffffffffff166322867d7883836040518363ffffffff1660e01b81526004016143aa929190615c61565b600060405180830381600087803b1580156143c457600080fd5b505af11580156143d8573d6000803e3d6000fd5b505050505b5050565b6144628363a9059cbb60e01b8484604051602401614400929190615c61565b604051602081830303815290604052907bffffffffffffffffffffffffffffffffffffffffffffffffffffffff19166020820180517bffffffffffffffffffffffffffffffffffffffffffffffffffffffff838183161783525050505061409b565b505050565b60003411156144f2577f000000000000000000000000000000000000000000000000000000000000000073ffffffffffffffffffffffffffffffffffffffff1663d0e30db0346040518263ffffffff1660e01b81526004016000604051808303818588803b1580156144d857600080fd5b505af11580156144ec573d6000803e3d6000fd5b50505050505b565b600081111561458b577f000000000000000000000000000000000000000000000000000000000000000073ffffffffffffffffffffffffffffffffffffffff166348d6bbc283836040518363ffffffff1660e01b8152600401614558929190615c61565b600060405180830381600087803b15801561457257600080fd5b505af1158015614586573d6000803e3d6000fd5b505050505b5050565b6000811115614626577f000000000000000000000000000000000000000000000000000000000000000073ffffffffffffffffffffffffffffffffffffffff16634b8a352983836040518363ffffffff1660e01b81526004016145f3929190615c61565b600060405180830381600087803b15801561460d57600080fd5b505af1158015614621573d6000803e3d6000fd5b505050505b5050565b60008061464084866146f290919063ffffffff16565b61465384886146f290919063ffffffff16565b1061466f5761466486868686614762565b915060009050614682565b61467b85878587614762565b9150600190505b94509492505050565b6060831561469b578290506146eb565b6000835111156146ae5782518084602001fd5b816040517f08c379a00000000000000000000000000000000000000000000000000000000081526004016146e29190615d63565b60405180910390fd5b9392505050565b600080831415614705576000905061475c565b600082840290508284828161471657fe5b0414614757576040517f08c379a000000000000000000000000000000000000000000000000000000000815260040161474e90615f25565b60405180910390fd5b809150505b92915050565b600061477783856146f290919063ffffffff16565b61478a83876146f290919063ffffffff16565b10156147cb576040517f08c379a00000000000000000000000000000000000000000000000000000000081526004016147c290615f45565b60405180910390fd5b60006103e5905060006147e9856107cd6146f290919063ffffffff16565b9050600061482461480387896146f290919063ffffffff16565b614816878b6146f290919063ffffffff16565b61427790919063ffffffff16565b9050600061487387614865614842898c6142c790919063ffffffff16565b6148576103e8876146f290919063ffffffff16565b61492490919063ffffffff16565b6146f290919063ffffffff16565b9050600061489d600461488f84886146f290919063ffffffff16565b6146f290919063ffffffff16565b905060006148ce6148c9836148bb88896146f290919063ffffffff16565b6142c790919063ffffffff16565b61497a565b905060006148e5868361427790919063ffffffff16565b905060006148fd6002896146f290919063ffffffff16565b9050614912818361492490919063ffffffff16565b98505050505050505050949350505050565b6000808211614968576040517f08c379a000000000000000000000000000000000000000000000000000000000815260040161495f90615e65565b60405180910390fd5b81838161497157fe5b04905092915050565b60008082141561498d5760009050614af2565b600082905060006001905070010000000000000000000000000000000082106149bf57608082901c9150604081901b90505b6801000000000000000082106149de57604082901c9150602081901b90505b64010000000082106149f957602082901c9150601081901b90505b620100008210614a1257601082901c9150600881901b90505b6101008210614a2a57600882901c9150600481901b90505b60108210614a4157600482901c9150600281901b90505b60088210614a5157600181901b90505b6001818581614a5c57fe5b048201901c90506001818581614a6e57fe5b048201901c90506001818581614a8057fe5b048201901c90506001818581614a9257fe5b048201901c90506001818581614aa457fe5b048201901c90506001818581614ab657fe5b048201901c90506001818581614ac857fe5b048201901c90506000818581614ada57fe5b049050808210614aea5780614aec565b815b93505050505b919050565b600081359050614b0681616380565b92915050565b600081519050614b1b81616380565b92915050565b60008083601f840112614b3357600080fd5b8235905067ffffffffffffffff811115614b4c57600080fd5b602083019150836020820283011115614b6457600080fd5b9250929050565b60008083601f840112614b7d57600080fd5b8235905067ffffffffffffffff811115614b9657600080fd5b602083019150836020820283011115614bae57600080fd5b9250929050565b60008083601f840112614bc757600080fd5b8235905067ffffffffffffffff811115614be057600080fd5b602083019150836020820283011115614bf857600080fd5b9250929050565b600082601f830112614c1057600080fd5b8151614c23614c1e82616133565b616106565b91508181835260208401935060208101905083856020840282011115614c4857600080fd5b60005b83811015614c785781614c5e8882614d6c565b845260208401935060208301925050600181019050614c4b565b5050505092915050565b600081359050614c9181616397565b92915050565b600081519050614ca681616397565b92915050565b600081359050614cbb816163ae565b92915050565b60008083601f840112614cd357600080fd5b8235905067ffffffffffffffff811115614cec57600080fd5b602083019150836001820283011115614d0457600080fd5b9250929050565b60006101008284031215614d1e57600080fd5b81905092915050565b600060e08284031215614d3957600080fd5b81905092915050565b600081519050614d51816163c5565b92915050565b600081359050614d66816163dc565b92915050565b600081519050614d7b816163dc565b92915050565b600081519050614d90816163f3565b92915050565b600060208284031215614da857600080fd5b6000614db684828501614af7565b91505092915050565b600060208284031215614dd157600080fd5b6000614ddf84828501614b0c565b91505092915050565b60008060408385031215614dfb57600080fd5b6000614e0985828601614af7565b9250506020614e1a85828601614af7565b9150509250929050565b60008060008060008060008060a0898b031215614e4057600080fd5b6000614e4e8b828c01614af7565b9850506020614e5f8b828c01614af7565b975050604089013567ffffffffffffffff811115614e7c57600080fd5b614e888b828c01614bb5565b9650965050606089013567ffffffffffffffff811115614ea757600080fd5b614eb38b828c01614bb5565b9450945050608089013567ffffffffffffffff811115614ed257600080fd5b614ede8b828c01614cc1565b92509250509295985092959890939650565b60008060006101408486031215614f0657600080fd5b6000614f1486828701614af7565b9350506020614f2586828701614af7565b9250506040614f3686828701614d0b565b9150509250925092565b6000806000806101608587031215614f5757600080fd5b6000614f6587828801614af7565b9450506020614f7687828801614af7565b9350506040614f8787828801614d0b565b925050610140614f9987828801614af7565b91505092959194509250565b60008060006101208486031215614fbb57600080fd5b6000614fc986828701614af7565b9350506020614fda86828701614af7565b9250506040614feb86828701614d27565b9150509250925092565b600080600080610140858703121561500c57600080fd5b600061501a87828801614af7565b945050602061502b87828801614af7565b935050604061503c87828801614d27565b92505061012061504e87828801614af7565b91505092959194509250565b6000806000806080858703121561507057600080fd5b600061507e87828801614b0c565b945050602061508f87828801614b0c565b93505060406150a087828801614d6c565b92505060606150b187828801614d6c565b91505092959194509250565b60008060008060008060a087890312156150d657600080fd5b60006150e489828a01614af7565b96505060206150f589828a01614af7565b955050604061510689828a01614d57565b945050606061511789828a01614d57565b935050608087013567ffffffffffffffff81111561513457600080fd5b61514089828a01614cc1565b92509250509295509295509295565b6000806000806040858703121561516557600080fd5b600085013567ffffffffffffffff81111561517f57600080fd5b61518b87828801614b21565b9450945050602085013567ffffffffffffffff8111156151aa57600080fd5b6151b687828801614b6b565b925092505092959194509250565b6000602082840312156151d657600080fd5b600082015167ffffffffffffffff8111156151f057600080fd5b6151fc84828501614bff565b91505092915050565b60006020828403121561521757600080fd5b600061522584828501614c82565b91505092915050565b60006020828403121561524057600080fd5b600061524e84828501614c97565b91505092915050565b60006020828403121561526957600080fd5b600061527784828501614cac565b91505092915050565b60008060006060848603121561529557600080fd5b60006152a386828701614d42565b93505060206152b486828701614d42565b92505060406152c586828701614d81565b9150509250925092565b6000602082840312156152e157600080fd5b60006152ef84828501614d6c565b91505092915050565b6000806040838503121561530b57600080fd5b600061531985828601614d6c565b925050602061532a85828601614d6c565b9150509250929050565b60008060006060848603121561534957600080fd5b600061535786828701614d6c565b935050602061536886828701614d6c565b925050604061537986828701614d6c565b9150509250925092565b600061538f83836153aa565b60208301905092915050565b6153a481616264565b82525050565b6153b3816161c6565b82525050565b6153c2816161c6565b82525050565b60006153d38261616b565b6153dd8185616199565b93506153e88361615b565b8060005b838110156154195781516154008882615383565b975061540b8361618c565b9250506001810190506153ec565b5085935050505092915050565b61542f816161d8565b82525050565b61543e816161e4565b82525050565b600061544f82616176565b61545981856161aa565b935061546981856020860161633c565b80840191505092915050565b61547e81616276565b82525050565b61548d8161629a565b82525050565b61549c816162be565b82525050565b6154ab816162e2565b82525050565b6154ba81616306565b82525050565b60006154cb82616181565b6154d581856161b5565b93506154e581856020860161633c565b6154ee8161636f565b840191505092915050565b60006155066011836161b5565b91507f726566756e6420455448206661696c65640000000000000000000000000000006000830152602082019050919050565b60006155466026836161b5565b91507f636f6c6c61746572616c20746f6b656e202620777374616b696e67206d69736d60008301527f61746368656400000000000000000000000000000000000000000000000000006020830152604082019050919050565b60006155ac6018836161b5565b91507f6e6f74207468652070656e64696e6720676f7665726e6f7200000000000000006000830152602082019050919050565b60006155ec601b836161b5565b91507f536166654d6174683a206164646974696f6e206f766572666c6f7700000000006000830152602082019050919050565b600061562c601b836161b5565b91507f6f7261636c65206e6f7420737570706f7274206c7020746f6b656e00000000006000830152602082019050919050565b600061566c601e836161b5565b91507f536166654d6174683a207375627472616374696f6e206f766572666c6f7700006000830152602082019050919050565b60006156ac6026836161b5565b91507f416464726573733a20696e73756666696369656e742062616c616e636520666f60008301527f722063616c6c00000000000000000000000000000000000000000000000000006020830152604082019050919050565b6000615712601a836161b5565b91507f536166654d6174683a206469766973696f6e206279207a65726f0000000000006000830152602082019050919050565b60006157526010836161b5565b91507f6e6f742074686520676f7665726e6f72000000000000000000000000000000006000830152602082019050919050565b60006157926025836161b5565b91507f6c70546f6b656e732026207374617475736573206c656e677468206d69736d6160008301527f74636865640000000000000000000000000000000000000000000000000000006020830152604082019050919050565b60006157f8600b836161b5565b91507f6e6f206c7020746f6b656e0000000000000000000000000000000000000000006000830152602082019050919050565b60006158386018836161b5565b91507f6c7020746f6b656e206e6f742077686974656c697374656400000000000000006000830152602082019050919050565b60006158786017836161b5565b91507f455448206d75737420636f6d652066726f6d20574554480000000000000000006000830152602082019050919050565b60006158b86021836161b5565b91507f536166654d6174683a206d756c7469706c69636174696f6e206f766572666c6f60008301527f77000000000000000000000000000000000000000000000000000000000000006020830152604082019050919050565b600061591e6008836161b5565b91507f52657665727365640000000000000000000000000000000000000000000000006000830152602082019050919050565b600061595e601d836161b5565b91507f416464726573733a2063616c6c20746f206e6f6e2d636f6e74726163740000006000830152602082019050919050565b600061599e6014836161b5565b91507f696e636f727265637420756e6465726c79696e670000000000000000000000006000830152602082019050919050565b60006159de602a836161b5565b91507f5361666545524332303a204552433230206f7065726174696f6e20646964206e60008301527f6f742073756363656564000000000000000000000000000000000000000000006020830152604082019050919050565b6000615a446036836161b5565b91507f5361666545524332303a20617070726f76652066726f6d206e6f6e2d7a65726f60008301527f20746f206e6f6e2d7a65726f20616c6c6f77616e6365000000000000000000006020830152604082019050919050565b615aa68161624a565b82525050565b6000615ab88284615444565b915081905092915050565b6000602082019050615ad860008301846153b9565b92915050565b6000602082019050615af3600083018461539b565b92915050565b6000604082019050615b0e600083018561539b565b615b1b60208301846153b9565b9392505050565b6000604082019050615b3760008301856153b9565b615b4460208301846153b9565b9392505050565b600060e082019050615b60600083018a6153b9565b615b6d60208301896153b9565b615b7a6040830188615a9d565b615b8760608301876154b1565b615b9460808301866154b1565b615ba160a083018561539b565b615bae60c0830184615a9d565b98975050505050505050565b600061010082019050615bd0600083018b6153b9565b615bdd602083018a6153b9565b615bea6040830189615a9d565b615bf76060830188615a9d565b615c046080830187615a9d565b615c1160a0830186615a9d565b615c1e60c083018561539b565b615c2b60e0830184615a9d565b9998505050505050505050565b6000604082019050615c4d60008301856153b9565b615c5a6020830184615426565b9392505050565b6000604082019050615c7660008301856153b9565b615c836020830184615a9d565b9392505050565b6000606082019050615c9f60008301866153b9565b615cac6020830185615a9d565b615cb96040830184615a9d565b949350505050565b6000602082019050615cd66000830184615426565b92915050565b6000602082019050615cf16000830184615435565b92915050565b6000602082019050615d0c6000830184615475565b92915050565b6000602082019050615d276000830184615484565b92915050565b6000602082019050615d426000830184615493565b92915050565b6000602082019050615d5d60008301846154a2565b92915050565b60006020820190508181036000830152615d7d81846154c0565b905092915050565b60006020820190508181036000830152615d9e816154f9565b9050919050565b60006020820190508181036000830152615dbe81615539565b9050919050565b60006020820190508181036000830152615dde8161559f565b9050919050565b60006020820190508181036000830152615dfe816155df565b9050919050565b60006020820190508181036000830152615e1e8161561f565b9050919050565b60006020820190508181036000830152615e3e8161565f565b9050919050565b60006020820190508181036000830152615e5e8161569f565b9050919050565b60006020820190508181036000830152615e7e81615705565b9050919050565b60006020820190508181036000830152615e9e81615745565b9050919050565b60006020820190508181036000830152615ebe81615785565b9050919050565b60006020820190508181036000830152615ede816157eb565b9050919050565b60006020820190508181036000830152615efe8161582b565b9050919050565b60006020820190508181036000830152615f1e8161586b565b9050919050565b60006020820190508181036000830152615f3e816158ab565b9050919050565b60006020820190508181036000830152615f5e81615911565b9050919050565b60006020820190508181036000830152615f7e81615951565b9050919050565b60006020820190508181036000830152615f9e81615991565b9050919050565b60006020820190508181036000830152615fbe816159d1565b9050919050565b60006020820190508181036000830152615fde81615a37565b9050919050565b6000602082019050615ffa6000830184615a9d565b92915050565b60006040820190506160156000830185615a9d565b61602260208301846153b9565b9392505050565b600060a08201905061603e6000830188615a9d565b61604b60208301876154b1565b818103604083015261605d81866153c8565b905061606c606083018561539b565b6160796080830184615a9d565b9695505050505050565b60006040820190506160986000830185615a9d565b6160a56020830184615a9d565b9392505050565b600060a0820190506160c16000830188615a9d565b6160ce6020830187615a9d565b81810360408301526160e081866153c8565b90506160ef606083018561539b565b6160fc6080830184615a9d565b9695505050505050565b6000604051905081810181811067ffffffffffffffff8211171561612957600080fd5b8060405250919050565b600067ffffffffffffffff82111561614a57600080fd5b602082029050602081019050919050565b6000819050602082019050919050565b600081519050919050565b600081519050919050565b600081519050919050565b6000602082019050919050565b600082825260208201905092915050565b600081905092915050565b600082825260208201905092915050565b60006161d18261622a565b9050919050565b60008115159050919050565b60007fffffffff0000000000000000000000000000000000000000000000000000000082169050919050565b60006dffffffffffffffffffffffffffff82169050919050565b600073ffffffffffffffffffffffffffffffffffffffff82169050919050565b6000819050919050565b600063ffffffff82169050919050565b600061626f82616318565b9050919050565b600061628182616288565b9050919050565b60006162938261622a565b9050919050565b60006162a5826162ac565b9050919050565b60006162b78261622a565b9050919050565b60006162c9826162d0565b9050919050565b60006162db8261622a565b9050919050565b60006162ed826162f4565b9050919050565b60006162ff8261622a565b9050919050565b60006163118261624a565b9050919050565b60006163238261632a565b9050919050565b60006163358261622a565b9050919050565b60005b8381101561635a57808201518184015260208101905061633f565b83811115616369576000848401525b50505050565b6000601f19601f8301169050919050565b616389816161c6565b811461639457600080fd5b50565b6163a0816161d8565b81146163ab57600080fd5b50565b6163b7816161e4565b81146163c257600080fd5b50565b6163ce81616210565b81146163d957600080fd5b50565b6163e58161624a565b81146163f057600080fd5b50565b6163fc81616254565b811461640757600080fd5b5056fea2646970667358221220e76422b7e3c92301a83081f64364c7fafa579c76ddf6cdf79a1c0c87c4ad286564736f6c634300060c0033",
  "linkReferences": {},
  "deployedLinkReferences": {}
}