{
  "_format": "hh-sol-artifact-1",
  "contractName": "UniswapV2Oracle",
  "sourceName": "contracts/oracle/UniswapV2Oracle.sol",
  "abi": [
    {
      "inputs": [
        {
          "internalType": "contract IBaseOracle",
          "name": "_base",
          "type": "address"
        }
      ],
      "stateMutability": "nonpayable",
      "type": "constructor"
    },
    {
      "inputs": [],
      "name": "base",
      "outputs": [
        {
          "internalType": "contract IBaseOracle",
          "name": "",
          "type": "address"
        }
      ],
      "stateMutability": "view",
      "type": "function"
    },
    {
      "inputs": [
        {
          "internalType": "address",
          "name": "pair",
          "type": "address"
        }
      ],
      "name": "getETHPx",
      "outputs": [
        {
          "internalType": "uint256",
          "name": "",
          "type": "uint256"
        }
      ],
      "stateMutability": "view",
      "type": "function"
    }
  ],
  "bytecode": "0x60a060405234801561001057600080fd5b5060405161093c38038061093c8339818101604052602081101561003357600080fd5b8101908080519060200190929190505050808073ffffffffffffffffffffffffffffffffffffffff1660808173ffffffffffffffffffffffffffffffffffffffff1660601b81525050505060805160601c6108986100a46000398060c9528061036d528061043352506108986000f3fe608060405234801561001057600080fd5b50600436106100365760003560e01c80635001f3b51461003b578063ab9aadfe1461006f575b600080fd5b6100436100c7565b604051808273ffffffffffffffffffffffffffffffffffffffff16815260200191505060405180910390f35b6100b16004803603602081101561008557600080fd5b81019080803573ffffffffffffffffffffffffffffffffffffffff1690602001909291905050506100eb565b6040518082815260200191505060405180910390f35b7f000000000000000000000000000000000000000000000000000000000000000081565b6000808273ffffffffffffffffffffffffffffffffffffffff16630dfe16816040518163ffffffff1660e01b815260040160206040518083038186803b15801561013457600080fd5b505afa158015610148573d6000803e3d6000fd5b505050506040513d602081101561015e57600080fd5b8101908080519060200190929190505050905060008373ffffffffffffffffffffffffffffffffffffffff1663d21220a76040518163ffffffff1660e01b815260040160206040518083038186803b1580156101b957600080fd5b505afa1580156101cd573d6000803e3d6000fd5b505050506040513d60208110156101e357600080fd5b8101908080519060200190929190505050905060008473ffffffffffffffffffffffffffffffffffffffff166318160ddd6040518163ffffffff1660e01b815260040160206040518083038186803b15801561023e57600080fd5b505afa158015610252573d6000803e3d6000fd5b505050506040513d602081101561026857600080fd5b810190808051906020019092919050505090506000808673ffffffffffffffffffffffffffffffffffffffff16630902f1ac6040518163ffffffff1660e01b815260040160606040518083038186803b1580156102c457600080fd5b505afa1580156102d8573d6000803e3d6000fd5b505050506040513d60608110156102ee57600080fd5b81019080805190602001909291908051906020019092919080519060200190929190505050506dffffffffffffffffffffffffffff1691506dffffffffffffffffffffffffffff169150600061036784610359610354858761058090919063ffffffff16565b610606565b61078390919063ffffffff16565b905060007f000000000000000000000000000000000000000000000000000000000000000073ffffffffffffffffffffffffffffffffffffffff1663ab9aadfe886040518263ffffffff1660e01b8152600401808273ffffffffffffffffffffffffffffffffffffffff16815260200191505060206040518083038186803b1580156103f257600080fd5b505afa158015610406573d6000803e3d6000fd5b505050506040513d602081101561041c57600080fd5b8101908080519060200190929190505050905060007f000000000000000000000000000000000000000000000000000000000000000073ffffffffffffffffffffffffffffffffffffffff1663ab9aadfe886040518263ffffffff1660e01b8152600401808273ffffffffffffffffffffffffffffffffffffffff16815260200191505060206040518083038186803b1580156104b857600080fd5b505afa1580156104cc573d6000803e3d6000fd5b505050506040513d60208110156104e257600080fd5b8101908080519060200190929190505050905061057167010000000000000061056361050d84610606565b61055567010000000000000061054761052589610606565b61053960028c61058090919063ffffffff16565b61058090919063ffffffff16565b6107b890919063ffffffff16565b61058090919063ffffffff16565b6107b890919063ffffffff16565b98505050505050505050919050565b6000808314156105935760009050610600565b60008284029050828482816105a457fe5b04146105fb576040517f08c379a00000000000000000000000000000000000000000000000000000000081526004018080602001828103825260218152602001806108426021913960400191505060405180910390fd5b809150505b92915050565b600080821415610619576000905061077e565b6000829050600060019050700100000000000000000000000000000000821061064b57608082901c9150604081901b90505b68010000000000000000821061066a57604082901c9150602081901b90505b640100000000821061068557602082901c9150601081901b90505b62010000821061069e57601082901c9150600881901b90505b61010082106106b657600882901c9150600481901b90505b601082106106cd57600482901c9150600281901b90505b600882106106dd57600181901b90505b60018185816106e857fe5b048201901c905060018185816106fa57fe5b048201901c9050600181858161070c57fe5b048201901c9050600181858161071e57fe5b048201901c9050600181858161073057fe5b048201901c9050600181858161074257fe5b048201901c9050600181858161075457fe5b048201901c9050600081858161076657fe5b0490508082106107765780610778565b815b93505050505b919050565b6000816107a86e0100000000000000000000000000008561058090919063ffffffff16565b816107af57fe5b04905092915050565b600080821161082f576040517f08c379a000000000000000000000000000000000000000000000000000000000815260040180806020018281038252601a8152602001807f536166654d6174683a206469766973696f6e206279207a65726f00000000000081525060200191505060405180910390fd5b81838161083857fe5b0490509291505056fe536166654d6174683a206d756c7469706c69636174696f6e206f766572666c6f77a2646970667358221220875fd95f91febb9edacf829dc3132c3667530afb763c0c7a1a69d57431e93fdb64736f6c634300060c0033",
  "linkReferences": {},
  "deployedLinkReferences": {}
}