{
  "_format": "hh-sol-artifact-1",
  "contractName": "BandAdapterOracle",
  "sourceName": "contracts/oracle/BandAdapterOracle.sol",
  "abi": [
    {
      "inputs": [
        {
          "internalType": "contract IStdReference",
          "name": "_ref",
          "type": "address"
        }
      ],
      "stateMutability": "nonpayable",
      "type": "constructor"
    },
    {
      "anonymous": false,
      "inputs": [
        {
          "indexed": false,
          "internalType": "address",
          "name": "governor",
          "type": "address"
        }
      ],
      "name": "AcceptGovernor",
      "type": "event"
    },
    {
      "anonymous": false,
      "inputs": [
        {
          "indexed": false,
          "internalType": "address",
          "name": "governor",
          "type": "address"
        }
      ],
      "name": "SetGovernor",
      "type": "event"
    },
    {
      "anonymous": false,
      "inputs": [
        {
          "indexed": false,
          "internalType": "address",
          "name": "token",
          "type": "address"
        },
        {
          "indexed": false,
          "internalType": "uint256",
          "name": "maxDelayTime",
          "type": "uint256"
        }
      ],
      "name": "SetMaxDelayTime",
      "type": "event"
    },
    {
      "anonymous": false,
      "inputs": [
        {
          "indexed": false,
          "internalType": "address",
          "name": "pendingGovernor",
          "type": "address"
        }
      ],
      "name": "SetPendingGovernor",
      "type": "event"
    },
    {
      "anonymous": false,
      "inputs": [
        {
          "indexed": false,
          "internalType": "address",
          "name": "ref",
          "type": "address"
        }
      ],
      "name": "SetRef",
      "type": "event"
    },
    {
      "anonymous": false,
      "inputs": [
        {
          "indexed": false,
          "internalType": "address",
          "name": "token",
          "type": "address"
        },
        {
          "indexed": false,
          "internalType": "string",
          "name": "symbol",
          "type": "string"
        }
      ],
      "name": "SetSymbol",
      "type": "event"
    },
    {
      "inputs": [],
      "name": "ETH",
      "outputs": [
        {
          "internalType": "string",
          "name": "",
          "type": "string"
        }
      ],
      "stateMutability": "view",
      "type": "function"
    },
    {
      "inputs": [],
      "name": "WETH",
      "outputs": [
        {
          "internalType": "address",
          "name": "",
          "type": "address"
        }
      ],
      "stateMutability": "view",
      "type": "function"
    },
    {
      "inputs": [],
      "name": "acceptGovernor",
      "outputs": [],
      "stateMutability": "nonpayable",
      "type": "function"
    },
    {
      "inputs": [
        {
          "internalType": "address",
          "name": "token",
          "type": "address"
        }
      ],
      "name": "getETHPx",
      "outputs": [
        {
          "internalType": "uint256",
          "name": "",
          "type": "uint256"
        }
      ],
      "stateMutability": "view",
      "type": "function"
    },
    {
      "inputs": [],
      "name": "governor",
      "outputs": [
        {
          "internalType": "address",
          "name": "",
          "type": "address"
        }
      ],
      "stateMutability": "view",
      "type": "function"
    },
    {
      "inputs": [
        {
          "internalType": "address",
          "name": "",
          "type": "address"
        }
      ],
      "name": "maxDelayTimes",
      "outputs": [
        {
          "internalType": "uint256",
          "name": "",
          "type": "uint256"
        }
      ],
      "stateMutability": "view",
      "type": "function"
    },
    {
      "inputs": [],
      "name": "pendingGovernor",
      "outputs": [
        {
          "internalType": "address",
          "name": "",
          "type": "address"
        }
      ],
      "stateMutability": "view",
      "type": "function"
    },
    {
      "inputs": [],
      "name": "ref",
      "outputs": [
        {
          "internalType": "contract IStdReference",
          "name": "",
          "type": "address"
        }
      ],
      "stateMutability": "view",
      "type": "function"
    },
    {
      "inputs": [
        {
          "internalType": "address[]",
          "name": "tokens",
          "type": "address[]"
        },
        {
          "internalType": "uint256[]",
          "name": "maxDelays",
          "type": "uint256[]"
        }
      ],
      "name": "setMaxDelayTimes",
      "outputs": [],
      "stateMutability": "nonpayable",
      "type": "function"
    },
    {
      "inputs": [
        {
          "internalType": "address",
          "name": "_pendingGovernor",
          "type": "address"
        }
      ],
      "name": "setPendingGovernor",
      "outputs": [],
      "stateMutability": "nonpayable",
      "type": "function"
    },
    {
      "inputs": [
        {
          "internalType": "contract IStdReference",
          "name": "_ref",
          "type": "address"
        }
      ],
      "name": "setRef",
      "outputs": [],
      "stateMutability": "nonpayable",
      "type": "function"
    },
    {
      "inputs": [
        {
          "internalType": "address[]",
          "name": "tokens",
          "type": "address[]"
        },
        {
          "internalType": "string[]",
          "name": "syms",
          "type": "string[]"
        }
      ],
      "name": "setSymbols",
      "outputs": [],
      "stateMutability": "nonpayable",
      "type": "function"
    },
    {
      "inputs": [
        {
          "internalType": "address",
          "name": "",
          "type": "address"
        }
      ],
      "name": "symbols",
      "outputs": [
        {
          "internalType": "string",
          "name": "",
          "type": "string"
        }
      ],
      "stateMutability": "view",
      "type": "function"
    }
  ],
  "bytecode": "0x60806040523480156200001157600080fd5b506040516200224f3803806200224f83398181016040528101906200003791906200028a565b620000476200008f60201b60201c565b80604260006101000a81548173ffffffffffffffffffffffffffffffffffffffff021916908373ffffffffffffffffffffffffffffffffffffffff160217905550506200041d565b600060019054906101000a900460ff1680620000b75750620000b66200024260201b60201c565b5b80620000ce575060008054906101000a900460ff16155b62000110576040517f08c379a000000000000000000000000000000000000000000000000000000000815260040162000107906200034c565b60405180910390fd5b60008060019054906101000a900460ff16159050801562000161576001600060016101000a81548160ff02191690831515021790555060016000806101000a81548160ff0219169083151502179055505b33600060026101000a81548173ffffffffffffffffffffffffffffffffffffffff021916908373ffffffffffffffffffffffffffffffffffffffff1602179055506000600160006101000a81548173ffffffffffffffffffffffffffffffffffffffff021916908373ffffffffffffffffffffffffffffffffffffffff1602179055507fbce074c8369e26e70e1ae2f14fc944da352cfe6f52e2de9572f0c9942a24b7fc336040516200021591906200032f565b60405180910390a180156200023f5760008060016101000a81548160ff0219169083151502179055505b50565b60006200025a306200026060201b62000fc51760201c565b15905090565b600080823b905060008111915050919050565b600081519050620002848162000403565b92915050565b6000602082840312156200029d57600080fd5b6000620002ad8482850162000273565b91505092915050565b620002c181620003c7565b82525050565b6000620002d6602e836200036e565b91507f496e697469616c697a61626c653a20636f6e747261637420697320616c72656160008301527f647920696e697469616c697a65640000000000000000000000000000000000006020830152604082019050919050565b6000602082019050620003466000830184620002b6565b92915050565b600060208201905081810360008301526200036781620002c7565b9050919050565b600082825260208201905092915050565b60006200038c82620003a7565b9050919050565b6000620003a0826200037f565b9050919050565b600073ffffffffffffffffffffffffffffffffffffffff82169050919050565b6000620003d482620003db565b9050919050565b6000620003e882620003ef565b9050919050565b6000620003fc82620003a7565b9050919050565b6200040e8162000393565b81146200041a57600080fd5b50565b611e22806200042d6000396000f3fe608060405234801561001057600080fd5b50600436106100cf5760003560e01c80638322fff21161008c578063ae23e6c711610066578063ae23e6c714610200578063e3056a3414610230578063e58bb6391461024e578063f235757f14610258576100cf565b80638322fff214610194578063ab9aadfe146101b2578063ad5c4648146101e2576100cf565b80630c340a24146100d457806313b4b912146100f257806321a78f681461010e578063500e5e981461012c57806350695a02146101485780636bc855cc14610178575b600080fd5b6100dc610274565b6040516100e99190611945565b60405180910390f35b61010c60048036038101906101079190611468565b61029a565b005b610116610475565b60405161012391906119d4565b60405180910390f35b610146600480360381019061014191906114dd565b61049b565b005b610162600480360381019061015d919061143f565b610666565b60405161016f91906119ef565b60405180910390f35b610192600480360381019061018d9190611549565b610716565b005b61019c610821565b6040516101a991906119ef565b60405180910390f35b6101cc60048036038101906101c7919061143f565b61085a565b6040516101d99190611ba8565b60405180910390f35b6101ea610d18565b6040516101f79190611945565b60405180910390f35b61021a6004803603810190610215919061143f565b610d30565b6040516102279190611ba8565b60405180910390f35b610238610d48565b6040516102459190611945565b60405180910390f35b610256610d6e565b005b610272600480360381019061026d919061143f565b610eba565b005b600060029054906101000a900473ffffffffffffffffffffffffffffffffffffffff1681565b600060029054906101000a900473ffffffffffffffffffffffffffffffffffffffff1673ffffffffffffffffffffffffffffffffffffffff163373ffffffffffffffffffffffffffffffffffffffff161461032a576040517f08c379a000000000000000000000000000000000000000000000000000000000815260040161032190611ac8565b60405180910390fd5b818190508484905014610372576040517f08c379a000000000000000000000000000000000000000000000000000000000815260040161036990611b68565b60405180910390fd5b60005b8484905081101561046e5782828281811061038c57fe5b90506020020135604460008787858181106103a357fe5b90506020020160208101906103b8919061143f565b73ffffffffffffffffffffffffffffffffffffffff1673ffffffffffffffffffffffffffffffffffffffff168152602001908152602001600020819055507f5fe358b614d2e3423b34c6ee8a708b2784b1d624ebe8376e9154e9154667aea985858381811061042357fe5b9050602002016020810190610438919061143f565b84848481811061044457fe5b905060200201356040516104599291906119ab565b60405180910390a18080600101915050610375565b5050505050565b604260009054906101000a900473ffffffffffffffffffffffffffffffffffffffff1681565b600060029054906101000a900473ffffffffffffffffffffffffffffffffffffffff1673ffffffffffffffffffffffffffffffffffffffff163373ffffffffffffffffffffffffffffffffffffffff161461052b576040517f08c379a000000000000000000000000000000000000000000000000000000000815260040161052290611ac8565b60405180910390fd5b815181511461056f576040517f08c379a000000000000000000000000000000000000000000000000000000000815260040161056690611b88565b60405180910390fd5b60005b81518110156106615781818151811061058757fe5b60200260200101516043600085848151811061059f57fe5b602002602001015173ffffffffffffffffffffffffffffffffffffffff1673ffffffffffffffffffffffffffffffffffffffff16815260200190815260200160002090805190602001906105f49291906110ee565b507f90e198cc0c7c55f9a3c77367e40b68385aaa8c5532af4f0c7ea6358376abd32783828151811061062257fe5b602002602001015183838151811061063657fe5b602002602001015160405161064c92919061197b565b60405180910390a18080600101915050610572565b505050565b60436020528060005260406000206000915090508054600181600116156101000203166002900480601f01602080910402602001604051908101604052809291908181526020018280546001816001161561010002031660029004801561070e5780601f106106e35761010080835404028352916020019161070e565b820191906000526020600020905b8154815290600101906020018083116106f157829003601f168201915b505050505081565b600060029054906101000a900473ffffffffffffffffffffffffffffffffffffffff1673ffffffffffffffffffffffffffffffffffffffff163373ffffffffffffffffffffffffffffffffffffffff16146107a6576040517f08c379a000000000000000000000000000000000000000000000000000000000815260040161079d90611ac8565b60405180910390fd5b80604260006101000a81548173ffffffffffffffffffffffffffffffffffffffff021916908373ffffffffffffffffffffffffffffffffffffffff1602179055507f52c58bc35ad304377331103d866ef96578de59fd825778cfc5de23d084e6052a816040516108169190611945565b60405180910390a150565b6040518060400160405280600381526020017f455448000000000000000000000000000000000000000000000000000000000081525081565b600073c02aaa39b223fe8d0a0e5c4f27ead9083c756cc273ffffffffffffffffffffffffffffffffffffffff168273ffffffffffffffffffffffffffffffffffffffff1614806108e9575073eeeeeeeeeeeeeeeeeeeeeeeeeeeeeeeeeeeeeeee73ffffffffffffffffffffffffffffffffffffffff168273ffffffffffffffffffffffffffffffffffffffff16145b15610905576e0100000000000000000000000000009050610d13565b6060604360008473ffffffffffffffffffffffffffffffffffffffff1673ffffffffffffffffffffffffffffffffffffffff1681526020019081526020016000208054600181600116156101000203166002900480601f0160208091040260200160405190810160405280929190818152602001828054600181600116156101000203166002900480156109da5780601f106109af576101008083540402835291602001916109da565b820191906000526020600020905b8154815290600101906020018083116109bd57829003601f168201915b505050505090506000604460008573ffffffffffffffffffffffffffffffffffffffff1673ffffffffffffffffffffffffffffffffffffffff168152602001908152602001600020549050600082511415610a6a576040517f08c379a0000000000000000000000000000000000000000000000000000000008152600401610a6190611b28565b60405180910390fd5b6000811415610aae576040517f08c379a0000000000000000000000000000000000000000000000000000000008152600401610aa590611ae8565b60405180910390fd5b60008473ffffffffffffffffffffffffffffffffffffffff1663313ce5676040518163ffffffff1660e01b815260040160206040518083038186803b158015610af657600080fd5b505afa158015610b0a573d6000803e3d6000fd5b505050506040513d601f19601f82011682018060405250810190610b2e919061159b565b60ff169050610b3b61116e565b604260009054906101000a900473ffffffffffffffffffffffffffffffffffffffff1673ffffffffffffffffffffffffffffffffffffffff166365555bcc856040518060400160405280600381526020017f45544800000000000000000000000000000000000000000000000000000000008152506040518363ffffffff1660e01b8152600401610bcd929190611a11565b60606040518083038186803b158015610be557600080fd5b505afa158015610bf9573d6000803e3d6000fd5b505050506040513d601f19601f82011682018060405250810190610c1d9190611572565b9050610c328342610fd890919063ffffffff16565b81602001511015610c78576040517f08c379a0000000000000000000000000000000000000000000000000000000008152600401610c6f90611a68565b60405180910390fd5b610c8b8342610fd890919063ffffffff16565b81604001511015610cd1576040517f08c379a0000000000000000000000000000000000000000000000000000000008152600401610cc890611b08565b60405180910390fd5b610d0c82600a0a610cfe6e010000000000000000000000000000846000015161102890919063ffffffff16565b61109890919063ffffffff16565b9450505050505b919050565b73c02aaa39b223fe8d0a0e5c4f27ead9083c756cc281565b60446020528060005260406000206000915090505481565b600160009054906101000a900473ffffffffffffffffffffffffffffffffffffffff1681565b600160009054906101000a900473ffffffffffffffffffffffffffffffffffffffff1673ffffffffffffffffffffffffffffffffffffffff163373ffffffffffffffffffffffffffffffffffffffff1614610dfe576040517f08c379a0000000000000000000000000000000000000000000000000000000008152600401610df590611a48565b60405180910390fd5b6000600160006101000a81548173ffffffffffffffffffffffffffffffffffffffff021916908373ffffffffffffffffffffffffffffffffffffffff16021790555033600060026101000a81548173ffffffffffffffffffffffffffffffffffffffff021916908373ffffffffffffffffffffffffffffffffffffffff1602179055507fd345d81ce68c70b119a17eee79dc1421700bd9cb21ca148a62dc90983964e82f33604051610eb09190611960565b60405180910390a1565b600060029054906101000a900473ffffffffffffffffffffffffffffffffffffffff1673ffffffffffffffffffffffffffffffffffffffff163373ffffffffffffffffffffffffffffffffffffffff1614610f4a576040517f08c379a0000000000000000000000000000000000000000000000000000000008152600401610f4190611ac8565b60405180910390fd5b80600160006101000a81548173ffffffffffffffffffffffffffffffffffffffff021916908373ffffffffffffffffffffffffffffffffffffffff1602179055507f964dea888b00b2ab53f13dfe7ca334b46e99338c222ae232d98547a1da019f6081604051610fba9190611945565b60405180910390a150565b600080823b905060008111915050919050565b60008282111561101d576040517f08c379a000000000000000000000000000000000000000000000000000000000815260040161101490611a88565b60405180910390fd5b818303905092915050565b60008083141561103b5760009050611092565b600082840290508284828161104c57fe5b041461108d576040517f08c379a000000000000000000000000000000000000000000000000000000000815260040161108490611b48565b60405180910390fd5b809150505b92915050565b60008082116110dc576040517f08c379a00000000000000000000000000000000000000000000000000000000081526004016110d390611aa8565b60405180910390fd5b8183816110e557fe5b04905092915050565b828054600181600116156101000203166002900490600052602060002090601f016020900481019282601f1061112f57805160ff191683800117855561115d565b8280016001018555821561115d579182015b8281111561115c578251825591602001919060010190611141565b5b50905061116a919061118f565b5090565b60405180606001604052806000815260200160008152602001600081525090565b5b808211156111a8576000816000905550600101611190565b5090565b6000813590506111bb81611d90565b92915050565b60008083601f8401126111d357600080fd5b8235905067ffffffffffffffff8111156111ec57600080fd5b60208301915083602082028301111561120457600080fd5b9250929050565b600082601f83011261121c57600080fd5b813561122f61122a82611bf0565b611bc3565b9150818183526020840193506020810190508385602084028201111561125457600080fd5b60005b83811015611284578161126a88826111ac565b845260208401935060208301925050600181019050611257565b5050505092915050565b600082601f83011261129f57600080fd5b81356112b26112ad82611c18565b611bc3565b9150818183526020840193506020810190508360005b838110156112f857813586016112de8882611361565b8452602084019350602083019250506001810190506112c8565b5050505092915050565b60008083601f84011261131457600080fd5b8235905067ffffffffffffffff81111561132d57600080fd5b60208301915083602082028301111561134557600080fd5b9250929050565b60008135905061135b81611da7565b92915050565b600082601f83011261137257600080fd5b813561138561138082611c40565b611bc3565b915080825260208301602083018583830111156113a157600080fd5b6113ac838284611d3d565b50505092915050565b6000606082840312156113c757600080fd5b6113d16060611bc3565b905060006113e184828501611415565b60008301525060206113f584828501611415565b602083015250604061140984828501611415565b60408301525092915050565b60008151905061142481611dbe565b92915050565b60008151905061143981611dd5565b92915050565b60006020828403121561145157600080fd5b600061145f848285016111ac565b91505092915050565b6000806000806040858703121561147e57600080fd5b600085013567ffffffffffffffff81111561149857600080fd5b6114a4878288016111c1565b9450945050602085013567ffffffffffffffff8111156114c357600080fd5b6114cf87828801611302565b925092505092959194509250565b600080604083850312156114f057600080fd5b600083013567ffffffffffffffff81111561150a57600080fd5b6115168582860161120b565b925050602083013567ffffffffffffffff81111561153357600080fd5b61153f8582860161128e565b9150509250929050565b60006020828403121561155b57600080fd5b60006115698482850161134c565b91505092915050565b60006060828403121561158457600080fd5b6000611592848285016113b5565b91505092915050565b6000602082840312156115ad57600080fd5b60006115bb8482850161142a565b91505092915050565b6115cd81611ce3565b82525050565b6115dc81611c88565b82525050565b6115eb81611cf5565b82525050565b60006115fc82611c6c565b6116068185611c77565b9350611616818560208601611d4c565b61161f81611d7f565b840191505092915050565b6000611637601883611c77565b91507f6e6f74207468652070656e64696e6720676f7665726e6f7200000000000000006000830152602082019050919050565b6000611677601183611c77565b91507f64656c61796564206261736520646174610000000000000000000000000000006000830152602082019050919050565b60006116b7601e83611c77565b91507f536166654d6174683a207375627472616374696f6e206f766572666c6f7700006000830152602082019050919050565b60006116f7601a83611c77565b91507f536166654d6174683a206469766973696f6e206279207a65726f0000000000006000830152602082019050919050565b6000611737601083611c77565b91507f6e6f742074686520676f7665726e6f72000000000000000000000000000000006000830152602082019050919050565b6000611777601683611c77565b91507f6d61782064656c61792074696d65206e6f7420736574000000000000000000006000830152602082019050919050565b60006117b7601283611c77565b91507f64656c617965642071756f7465206461746100000000000000000000000000006000830152602082019050919050565b60006117f7600a83611c77565b91507f6e6f206d617070696e67000000000000000000000000000000000000000000006000830152602082019050919050565b6000611837602183611c77565b91507f536166654d6174683a206d756c7469706c69636174696f6e206f766572666c6f60008301527f77000000000000000000000000000000000000000000000000000000000000006020830152604082019050919050565b600061189d602483611c77565b91507f746f6b656e732026206d617844656c617973206c656e677468206d69736d617460008301527f63686564000000000000000000000000000000000000000000000000000000006020830152604082019050919050565b6000611903601383611c77565b91507f696e636f6e73697374656e74206c656e677468000000000000000000000000006000830152602082019050919050565b61193f81611ccc565b82525050565b600060208201905061195a60008301846115d3565b92915050565b600060208201905061197560008301846115c4565b92915050565b600060408201905061199060008301856115d3565b81810360208301526119a281846115f1565b90509392505050565b60006040820190506119c060008301856115d3565b6119cd6020830184611936565b9392505050565b60006020820190506119e960008301846115e2565b92915050565b60006020820190508181036000830152611a0981846115f1565b905092915050565b60006040820190508181036000830152611a2b81856115f1565b90508181036020830152611a3f81846115f1565b90509392505050565b60006020820190508181036000830152611a618161162a565b9050919050565b60006020820190508181036000830152611a818161166a565b9050919050565b60006020820190508181036000830152611aa1816116aa565b9050919050565b60006020820190508181036000830152611ac1816116ea565b9050919050565b60006020820190508181036000830152611ae18161172a565b9050919050565b60006020820190508181036000830152611b018161176a565b9050919050565b60006020820190508181036000830152611b21816117aa565b9050919050565b60006020820190508181036000830152611b41816117ea565b9050919050565b60006020820190508181036000830152611b618161182a565b9050919050565b60006020820190508181036000830152611b8181611890565b9050919050565b60006020820190508181036000830152611ba1816118f6565b9050919050565b6000602082019050611bbd6000830184611936565b92915050565b6000604051905081810181811067ffffffffffffffff82111715611be657600080fd5b8060405250919050565b600067ffffffffffffffff821115611c0757600080fd5b602082029050602081019050919050565b600067ffffffffffffffff821115611c2f57600080fd5b602082029050602081019050919050565b600067ffffffffffffffff821115611c5757600080fd5b601f19601f8301169050602081019050919050565b600081519050919050565b600082825260208201905092915050565b6000611c9382611cac565b9050919050565b6000611ca582611c88565b9050919050565b600073ffffffffffffffffffffffffffffffffffffffff82169050919050565b6000819050919050565b600060ff82169050919050565b6000611cee82611d19565b9050919050565b6000611d0082611d07565b9050919050565b6000611d1282611cac565b9050919050565b6000611d2482611d2b565b9050919050565b6000611d3682611cac565b9050919050565b82818337600083830152505050565b60005b83811015611d6a578082015181840152602081019050611d4f565b83811115611d79576000848401525b50505050565b6000601f19601f8301169050919050565b611d9981611c88565b8114611da457600080fd5b50565b611db081611c9a565b8114611dbb57600080fd5b50565b611dc781611ccc565b8114611dd257600080fd5b50565b611dde81611cd6565b8114611de957600080fd5b5056fea26469706673582212201062a55ed072aa648792a1746b4a3f532adc1736732c0251c6824a06612ef07964736f6c634300060c0033",
  "linkReferences": {},
  "deployedLinkReferences": {}
}