{
  "_format": "hh-sol-artifact-1",
  "contractName": "SushiswapSpellV1",
  "sourceName": "contracts/spell/SushiswapSpellV1.sol",
  "abi": [
    {
      "inputs": [
        {
          "internalType": "contract IBank",
          "name": "_bank",
          "type": "address"
        },
        {
          "internalType": "address",
          "name": "_werc20",
          "type": "address"
        },
        {
          "internalType": "contract IUniswapV2Router02",
          "name": "_router",
          "type": "address"
        },
        {
          "internalType": "address",
          "name": "_wmasterchef",
          "type": "address"
        }
      ],
      "stateMutability": "nonpayable",
      "type": "constructor"
    },
    {
      "anonymous": false,
      "inputs": [
        {
          "indexed": false,
          "internalType": "address",
          "name": "governor",
          "type": "address"
        }
      ],
      "name": "AcceptGovernor",
      "type": "event"
    },
    {
      "anonymous": false,
      "inputs": [
        {
          "indexed": false,
          "internalType": "address",
          "name": "governor",
          "type": "address"
        }
      ],
      "name": "SetGovernor",
      "type": "event"
    },
    {
      "anonymous": false,
      "inputs": [
        {
          "indexed": false,
          "internalType": "address",
          "name": "pendingGovernor",
          "type": "address"
        }
      ],
      "name": "SetPendingGovernor",
      "type": "event"
    },
    {
      "inputs": [],
      "name": "acceptGovernor",
      "outputs": [],
      "stateMutability": "nonpayable",
      "type": "function"
    },
    {
      "inputs": [
        {
          "internalType": "address",
          "name": "tokenA",
          "type": "address"
        },
        {
          "internalType": "address",
          "name": "tokenB",
          "type": "address"
        },
        {
          "components": [
            {
              "internalType": "uint256",
              "name": "amtAUser",
              "type": "uint256"
            },
            {
              "internalType": "uint256",
              "name": "amtBUser",
              "type": "uint256"
            },
            {
              "internalType": "uint256",
              "name": "amtLPUser",
              "type": "uint256"
            },
            {
              "internalType": "uint256",
              "name": "amtABorrow",
              "type": "uint256"
            },
            {
              "internalType": "uint256",
              "name": "amtBBorrow",
              "type": "uint256"
            },
            {
              "internalType": "uint256",
              "name": "amtLPBorrow",
              "type": "uint256"
            },
            {
              "internalType": "uint256",
              "name": "amtAMin",
              "type": "uint256"
            },
            {
              "internalType": "uint256",
              "name": "amtBMin",
              "type": "uint256"
            }
          ],
          "internalType": "struct SushiswapSpellV1.Amounts",
          "name": "amt",
          "type": "tuple"
        }
      ],
      "name": "addLiquidityWERC20",
      "outputs": [],
      "stateMutability": "payable",
      "type": "function"
    },
    {
      "inputs": [
        {
          "internalType": "address",
          "name": "tokenA",
          "type": "address"
        },
        {
          "internalType": "address",
          "name": "tokenB",
          "type": "address"
        },
        {
          "components": [
            {
              "internalType": "uint256",
              "name": "amtAUser",
              "type": "uint256"
            },
            {
              "internalType": "uint256",
              "name": "amtBUser",
              "type": "uint256"
            },
            {
              "internalType": "uint256",
              "name": "amtLPUser",
              "type": "uint256"
            },
            {
              "internalType": "uint256",
              "name": "amtABorrow",
              "type": "uint256"
            },
            {
              "internalType": "uint256",
              "name": "amtBBorrow",
              "type": "uint256"
            },
            {
              "internalType": "uint256",
              "name": "amtLPBorrow",
              "type": "uint256"
            },
            {
              "internalType": "uint256",
              "name": "amtAMin",
              "type": "uint256"
            },
            {
              "internalType": "uint256",
              "name": "amtBMin",
              "type": "uint256"
            }
          ],
          "internalType": "struct SushiswapSpellV1.Amounts",
          "name": "amt",
          "type": "tuple"
        },
        {
          "internalType": "uint256",
          "name": "pid",
          "type": "uint256"
        }
      ],
      "name": "addLiquidityWMasterChef",
      "outputs": [],
      "stateMutability": "payable",
      "type": "function"
    },
    {
      "inputs": [
        {
          "internalType": "address",
          "name": "",
          "type": "address"
        },
        {
          "internalType": "address",
          "name": "",
          "type": "address"
        }
      ],
      "name": "approved",
      "outputs": [
        {
          "internalType": "bool",
          "name": "",
          "type": "bool"
        }
      ],
      "stateMutability": "view",
      "type": "function"
    },
    {
      "inputs": [],
      "name": "bank",
      "outputs": [
        {
          "internalType": "contract IBank",
          "name": "",
          "type": "address"
        }
      ],
      "stateMutability": "view",
      "type": "function"
    },
    {
      "inputs": [],
      "name": "factory",
      "outputs": [
        {
          "internalType": "contract IUniswapV2Factory",
          "name": "",
          "type": "address"
        }
      ],
      "stateMutability": "view",
      "type": "function"
    },
    {
      "inputs": [
        {
          "internalType": "address",
          "name": "tokenA",
          "type": "address"
        },
        {
          "internalType": "address",
          "name": "tokenB",
          "type": "address"
        }
      ],
      "name": "getAndApprovePair",
      "outputs": [
        {
          "internalType": "address",
          "name": "",
          "type": "address"
        }
      ],
      "stateMutability": "nonpayable",
      "type": "function"
    },
    {
      "inputs": [],
      "name": "governor",
      "outputs": [
        {
          "internalType": "address",
          "name": "",
          "type": "address"
        }
      ],
      "stateMutability": "view",
      "type": "function"
    },
    {
      "inputs": [],
      "name": "harvestWMasterChef",
      "outputs": [],
      "stateMutability": "nonpayable",
      "type": "function"
    },
    {
      "inputs": [
        {
          "internalType": "address",
          "name": "",
          "type": "address"
        },
        {
          "internalType": "address",
          "name": "",
          "type": "address"
        },
        {
          "internalType": "uint256[]",
          "name": "",
          "type": "uint256[]"
        },
        {
          "internalType": "uint256[]",
          "name": "",
          "type": "uint256[]"
        },
        {
          "internalType": "bytes",
          "name": "",
          "type": "bytes"
        }
      ],
      "name": "onERC1155BatchReceived",
      "outputs": [
        {
          "internalType": "bytes4",
          "name": "",
          "type": "bytes4"
        }
      ],
      "stateMutability": "nonpayable",
      "type": "function"
    },
    {
      "inputs": [
        {
          "internalType": "address",
          "name": "",
          "type": "address"
        },
        {
          "internalType": "address",
          "name": "",
          "type": "address"
        },
        {
          "internalType": "uint256",
          "name": "",
          "type": "uint256"
        },
        {
          "internalType": "uint256",
          "name": "",
          "type": "uint256"
        },
        {
          "internalType": "bytes",
          "name": "",
          "type": "bytes"
        }
      ],
      "name": "onERC1155Received",
      "outputs": [
        {
          "internalType": "bytes4",
          "name": "",
          "type": "bytes4"
        }
      ],
      "stateMutability": "nonpayable",
      "type": "function"
    },
    {
      "inputs": [
        {
          "internalType": "address",
          "name": "",
          "type": "address"
        },
        {
          "internalType": "address",
          "name": "",
          "type": "address"
        }
      ],
      "name": "pairs",
      "outputs": [
        {
          "internalType": "address",
          "name": "",
          "type": "address"
        }
      ],
      "stateMutability": "view",
      "type": "function"
    },
    {
      "inputs": [],
      "name": "pendingGovernor",
      "outputs": [
        {
          "internalType": "address",
          "name": "",
          "type": "address"
        }
      ],
      "stateMutability": "view",
      "type": "function"
    },
    {
      "inputs": [
        {
          "internalType": "address",
          "name": "tokenA",
          "type": "address"
        },
        {
          "internalType": "address",
          "name": "tokenB",
          "type": "address"
        },
        {
          "components": [
            {
              "internalType": "uint256",
              "name": "amtLPTake",
              "type": "uint256"
            },
            {
              "internalType": "uint256",
              "name": "amtLPWithdraw",
              "type": "uint256"
            },
            {
              "internalType": "uint256",
              "name": "amtARepay",
              "type": "uint256"
            },
            {
              "internalType": "uint256",
              "name": "amtBRepay",
              "type": "uint256"
            },
            {
              "internalType": "uint256",
              "name": "amtLPRepay",
              "type": "uint256"
            },
            {
              "internalType": "uint256",
              "name": "amtAMin",
              "type": "uint256"
            },
            {
              "internalType": "uint256",
              "name": "amtBMin",
              "type": "uint256"
            }
          ],
          "internalType": "struct SushiswapSpellV1.RepayAmounts",
          "name": "amt",
          "type": "tuple"
        }
      ],
      "name": "removeLiquidityWERC20",
      "outputs": [],
      "stateMutability": "nonpayable",
      "type": "function"
    },
    {
      "inputs": [
        {
          "internalType": "address",
          "name": "tokenA",
          "type": "address"
        },
        {
          "internalType": "address",
          "name": "tokenB",
          "type": "address"
        },
        {
          "components": [
            {
              "internalType": "uint256",
              "name": "amtLPTake",
              "type": "uint256"
            },
            {
              "internalType": "uint256",
              "name": "amtLPWithdraw",
              "type": "uint256"
            },
            {
              "internalType": "uint256",
              "name": "amtARepay",
              "type": "uint256"
            },
            {
              "internalType": "uint256",
              "name": "amtBRepay",
              "type": "uint256"
            },
            {
              "internalType": "uint256",
              "name": "amtLPRepay",
              "type": "uint256"
            },
            {
              "internalType": "uint256",
              "name": "amtAMin",
              "type": "uint256"
            },
            {
              "internalType": "uint256",
              "name": "amtBMin",
              "type": "uint256"
            }
          ],
          "internalType": "struct SushiswapSpellV1.RepayAmounts",
          "name": "amt",
          "type": "tuple"
        }
      ],
      "name": "removeLiquidityWMasterChef",
      "outputs": [],
      "stateMutability": "nonpayable",
      "type": "function"
    },
    {
      "inputs": [],
      "name": "router",
      "outputs": [
        {
          "internalType": "contract IUniswapV2Router02",
          "name": "",
          "type": "address"
        }
      ],
      "stateMutability": "view",
      "type": "function"
    },
    {
      "inputs": [
        {
          "internalType": "address",
          "name": "_pendingGovernor",
          "type": "address"
        }
      ],
      "name": "setPendingGovernor",
      "outputs": [],
      "stateMutability": "nonpayable",
      "type": "function"
    },
    {
      "inputs": [
        {
          "internalType": "address[]",
          "name": "lpTokens",
          "type": "address[]"
        },
        {
          "internalType": "bool[]",
          "name": "statuses",
          "type": "bool[]"
        }
      ],
      "name": "setWhitelistLPTokens",
      "outputs": [],
      "stateMutability": "nonpayable",
      "type": "function"
    },
    {
      "inputs": [
        {
          "internalType": "bytes4",
          "name": "interfaceId",
          "type": "bytes4"
        }
      ],
      "name": "supportsInterface",
      "outputs": [
        {
          "internalType": "bool",
          "name": "",
          "type": "bool"
        }
      ],
      "stateMutability": "view",
      "type": "function"
    },
    {
      "inputs": [],
      "name": "sushi",
      "outputs": [
        {
          "internalType": "address",
          "name": "",
          "type": "address"
        }
      ],
      "stateMutability": "view",
      "type": "function"
    },
    {
      "inputs": [],
      "name": "werc20",
      "outputs": [
        {
          "internalType": "contract IWERC20",
          "name": "",
          "type": "address"
        }
      ],
      "stateMutability": "view",
      "type": "function"
    },
    {
      "inputs": [],
      "name": "weth",
      "outputs": [
        {
          "internalType": "address",
          "name": "",
          "type": "address"
        }
      ],
      "stateMutability": "view",
      "type": "function"
    },
    {
      "inputs": [
        {
          "internalType": "address",
          "name": "",
          "type": "address"
        }
      ],
      "name": "whitelistedLpTokens",
      "outputs": [
        {
          "internalType": "bool",
          "name": "",
          "type": "bool"
        }
      ],
      "stateMutability": "view",
      "type": "function"
    },
    {
      "inputs": [],
      "name": "wmasterchef",
      "outputs": [
        {
          "internalType": "contract IWMasterChef",
          "name": "",
          "type": "address"
        }
      ],
      "stateMutability": "view",
      "type": "function"
    },
    {
      "stateMutability": "payable",
      "type": "receive"
    }
  ],
  "bytecode": "0x6101606040523480156200001257600080fd5b5060405162007e5838038062007e58833981810160405281019062000038919062000db5565b83838373ffffffffffffffffffffffffffffffffffffffff1663ad5c46486040518163ffffffff1660e01b815260040160206040518083038186803b1580156200008157600080fd5b505afa15801562000096573d6000803e3d6000fd5b505050506040513d601f19601f82011682018060405250810190620000bc919062000d5d565b828282620000d76301ffc9a760e01b6200049660201b60201c565b620000f863bc197c8160e01b63f23a6e6160e01b186200049660201b60201c565b8273ffffffffffffffffffffffffffffffffffffffff1660808173ffffffffffffffffffffffffffffffffffffffff1660601b815250508173ffffffffffffffffffffffffffffffffffffffff1660a08173ffffffffffffffffffffffffffffffffffffffff1660601b815250508073ffffffffffffffffffffffffffffffffffffffff1660c08173ffffffffffffffffffffffffffffffffffffffff1660601b81525050620001af81846200056e60201b60201c565b8173ffffffffffffffffffffffffffffffffffffffff1663a22cb4658460016040518363ffffffff1660e01b8152600401620001ed929190620011bc565b600060405180830381600087803b1580156200020857600080fd5b505af11580156200021d573d6000803e3d6000fd5b5050505050505062000234620006e960201b60201c565b5050508173ffffffffffffffffffffffffffffffffffffffff166101008173ffffffffffffffffffffffffffffffffffffffff1660601b815250508173ffffffffffffffffffffffffffffffffffffffff1663c45a01556040518163ffffffff1660e01b815260040160206040518083038186803b158015620002b657600080fd5b505afa158015620002cb573d6000803e3d6000fd5b505050506040513d601f19601f82011682018060405250810190620002f1919062000d5d565b73ffffffffffffffffffffffffffffffffffffffff1660e08173ffffffffffffffffffffffffffffffffffffffff1660601b815250508073ffffffffffffffffffffffffffffffffffffffff166101208173ffffffffffffffffffffffffffffffffffffffff1660601b815250508073ffffffffffffffffffffffffffffffffffffffff1663a22cb4658560016040518363ffffffff1660e01b81526004016200039d929190620011bc565b600060405180830381600087803b158015620003b857600080fd5b505af1158015620003cd573d6000803e3d6000fd5b505050508073ffffffffffffffffffffffffffffffffffffffff16630a0879036040518163ffffffff1660e01b8152600401602060405180830381600087803b1580156200041a57600080fd5b505af11580156200042f573d6000803e3d6000fd5b505050506040513d601f19601f8201168201806040525081019062000455919062000e21565b73ffffffffffffffffffffffffffffffffffffffff166101408173ffffffffffffffffffffffffffffffffffffffff1660601b8152505050505050620014dd565b63ffffffff60e01b817bffffffffffffffffffffffffffffffffffffffffffffffffffffffff1916141562000502576040517f08c379a0000000000000000000000000000000000000000000000000000000008152600401620004f9906200123a565b60405180910390fd5b6001600080837bffffffffffffffffffffffffffffffffffffffffffffffffffffffff19167bffffffffffffffffffffffffffffffffffffffffffffffffffffffff1916815260200190815260200160002060006101000a81548160ff02191690831515021790555050565b604160008373ffffffffffffffffffffffffffffffffffffffff1673ffffffffffffffffffffffffffffffffffffffff16815260200190815260200160002060008273ffffffffffffffffffffffffffffffffffffffff1673ffffffffffffffffffffffffffffffffffffffff16815260200190815260200160002060009054906101000a900460ff16620006e5576200064f817fffffffffffffffffffffffffffffffffffffffffffffffffffffffffffffffff8473ffffffffffffffffffffffffffffffffffffffff16620008a160201b62002519179092919060201c565b6001604160008473ffffffffffffffffffffffffffffffffffffffff1673ffffffffffffffffffffffffffffffffffffffff16815260200190815260200160002060008373ffffffffffffffffffffffffffffffffffffffff1673ffffffffffffffffffffffffffffffffffffffff16815260200190815260200160002060006101000a81548160ff0219169083151502179055505b5050565b604260019054906101000a900460ff16806200071157506200071062000a1360201b60201c565b5b806200072a5750604260009054906101000a900460ff16155b6200076c576040517f08c379a000000000000000000000000000000000000000000000000000000000815260040162000763906200127e565b60405180910390fd5b6000604260019054906101000a900460ff161590508015620007bf576001604260016101000a81548160ff0219169083151502179055506001604260006101000a81548160ff0219169083151502179055505b33604260026101000a81548173ffffffffffffffffffffffffffffffffffffffff021916908373ffffffffffffffffffffffffffffffffffffffff1602179055506000604360006101000a81548173ffffffffffffffffffffffffffffffffffffffff021916908373ffffffffffffffffffffffffffffffffffffffff1602179055507fbce074c8369e26e70e1ae2f14fc944da352cfe6f52e2de9572f0c9942a24b7fc3360405162000873919062001172565b60405180910390a180156200089e576000604260016101000a81548160ff0219169083151502179055505b50565b600081148062000941575060008373ffffffffffffffffffffffffffffffffffffffff1663dd62ed3e30856040518363ffffffff1660e01b8152600401620008eb9291906200118f565b60206040518083038186803b1580156200090457600080fd5b505afa15801562000919573d6000803e3d6000fd5b505050506040513d601f19601f820116820180604052508101906200093f919062000e4d565b145b62000983576040517f08c379a00000000000000000000000000000000000000000000000000000000081526004016200097a90620012e4565b60405180910390fd5b62000a0e8363095ea7b360e01b8484604051602401620009a5929190620011e9565b604051602081830303815290604052907bffffffffffffffffffffffffffffffffffffffffffffffffffffffff19166020820180517bffffffffffffffffffffffffffffffffffffffffffffffffffffffff838183161783525050505062000a3160201b60201c565b505050565b600062000a2b3062000b0560201b620026771760201c565b15905090565b606062000a9a826040518060400160405280602081526020017f5361666545524332303a206c6f772d6c6576656c2063616c6c206661696c65648152508573ffffffffffffffffffffffffffffffffffffffff1662000b1860201b6200268a179092919060201c565b905060008151111562000b00578080602001905181019062000abd919062000d89565b62000aff576040517f08c379a000000000000000000000000000000000000000000000000000000000815260040162000af690620012c2565b60405180910390fd5b5b505050565b600080823b905060008111915050919050565b606062000b2f848460008562000b3860201b60201c565b90509392505050565b60608247101562000b80576040517f08c379a000000000000000000000000000000000000000000000000000000000815260040162000b77906200125c565b60405180910390fd5b62000b918562000b0560201b60201c565b62000bd3576040517f08c379a000000000000000000000000000000000000000000000000000000000815260040162000bca90620012a0565b60405180910390fd5b600060608673ffffffffffffffffffffffffffffffffffffffff16858760405162000bff919062001159565b60006040518083038185875af1925050503d806000811462000c3e576040519150601f19603f3d011682016040523d82523d6000602084013e62000c43565b606091505b509150915062000c5b82828662000c6760201b60201c565b92505050949350505050565b6060831562000c795782905062000ccc565b60008351111562000c8d5782518084602001fd5b816040517f08c379a000000000000000000000000000000000000000000000000000000000815260040162000cc3919062001216565b60405180910390fd5b9392505050565b60008151905062000ce48162001441565b92915050565b60008151905062000cfb816200145b565b92915050565b60008151905062000d128162001475565b92915050565b60008151905062000d29816200148f565b92915050565b60008151905062000d4081620014a9565b92915050565b60008151905062000d5781620014c3565b92915050565b60006020828403121562000d7057600080fd5b600062000d808482850162000cd3565b91505092915050565b60006020828403121562000d9c57600080fd5b600062000dac8482850162000cea565b91505092915050565b6000806000806080858703121562000dcc57600080fd5b600062000ddc8782880162000d01565b945050602062000def8782880162000cd3565b935050604062000e028782880162000d2f565b925050606062000e158782880162000cd3565b91505092959194509250565b60006020828403121562000e3457600080fd5b600062000e448482850162000d18565b91505092915050565b60006020828403121562000e6057600080fd5b600062000e708482850162000d46565b91505092915050565b62000e8481620013be565b82525050565b62000e958162001338565b82525050565b62000ea6816200134c565b82525050565b600062000eb98262001306565b62000ec581856200131c565b935062000ed7818560208601620013fa565b80840191505092915050565b600062000ef08262001311565b62000efc818562001327565b935062000f0e818560208601620013fa565b62000f198162001430565b840191505092915050565b600062000f33601c8362001327565b91507f4552433136353a20696e76616c696420696e74657266616365206964000000006000830152602082019050919050565b600062000f7560268362001327565b91507f416464726573733a20696e73756666696369656e742062616c616e636520666f60008301527f722063616c6c00000000000000000000000000000000000000000000000000006020830152604082019050919050565b600062000fdd602e8362001327565b91507f496e697469616c697a61626c653a20636f6e747261637420697320616c72656160008301527f647920696e697469616c697a65640000000000000000000000000000000000006020830152604082019050919050565b600062001045601d8362001327565b91507f416464726573733a2063616c6c20746f206e6f6e2d636f6e74726163740000006000830152602082019050919050565b600062001087602a8362001327565b91507f5361666545524332303a204552433230206f7065726174696f6e20646964206e60008301527f6f742073756363656564000000000000000000000000000000000000000000006020830152604082019050919050565b6000620010ef60368362001327565b91507f5361666545524332303a20617070726f76652066726f6d206e6f6e2d7a65726f60008301527f20746f206e6f6e2d7a65726f20616c6c6f77616e6365000000000000000000006020830152604082019050919050565b6200115381620013b4565b82525050565b600062001167828462000eac565b915081905092915050565b600060208201905062001189600083018462000e79565b92915050565b6000604082019050620011a6600083018562000e8a565b620011b5602083018462000e8a565b9392505050565b6000604082019050620011d3600083018562000e8a565b620011e2602083018462000e9b565b9392505050565b600060408201905062001200600083018562000e8a565b6200120f602083018462001148565b9392505050565b6000602082019050818103600083015262001232818462000ee3565b905092915050565b60006020820190508181036000830152620012558162000f24565b9050919050565b60006020820190508181036000830152620012778162000f66565b9050919050565b60006020820190508181036000830152620012998162000fce565b9050919050565b60006020820190508181036000830152620012bb8162001036565b9050919050565b60006020820190508181036000830152620012dd8162001078565b9050919050565b60006020820190508181036000830152620012ff81620010e0565b9050919050565b600081519050919050565b600081519050919050565b600081905092915050565b600082825260208201905092915050565b6000620013458262001394565b9050919050565b60008115159050919050565b6000620013658262001338565b9050919050565b6000620013798262001338565b9050919050565b60006200138d8262001338565b9050919050565b600073ffffffffffffffffffffffffffffffffffffffff82169050919050565b6000819050919050565b6000620013cb82620013d2565b9050919050565b6000620013df82620013e6565b9050919050565b6000620013f38262001394565b9050919050565b60005b838110156200141a578082015181840152602081019050620013fd565b838111156200142a576000848401525b50505050565b6000601f19601f8301169050919050565b6200144c8162001338565b81146200145857600080fd5b50565b62001466816200134c565b81146200147257600080fd5b50565b620014808162001358565b81146200148c57600080fd5b50565b6200149a816200136c565b8114620014a657600080fd5b50565b620014b48162001380565b8114620014c057600080fd5b50565b620014ce81620013b4565b8114620014da57600080fd5b50565b60805160601c60a05160601c60c05160601c60e05160601c6101005160601c6101205160601c6101405160601c6167dc6200167c6000398061068a52806111eb52806116945280611f42525080610bc25280610c6f5280610da65280610e705280610f035280611062528061108a528061117552806112c35280611492528061155c52806115d352806117da5280611a345280611b215280611beb5280611c5e5280611d125280611dc75280611eb25250806108fa5280610924528061094e52806124f75280612d585280612f3952806131075280613bf75280613de15250806107d952806116da5250806101565280610af5528061403c52806140f252806146ed52508061123952806127bd52806128465280613ebd5280613ee35280613fac525080610b1c5280610e345280611139528061129f52806112f8528061152052806119845280611baf5280611e7652806121f352806126d5528061278152806129665280612a495280612b215280612bf9528061360e5280613f70528061417f52806145a652806145cc528061477a528061481552506167dc6000f3fe60806040526004361061014f5760003560e01c806395723b1c116100b6578063e58bb6391161006f578063e58bb63914610513578063ee42c6f41461052a578063f235757f14610553578063f23a6e611461057c578063f4b16045146105b9578063f887ea40146105f6576101e4565b806395723b1c1461041f578063bc197c8114610448578063c45a015514610485578063cc9b1880146104b0578063e07d904e146104cc578063e3056a34146104e8576101e4565b806340a65ad21161010857806340a65ad21461030d5780634bab09f6146103245780635741229c1461036157806369454b861461038c57806376cdb03b146103c957806386adcc79146103f4576101e4565b806301ffc9a7146101e95780630a087903146102265780630c340a24146102515780631387d96d1461027c5780632185059f146102a55780633fc8cef3146102e2576101e4565b366101e4577f000000000000000000000000000000000000000000000000000000000000000073ffffffffffffffffffffffffffffffffffffffff163373ffffffffffffffffffffffffffffffffffffffff16146101e2576040517f08c379a00000000000000000000000000000000000000000000000000000000081526004016101d990616214565b60405180910390fd5b005b600080fd5b3480156101f557600080fd5b50610210600480360381019061020b91906154e5565b610621565b60405161021d9190615fb5565b60405180910390f35b34801561023257600080fd5b5061023b610688565b6040516102489190615e09565b60405180910390f35b34801561025d57600080fd5b506102666106ac565b6040516102739190615e09565b60405180910390f35b34801561028857600080fd5b506102a3600480360381019061029e9190615235565b6106d2565b005b3480156102b157600080fd5b506102cc60048036038101906102c79190615078565b610700565b6040516102d99190615e09565b60405180910390f35b3480156102ee57600080fd5b506102f7610af3565b6040516103049190615e09565b60405180910390f35b34801561031957600080fd5b50610322610b17565b005b34801561033057600080fd5b5061034b60048036038101906103469190615026565b611217565b6040516103589190615fb5565b60405180910390f35b34801561036d57600080fd5b50610376611237565b604051610383919061603c565b60405180910390f35b34801561039857600080fd5b506103b360048036038101906103ae9190615078565b61125b565b6040516103c09190615e09565b60405180910390f35b3480156103d557600080fd5b506103de61129d565b6040516103eb9190615feb565b60405180910390f35b34801561040057600080fd5b506104096112c1565b6040516104169190616057565b60405180910390f35b34801561042b57600080fd5b5061044660048036038101906104419190615235565b6112e5565b005b34801561045457600080fd5b5061046f600480360381019061046a91906150b4565b6116c0565b60405161047c9190615fd0565b60405180910390f35b34801561049157600080fd5b5061049a6116d8565b6040516104a79190616006565b60405180910390f35b6104ca60048036038101906104c59190615180565b6116fc565b005b6104e660048036038101906104e191906151d0565b6117c8565b005b3480156104f457600080fd5b506104fd611f73565b60405161050a9190615e09565b60405180910390f35b34801561051f57600080fd5b50610528611f99565b005b34801561053657600080fd5b50610551600480360381019061054c91906153dd565b6120e5565b005b34801561055f57600080fd5b5061057a60048036038101906105759190615026565b6123a5565b005b34801561058857600080fd5b506105a3600480360381019061059e91906152e8565b6124b0565b6040516105b09190615fd0565b60405180910390f35b3480156105c557600080fd5b506105e060048036038101906105db9190615078565b6124c6565b6040516105ed9190615fb5565b60405180910390f35b34801561060257600080fd5b5061060b6124f5565b6040516106189190616021565b60405180910390f35b6000806000837bffffffffffffffffffffffffffffffffffffffffffffffffffffffff19167bffffffffffffffffffffffffffffffffffffffffffffffffffffffff1916815260200190815260200160002060009054906101000a900460ff169050919050565b7f000000000000000000000000000000000000000000000000000000000000000081565b604260029054906101000a900473ffffffffffffffffffffffffffffffffffffffff1681565b60006106de8484610700565b90506106ee8183600001356126a2565b6106fa848484846128d6565b50505050565b600080608560008573ffffffffffffffffffffffffffffffffffffffff1673ffffffffffffffffffffffffffffffffffffffff16815260200190815260200160002060008473ffffffffffffffffffffffffffffffffffffffff1673ffffffffffffffffffffffffffffffffffffffff16815260200190815260200160002060009054906101000a900473ffffffffffffffffffffffffffffffffffffffff169050600073ffffffffffffffffffffffffffffffffffffffff168173ffffffffffffffffffffffffffffffffffffffff161415610ae9577f000000000000000000000000000000000000000000000000000000000000000073ffffffffffffffffffffffffffffffffffffffff1663e6a4390585856040518363ffffffff1660e01b8152600401610832929190615e3f565b60206040518083038186803b15801561084a57600080fd5b505afa15801561085e573d6000803e3d6000fd5b505050506040513d601f19601f82011682018060405250810190610882919061504f565b9050600073ffffffffffffffffffffffffffffffffffffffff168173ffffffffffffffffffffffffffffffffffffffff1614156108f4576040517f08c379a00000000000000000000000000000000000000000000000000000000081526004016108eb906161b4565b60405180910390fd5b61091e847f0000000000000000000000000000000000000000000000000000000000000000613400565b610948837f0000000000000000000000000000000000000000000000000000000000000000613400565b610972817f0000000000000000000000000000000000000000000000000000000000000000613400565b80608560008673ffffffffffffffffffffffffffffffffffffffff1673ffffffffffffffffffffffffffffffffffffffff16815260200190815260200160002060008573ffffffffffffffffffffffffffffffffffffffff1673ffffffffffffffffffffffffffffffffffffffff16815260200190815260200160002060006101000a81548173ffffffffffffffffffffffffffffffffffffffff021916908373ffffffffffffffffffffffffffffffffffffffff16021790555080608560008573ffffffffffffffffffffffffffffffffffffffff1673ffffffffffffffffffffffffffffffffffffffff16815260200190815260200160002060008673ffffffffffffffffffffffffffffffffffffffff1673ffffffffffffffffffffffffffffffffffffffff16815260200190815260200160002060006101000a81548173ffffffffffffffffffffffffffffffffffffffff021916908373ffffffffffffffffffffffffffffffffffffffff1602179055505b8091505092915050565b7f000000000000000000000000000000000000000000000000000000000000000081565b6000807f000000000000000000000000000000000000000000000000000000000000000073ffffffffffffffffffffffffffffffffffffffff1663f70aedd96040518163ffffffff1660e01b815260040160806040518083038186803b158015610b8057600080fd5b505afa158015610b94573d6000803e3d6000fd5b505050506040513d601f19601f82011682018060405250810190610bb89190615285565b50925092505060007f000000000000000000000000000000000000000000000000000000000000000073ffffffffffffffffffffffffffffffffffffffff1663dc20c6fa836040518263ffffffff1660e01b8152600401610c199190616334565b604080518083038186803b158015610c3057600080fd5b505afa158015610c44573d6000803e3d6000fd5b505050506040513d601f19601f82011682018060405250810190610c6891906155af565b50905060007f000000000000000000000000000000000000000000000000000000000000000073ffffffffffffffffffffffffffffffffffffffff1663a4775772846040518263ffffffff1660e01b8152600401610cc69190616334565b60206040518083038186803b158015610cde57600080fd5b505afa158015610cf2573d6000803e3d6000fd5b505050506040513d601f19601f82011682018060405250810190610d16919061504f565b9050608460008273ffffffffffffffffffffffffffffffffffffffff1673ffffffffffffffffffffffffffffffffffffffff16815260200190815260200160002060009054906101000a900460ff16610da4576040517f08c379a0000000000000000000000000000000000000000000000000000000008152600401610d9b906161f4565b60405180910390fd5b7f000000000000000000000000000000000000000000000000000000000000000073ffffffffffffffffffffffffffffffffffffffff168473ffffffffffffffffffffffffffffffffffffffff1614610e32576040517f08c379a0000000000000000000000000000000000000000000000000000000008152600401610e2990616254565b60405180910390fd5b7f000000000000000000000000000000000000000000000000000000000000000073ffffffffffffffffffffffffffffffffffffffff166368eb4ba87f0000000000000000000000000000000000000000000000000000000000000000857fffffffffffffffffffffffffffffffffffffffffffffffffffffffffffffffff6040518463ffffffff1660e01b8152600401610ecf93929190615f7e565b600060405180830381600087803b158015610ee957600080fd5b505af1158015610efd573d6000803e3d6000fd5b505050507f000000000000000000000000000000000000000000000000000000000000000073ffffffffffffffffffffffffffffffffffffffff1663b390c0ab847fffffffffffffffffffffffffffffffffffffffffffffffffffffffffffffffff6040518363ffffffff1660e01b8152600401610f7c9291906163d2565b602060405180830381600087803b158015610f9657600080fd5b505af1158015610faa573d6000803e3d6000fd5b505050506040513d601f19601f82011682018060405250810190610fce9190615586565b5060008173ffffffffffffffffffffffffffffffffffffffff166370a08231306040518263ffffffff1660e01b815260040161100a9190615e24565b60206040518083038186803b15801561102257600080fd5b505afa158015611036573d6000803e3d6000fd5b505050506040513d601f19601f8201168201806040525081019061105a9190615586565b9050611086827f0000000000000000000000000000000000000000000000000000000000000000613400565b60007f000000000000000000000000000000000000000000000000000000000000000073ffffffffffffffffffffffffffffffffffffffff16631b2ef1ca85846040518363ffffffff1660e01b81526004016110e39291906163d2565b602060405180830381600087803b1580156110fd57600080fd5b505af1158015611111573d6000803e3d6000fd5b505050506040513d601f19601f820116820180604052508101906111359190615586565b90507f000000000000000000000000000000000000000000000000000000000000000073ffffffffffffffffffffffffffffffffffffffff1663314568d97f000000000000000000000000000000000000000000000000000000000000000083856040518463ffffffff1660e01b81526004016111b493929190615f7e565b600060405180830381600087803b1580156111ce57600080fd5b505af11580156111e2573d6000803e3d6000fd5b5050505061120f7f0000000000000000000000000000000000000000000000000000000000000000613573565b505050505050565b60846020528060005260406000206000915054906101000a900460ff1681565b7f000000000000000000000000000000000000000000000000000000000000000081565b60856020528160005260406000206020528060005260406000206000915091509054906101000a900473ffffffffffffffffffffffffffffffffffffffff1681565b7f000000000000000000000000000000000000000000000000000000000000000081565b7f000000000000000000000000000000000000000000000000000000000000000081565b60006112f18484610700565b90506000807f000000000000000000000000000000000000000000000000000000000000000073ffffffffffffffffffffffffffffffffffffffff1663f70aedd96040518163ffffffff1660e01b815260040160806040518083038186803b15801561135c57600080fd5b505afa158015611370573d6000803e3d6000fd5b505050506040513d601f19601f820116820180604052508101906113949190615285565b5092509250508273ffffffffffffffffffffffffffffffffffffffff168273ffffffffffffffffffffffffffffffffffffffff1663a4775772836040518263ffffffff1660e01b81526004016113ea9190616334565b60206040518083038186803b15801561140257600080fd5b505afa158015611416573d6000803e3d6000fd5b505050506040513d601f19601f8201168201806040525081019061143a919061504f565b73ffffffffffffffffffffffffffffffffffffffff1614611490576040517f08c379a0000000000000000000000000000000000000000000000000000000008152600401611487906162d4565b60405180910390fd5b7f000000000000000000000000000000000000000000000000000000000000000073ffffffffffffffffffffffffffffffffffffffff168273ffffffffffffffffffffffffffffffffffffffff161461151e576040517f08c379a000000000000000000000000000000000000000000000000000000000815260040161151590616254565b60405180910390fd5b7f000000000000000000000000000000000000000000000000000000000000000073ffffffffffffffffffffffffffffffffffffffff166368eb4ba87f00000000000000000000000000000000000000000000000000000000000000008387600001356040518463ffffffff1660e01b815260040161159f93929190615f7e565b600060405180830381600087803b1580156115b957600080fd5b505af11580156115cd573d6000803e3d6000fd5b505050507f000000000000000000000000000000000000000000000000000000000000000073ffffffffffffffffffffffffffffffffffffffff1663b390c0ab8286600001356040518363ffffffff1660e01b81526004016116309291906163d2565b602060405180830381600087803b15801561164a57600080fd5b505af115801561165e573d6000803e3d6000fd5b505050506040513d601f19601f820116820180604052508101906116829190615586565b5061168f868686866128d6565b6116b87f0000000000000000000000000000000000000000000000000000000000000000613573565b505050505050565b600063bc197c8160e01b905098975050505050505050565b7f000000000000000000000000000000000000000000000000000000000000000081565b60006117088484610700565b9050611716848484846136d6565b6117a8818273ffffffffffffffffffffffffffffffffffffffff166370a08231306040518263ffffffff1660e01b81526004016117539190615e24565b60206040518083038186803b15801561176b57600080fd5b505afa15801561177f573d6000803e3d6000fd5b505050506040513d601f19601f820116820180604052508101906117a39190615586565b613eae565b6117b0614038565b6117b984613573565b6117c283613573565b50505050565b60006117d48585610700565b905060007f000000000000000000000000000000000000000000000000000000000000000073ffffffffffffffffffffffffffffffffffffffff16631fc8bc5d6040518163ffffffff1660e01b815260040160206040518083038186803b15801561183e57600080fd5b505afa158015611852573d6000803e3d6000fd5b505050506040513d601f19601f82011682018060405250810190611876919061550e565b73ffffffffffffffffffffffffffffffffffffffff16631526fe27846040518263ffffffff1660e01b81526004016118ae9190616334565b60806040518083038186803b1580156118c657600080fd5b505afa1580156118da573d6000803e3d6000fd5b505050506040513d601f19601f820116820180604052508101906118fe919061537a565b50505090508173ffffffffffffffffffffffffffffffffffffffff168173ffffffffffffffffffffffffffffffffffffffff1614611971576040517f08c379a0000000000000000000000000000000000000000000000000000000008152600401611968906161d4565b60405180910390fd5b61197d868686856136d6565b60008060007f000000000000000000000000000000000000000000000000000000000000000073ffffffffffffffffffffffffffffffffffffffff1663f70aedd96040518163ffffffff1660e01b815260040160806040518083038186803b1580156119e857600080fd5b505afa1580156119fc573d6000803e3d6000fd5b505050506040513d601f19601f82011682018060405250810190611a209190615285565b935093509350506000811115611d0c5760007f000000000000000000000000000000000000000000000000000000000000000073ffffffffffffffffffffffffffffffffffffffff1663dc20c6fa846040518263ffffffff1660e01b8152600401611a8b9190616334565b604080518083038186803b158015611aa257600080fd5b505afa158015611ab6573d6000803e3d6000fd5b505050506040513d601f19601f82011682018060405250810190611ada91906155af565b509050808714611b1f576040517f08c379a0000000000000000000000000000000000000000000000000000000008152600401611b1690616294565b60405180910390fd5b7f000000000000000000000000000000000000000000000000000000000000000073ffffffffffffffffffffffffffffffffffffffff168473ffffffffffffffffffffffffffffffffffffffff1614611bad576040517f08c379a0000000000000000000000000000000000000000000000000000000008152600401611ba490616254565b60405180910390fd5b7f000000000000000000000000000000000000000000000000000000000000000073ffffffffffffffffffffffffffffffffffffffff166368eb4ba87f000000000000000000000000000000000000000000000000000000000000000085856040518463ffffffff1660e01b8152600401611c2a93929190615f7e565b600060405180830381600087803b158015611c4457600080fd5b505af1158015611c58573d6000803e3d6000fd5b505050507f000000000000000000000000000000000000000000000000000000000000000073ffffffffffffffffffffffffffffffffffffffff1663b390c0ab84846040518363ffffffff1660e01b8152600401611cb79291906163d2565b602060405180830381600087803b158015611cd157600080fd5b505af1158015611ce5573d6000803e3d6000fd5b505050506040513d601f19601f82011682018060405250810190611d099190615586565b50505b611d36857f0000000000000000000000000000000000000000000000000000000000000000613400565b60008573ffffffffffffffffffffffffffffffffffffffff166370a08231306040518263ffffffff1660e01b8152600401611d719190615e24565b60206040518083038186803b158015611d8957600080fd5b505afa158015611d9d573d6000803e3d6000fd5b505050506040513d601f19601f82011682018060405250810190611dc19190615586565b905060007f000000000000000000000000000000000000000000000000000000000000000073ffffffffffffffffffffffffffffffffffffffff16631b2ef1ca89846040518363ffffffff1660e01b8152600401611e209291906163d2565b602060405180830381600087803b158015611e3a57600080fd5b505af1158015611e4e573d6000803e3d6000fd5b505050506040513d601f19601f82011682018060405250810190611e729190615586565b90507f000000000000000000000000000000000000000000000000000000000000000073ffffffffffffffffffffffffffffffffffffffff1663314568d97f000000000000000000000000000000000000000000000000000000000000000083856040518463ffffffff1660e01b8152600401611ef193929190615f7e565b600060405180830381600087803b158015611f0b57600080fd5b505af1158015611f1f573d6000803e3d6000fd5b50505050611f2b614038565b611f348b613573565b611f3d8a613573565b611f667f0000000000000000000000000000000000000000000000000000000000000000613573565b5050505050505050505050565b604360009054906101000a900473ffffffffffffffffffffffffffffffffffffffff1681565b604360009054906101000a900473ffffffffffffffffffffffffffffffffffffffff1673ffffffffffffffffffffffffffffffffffffffff163373ffffffffffffffffffffffffffffffffffffffff1614612029576040517f08c379a0000000000000000000000000000000000000000000000000000000008152600401612020906160b4565b60405180910390fd5b6000604360006101000a81548173ffffffffffffffffffffffffffffffffffffffff021916908373ffffffffffffffffffffffffffffffffffffffff16021790555033604260026101000a81548173ffffffffffffffffffffffffffffffffffffffff021916908373ffffffffffffffffffffffffffffffffffffffff1602179055507fd345d81ce68c70b119a17eee79dc1421700bd9cb21ca148a62dc90983964e82f336040516120db9190615e24565b60405180910390a1565b604260029054906101000a900473ffffffffffffffffffffffffffffffffffffffff1673ffffffffffffffffffffffffffffffffffffffff163373ffffffffffffffffffffffffffffffffffffffff1614612175576040517f08c379a000000000000000000000000000000000000000000000000000000000815260040161216c90616174565b60405180910390fd5b8181905084849050146121bd576040517f08c379a00000000000000000000000000000000000000000000000000000000081526004016121b490616194565b60405180910390fd5b60005b8484905081101561239e578282828181106121d757fe5b90506020020160208101906121ec9190615493565b156122fa577f000000000000000000000000000000000000000000000000000000000000000073ffffffffffffffffffffffffffffffffffffffff1663e660cc0886868481811061223957fe5b905060200201602081019061224e9190615026565b6040518263ffffffff1660e01b815260040161226a9190615e09565b60206040518083038186803b15801561228257600080fd5b505afa158015612296573d6000803e3d6000fd5b505050506040513d601f19601f820116820180604052508101906122ba91906154bc565b6122f9576040517f08c379a00000000000000000000000000000000000000000000000000000000081526004016122f0906160f4565b60405180910390fd5b5b82828281811061230657fe5b905060200201602081019061231b9190615493565b6084600087878581811061232b57fe5b90506020020160208101906123409190615026565b73ffffffffffffffffffffffffffffffffffffffff1673ffffffffffffffffffffffffffffffffffffffff16815260200190815260200160002060006101000a81548160ff02191690831515021790555080806001019150506121c0565b5050505050565b604260029054906101000a900473ffffffffffffffffffffffffffffffffffffffff1673ffffffffffffffffffffffffffffffffffffffff163373ffffffffffffffffffffffffffffffffffffffff1614612435576040517f08c379a000000000000000000000000000000000000000000000000000000000815260040161242c90616174565b60405180910390fd5b80604360006101000a81548173ffffffffffffffffffffffffffffffffffffffff021916908373ffffffffffffffffffffffffffffffffffffffff1602179055507f964dea888b00b2ab53f13dfe7ca334b46e99338c222ae232d98547a1da019f60816040516124a59190615e09565b60405180910390a150565b600063f23a6e6160e01b90509695505050505050565b60416020528160005260406000206020528060005260406000206000915091509054906101000a900460ff1681565b7f000000000000000000000000000000000000000000000000000000000000000081565b60008114806125b2575060008373ffffffffffffffffffffffffffffffffffffffff1663dd62ed3e30856040518363ffffffff1660e01b8152600401612560929190615e3f565b60206040518083038186803b15801561257857600080fd5b505afa15801561258c573d6000803e3d6000fd5b505050506040513d601f19601f820116820180604052508101906125b09190615586565b145b6125f1576040517f08c379a00000000000000000000000000000000000000000000000000000000081526004016125e890616314565b60405180910390fd5b6126728363095ea7b360e01b8484604051602401612610929190615f55565b604051602081830303815290604052907bffffffffffffffffffffffffffffffffffffffffffffffffffffffff19166020820180517bffffffffffffffffffffffffffffffffffffffffffffffffffffffff8381831617835250505050614316565b505050565b600080823b905060008111915050919050565b606061269984846000856143dd565b90509392505050565b60008111156128d2577fffffffffffffffffffffffffffffffffffffffffffffffffffffffffffffffff81141561277f577f000000000000000000000000000000000000000000000000000000000000000073ffffffffffffffffffffffffffffffffffffffff1663f70aedd96040518163ffffffff1660e01b815260040160806040518083038186803b15801561273957600080fd5b505afa15801561274d573d6000803e3d6000fd5b505050506040513d601f19601f820116820180604052508101906127719190615285565b909192509091509050809150505b7f000000000000000000000000000000000000000000000000000000000000000073ffffffffffffffffffffffffffffffffffffffff166368eb4ba87f00000000000000000000000000000000000000000000000000000000000000008473ffffffffffffffffffffffffffffffffffffffff16846040518463ffffffff1660e01b815260040161281293929190615f7e565b600060405180830381600087803b15801561282c57600080fd5b505af1158015612840573d6000803e3d6000fd5b505050507f000000000000000000000000000000000000000000000000000000000000000073ffffffffffffffffffffffffffffffffffffffff16639dc29fac83836040518363ffffffff1660e01b815260040161289f929190615f55565b600060405180830381600087803b1580156128b957600080fd5b505af11580156128cd573d6000803e3d6000fd5b505050505b5050565b608460008273ffffffffffffffffffffffffffffffffffffffff1673ffffffffffffffffffffffffffffffffffffffff16815260200190815260200160002060009054906101000a900460ff16612962576040517f08c379a0000000000000000000000000000000000000000000000000000000008152600401612959906161f4565b60405180910390fd5b60007f000000000000000000000000000000000000000000000000000000000000000073ffffffffffffffffffffffffffffffffffffffff1663d7ac71ff6040518163ffffffff1660e01b815260040160206040518083038186803b1580156129ca57600080fd5b505afa1580156129de573d6000803e3d6000fd5b505050506040513d601f19601f82011682018060405250810190612a029190615586565b90506000836040013590506000846060013590506000856080013590507fffffffffffffffffffffffffffffffffffffffffffffffffffffffffffffffff831415612af7577f000000000000000000000000000000000000000000000000000000000000000073ffffffffffffffffffffffffffffffffffffffff166382a2fb9c858a6040518363ffffffff1660e01b8152600401612aa292919061634f565b602060405180830381600087803b158015612abc57600080fd5b505af1158015612ad0573d6000803e3d6000fd5b505050506040513d601f19601f82011682018060405250810190612af49190615586565b92505b7fffffffffffffffffffffffffffffffffffffffffffffffffffffffffffffffff821415612bcf577f000000000000000000000000000000000000000000000000000000000000000073ffffffffffffffffffffffffffffffffffffffff166382a2fb9c85896040518363ffffffff1660e01b8152600401612b7a92919061634f565b602060405180830381600087803b158015612b9457600080fd5b505af1158015612ba8573d6000803e3d6000fd5b505050506040513d601f19601f82011682018060405250810190612bcc9190615586565b91505b7fffffffffffffffffffffffffffffffffffffffffffffffffffffffffffffffff811415612ca7577f000000000000000000000000000000000000000000000000000000000000000073ffffffffffffffffffffffffffffffffffffffff166382a2fb9c85876040518363ffffffff1660e01b8152600401612c5292919061634f565b602060405180830381600087803b158015612c6c57600080fd5b505af1158015612c80573d6000803e3d6000fd5b505050506040513d601f19601f82011682018060405250810190612ca49190615586565b90505b6000612d4887602001358773ffffffffffffffffffffffffffffffffffffffff166370a08231306040518263ffffffff1660e01b8152600401612cea9190615e24565b60206040518083038186803b158015612d0257600080fd5b505afa158015612d16573d6000803e3d6000fd5b505050506040513d601f19601f82011682018060405250810190612d3a9190615586565b6144f290919063ffffffff16565b90506000806000831115612e16577f000000000000000000000000000000000000000000000000000000000000000073ffffffffffffffffffffffffffffffffffffffff1663baa2abde8c8c8660008030426040518863ffffffff1660e01b8152600401612dbc9796959493929190615e68565b6040805180830381600087803b158015612dd557600080fd5b505af1158015612de9573d6000803e3d6000fd5b505050506040513d601f19601f82011682018060405250810190612e0d91906155af565b80925081935050505b6000612e2f8a60a001358861454290919063ffffffff16565b90506000612e4a8b60c001358861454290919063ffffffff16565b90508184108015612e5a57508083115b1561301a576060600267ffffffffffffffff81118015612e7957600080fd5b50604051908082528060200260200182016040528015612ea85781602001602082028036833780820191505090505b5090508c8e82600081518110612eba57fe5b6020026020010183600181518110612ece57fe5b602002602001018273ffffffffffffffffffffffffffffffffffffffff1673ffffffffffffffffffffffffffffffffffffffff168152508273ffffffffffffffffffffffffffffffffffffffff1673ffffffffffffffffffffffffffffffffffffffff1681525050507f000000000000000000000000000000000000000000000000000000000000000073ffffffffffffffffffffffffffffffffffffffff16638803dbee612f8687866144f290919063ffffffff16565b612f9985886144f290919063ffffffff16565b8430426040518663ffffffff1660e01b8152600401612fbc9594939291906163fb565b600060405180830381600087803b158015612fd657600080fd5b505af1158015612fea573d6000803e3d6000fd5b505050506040513d6000823e3d601f19601f820116820180604052508101906130139190615452565b50506131e5565b818411801561302857508083105b156131e4576060600267ffffffffffffffff8111801561304757600080fd5b506040519080825280602002602001820160405280156130765781602001602082028036833780820191505090505b5090508d8d8260008151811061308857fe5b602002602001018360018151811061309c57fe5b602002602001018273ffffffffffffffffffffffffffffffffffffffff1673ffffffffffffffffffffffffffffffffffffffff168152508273ffffffffffffffffffffffffffffffffffffffff1673ffffffffffffffffffffffffffffffffffffffff1681525050507f000000000000000000000000000000000000000000000000000000000000000073ffffffffffffffffffffffffffffffffffffffff16638803dbee61315486856144f290919063ffffffff16565b61316786896144f290919063ffffffff16565b8430426040518663ffffffff1660e01b815260040161318a9594939291906163fb565b600060405180830381600087803b1580156131a457600080fd5b505af11580156131b8573d6000803e3d6000fd5b505050506040513d6000823e3d601f19601f820116820180604052508101906131e19190615452565b50505b5b6131ef8d89614597565b6131f98c88614597565b6132038a87614597565b8a60a001358d73ffffffffffffffffffffffffffffffffffffffff166370a08231306040518263ffffffff1660e01b81526004016132419190615e24565b60206040518083038186803b15801561325957600080fd5b505afa15801561326d573d6000803e3d6000fd5b505050506040513d601f19601f820116820180604052508101906132919190615586565b101561329c57600080fd5b8a60c001358c73ffffffffffffffffffffffffffffffffffffffff166370a08231306040518263ffffffff1660e01b81526004016132da9190615e24565b60206040518083038186803b1580156132f257600080fd5b505afa158015613306573d6000803e3d6000fd5b505050506040513d601f19601f8201168201806040525081019061332a9190615586565b101561333557600080fd5b8a602001358a73ffffffffffffffffffffffffffffffffffffffff166370a08231306040518263ffffffff1660e01b81526004016133739190615e24565b60206040518083038186803b15801561338b57600080fd5b505afa15801561339f573d6000803e3d6000fd5b505050506040513d601f19601f820116820180604052508101906133c39190615586565b10156133ce57600080fd5b6133d6614038565b6133df8d613573565b6133e88c613573565b6133f18a613573565b50505050505050505050505050565b604160008373ffffffffffffffffffffffffffffffffffffffff1673ffffffffffffffffffffffffffffffffffffffff16815260200190815260200160002060008273ffffffffffffffffffffffffffffffffffffffff1673ffffffffffffffffffffffffffffffffffffffff16815260200190815260200160002060009054906101000a900460ff1661356f576134d9817fffffffffffffffffffffffffffffffffffffffffffffffffffffffffffffffff8473ffffffffffffffffffffffffffffffffffffffff166125199092919063ffffffff16565b6001604160008473ffffffffffffffffffffffffffffffffffffffff1673ffffffffffffffffffffffffffffffffffffffff16815260200190815260200160002060008373ffffffffffffffffffffffffffffffffffffffff1673ffffffffffffffffffffffffffffffffffffffff16815260200190815260200160002060006101000a81548160ff0219169083151502179055505b5050565b60008173ffffffffffffffffffffffffffffffffffffffff166370a08231306040518263ffffffff1660e01b81526004016135ae9190615e24565b60206040518083038186803b1580156135c657600080fd5b505afa1580156135da573d6000803e3d6000fd5b505050506040513d601f19601f820116820180604052508101906135fe9190615586565b905060008111156136d2576136d17f000000000000000000000000000000000000000000000000000000000000000073ffffffffffffffffffffffffffffffffffffffff1663630dc7cb6040518163ffffffff1660e01b815260040160206040518083038186803b15801561367257600080fd5b505afa158015613686573d6000803e3d6000fd5b505050506040513d601f19601f820116820180604052508101906136aa919061504f565b828473ffffffffffffffffffffffffffffffffffffffff1661465c9092919063ffffffff16565b5b5050565b608460008273ffffffffffffffffffffffffffffffffffffffff1673ffffffffffffffffffffffffffffffffffffffff16815260200190815260200160002060009054906101000a900460ff16613762576040517f08c379a0000000000000000000000000000000000000000000000000000000008152600401613759906161f4565b60405180910390fd5b61376a6146e2565b61377884836000013561476f565b61378683836020013561476f565b61379481836040013561476f565b6137a284836060013561480a565b6137b083836080013561480a565b6137be818360a0013561480a565b60008060008673ffffffffffffffffffffffffffffffffffffffff166370a08231306040518263ffffffff1660e01b81526004016137fc9190615e24565b60206040518083038186803b15801561381457600080fd5b505afa158015613828573d6000803e3d6000fd5b505050506040513d601f19601f8201168201806040525081019061384c9190615586565b905060008673ffffffffffffffffffffffffffffffffffffffff166370a08231306040518263ffffffff1660e01b81526004016138899190615e24565b60206040518083038186803b1580156138a157600080fd5b505afa1580156138b5573d6000803e3d6000fd5b505050506040513d601f19601f820116820180604052508101906138d99190615586565b90506000808973ffffffffffffffffffffffffffffffffffffffff168773ffffffffffffffffffffffffffffffffffffffff16630dfe16816040518163ffffffff1660e01b815260040160206040518083038186803b15801561393b57600080fd5b505afa15801561394f573d6000803e3d6000fd5b505050506040513d601f19601f82011682018060405250810190613973919061504f565b73ffffffffffffffffffffffffffffffffffffffff161415613a41578673ffffffffffffffffffffffffffffffffffffffff16630902f1ac6040518163ffffffff1660e01b815260040160606040518083038186803b1580156139d557600080fd5b505afa1580156139e9573d6000803e3d6000fd5b505050506040513d601f19601f82011682018060405250810190613a0d9190615537565b826dffffffffffffffffffffffffffff169250816dffffffffffffffffffffffffffff169150508092508193505050613aef565b8673ffffffffffffffffffffffffffffffffffffffff16630902f1ac6040518163ffffffff1660e01b815260040160606040518083038186803b158015613a8757600080fd5b505afa158015613a9b573d6000803e3d6000fd5b505050506040513d601f19601f82011682018060405250810190613abf9190615537565b826dffffffffffffffffffffffffffff169250816dffffffffffffffffffffffffffff1691505080935081925050505b613afb848484846148a5565b8096508197505050505050506000821115613cb1576060600267ffffffffffffffff81118015613b2a57600080fd5b50604051908082528060200260200182016040528015613b595781602001602082028036833780820191505090505b50905081613b68578686613b6b565b85875b82600081518110613b7857fe5b6020026020010183600181518110613b8c57fe5b602002602001018273ffffffffffffffffffffffffffffffffffffffff1673ffffffffffffffffffffffffffffffffffffffff168152508273ffffffffffffffffffffffffffffffffffffffff1673ffffffffffffffffffffffffffffffffffffffff1681525050507f000000000000000000000000000000000000000000000000000000000000000073ffffffffffffffffffffffffffffffffffffffff166338ed17398460008430426040518663ffffffff1660e01b8152600401613c57959493929190616378565b600060405180830381600087803b158015613c7157600080fd5b505af1158015613c85573d6000803e3d6000fd5b505050506040513d6000823e3d601f19601f82011682018060405250810190613cae9190615452565b50505b60008673ffffffffffffffffffffffffffffffffffffffff166370a08231306040518263ffffffff1660e01b8152600401613cec9190615e24565b60206040518083038186803b158015613d0457600080fd5b505afa158015613d18573d6000803e3d6000fd5b505050506040513d601f19601f82011682018060405250810190613d3c9190615586565b905060008673ffffffffffffffffffffffffffffffffffffffff166370a08231306040518263ffffffff1660e01b8152600401613d799190615e24565b60206040518083038186803b158015613d9157600080fd5b505afa158015613da5573d6000803e3d6000fd5b505050506040513d601f19601f82011682018060405250810190613dc99190615586565b90506000821180613dda5750600081115b15613ea4577f000000000000000000000000000000000000000000000000000000000000000073ffffffffffffffffffffffffffffffffffffffff1663e8e33700898985858b60c001358c60e0013530426040518963ffffffff1660e01b8152600401613e4e989796959493929190615ed7565b606060405180830381600087803b158015613e6857600080fd5b505af1158015613e7c573d6000803e3d6000fd5b505050506040513d601f19601f82011682018060405250810190613ea091906155eb565b5050505b5050505050505050565b600081111561403457613ee1827f0000000000000000000000000000000000000000000000000000000000000000613400565b7f000000000000000000000000000000000000000000000000000000000000000073ffffffffffffffffffffffffffffffffffffffff166340c10f1983836040518363ffffffff1660e01b8152600401613f3c929190615f55565b600060405180830381600087803b158015613f5657600080fd5b505af1158015613f6a573d6000803e3d6000fd5b505050507f000000000000000000000000000000000000000000000000000000000000000073ffffffffffffffffffffffffffffffffffffffff1663314568d97f00000000000000000000000000000000000000000000000000000000000000008473ffffffffffffffffffffffffffffffffffffffff16846040518463ffffffff1660e01b815260040161400193929190615f7e565b600060405180830381600087803b15801561401b57600080fd5b505af115801561402f573d6000803e3d6000fd5b505050505b5050565b60007f000000000000000000000000000000000000000000000000000000000000000073ffffffffffffffffffffffffffffffffffffffff166370a08231306040518263ffffffff1660e01b81526004016140939190615e24565b602060405180830381600087803b1580156140ad57600080fd5b505af11580156140c1573d6000803e3d6000fd5b505050506040513d601f19601f820116820180604052508101906140e59190615586565b90506000811115614313577f000000000000000000000000000000000000000000000000000000000000000073ffffffffffffffffffffffffffffffffffffffff16632e1a7d4d826040518263ffffffff1660e01b81526004016141499190616334565b600060405180830381600087803b15801561416357600080fd5b505af1158015614177573d6000803e3d6000fd5b5050505060007f000000000000000000000000000000000000000000000000000000000000000073ffffffffffffffffffffffffffffffffffffffff1663630dc7cb6040518163ffffffff1660e01b815260040160206040518083038186803b1580156141e357600080fd5b505afa1580156141f7573d6000803e3d6000fd5b505050506040513d601f19601f8201168201806040525081019061421b919061504f565b73ffffffffffffffffffffffffffffffffffffffff1682600067ffffffffffffffff8111801561424a57600080fd5b506040519080825280601f01601f19166020018201604052801561427d5781602001600182028036833780820191505090505b5060405161428b9190615df2565b60006040518083038185875af1925050503d80600081146142c8576040519150601f19603f3d011682016040523d82523d6000602084013e6142cd565b606091505b5050905080614311576040517f08c379a000000000000000000000000000000000000000000000000000000000815260040161430890616094565b60405180910390fd5b505b50565b6060614378826040518060400160405280602081526020017f5361666545524332303a206c6f772d6c6576656c2063616c6c206661696c65648152508573ffffffffffffffffffffffffffffffffffffffff1661268a9092919063ffffffff16565b90506000815111156143d8578080602001905181019061439891906154bc565b6143d7576040517f08c379a00000000000000000000000000000000000000000000000000000000081526004016143ce906162f4565b60405180910390fd5b5b505050565b606082471015614422576040517f08c379a000000000000000000000000000000000000000000000000000000000815260040161441990616134565b60405180910390fd5b61442b85612677565b61446a576040517f08c379a0000000000000000000000000000000000000000000000000000000008152600401614461906162b4565b60405180910390fd5b600060608673ffffffffffffffffffffffffffffffffffffffff1685876040516144949190615df2565b60006040518083038185875af1925050503d80600081146144d1576040519150601f19603f3d011682016040523d82523d6000602084013e6144d6565b606091505b50915091506144e6828286614906565b92505050949350505050565b600082821115614537576040517f08c379a000000000000000000000000000000000000000000000000000000000815260040161452e90616114565b60405180910390fd5b818303905092915050565b60008082840190508381101561458d576040517f08c379a0000000000000000000000000000000000000000000000000000000008152600401614584906160d4565b60405180910390fd5b8091505092915050565b6000811115614658576145ca827f0000000000000000000000000000000000000000000000000000000000000000613400565b7f000000000000000000000000000000000000000000000000000000000000000073ffffffffffffffffffffffffffffffffffffffff166322867d7883836040518363ffffffff1660e01b8152600401614625929190615f55565b600060405180830381600087803b15801561463f57600080fd5b505af1158015614653573d6000803e3d6000fd5b505050505b5050565b6146dd8363a9059cbb60e01b848460405160240161467b929190615f55565b604051602081830303815290604052907bffffffffffffffffffffffffffffffffffffffffffffffffffffffff19166020820180517bffffffffffffffffffffffffffffffffffffffffffffffffffffffff8381831617835250505050614316565b505050565b600034111561476d577f000000000000000000000000000000000000000000000000000000000000000073ffffffffffffffffffffffffffffffffffffffff1663d0e30db0346040518263ffffffff1660e01b81526004016000604051808303818588803b15801561475357600080fd5b505af1158015614767573d6000803e3d6000fd5b50505050505b565b6000811115614806577f000000000000000000000000000000000000000000000000000000000000000073ffffffffffffffffffffffffffffffffffffffff166348d6bbc283836040518363ffffffff1660e01b81526004016147d3929190615f55565b600060405180830381600087803b1580156147ed57600080fd5b505af1158015614801573d6000803e3d6000fd5b505050505b5050565b60008111156148a1577f000000000000000000000000000000000000000000000000000000000000000073ffffffffffffffffffffffffffffffffffffffff16634b8a352983836040518363ffffffff1660e01b815260040161486e929190615f55565b600060405180830381600087803b15801561488857600080fd5b505af115801561489c573d6000803e3d6000fd5b505050505b5050565b6000806148bb848661496d90919063ffffffff16565b6148ce848861496d90919063ffffffff16565b106148ea576148df868686866149dd565b9150600090506148fd565b6148f6858785876149dd565b9150600190505b94509492505050565b6060831561491657829050614966565b6000835111156149295782518084602001fd5b816040517f08c379a000000000000000000000000000000000000000000000000000000000815260040161495d9190616072565b60405180910390fd5b9392505050565b60008083141561498057600090506149d7565b600082840290508284828161499157fe5b04146149d2576040517f08c379a00000000000000000000000000000000000000000000000000000000081526004016149c990616234565b60405180910390fd5b809150505b92915050565b60006149f2838561496d90919063ffffffff16565b614a05838761496d90919063ffffffff16565b1015614a46576040517f08c379a0000000000000000000000000000000000000000000000000000000008152600401614a3d90616274565b60405180910390fd5b60006103e590506000614a64856107cd61496d90919063ffffffff16565b90506000614a9f614a7e878961496d90919063ffffffff16565b614a91878b61496d90919063ffffffff16565b6144f290919063ffffffff16565b90506000614aee87614ae0614abd898c61454290919063ffffffff16565b614ad26103e88761496d90919063ffffffff16565b614b9f90919063ffffffff16565b61496d90919063ffffffff16565b90506000614b186004614b0a848861496d90919063ffffffff16565b61496d90919063ffffffff16565b90506000614b49614b4483614b36888961496d90919063ffffffff16565b61454290919063ffffffff16565b614bf5565b90506000614b6086836144f290919063ffffffff16565b90506000614b7860028961496d90919063ffffffff16565b9050614b8d8183614b9f90919063ffffffff16565b98505050505050505050949350505050565b6000808211614be3576040517f08c379a0000000000000000000000000000000000000000000000000000000008152600401614bda90616154565b60405180910390fd5b818381614bec57fe5b04905092915050565b600080821415614c085760009050614d6d565b60008290506000600190507001000000000000000000000000000000008210614c3a57608082901c9150604081901b90505b680100000000000000008210614c5957604082901c9150602081901b90505b6401000000008210614c7457602082901c9150601081901b90505b620100008210614c8d57601082901c9150600881901b90505b6101008210614ca557600882901c9150600481901b90505b60108210614cbc57600482901c9150600281901b90505b60088210614ccc57600181901b90505b6001818581614cd757fe5b048201901c90506001818581614ce957fe5b048201901c90506001818581614cfb57fe5b048201901c90506001818581614d0d57fe5b048201901c90506001818581614d1f57fe5b048201901c90506001818581614d3157fe5b048201901c90506001818581614d4357fe5b048201901c90506000818581614d5557fe5b049050808210614d655780614d67565b815b93505050505b919050565b600081359050614d8181616705565b92915050565b600081519050614d9681616705565b92915050565b60008083601f840112614dae57600080fd5b8235905067ffffffffffffffff811115614dc757600080fd5b602083019150836020820283011115614ddf57600080fd5b9250929050565b60008083601f840112614df857600080fd5b8235905067ffffffffffffffff811115614e1157600080fd5b602083019150836020820283011115614e2957600080fd5b9250929050565b60008083601f840112614e4257600080fd5b8235905067ffffffffffffffff811115614e5b57600080fd5b602083019150836020820283011115614e7357600080fd5b9250929050565b600082601f830112614e8b57600080fd5b8151614e9e614e9982616482565b616455565b91508181835260208401935060208101905083856020840282011115614ec357600080fd5b60005b83811015614ef35781614ed98882614ffc565b845260208401935060208301925050600181019050614ec6565b5050505092915050565b600081359050614f0c8161671c565b92915050565b600081519050614f218161671c565b92915050565b600081359050614f3681616733565b92915050565b60008083601f840112614f4e57600080fd5b8235905067ffffffffffffffff811115614f6757600080fd5b602083019150836001820283011115614f7f57600080fd5b9250929050565b600081519050614f958161674a565b92915050565b60006101008284031215614fae57600080fd5b81905092915050565b600060e08284031215614fc957600080fd5b81905092915050565b600081519050614fe181616761565b92915050565b600081359050614ff681616778565b92915050565b60008151905061500b81616778565b92915050565b6000815190506150208161678f565b92915050565b60006020828403121561503857600080fd5b600061504684828501614d72565b91505092915050565b60006020828403121561506157600080fd5b600061506f84828501614d87565b91505092915050565b6000806040838503121561508b57600080fd5b600061509985828601614d72565b92505060206150aa85828601614d72565b9150509250929050565b60008060008060008060008060a0898b0312156150d057600080fd5b60006150de8b828c01614d72565b98505060206150ef8b828c01614d72565b975050604089013567ffffffffffffffff81111561510c57600080fd5b6151188b828c01614e30565b9650965050606089013567ffffffffffffffff81111561513757600080fd5b6151438b828c01614e30565b9450945050608089013567ffffffffffffffff81111561516257600080fd5b61516e8b828c01614f3c565b92509250509295985092959890939650565b6000806000610140848603121561519657600080fd5b60006151a486828701614d72565b93505060206151b586828701614d72565b92505060406151c686828701614f9b565b9150509250925092565b60008060008061016085870312156151e757600080fd5b60006151f587828801614d72565b945050602061520687828801614d72565b935050604061521787828801614f9b565b92505061014061522987828801614fe7565b91505092959194509250565b6000806000610120848603121561524b57600080fd5b600061525986828701614d72565b935050602061526a86828701614d72565b925050604061527b86828701614fb7565b9150509250925092565b6000806000806080858703121561529b57600080fd5b60006152a987828801614d87565b94505060206152ba87828801614d87565b93505060406152cb87828801614ffc565b92505060606152dc87828801614ffc565b91505092959194509250565b60008060008060008060a0878903121561530157600080fd5b600061530f89828a01614d72565b965050602061532089828a01614d72565b955050604061533189828a01614fe7565b945050606061534289828a01614fe7565b935050608087013567ffffffffffffffff81111561535f57600080fd5b61536b89828a01614f3c565b92509250509295509295509295565b6000806000806080858703121561539057600080fd5b600061539e87828801614d87565b94505060206153af87828801614ffc565b93505060406153c087828801614ffc565b92505060606153d187828801614ffc565b91505092959194509250565b600080600080604085870312156153f357600080fd5b600085013567ffffffffffffffff81111561540d57600080fd5b61541987828801614d9c565b9450945050602085013567ffffffffffffffff81111561543857600080fd5b61544487828801614de6565b925092505092959194509250565b60006020828403121561546457600080fd5b600082015167ffffffffffffffff81111561547e57600080fd5b61548a84828501614e7a565b91505092915050565b6000602082840312156154a557600080fd5b60006154b384828501614efd565b91505092915050565b6000602082840312156154ce57600080fd5b60006154dc84828501614f12565b91505092915050565b6000602082840312156154f757600080fd5b600061550584828501614f27565b91505092915050565b60006020828403121561552057600080fd5b600061552e84828501614f86565b91505092915050565b60008060006060848603121561554c57600080fd5b600061555a86828701614fd2565b935050602061556b86828701614fd2565b925050604061557c86828701615011565b9150509250925092565b60006020828403121561559857600080fd5b60006155a684828501614ffc565b91505092915050565b600080604083850312156155c257600080fd5b60006155d085828601614ffc565b92505060206155e185828601614ffc565b9150509250929050565b60008060006060848603121561560057600080fd5b600061560e86828701614ffc565b935050602061561f86828701614ffc565b925050604061563086828701614ffc565b9150509250925092565b60006156468383615661565b60208301905092915050565b61565b816165c5565b82525050565b61566a81616515565b82525050565b61567981616515565b82525050565b600061568a826164ba565b61569481856164e8565b935061569f836164aa565b8060005b838110156156d05781516156b7888261563a565b97506156c2836164db565b9250506001810190506156a3565b5085935050505092915050565b6156e681616527565b82525050565b6156f581616533565b82525050565b6000615706826164c5565b61571081856164f9565b93506157208185602086016166c1565b80840191505092915050565b615735816165d7565b82525050565b615744816165fb565b82525050565b6157538161661f565b82525050565b61576281616643565b82525050565b61577181616667565b82525050565b6157808161668b565b82525050565b6000615791826164d0565b61579b8185616504565b93506157ab8185602086016166c1565b6157b4816166f4565b840191505092915050565b60006157cc601183616504565b91507f726566756e6420455448206661696c65640000000000000000000000000000006000830152602082019050919050565b600061580c601883616504565b91507f6e6f74207468652070656e64696e6720676f7665726e6f7200000000000000006000830152602082019050919050565b600061584c601b83616504565b91507f536166654d6174683a206164646974696f6e206f766572666c6f7700000000006000830152602082019050919050565b600061588c601b83616504565b91507f6f7261636c65206e6f7420737570706f7274206c7020746f6b656e00000000006000830152602082019050919050565b60006158cc601e83616504565b91507f536166654d6174683a207375627472616374696f6e206f766572666c6f7700006000830152602082019050919050565b600061590c602683616504565b91507f416464726573733a20696e73756666696369656e742062616c616e636520666f60008301527f722063616c6c00000000000000000000000000000000000000000000000000006020830152604082019050919050565b6000615972601a83616504565b91507f536166654d6174683a206469766973696f6e206279207a65726f0000000000006000830152602082019050919050565b60006159b2601083616504565b91507f6e6f742074686520676f7665726e6f72000000000000000000000000000000006000830152602082019050919050565b60006159f2602583616504565b91507f6c70546f6b656e732026207374617475736573206c656e677468206d69736d6160008301527f74636865640000000000000000000000000000000000000000000000000000006020830152604082019050919050565b6000615a58600b83616504565b91507f6e6f206c7020746f6b656e0000000000000000000000000000000000000000006000830152602082019050919050565b6000615a98601283616504565b91507f696e636f7272656374206c7020746f6b656e00000000000000000000000000006000830152602082019050919050565b6000615ad8601883616504565b91507f6c7020746f6b656e206e6f742077686974656c697374656400000000000000006000830152602082019050919050565b6000615b18601783616504565b91507f455448206d75737420636f6d652066726f6d20574554480000000000000000006000830152602082019050919050565b6000615b58602183616504565b91507f536166654d6174683a206d756c7469706c69636174696f6e206f766572666c6f60008301527f77000000000000000000000000000000000000000000000000000000000000006020830152604082019050919050565b6000615bbe602983616504565b91507f636f6c6c61746572616c20746f6b656e202620776d617374657263686566206d60008301527f69736d61746368656400000000000000000000000000000000000000000000006020830152604082019050919050565b6000615c24600883616504565b91507f52657665727365640000000000000000000000000000000000000000000000006000830152602082019050919050565b6000615c64600d83616504565b91507f696e636f727265637420706964000000000000000000000000000000000000006000830152602082019050919050565b6000615ca4601d83616504565b91507f416464726573733a2063616c6c20746f206e6f6e2d636f6e74726163740000006000830152602082019050919050565b6000615ce4601483616504565b91507f696e636f727265637420756e6465726c79696e670000000000000000000000006000830152602082019050919050565b6000615d24602a83616504565b91507f5361666545524332303a204552433230206f7065726174696f6e20646964206e60008301527f6f742073756363656564000000000000000000000000000000000000000000006020830152604082019050919050565b6000615d8a603683616504565b91507f5361666545524332303a20617070726f76652066726f6d206e6f6e2d7a65726f60008301527f20746f206e6f6e2d7a65726f20616c6c6f77616e6365000000000000000000006020830152604082019050919050565b615dec816165ab565b82525050565b6000615dfe82846156fb565b915081905092915050565b6000602082019050615e1e6000830184615670565b92915050565b6000602082019050615e396000830184615652565b92915050565b6000604082019050615e546000830185615670565b615e616020830184615670565b9392505050565b600060e082019050615e7d600083018a615670565b615e8a6020830189615670565b615e976040830188615de3565b615ea46060830187615777565b615eb16080830186615777565b615ebe60a0830185615652565b615ecb60c0830184615de3565b98975050505050505050565b600061010082019050615eed600083018b615670565b615efa602083018a615670565b615f076040830189615de3565b615f146060830188615de3565b615f216080830187615de3565b615f2e60a0830186615de3565b615f3b60c0830185615652565b615f4860e0830184615de3565b9998505050505050505050565b6000604082019050615f6a6000830185615670565b615f776020830184615de3565b9392505050565b6000606082019050615f936000830186615670565b615fa06020830185615de3565b615fad6040830184615de3565b949350505050565b6000602082019050615fca60008301846156dd565b92915050565b6000602082019050615fe560008301846156ec565b92915050565b6000602082019050616000600083018461572c565b92915050565b600060208201905061601b600083018461573b565b92915050565b6000602082019050616036600083018461574a565b92915050565b60006020820190506160516000830184615759565b92915050565b600060208201905061606c6000830184615768565b92915050565b6000602082019050818103600083015261608c8184615786565b905092915050565b600060208201905081810360008301526160ad816157bf565b9050919050565b600060208201905081810360008301526160cd816157ff565b9050919050565b600060208201905081810360008301526160ed8161583f565b9050919050565b6000602082019050818103600083015261610d8161587f565b9050919050565b6000602082019050818103600083015261612d816158bf565b9050919050565b6000602082019050818103600083015261614d816158ff565b9050919050565b6000602082019050818103600083015261616d81615965565b9050919050565b6000602082019050818103600083015261618d816159a5565b9050919050565b600060208201905081810360008301526161ad816159e5565b9050919050565b600060208201905081810360008301526161cd81615a4b565b9050919050565b600060208201905081810360008301526161ed81615a8b565b9050919050565b6000602082019050818103600083015261620d81615acb565b9050919050565b6000602082019050818103600083015261622d81615b0b565b9050919050565b6000602082019050818103600083015261624d81615b4b565b9050919050565b6000602082019050818103600083015261626d81615bb1565b9050919050565b6000602082019050818103600083015261628d81615c17565b9050919050565b600060208201905081810360008301526162ad81615c57565b9050919050565b600060208201905081810360008301526162cd81615c97565b9050919050565b600060208201905081810360008301526162ed81615cd7565b9050919050565b6000602082019050818103600083015261630d81615d17565b9050919050565b6000602082019050818103600083015261632d81615d7d565b9050919050565b60006020820190506163496000830184615de3565b92915050565b60006040820190506163646000830185615de3565b6163716020830184615670565b9392505050565b600060a08201905061638d6000830188615de3565b61639a6020830187615777565b81810360408301526163ac818661567f565b90506163bb6060830185615652565b6163c86080830184615de3565b9695505050505050565b60006040820190506163e76000830185615de3565b6163f46020830184615de3565b9392505050565b600060a0820190506164106000830188615de3565b61641d6020830187615de3565b818103604083015261642f818661567f565b905061643e6060830185615652565b61644b6080830184615de3565b9695505050505050565b6000604051905081810181811067ffffffffffffffff8211171561647857600080fd5b8060405250919050565b600067ffffffffffffffff82111561649957600080fd5b602082029050602081019050919050565b6000819050602082019050919050565b600081519050919050565b600081519050919050565b600081519050919050565b6000602082019050919050565b600082825260208201905092915050565b600081905092915050565b600082825260208201905092915050565b60006165208261658b565b9050919050565b60008115159050919050565b60007fffffffff0000000000000000000000000000000000000000000000000000000082169050919050565b600061656a82616515565b9050919050565b60006dffffffffffffffffffffffffffff82169050919050565b600073ffffffffffffffffffffffffffffffffffffffff82169050919050565b6000819050919050565b600063ffffffff82169050919050565b60006165d08261669d565b9050919050565b60006165e2826165e9565b9050919050565b60006165f48261658b565b9050919050565b60006166068261660d565b9050919050565b60006166188261658b565b9050919050565b600061662a82616631565b9050919050565b600061663c8261658b565b9050919050565b600061664e82616655565b9050919050565b60006166608261658b565b9050919050565b600061667282616679565b9050919050565b60006166848261658b565b9050919050565b6000616696826165ab565b9050919050565b60006166a8826166af565b9050919050565b60006166ba8261658b565b9050919050565b60005b838110156166df5780820151818401526020810190506166c4565b838111156166ee576000848401525b50505050565b6000601f19601f8301169050919050565b61670e81616515565b811461671957600080fd5b50565b61672581616527565b811461673057600080fd5b50565b61673c81616533565b811461674757600080fd5b50565b6167538161655f565b811461675e57600080fd5b50565b61676a81616571565b811461677557600080fd5b50565b616781816165ab565b811461678c57600080fd5b50565b616798816165b5565b81146167a357600080fd5b5056fea2646970667358221220e8b512984c1106ddb399a90bde3213d7a2879eb33921dcab5ff65a5a6533629c64736f6c634300060c0033",
  "linkReferences": {},
  "deployedLinkReferences": {}
}