{
  "_format": "hh-sol-artifact-1",
  "contractName": "ChainlinkAdapterOracle",
  "sourceName": "contracts/oracle/ChainlinkAdapterOracle.sol",
  "abi": [
    {
      "inputs": [],
      "stateMutability": "nonpayable",
      "type": "constructor"
    },
    {
      "anonymous": false,
      "inputs": [
        {
          "indexed": false,
          "internalType": "address",
          "name": "governor",
          "type": "address"
        }
      ],
      "name": "AcceptGovernor",
      "type": "event"
    },
    {
      "anonymous": false,
      "inputs": [
        {
          "indexed": false,
          "internalType": "address",
          "name": "governor",
          "type": "address"
        }
      ],
      "name": "SetGovernor",
      "type": "event"
    },
    {
      "anonymous": false,
      "inputs": [
        {
          "indexed": false,
          "internalType": "address",
          "name": "token",
          "type": "address"
        },
        {
          "indexed": false,
          "internalType": "uint256",
          "name": "maxDelayTime",
          "type": "uint256"
        }
      ],
      "name": "SetMaxDelayTime",
      "type": "event"
    },
    {
      "anonymous": false,
      "inputs": [
        {
          "indexed": false,
          "internalType": "address",
          "name": "pendingGovernor",
          "type": "address"
        }
      ],
      "name": "SetPendingGovernor",
      "type": "event"
    },
    {
      "anonymous": false,
      "inputs": [
        {
          "indexed": false,
          "internalType": "address",
          "name": "token",
          "type": "address"
        },
        {
          "indexed": false,
          "internalType": "address",
          "name": "ref",
          "type": "address"
        }
      ],
      "name": "SetRefETH",
      "type": "event"
    },
    {
      "anonymous": false,
      "inputs": [
        {
          "indexed": false,
          "internalType": "address",
          "name": "ref",
          "type": "address"
        }
      ],
      "name": "SetRefETHUSD",
      "type": "event"
    },
    {
      "anonymous": false,
      "inputs": [
        {
          "indexed": false,
          "internalType": "address",
          "name": "token",
          "type": "address"
        },
        {
          "indexed": false,
          "internalType": "address",
          "name": "ref",
          "type": "address"
        }
      ],
      "name": "SetRefUSD",
      "type": "event"
    },
    {
      "inputs": [],
      "name": "WETH",
      "outputs": [
        {
          "internalType": "address",
          "name": "",
          "type": "address"
        }
      ],
      "stateMutability": "view",
      "type": "function"
    },
    {
      "inputs": [],
      "name": "acceptGovernor",
      "outputs": [],
      "stateMutability": "nonpayable",
      "type": "function"
    },
    {
      "inputs": [
        {
          "internalType": "address",
          "name": "token",
          "type": "address"
        }
      ],
      "name": "getETHPx",
      "outputs": [
        {
          "internalType": "uint256",
          "name": "",
          "type": "uint256"
        }
      ],
      "stateMutability": "view",
      "type": "function"
    },
    {
      "inputs": [],
      "name": "governor",
      "outputs": [
        {
          "internalType": "address",
          "name": "",
          "type": "address"
        }
      ],
      "stateMutability": "view",
      "type": "function"
    },
    {
      "inputs": [
        {
          "internalType": "address",
          "name": "",
          "type": "address"
        }
      ],
      "name": "maxDelayTimes",
      "outputs": [
        {
          "internalType": "uint256",
          "name": "",
          "type": "uint256"
        }
      ],
      "stateMutability": "view",
      "type": "function"
    },
    {
      "inputs": [],
      "name": "pendingGovernor",
      "outputs": [
        {
          "internalType": "address",
          "name": "",
          "type": "address"
        }
      ],
      "stateMutability": "view",
      "type": "function"
    },
    {
      "inputs": [],
      "name": "refETHUSD",
      "outputs": [
        {
          "internalType": "address",
          "name": "",
          "type": "address"
        }
      ],
      "stateMutability": "view",
      "type": "function"
    },
    {
      "inputs": [
        {
          "internalType": "address",
          "name": "",
          "type": "address"
        }
      ],
      "name": "refsETH",
      "outputs": [
        {
          "internalType": "address",
          "name": "",
          "type": "address"
        }
      ],
      "stateMutability": "view",
      "type": "function"
    },
    {
      "inputs": [
        {
          "internalType": "address",
          "name": "",
          "type": "address"
        }
      ],
      "name": "refsUSD",
      "outputs": [
        {
          "internalType": "address",
          "name": "",
          "type": "address"
        }
      ],
      "stateMutability": "view",
      "type": "function"
    },
    {
      "inputs": [
        {
          "internalType": "address[]",
          "name": "tokens",
          "type": "address[]"
        },
        {
          "internalType": "uint256[]",
          "name": "maxDelays",
          "type": "uint256[]"
        }
      ],
      "name": "setMaxDelayTimes",
      "outputs": [],
      "stateMutability": "nonpayable",
      "type": "function"
    },
    {
      "inputs": [
        {
          "internalType": "address",
          "name": "_pendingGovernor",
          "type": "address"
        }
      ],
      "name": "setPendingGovernor",
      "outputs": [],
      "stateMutability": "nonpayable",
      "type": "function"
    },
    {
      "inputs": [
        {
          "internalType": "address",
          "name": "_refETHUSD",
          "type": "address"
        }
      ],
      "name": "setRefETHUSD",
      "outputs": [],
      "stateMutability": "nonpayable",
      "type": "function"
    },
    {
      "inputs": [
        {
          "internalType": "address[]",
          "name": "tokens",
          "type": "address[]"
        },
        {
          "internalType": "address[]",
          "name": "refs",
          "type": "address[]"
        }
      ],
      "name": "setRefsETH",
      "outputs": [],
      "stateMutability": "nonpayable",
      "type": "function"
    },
    {
      "inputs": [
        {
          "internalType": "address[]",
          "name": "tokens",
          "type": "address[]"
        },
        {
          "internalType": "address[]",
          "name": "refs",
          "type": "address[]"
        }
      ],
      "name": "setRefsUSD",
      "outputs": [],
      "stateMutability": "nonpayable",
      "type": "function"
    }
  ],
  "bytecode": "0x6080604052735f4ec3df9cbd43714fe2740f5e3616155c5b8419604260006101000a81548173ffffffffffffffffffffffffffffffffffffffff021916908373ffffffffffffffffffffffffffffffffffffffff1602179055503480156200006657600080fd5b50620000776200007d60201b60201c565b6200028a565b600060019054906101000a900460ff1680620000a55750620000a46200025960201b60201c565b5b80620000bc575060008054906101000a900460ff16155b62000113576040517f08c379a000000000000000000000000000000000000000000000000000000000815260040180806020018281038252602e8152602001806200206c602e913960400191505060405180910390fd5b60008060019054906101000a900460ff16159050801562000164576001600060016101000a81548160ff02191690831515021790555060016000806101000a81548160ff0219169083151502179055505b33600060026101000a81548173ffffffffffffffffffffffffffffffffffffffff021916908373ffffffffffffffffffffffffffffffffffffffff1602179055506000600160006101000a81548173ffffffffffffffffffffffffffffffffffffffff021916908373ffffffffffffffffffffffffffffffffffffffff1602179055507fbce074c8369e26e70e1ae2f14fc944da352cfe6f52e2de9572f0c9942a24b7fc33604051808273ffffffffffffffffffffffffffffffffffffffff16815260200191505060405180910390a18015620002565760008060016101000a81548160ff0219169083151502179055505b50565b600062000271306200027760201b62001b901760201c565b15905090565b600080823b905060008111915050919050565b611dd2806200029a6000396000f3fe608060405234801561001057600080fd5b50600436106100ea5760003560e01c8063bc5da4a81161008c578063e11ca34511610066578063e11ca34514610557578063e3056a34146105c5578063e58bb639146105f9578063f235757f14610603576100ea565b8063bc5da4a8146103e7578063d66e6dd31461041b578063d870536514610489576100ea565b80637a8ee0d1116100c85780637a8ee0d114610235578063ab9aadfe14610303578063ad5c46481461035b578063ae23e6c71461038f576100ea565b80630c340a24146100ef57806313b4b9121461012357806315bbf486146101f1575b600080fd5b6100f7610647565b604051808273ffffffffffffffffffffffffffffffffffffffff16815260200191505060405180910390f35b6101ef6004803603604081101561013957600080fd5b810190808035906020019064010000000081111561015657600080fd5b82018360208201111561016857600080fd5b8035906020019184602083028401116401000000008311171561018a57600080fd5b9091929391929390803590602001906401000000008111156101ab57600080fd5b8201836020820111156101bd57600080fd5b803590602001918460208302840111640100000000831117156101df57600080fd5b909192939192939050505061066d565b005b6102336004803603602081101561020757600080fd5b81019080803573ffffffffffffffffffffffffffffffffffffffff1690602001909291905050506108bd565b005b6103016004803603604081101561024b57600080fd5b810190808035906020019064010000000081111561026857600080fd5b82018360208201111561027a57600080fd5b8035906020019184602083028401116401000000008311171561029c57600080fd5b9091929391929390803590602001906401000000008111156102bd57600080fd5b8201836020820111156102cf57600080fd5b803590602001918460208302840111640100000000831117156102f157600080fd5b9091929391929390505050610a11565b005b6103456004803603602081101561031957600080fd5b81019080803573ffffffffffffffffffffffffffffffffffffffff169060200190929190505050610cfa565b6040518082815260200191505060405180910390f35b6103636114dc565b604051808273ffffffffffffffffffffffffffffffffffffffff16815260200191505060405180910390f35b6103d1600480360360208110156103a557600080fd5b81019080803573ffffffffffffffffffffffffffffffffffffffff1690602001909291905050506114f4565b6040518082815260200191505060405180910390f35b6103ef61150c565b604051808273ffffffffffffffffffffffffffffffffffffffff16815260200191505060405180910390f35b61045d6004803603602081101561043157600080fd5b81019080803573ffffffffffffffffffffffffffffffffffffffff169060200190929190505050611532565b604051808273ffffffffffffffffffffffffffffffffffffffff16815260200191505060405180910390f35b6105556004803603604081101561049f57600080fd5b81019080803590602001906401000000008111156104bc57600080fd5b8201836020820111156104ce57600080fd5b803590602001918460208302840111640100000000831117156104f057600080fd5b90919293919293908035906020019064010000000081111561051157600080fd5b82018360208201111561052357600080fd5b8035906020019184602083028401116401000000008311171561054557600080fd5b9091929391929390505050611565565b005b6105996004803603602081101561056d57600080fd5b81019080803573ffffffffffffffffffffffffffffffffffffffff16906020019092919050505061184e565b604051808273ffffffffffffffffffffffffffffffffffffffff16815260200191505060405180910390f35b6105cd611881565b604051808273ffffffffffffffffffffffffffffffffffffffff16815260200191505060405180910390f35b6106016118a7565b005b6106456004803603602081101561061957600080fd5b81019080803573ffffffffffffffffffffffffffffffffffffffff169060200190929190505050611a3c565b005b600060029054906101000a900473ffffffffffffffffffffffffffffffffffffffff1681565b600060029054906101000a900473ffffffffffffffffffffffffffffffffffffffff1673ffffffffffffffffffffffffffffffffffffffff163373ffffffffffffffffffffffffffffffffffffffff1614610730576040517f08c379a00000000000000000000000000000000000000000000000000000000081526004018080602001828103825260108152602001807f6e6f742074686520676f7665726e6f720000000000000000000000000000000081525060200191505060405180910390fd5b81819050848490501461078e576040517f08c379a0000000000000000000000000000000000000000000000000000000008152600401808060200182810382526024815260200180611d576024913960400191505060405180910390fd5b60005b848490508110156108b6578282828181106107a857fe5b90506020020135604560008787858181106107bf57fe5b9050602002013573ffffffffffffffffffffffffffffffffffffffff1673ffffffffffffffffffffffffffffffffffffffff1673ffffffffffffffffffffffffffffffffffffffff168152602001908152602001600020819055507f5fe358b614d2e3423b34c6ee8a708b2784b1d624ebe8376e9154e9154667aea985858381811061084757fe5b9050602002013573ffffffffffffffffffffffffffffffffffffffff1684848481811061087057fe5b90506020020135604051808373ffffffffffffffffffffffffffffffffffffffff1681526020018281526020019250505060405180910390a18080600101915050610791565b5050505050565b600060029054906101000a900473ffffffffffffffffffffffffffffffffffffffff1673ffffffffffffffffffffffffffffffffffffffff163373ffffffffffffffffffffffffffffffffffffffff1614610980576040517f08c379a00000000000000000000000000000000000000000000000000000000081526004018080602001828103825260108152602001807f6e6f742074686520676f7665726e6f720000000000000000000000000000000081525060200191505060405180910390fd5b80604260006101000a81548173ffffffffffffffffffffffffffffffffffffffff021916908373ffffffffffffffffffffffffffffffffffffffff1602179055507f43615bc2ab4aade0e9b2548b58f57efef1a52d6edab989c0a31da40736221fef81604051808273ffffffffffffffffffffffffffffffffffffffff16815260200191505060405180910390a150565b600060029054906101000a900473ffffffffffffffffffffffffffffffffffffffff1673ffffffffffffffffffffffffffffffffffffffff163373ffffffffffffffffffffffffffffffffffffffff1614610ad4576040517f08c379a00000000000000000000000000000000000000000000000000000000081526004018080602001828103825260108152602001807f6e6f742074686520676f7665726e6f720000000000000000000000000000000081525060200191505060405180910390fd5b818190508484905014610b4f576040517f08c379a000000000000000000000000000000000000000000000000000000000815260040180806020018281038252601f8152602001807f746f6b656e7320262072656673206c656e677468206d69736d6174636865640081525060200191505060405180910390fd5b60005b84849050811015610cf357828282818110610b6957fe5b9050602002013573ffffffffffffffffffffffffffffffffffffffff1660446000878785818110610b9657fe5b9050602002013573ffffffffffffffffffffffffffffffffffffffff1673ffffffffffffffffffffffffffffffffffffffff1673ffffffffffffffffffffffffffffffffffffffff16815260200190815260200160002060006101000a81548173ffffffffffffffffffffffffffffffffffffffff021916908373ffffffffffffffffffffffffffffffffffffffff1602179055507f46bbbfcfc64c70ad5e1c16de2a245567c8c7590478fe1c4b9a2e3e2ab80b51cf858583818110610c5857fe5b9050602002013573ffffffffffffffffffffffffffffffffffffffff16848484818110610c8157fe5b9050602002013573ffffffffffffffffffffffffffffffffffffffff16604051808373ffffffffffffffffffffffffffffffffffffffff1681526020018273ffffffffffffffffffffffffffffffffffffffff1681526020019250505060405180910390a18080600101915050610b52565b5050505050565b600073c02aaa39b223fe8d0a0e5c4f27ead9083c756cc273ffffffffffffffffffffffffffffffffffffffff168273ffffffffffffffffffffffffffffffffffffffff161480610d89575073eeeeeeeeeeeeeeeeeeeeeeeeeeeeeeeeeeeeeeee73ffffffffffffffffffffffffffffffffffffffff168273ffffffffffffffffffffffffffffffffffffffff16145b15610da5576e01000000000000000000000000000090506114d7565b60008273ffffffffffffffffffffffffffffffffffffffff1663313ce5676040518163ffffffff1660e01b815260040160206040518083038186803b158015610ded57600080fd5b505afa158015610e01573d6000803e3d6000fd5b505050506040513d6020811015610e1757600080fd5b810190808051906020019092919050505060ff1690506000604560008573ffffffffffffffffffffffffffffffffffffffff1673ffffffffffffffffffffffffffffffffffffffff1681526020019081526020016000205490506000811415610ee8576040517f08c379a00000000000000000000000000000000000000000000000000000000081526004018080602001828103825260168152602001807f6d61782064656c61792074696d65206e6f74207365740000000000000000000081525060200191505060405180910390fd5b6000604360008673ffffffffffffffffffffffffffffffffffffffff1673ffffffffffffffffffffffffffffffffffffffff16815260200190815260200160002060009054906101000a900473ffffffffffffffffffffffffffffffffffffffff169050600073ffffffffffffffffffffffffffffffffffffffff168173ffffffffffffffffffffffffffffffffffffffff16146110fe576000808273ffffffffffffffffffffffffffffffffffffffff1663feaf968c6040518163ffffffff1660e01b815260040160a06040518083038186803b158015610fc957600080fd5b505afa158015610fdd573d6000803e3d6000fd5b505050506040513d60a0811015610ff357600080fd5b810190808051906020019092919080519060200190929190805190602001909291908051906020019092919080519060200190929190505050509350509250506110468442611ba390919063ffffffff16565b8110156110bb576040517f08c379a00000000000000000000000000000000000000000000000000000000081526004018080602001828103825260138152602001807f64656c61796564207570646174652074696d650000000000000000000000000081525060200191505060405180910390fd5b6110f285600a0a6110e46e01000000000000000000000000000085611c2690919063ffffffff16565b611cac90919063ffffffff16565b955050505050506114d7565b6000604460008773ffffffffffffffffffffffffffffffffffffffff1673ffffffffffffffffffffffffffffffffffffffff16815260200190815260200160002060009054906101000a900473ffffffffffffffffffffffffffffffffffffffff169050600073ffffffffffffffffffffffffffffffffffffffff168173ffffffffffffffffffffffffffffffffffffffff1614611486576000808273ffffffffffffffffffffffffffffffffffffffff1663feaf968c6040518163ffffffff1660e01b815260040160a06040518083038186803b1580156111df57600080fd5b505afa1580156111f3573d6000803e3d6000fd5b505050506040513d60a081101561120957600080fd5b8101908080519060200190929190805190602001909291908051906020019092919080519060200190929190805190602001909291905050505093505092505061125c8542611ba390919063ffffffff16565b8110156112d1576040517f08c379a00000000000000000000000000000000000000000000000000000000081526004018080602001828103825260138152602001807f64656c61796564207570646174652074696d650000000000000000000000000081525060200191505060405180910390fd5b600080604260009054906101000a900473ffffffffffffffffffffffffffffffffffffffff1673ffffffffffffffffffffffffffffffffffffffff1663feaf968c6040518163ffffffff1660e01b815260040160a06040518083038186803b15801561133c57600080fd5b505afa158015611350573d6000803e3d6000fd5b505050506040513d60a081101561136657600080fd5b810190808051906020019092919080519060200190929190805190602001909291908051906020019092919080519060200190929190505050509350509250506113b98742611ba390919063ffffffff16565b81101561142e576040517f08c379a000000000000000000000000000000000000000000000000000000000815260040180806020018281038252601b8152602001807f64656c61796564206574682d757364207570646174652074696d65000000000081525060200191505060405180910390fd5b61147788600a0a6114698461145b6e01000000000000000000000000000089611c2690919063ffffffff16565b611cac90919063ffffffff16565b611cac90919063ffffffff16565b985050505050505050506114d7565b6040517f08c379a0000000000000000000000000000000000000000000000000000000008152600401808060200182810382526022815260200180611d7b6022913960400191505060405180910390fd5b919050565b73c02aaa39b223fe8d0a0e5c4f27ead9083c756cc281565b60456020528060005260406000206000915090505481565b604260009054906101000a900473ffffffffffffffffffffffffffffffffffffffff1681565b60436020528060005260406000206000915054906101000a900473ffffffffffffffffffffffffffffffffffffffff1681565b600060029054906101000a900473ffffffffffffffffffffffffffffffffffffffff1673ffffffffffffffffffffffffffffffffffffffff163373ffffffffffffffffffffffffffffffffffffffff1614611628576040517f08c379a00000000000000000000000000000000000000000000000000000000081526004018080602001828103825260108152602001807f6e6f742074686520676f7665726e6f720000000000000000000000000000000081525060200191505060405180910390fd5b8181905084849050146116a3576040517f08c379a000000000000000000000000000000000000000000000000000000000815260040180806020018281038252601f8152602001807f746f6b656e7320262072656673206c656e677468206d69736d6174636865640081525060200191505060405180910390fd5b60005b84849050811015611847578282828181106116bd57fe5b9050602002013573ffffffffffffffffffffffffffffffffffffffff16604360008787858181106116ea57fe5b9050602002013573ffffffffffffffffffffffffffffffffffffffff1673ffffffffffffffffffffffffffffffffffffffff1673ffffffffffffffffffffffffffffffffffffffff16815260200190815260200160002060006101000a81548173ffffffffffffffffffffffffffffffffffffffff021916908373ffffffffffffffffffffffffffffffffffffffff1602179055507f51cebb267ae585eca2addd0058e2ebe47f31057e50eeb80feedde090622f1e888585838181106117ac57fe5b9050602002013573ffffffffffffffffffffffffffffffffffffffff168484848181106117d557fe5b9050602002013573ffffffffffffffffffffffffffffffffffffffff16604051808373ffffffffffffffffffffffffffffffffffffffff1681526020018273ffffffffffffffffffffffffffffffffffffffff1681526020019250505060405180910390a180806001019150506116a6565b5050505050565b60446020528060005260406000206000915054906101000a900473ffffffffffffffffffffffffffffffffffffffff1681565b600160009054906101000a900473ffffffffffffffffffffffffffffffffffffffff1681565b600160009054906101000a900473ffffffffffffffffffffffffffffffffffffffff1673ffffffffffffffffffffffffffffffffffffffff163373ffffffffffffffffffffffffffffffffffffffff161461196a576040517f08c379a00000000000000000000000000000000000000000000000000000000081526004018080602001828103825260188152602001807f6e6f74207468652070656e64696e6720676f7665726e6f72000000000000000081525060200191505060405180910390fd5b6000600160006101000a81548173ffffffffffffffffffffffffffffffffffffffff021916908373ffffffffffffffffffffffffffffffffffffffff16021790555033600060026101000a81548173ffffffffffffffffffffffffffffffffffffffff021916908373ffffffffffffffffffffffffffffffffffffffff1602179055507fd345d81ce68c70b119a17eee79dc1421700bd9cb21ca148a62dc90983964e82f33604051808273ffffffffffffffffffffffffffffffffffffffff16815260200191505060405180910390a1565b600060029054906101000a900473ffffffffffffffffffffffffffffffffffffffff1673ffffffffffffffffffffffffffffffffffffffff163373ffffffffffffffffffffffffffffffffffffffff1614611aff576040517f08c379a00000000000000000000000000000000000000000000000000000000081526004018080602001828103825260108152602001807f6e6f742074686520676f7665726e6f720000000000000000000000000000000081525060200191505060405180910390fd5b80600160006101000a81548173ffffffffffffffffffffffffffffffffffffffff021916908373ffffffffffffffffffffffffffffffffffffffff1602179055507f964dea888b00b2ab53f13dfe7ca334b46e99338c222ae232d98547a1da019f6081604051808273ffffffffffffffffffffffffffffffffffffffff16815260200191505060405180910390a150565b600080823b905060008111915050919050565b600082821115611c1b576040517f08c379a000000000000000000000000000000000000000000000000000000000815260040180806020018281038252601e8152602001807f536166654d6174683a207375627472616374696f6e206f766572666c6f77000081525060200191505060405180910390fd5b818303905092915050565b600080831415611c395760009050611ca6565b6000828402905082848281611c4a57fe5b0414611ca1576040517f08c379a0000000000000000000000000000000000000000000000000000000008152600401808060200182810382526021815260200180611d366021913960400191505060405180910390fd5b809150505b92915050565b6000808211611d23576040517f08c379a000000000000000000000000000000000000000000000000000000000815260040180806020018281038252601a8152602001807f536166654d6174683a206469766973696f6e206279207a65726f00000000000081525060200191505060405180910390fd5b818381611d2c57fe5b0490509291505056fe536166654d6174683a206d756c7469706c69636174696f6e206f766572666c6f77746f6b656e732026206d617844656c617973206c656e677468206d69736d6174636865646e6f2076616c6964207072696365207265666572656e636520666f7220746f6b656ea26469706673582212202e90c6a54064cb8cc707e9a5ca7ae04080ecc29bbf6bb087d1d4c5f730604b2264736f6c634300060c0033496e697469616c697a61626c653a20636f6e747261637420697320616c726561647920696e697469616c697a6564",
  "linkReferences": {},
  "deployedLinkReferences": {}
}