{
  "_format": "hh-sol-artifact-1",
  "contractName": "BaseKP3ROracle",
  "sourceName": "contracts/oracle/BaseKP3ROracle.sol",
  "abi": [
    {
      "inputs": [
        {
          "internalType": "contract IKeep3rV1Oracle",
          "name": "_kp3r",
          "type": "address"
        }
      ],
      "stateMutability": "nonpayable",
      "type": "constructor"
    },
    {
      "inputs": [],
      "name": "MAX_TWAP_TIME",
      "outputs": [
        {
          "internalType": "uint256",
          "name": "",
          "type": "uint256"
        }
      ],
      "stateMutability": "view",
      "type": "function"
    },
    {
      "inputs": [],
      "name": "MIN_TWAP_TIME",
      "outputs": [
        {
          "internalType": "uint256",
          "name": "",
          "type": "uint256"
        }
      ],
      "stateMutability": "view",
      "type": "function"
    },
    {
      "inputs": [
        {
          "internalType": "address",
          "name": "pair",
          "type": "address"
        }
      ],
      "name": "currentPx0Cumu",
      "outputs": [
        {
          "internalType": "uint256",
          "name": "px0Cumu",
          "type": "uint256"
        }
      ],
      "stateMutability": "view",
      "type": "function"
    },
    {
      "inputs": [
        {
          "internalType": "address",
          "name": "pair",
          "type": "address"
        }
      ],
      "name": "currentPx1Cumu",
      "outputs": [
        {
          "internalType": "uint256",
          "name": "px1Cumu",
          "type": "uint256"
        }
      ],
      "stateMutability": "view",
      "type": "function"
    },
    {
      "inputs": [],
      "name": "factory",
      "outputs": [
        {
          "internalType": "address",
          "name": "",
          "type": "address"
        }
      ],
      "stateMutability": "view",
      "type": "function"
    },
    {
      "inputs": [],
      "name": "kp3r",
      "outputs": [
        {
          "internalType": "contract IKeep3rV1Oracle",
          "name": "",
          "type": "address"
        }
      ],
      "stateMutability": "view",
      "type": "function"
    },
    {
      "inputs": [
        {
          "internalType": "address",
          "name": "pair",
          "type": "address"
        }
      ],
      "name": "price0TWAP",
      "outputs": [
        {
          "internalType": "uint256",
          "name": "",
          "type": "uint256"
        }
      ],
      "stateMutability": "view",
      "type": "function"
    },
    {
      "inputs": [
        {
          "internalType": "address",
          "name": "pair",
          "type": "address"
        }
      ],
      "name": "price1TWAP",
      "outputs": [
        {
          "internalType": "uint256",
          "name": "",
          "type": "uint256"
        }
      ],
      "stateMutability": "view",
      "type": "function"
    },
    {
      "inputs": [],
      "name": "weth",
      "outputs": [
        {
          "internalType": "address",
          "name": "",
          "type": "address"
        }
      ],
      "stateMutability": "view",
      "type": "function"
    }
  ],
  "bytecode": "0x60e060405234801561001057600080fd5b506040516111543803806111548339818101604052602081101561003357600080fd5b81019080805190602001909291905050508073ffffffffffffffffffffffffffffffffffffffff1660808173ffffffffffffffffffffffffffffffffffffffff1660601b815250508073ffffffffffffffffffffffffffffffffffffffff1663c45a01556040518163ffffffff1660e01b815260040160206040518083038186803b1580156100c157600080fd5b505afa1580156100d5573d6000803e3d6000fd5b505050506040513d60208110156100eb57600080fd5b810190808051906020019092919050505073ffffffffffffffffffffffffffffffffffffffff1660a08173ffffffffffffffffffffffffffffffffffffffff1660601b815250508073ffffffffffffffffffffffffffffffffffffffff1663ad5c46486040518163ffffffff1660e01b815260040160206040518083038186803b15801561017857600080fd5b505afa15801561018c573d6000803e3d6000fd5b505050506040513d60208110156101a257600080fd5b810190808051906020019092919050505073ffffffffffffffffffffffffffffffffffffffff1660c08173ffffffffffffffffffffffffffffffffffffffff1660601b815250505060805160601c60a05160601c60c05160601c610f1761023d60003980610720525080610d375250806102db528061041852806105805280610744528061076b52806108a85280610a105250610f176000f3fe608060405234801561001057600080fd5b50600436106100935760003560e01c8063990ae00f11610066578063990ae00f14610176578063a09c8404146101ce578063af8a9ba514610226578063c45a015514610244578063eb84b2f61461027857610093565b806309cd510e146100985780630bbfeedd146100b65780633fc8cef31461010e57806359e25a9414610142575b600080fd5b6100a06102d0565b6040518082815260200191505060405180910390f35b6100f8600480360360208110156100cc57600080fd5b81019080803573ffffffffffffffffffffffffffffffffffffffff1690602001909291905050506102d6565b6040518082815260200191505060405180910390f35b61011661071e565b604051808273ffffffffffffffffffffffffffffffffffffffff16815260200191505060405180910390f35b61014a610742565b604051808273ffffffffffffffffffffffffffffffffffffffff16815260200191505060405180910390f35b6101b86004803603602081101561018c57600080fd5b81019080803573ffffffffffffffffffffffffffffffffffffffff169060200190929190505050610766565b6040518082815260200191505060405180910390f35b610210600480360360208110156101e457600080fd5b81019080803573ffffffffffffffffffffffffffffffffffffffff169060200190929190505050610bad565b6040518082815260200191505060405180910390f35b61022e610d2f565b6040518082815260200191505060405180910390f35b61024c610d35565b604051808273ffffffffffffffffffffffffffffffffffffffff16815260200191505060405180910390f35b6102ba6004803603602081101561028e57600080fd5b81019080803573ffffffffffffffffffffffffffffffffffffffff169060200190929190505050610d59565b6040518082815260200191505060405180910390f35b610e1081565b6000807f000000000000000000000000000000000000000000000000000000000000000073ffffffffffffffffffffffffffffffffffffffff166381bfb885846040518263ffffffff1660e01b8152600401808273ffffffffffffffffffffffffffffffffffffffff16815260200191505060206040518083038186803b15801561036057600080fd5b505afa158015610374573d6000803e3d6000fd5b505050506040513d602081101561038a57600080fd5b8101908080519060200190929190505050905060008111610413576040517f08c379a00000000000000000000000000000000000000000000000000000000081526004018080602001828103825260178152602001807f6e6f206c656e6774682d31206f62736572766174696f6e00000000000000000081525060200191505060405180910390fd5b6000807f000000000000000000000000000000000000000000000000000000000000000073ffffffffffffffffffffffffffffffffffffffff16630245996686600186036040518363ffffffff1660e01b8152600401808373ffffffffffffffffffffffffffffffffffffffff1681526020018281526020019250505060606040518083038186803b1580156104a857600080fd5b505afa1580156104bc573d6000803e3d6000fd5b505050506040513d60608110156104d257600080fd5b810190808051906020019092919080519060200190929190805190602001909291905050509250509150610384420382111561066a576001831161057e576040517f08c379a00000000000000000000000000000000000000000000000000000000081526004018080602001828103825260178152602001807f6e6f206c656e6774682d32206f62736572766174696f6e00000000000000000081525060200191505060405180910390fd5b7f000000000000000000000000000000000000000000000000000000000000000073ffffffffffffffffffffffffffffffffffffffff16630245996686600286036040518363ffffffff1660e01b8152600401808373ffffffffffffffffffffffffffffffffffffffff1681526020018281526020019250505060606040518083038186803b15801561061057600080fd5b505afa158015610624573d6000803e3d6000fd5b505050506040513d606081101561063a57600080fd5b81019080805190602001909291908051906020019092919080519060200190929190505050905080925081935050505b6000824203905061038481101580156106855750610e108111155b6106f7576040517f08c379a000000000000000000000000000000000000000000000000000000000815260040180806020018281038252600d8152602001807f62616420545741502074696d650000000000000000000000000000000000000081525060200191505060405180910390fd5b600061070287610d59565b90508342038382038161071157fe5b0495505050505050919050565b7f000000000000000000000000000000000000000000000000000000000000000081565b7f000000000000000000000000000000000000000000000000000000000000000081565b6000807f000000000000000000000000000000000000000000000000000000000000000073ffffffffffffffffffffffffffffffffffffffff166381bfb885846040518263ffffffff1660e01b8152600401808273ffffffffffffffffffffffffffffffffffffffff16815260200191505060206040518083038186803b1580156107f057600080fd5b505afa158015610804573d6000803e3d6000fd5b505050506040513d602081101561081a57600080fd5b81019080805190602001909291905050509050600081116108a3576040517f08c379a00000000000000000000000000000000000000000000000000000000081526004018080602001828103825260178152602001807f6e6f206c656e6774682d31206f62736572766174696f6e00000000000000000081525060200191505060405180910390fd5b6000807f000000000000000000000000000000000000000000000000000000000000000073ffffffffffffffffffffffffffffffffffffffff16630245996686600186036040518363ffffffff1660e01b8152600401808373ffffffffffffffffffffffffffffffffffffffff1681526020018281526020019250505060606040518083038186803b15801561093857600080fd5b505afa15801561094c573d6000803e3d6000fd5b505050506040513d606081101561096257600080fd5b8101908080519060200190929190805190602001909291908051906020019092919050505050915091506103844203821115610af95760018311610a0e576040517f08c379a00000000000000000000000000000000000000000000000000000000081526004018080602001828103825260178152602001807f6e6f206c656e6774682d32206f62736572766174696f6e00000000000000000081525060200191505060405180910390fd5b7f000000000000000000000000000000000000000000000000000000000000000073ffffffffffffffffffffffffffffffffffffffff16630245996686600286036040518363ffffffff1660e01b8152600401808373ffffffffffffffffffffffffffffffffffffffff1681526020018281526020019250505060606040518083038186803b158015610aa057600080fd5b505afa158015610ab4573d6000803e3d6000fd5b505050506040513d6060811015610aca57600080fd5b810190808051906020019092919080519060200190929190805190602001909291905050505080925081935050505b600082420390506103848110158015610b145750610e108111155b610b86576040517f08c379a000000000000000000000000000000000000000000000000000000000815260040180806020018281038252600d8152602001807f62616420545741502074696d650000000000000000000000000000000000000081525060200191505060405180910390fd5b6000610b9187610bad565b905083420383820381610ba057fe5b0495505050505050919050565b6000804290508273ffffffffffffffffffffffffffffffffffffffff16635909c0d56040518163ffffffff1660e01b815260040160206040518083038186803b158015610bf957600080fd5b505afa158015610c0d573d6000803e3d6000fd5b505050506040513d6020811015610c2357600080fd5b8101908080519060200190929190505050915060008060008573ffffffffffffffffffffffffffffffffffffffff16630902f1ac6040518163ffffffff1660e01b815260040160606040518083038186803b158015610c8157600080fd5b505afa158015610c95573d6000803e3d6000fd5b505050506040513d6060811015610cab57600080fd5b8101908080519060200190929190805190602001909291908051906020019092919050505092506dffffffffffffffffffffffffffff1692506dffffffffffffffffffffffffffff169250428163ffffffff1614610d2657600081850390508063ffffffff1684607085901b81610d1e57fe5b040286019550505b50505050919050565b61038481565b7f000000000000000000000000000000000000000000000000000000000000000081565b6000804290508273ffffffffffffffffffffffffffffffffffffffff16635a3d54936040518163ffffffff1660e01b815260040160206040518083038186803b158015610da557600080fd5b505afa158015610db9573d6000803e3d6000fd5b505050506040513d6020811015610dcf57600080fd5b8101908080519060200190929190505050915060008060008573ffffffffffffffffffffffffffffffffffffffff16630902f1ac6040518163ffffffff1660e01b815260040160606040518083038186803b158015610e2d57600080fd5b505afa158015610e41573d6000803e3d6000fd5b505050506040513d6060811015610e5757600080fd5b8101908080519060200190929190805190602001909291908051906020019092919050505092506dffffffffffffffffffffffffffff1692506dffffffffffffffffffffffffffff1692508363ffffffff168163ffffffff1614610ed857600081850390508063ffffffff1683607086901b81610ed057fe5b040286019550505b5050505091905056fea264697066735822122039af1172b926d24556b58a18facbc5f3be491b0aca1b760ec1df75dd1c9dbc7c64736f6c634300060c0033",
  "linkReferences": {},
  "deployedLinkReferences": {}
}