{
  "_format": "hh-sol-artifact-1",
  "contractName": "AggregatorOracle",
  "sourceName": "contracts/oracle/AggregatorOracle.sol",
  "abi": [
    {
      "inputs": [],
      "stateMutability": "nonpayable",
      "type": "constructor"
    },
    {
      "anonymous": false,
      "inputs": [
        {
          "indexed": false,
          "internalType": "address",
          "name": "governor",
          "type": "address"
        }
      ],
      "name": "AcceptGovernor",
      "type": "event"
    },
    {
      "anonymous": false,
      "inputs": [
        {
          "indexed": false,
          "internalType": "address",
          "name": "governor",
          "type": "address"
        }
      ],
      "name": "SetGovernor",
      "type": "event"
    },
    {
      "anonymous": false,
      "inputs": [
        {
          "indexed": false,
          "internalType": "address",
          "name": "pendingGovernor",
          "type": "address"
        }
      ],
      "name": "SetPendingGovernor",
      "type": "event"
    },
    {
      "anonymous": false,
      "inputs": [
        {
          "indexed": true,
          "internalType": "address",
          "name": "token",
          "type": "address"
        },
        {
          "indexed": false,
          "internalType": "uint256",
          "name": "maxPriceDeviation",
          "type": "uint256"
        },
        {
          "indexed": false,
          "internalType": "contract IBaseOracle[]",
          "name": "oracles",
          "type": "address[]"
        }
      ],
      "name": "SetPrimarySources",
      "type": "event"
    },
    {
      "inputs": [],
      "name": "MAX_PRICE_DEVIATION",
      "outputs": [
        {
          "internalType": "uint256",
          "name": "",
          "type": "uint256"
        }
      ],
      "stateMutability": "view",
      "type": "function"
    },
    {
      "inputs": [],
      "name": "MIN_PRICE_DEVIATION",
      "outputs": [
        {
          "internalType": "uint256",
          "name": "",
          "type": "uint256"
        }
      ],
      "stateMutability": "view",
      "type": "function"
    },
    {
      "inputs": [],
      "name": "WETH",
      "outputs": [
        {
          "internalType": "address",
          "name": "",
          "type": "address"
        }
      ],
      "stateMutability": "view",
      "type": "function"
    },
    {
      "inputs": [],
      "name": "acceptGovernor",
      "outputs": [],
      "stateMutability": "nonpayable",
      "type": "function"
    },
    {
      "inputs": [
        {
          "internalType": "address",
          "name": "token",
          "type": "address"
        }
      ],
      "name": "getETHPx",
      "outputs": [
        {
          "internalType": "uint256",
          "name": "",
          "type": "uint256"
        }
      ],
      "stateMutability": "view",
      "type": "function"
    },
    {
      "inputs": [
        {
          "internalType": "address",
          "name": "token0",
          "type": "address"
        },
        {
          "internalType": "address",
          "name": "token1",
          "type": "address"
        }
      ],
      "name": "getPrice",
      "outputs": [
        {
          "internalType": "uint256",
          "name": "",
          "type": "uint256"
        },
        {
          "internalType": "uint256",
          "name": "",
          "type": "uint256"
        }
      ],
      "stateMutability": "view",
      "type": "function"
    },
    {
      "inputs": [],
      "name": "governor",
      "outputs": [
        {
          "internalType": "address",
          "name": "",
          "type": "address"
        }
      ],
      "stateMutability": "view",
      "type": "function"
    },
    {
      "inputs": [
        {
          "internalType": "address",
          "name": "",
          "type": "address"
        }
      ],
      "name": "maxPriceDeviations",
      "outputs": [
        {
          "internalType": "uint256",
          "name": "",
          "type": "uint256"
        }
      ],
      "stateMutability": "view",
      "type": "function"
    },
    {
      "inputs": [],
      "name": "pendingGovernor",
      "outputs": [
        {
          "internalType": "address",
          "name": "",
          "type": "address"
        }
      ],
      "stateMutability": "view",
      "type": "function"
    },
    {
      "inputs": [
        {
          "internalType": "address",
          "name": "",
          "type": "address"
        }
      ],
      "name": "primarySourceCount",
      "outputs": [
        {
          "internalType": "uint256",
          "name": "",
          "type": "uint256"
        }
      ],
      "stateMutability": "view",
      "type": "function"
    },
    {
      "inputs": [
        {
          "internalType": "address",
          "name": "",
          "type": "address"
        },
        {
          "internalType": "uint256",
          "name": "",
          "type": "uint256"
        }
      ],
      "name": "primarySources",
      "outputs": [
        {
          "internalType": "contract IBaseOracle",
          "name": "",
          "type": "address"
        }
      ],
      "stateMutability": "view",
      "type": "function"
    },
    {
      "inputs": [
        {
          "internalType": "address[]",
          "name": "tokens",
          "type": "address[]"
        },
        {
          "internalType": "uint256[]",
          "name": "maxPriceDeviationList",
          "type": "uint256[]"
        },
        {
          "internalType": "contract IBaseOracle[][]",
          "name": "allSources",
          "type": "address[][]"
        }
      ],
      "name": "setMultiPrimarySources",
      "outputs": [],
      "stateMutability": "nonpayable",
      "type": "function"
    },
    {
      "inputs": [
        {
          "internalType": "address",
          "name": "_pendingGovernor",
          "type": "address"
        }
      ],
      "name": "setPendingGovernor",
      "outputs": [],
      "stateMutability": "nonpayable",
      "type": "function"
    },
    {
      "inputs": [
        {
          "internalType": "address",
          "name": "token",
          "type": "address"
        },
        {
          "internalType": "uint256",
          "name": "maxPriceDeviation",
          "type": "uint256"
        },
        {
          "internalType": "contract IBaseOracle[]",
          "name": "sources",
          "type": "address[]"
        }
      ],
      "name": "setPrimarySources",
      "outputs": [],
      "stateMutability": "nonpayable",
      "type": "function"
    }
  ],
  "bytecode": "0x60806040523480156200001157600080fd5b50620000226200002860201b60201c565b62000331565b600060019054906101000a900460ff16806200005057506200004f620001db60201b60201c565b5b8062000067575060008054906101000a900460ff16155b620000a9576040517f08c379a0000000000000000000000000000000000000000000000000000000008152600401620000a090620002a2565b60405180910390fd5b60008060019054906101000a900460ff161590508015620000fa576001600060016101000a81548160ff02191690831515021790555060016000806101000a81548160ff0219169083151502179055505b33600060026101000a81548173ffffffffffffffffffffffffffffffffffffffff021916908373ffffffffffffffffffffffffffffffffffffffff1602179055506000600160006101000a81548173ffffffffffffffffffffffffffffffffffffffff021916908373ffffffffffffffffffffffffffffffffffffffff1602179055507fbce074c8369e26e70e1ae2f14fc944da352cfe6f52e2de9572f0c9942a24b7fc33604051620001ae919062000285565b60405180910390a18015620001d85760008060016101000a81548160ff0219169083151502179055505b50565b6000620001f330620001f960201b6200105f1760201c565b15905090565b600080823b905060008111915050919050565b6200021781620002f5565b82525050565b60006200022c602e83620002c4565b91507f496e697469616c697a61626c653a20636f6e747261637420697320616c72656160008301527f647920696e697469616c697a65640000000000000000000000000000000000006020830152604082019050919050565b60006020820190506200029c60008301846200020c565b92915050565b60006020820190508181036000830152620002bd816200021d565b9050919050565b600082825260208201905092915050565b600073ffffffffffffffffffffffffffffffffffffffff82169050919050565b6000620003028262000309565b9050919050565b600062000316826200031d565b9050919050565b60006200032a82620002d5565b9050919050565b6121a280620003416000396000f3fe608060405234801561001057600080fd5b50600436106100ea5760003560e01c8063ad5c46481161008c578063e3056a3411610066578063e3056a3414610274578063e431a4f514610292578063e58bb639146102ae578063f235757f146102b8576100ea565b8063ad5c4648146101f6578063bb0e70e014610214578063c66683c014610244576100ea565b806389752929116100c8578063897529291461014757806396f277b714610177578063ab9aadfe14610195578063ac41865a146101c5576100ea565b80630c340a24146100ef578063507b9ede1461010d5780638421401714610129575b600080fd5b6100f76102d4565b6040516101049190611ce3565b60405180910390f35b61012760048036038101906101229190611724565b6102fa565b005b610131610475565b60405161013e9190611ef4565b60405180910390f35b610161600480360381019061015c919061161c565b610481565b60405161016e9190611ef4565b60405180910390f35b61017f610499565b60405161018c9190611ef4565b60405180910390f35b6101af60048036038101906101aa919061161c565b6104a5565b6040516101bc9190611ef4565b60405180910390f35b6101df60048036038101906101da9190611645565b610b1a565b6040516101ed929190611f3f565b60405180910390f35b6101fe610cd0565b60405161020b9190611ce3565b60405180910390f35b61022e6004803603810190610229919061161c565b610ce8565b60405161023b9190611ef4565b60405180910390f35b61025e60048036038101906102599190611681565b610d00565b60405161026b9190611d19565b60405180910390f35b61027c610d42565b6040516102899190611ce3565b60405180910390f35b6102ac60048036038101906102a791906116bd565b610d68565b005b6102b6610e08565b005b6102d260048036038101906102cd919061161c565b610f54565b005b600060029054906101000a900473ffffffffffffffffffffffffffffffffffffffff1681565b600060029054906101000a900473ffffffffffffffffffffffffffffffffffffffff1673ffffffffffffffffffffffffffffffffffffffff163373ffffffffffffffffffffffffffffffffffffffff161461038a576040517f08c379a000000000000000000000000000000000000000000000000000000000815260040161038190611e14565b60405180910390fd5b80518351146103ce576040517f08c379a00000000000000000000000000000000000000000000000000000000081526004016103c590611ed4565b60405180910390fd5b8151835114610412576040517f08c379a000000000000000000000000000000000000000000000000000000000815260040161040990611ed4565b60405180910390fd5b60005b835181101561046f5761046284828151811061042d57fe5b602002602001015184838151811061044157fe5b602002602001015184848151811061045557fe5b6020026020010151611072565b8080600101915050610415565b50505050565b670de0b6b3a764000081565b60426020528060005260406000206000915090505481565b6714d1120d7b16000081565b600080604260008473ffffffffffffffffffffffffffffffffffffffff1673ffffffffffffffffffffffffffffffffffffffff1681526020019081526020016000205490506000811161052d576040517f08c379a000000000000000000000000000000000000000000000000000000000815260040161052490611eb4565b60405180910390fd5b60608167ffffffffffffffff8111801561054657600080fd5b506040519080825280602002602001820160405280156105755781602001602082028036833780820191505090505b5090506000805b838110156106ad57604360008773ffffffffffffffffffffffffffffffffffffffff1673ffffffffffffffffffffffffffffffffffffffff168152602001908152602001600020600082815260200190815260200160002060009054906101000a900473ffffffffffffffffffffffffffffffffffffffff1673ffffffffffffffffffffffffffffffffffffffff1663ab9aadfe876040518263ffffffff1660e01b815260040161062d9190611ce3565b60206040518083038186803b15801561064557600080fd5b505afa92505050801561067657506040513d601f19601f8201168201806040525081019061067391906117bb565b60015b61067f576106a0565b8084848060010195508151811061069257fe5b602002602001018181525050505b808060010191505061057c565b50600081116106f1576040517f08c379a00000000000000000000000000000000000000000000000000000000081526004016106e890611e54565b60405180910390fd5b60005b600182038110156107ba5760005b6001828403038110156107ac5783600182018151811061071e57fe5b602002602001015184828151811061073257fe5b6020026020010151111561079f5783600182018151811061074f57fe5b602002602001015184828151811061076357fe5b602002602001015185838151811061077757fe5b6020026020010186600185018151811061078d57fe5b60200260200101828152508281525050505b8080600101915050610702565b5080806001019150506106f4565b506000604460008773ffffffffffffffffffffffffffffffffffffffff1673ffffffffffffffffffffffffffffffffffffffff1681526020019081526020016000205490506001821415610828578260008151811061081557fe5b6020026020010151945050505050610b15565b600282141561090f57808360008151811061083f57fe5b6020026020010151610876670de0b6b3a76400008660018151811061086057fe5b60200260200101516112b090919063ffffffff16565b8161087d57fe5b0411156108bf576040517f08c379a00000000000000000000000000000000000000000000000000000000081526004016108b690611e94565b60405180910390fd5b60026108fc846001815181106108d157fe5b6020026020010151856000815181106108e657fe5b602002602001015161132090919063ffffffff16565b8161090357fe5b04945050505050610b15565b6003821415610ada576000818460008151811061092857fe5b602002602001015161095f670de0b6b3a76400008760018151811061094957fe5b60200260200101516112b090919063ffffffff16565b8161096657fe5b04111590506000828560018151811061097b57fe5b60200260200101516109b2670de0b6b3a76400008860028151811061099c57fe5b60200260200101516112b090919063ffffffff16565b816109b957fe5b04111590508180156109c85750805b156109ef57846001815181106109da57fe5b60200260200101519650505050505050610b15565b8115610a47576002610a3286600181518110610a0757fe5b602002602001015187600081518110610a1c57fe5b602002602001015161132090919063ffffffff16565b81610a3957fe5b049650505050505050610b15565b8015610a9f576002610a8a86600281518110610a5f57fe5b602002602001015187600181518110610a7457fe5b602002602001015161132090919063ffffffff16565b81610a9157fe5b049650505050505050610b15565b6040517f08c379a0000000000000000000000000000000000000000000000000000000008152600401610ad190611d94565b60405180910390fd5b6040517f08c379a0000000000000000000000000000000000000000000000000000000008152600401610b0c90611d34565b60405180910390fd5b919050565b60008073c02aaa39b223fe8d0a0e5c4f27ead9083c756cc273ffffffffffffffffffffffffffffffffffffffff168473ffffffffffffffffffffffffffffffffffffffff161480610baa575073c02aaa39b223fe8d0a0e5c4f27ead9083c756cc273ffffffffffffffffffffffffffffffffffffffff168373ffffffffffffffffffffffffffffffffffffffff16145b610be9576040517f08c379a0000000000000000000000000000000000000000000000000000000008152600401610be090611db4565b60405180910390fd5b73c02aaa39b223fe8d0a0e5c4f27ead9083c756cc273ffffffffffffffffffffffffffffffffffffffff168473ffffffffffffffffffffffffffffffffffffffff161415610c7f57610c75610c3d846104a5565b610c67670de0b6b3a76400006e0100000000000000000000000000006112b090919063ffffffff16565b61137590919063ffffffff16565b4291509150610cc9565b610cc36e010000000000000000000000000000610cb5670de0b6b3a7640000610ca7886104a5565b6112b090919063ffffffff16565b61137590919063ffffffff16565b42915091505b9250929050565b73c02aaa39b223fe8d0a0e5c4f27ead9083c756cc281565b60446020528060005260406000206000915090505481565b60436020528160005260406000206020528060005260406000206000915091509054906101000a900473ffffffffffffffffffffffffffffffffffffffff1681565b600160009054906101000a900473ffffffffffffffffffffffffffffffffffffffff1681565b600060029054906101000a900473ffffffffffffffffffffffffffffffffffffffff1673ffffffffffffffffffffffffffffffffffffffff163373ffffffffffffffffffffffffffffffffffffffff1614610df8576040517f08c379a0000000000000000000000000000000000000000000000000000000008152600401610def90611e14565b60405180910390fd5b610e03838383611072565b505050565b600160009054906101000a900473ffffffffffffffffffffffffffffffffffffffff1673ffffffffffffffffffffffffffffffffffffffff163373ffffffffffffffffffffffffffffffffffffffff1614610e98576040517f08c379a0000000000000000000000000000000000000000000000000000000008152600401610e8f90611d54565b60405180910390fd5b6000600160006101000a81548173ffffffffffffffffffffffffffffffffffffffff021916908373ffffffffffffffffffffffffffffffffffffffff16021790555033600060026101000a81548173ffffffffffffffffffffffffffffffffffffffff021916908373ffffffffffffffffffffffffffffffffffffffff1602179055507fd345d81ce68c70b119a17eee79dc1421700bd9cb21ca148a62dc90983964e82f33604051610f4a9190611cfe565b60405180910390a1565b600060029054906101000a900473ffffffffffffffffffffffffffffffffffffffff1673ffffffffffffffffffffffffffffffffffffffff163373ffffffffffffffffffffffffffffffffffffffff1614610fe4576040517f08c379a0000000000000000000000000000000000000000000000000000000008152600401610fdb90611e14565b60405180910390fd5b80600160006101000a81548173ffffffffffffffffffffffffffffffffffffffff021916908373ffffffffffffffffffffffffffffffffffffffff1602179055507f964dea888b00b2ab53f13dfe7ca334b46e99338c222ae232d98547a1da019f60816040516110549190611ce3565b60405180910390a150565b600080823b905060008111915050919050565b8051604260008573ffffffffffffffffffffffffffffffffffffffff1673ffffffffffffffffffffffffffffffffffffffff16815260200190815260200160002081905550670de0b6b3a764000082101580156110d757506714d1120d7b1600008211155b611116576040517f08c379a000000000000000000000000000000000000000000000000000000000815260040161110d90611e34565b60405180910390fd5b60038151111561115b576040517f08c379a000000000000000000000000000000000000000000000000000000000815260040161115290611df4565b60405180910390fd5b81604460008573ffffffffffffffffffffffffffffffffffffffff1673ffffffffffffffffffffffffffffffffffffffff1681526020019081526020016000208190555060005b815181101561125a578181815181106111b757fe5b6020026020010151604360008673ffffffffffffffffffffffffffffffffffffffff1673ffffffffffffffffffffffffffffffffffffffff168152602001908152602001600020600083815260200190815260200160002060006101000a81548173ffffffffffffffffffffffffffffffffffffffff021916908373ffffffffffffffffffffffffffffffffffffffff16021790555080806001019150506111a2565b508273ffffffffffffffffffffffffffffffffffffffff167ffaf0e7a4bd03038343c2a7e8953d95dfec44a01478bba4f65a5b5ec9c397da5383836040516112a3929190611f0f565b60405180910390a2505050565b6000808314156112c3576000905061131a565b60008284029050828482816112d457fe5b0414611315576040517f08c379a000000000000000000000000000000000000000000000000000000000815260040161130c90611e74565b60405180910390fd5b809150505b92915050565b60008082840190508381101561136b576040517f08c379a000000000000000000000000000000000000000000000000000000000815260040161136290611d74565b60405180910390fd5b8091505092915050565b60008082116113b9576040517f08c379a00000000000000000000000000000000000000000000000000000000081526004016113b090611dd4565b60405180910390fd5b8183816113c257fe5b04905092915050565b6000813590506113da81612127565b92915050565b600082601f8301126113f157600080fd5b81356114046113ff82611f95565b611f68565b9150818183526020840193506020810190508385602084028201111561142957600080fd5b60005b83811015611459578161143f88826113cb565b84526020840193506020830192505060018101905061142c565b5050505092915050565b600082601f83011261147457600080fd5b813561148761148282611fbd565b611f68565b9150818183526020840193506020810190508360005b838110156114cd57813586016114b388826114d7565b84526020840193506020830192505060018101905061149d565b5050505092915050565b600082601f8301126114e857600080fd5b81356114fb6114f682611fe5565b611f68565b9150818183526020840193506020810190508385602084028201111561152057600080fd5b60005b83811015611550578161153688826115dd565b845260208401935060208301925050600181019050611523565b5050505092915050565b600082601f83011261156b57600080fd5b813561157e6115798261200d565b611f68565b915081818352602084019350602081019050838560208402820111156115a357600080fd5b60005b838110156115d357816115b988826115f2565b8452602084019350602083019250506001810190506115a6565b5050505092915050565b6000813590506115ec8161213e565b92915050565b60008135905061160181612155565b92915050565b60008151905061161681612155565b92915050565b60006020828403121561162e57600080fd5b600061163c848285016113cb565b91505092915050565b6000806040838503121561165857600080fd5b6000611666858286016113cb565b9250506020611677858286016113cb565b9150509250929050565b6000806040838503121561169457600080fd5b60006116a2858286016113cb565b92505060206116b3858286016115f2565b9150509250929050565b6000806000606084860312156116d257600080fd5b60006116e0868287016113cb565b93505060206116f1868287016115f2565b925050604084013567ffffffffffffffff81111561170e57600080fd5b61171a868287016114d7565b9150509250925092565b60008060006060848603121561173957600080fd5b600084013567ffffffffffffffff81111561175357600080fd5b61175f868287016113e0565b935050602084013567ffffffffffffffff81111561177c57600080fd5b6117888682870161155a565b925050604084013567ffffffffffffffff8111156117a557600080fd5b6117b186828701611463565b9150509250925092565b6000602082840312156117cd57600080fd5b60006117db84828501611607565b91505092915050565b60006117f08383611878565b60208301905092915050565b611805816120cd565b82525050565b6118148161207f565b82525050565b600061182582612045565b61182f818561205d565b935061183a83612035565b8060005b8381101561186b57815161185288826117e4565b975061185d83612050565b92505060018101905061183e565b5085935050505092915050565b611881816120df565b82525050565b611890816120df565b82525050565b60006118a360278361206e565b91507f6d6f7265207468616e20332076616c696420736f7572636573206e6f7420737560008301527f70706f72746564000000000000000000000000000000000000000000000000006020830152604082019050919050565b600061190960188361206e565b91507f6e6f74207468652070656e64696e6720676f7665726e6f7200000000000000006000830152602082019050919050565b6000611949601b8361206e565b91507f536166654d6174683a206164646974696f6e206f766572666c6f7700000000006000830152602082019050919050565b600061198960248361206e565b91507f746f6f206d75636820646576696174696f6e2028332076616c696420736f757260008301527f63657329000000000000000000000000000000000000000000000000000000006020830152604082019050919050565b60006119ef602f8361206e565b91507f6f6e65206f66207468652072657175657374656420746f6b656e73206d75737460008301527f20626520455448206f72205745544800000000000000000000000000000000006020830152604082019050919050565b6000611a55601a8361206e565b91507f536166654d6174683a206469766973696f6e206279207a65726f0000000000006000830152602082019050919050565b6000611a9560178361206e565b91507f736f7572636573206c656e6774682065786365656420330000000000000000006000830152602082019050919050565b6000611ad560108361206e565b91507f6e6f742074686520676f7665726e6f72000000000000000000000000000000006000830152602082019050919050565b6000611b1560178361206e565b91507f626164206d617820646576696174696f6e2076616c75650000000000000000006000830152602082019050919050565b6000611b55600f8361206e565b91507f6e6f2076616c696420736f7572636500000000000000000000000000000000006000830152602082019050919050565b6000611b9560218361206e565b91507f536166654d6174683a206d756c7469706c69636174696f6e206f766572666c6f60008301527f77000000000000000000000000000000000000000000000000000000000000006020830152604082019050919050565b6000611bfb60248361206e565b91507f746f6f206d75636820646576696174696f6e2028322076616c696420736f757260008301527f63657329000000000000000000000000000000000000000000000000000000006020830152604082019050919050565b6000611c6160118361206e565b91507f6e6f207072696d61727920736f757263650000000000000000000000000000006000830152602082019050919050565b6000611ca160138361206e565b91507f696e636f6e73697374656e74206c656e677468000000000000000000000000006000830152602082019050919050565b611cdd816120c3565b82525050565b6000602082019050611cf8600083018461180b565b92915050565b6000602082019050611d1360008301846117fc565b92915050565b6000602082019050611d2e6000830184611887565b92915050565b60006020820190508181036000830152611d4d81611896565b9050919050565b60006020820190508181036000830152611d6d816118fc565b9050919050565b60006020820190508181036000830152611d8d8161193c565b9050919050565b60006020820190508181036000830152611dad8161197c565b9050919050565b60006020820190508181036000830152611dcd816119e2565b9050919050565b60006020820190508181036000830152611ded81611a48565b9050919050565b60006020820190508181036000830152611e0d81611a88565b9050919050565b60006020820190508181036000830152611e2d81611ac8565b9050919050565b60006020820190508181036000830152611e4d81611b08565b9050919050565b60006020820190508181036000830152611e6d81611b48565b9050919050565b60006020820190508181036000830152611e8d81611b88565b9050919050565b60006020820190508181036000830152611ead81611bee565b9050919050565b60006020820190508181036000830152611ecd81611c54565b9050919050565b60006020820190508181036000830152611eed81611c94565b9050919050565b6000602082019050611f096000830184611cd4565b92915050565b6000604082019050611f246000830185611cd4565b8181036020830152611f36818461181a565b90509392505050565b6000604082019050611f546000830185611cd4565b611f616020830184611cd4565b9392505050565b6000604051905081810181811067ffffffffffffffff82111715611f8b57600080fd5b8060405250919050565b600067ffffffffffffffff821115611fac57600080fd5b602082029050602081019050919050565b600067ffffffffffffffff821115611fd457600080fd5b602082029050602081019050919050565b600067ffffffffffffffff821115611ffc57600080fd5b602082029050602081019050919050565b600067ffffffffffffffff82111561202457600080fd5b602082029050602081019050919050565b6000819050602082019050919050565b600081519050919050565b6000602082019050919050565b600082825260208201905092915050565b600082825260208201905092915050565b600061208a826120a3565b9050919050565b600061209c8261207f565b9050919050565b600073ffffffffffffffffffffffffffffffffffffffff82169050919050565b6000819050919050565b60006120d882612103565b9050919050565b60006120ea826120f1565b9050919050565b60006120fc826120a3565b9050919050565b600061210e82612115565b9050919050565b6000612120826120a3565b9050919050565b6121308161207f565b811461213b57600080fd5b50565b61214781612091565b811461215257600080fd5b50565b61215e816120c3565b811461216957600080fd5b5056fea2646970667358221220e25ad45e94ceb2ad6b23c6059e27293200df988593aa277a2c1521714185161a64736f6c634300060c0033",
  "linkReferences": {},
  "deployedLinkReferences": {}
}