{
  "_format": "hh-sol-artifact-1",
  "contractName": "WERC20",
  "sourceName": "contracts/wrapper/WERC20.sol",
  "abi": [
    {
      "anonymous": false,
      "inputs": [
        {
          "indexed": true,
          "internalType": "address",
          "name": "account",
          "type": "address"
        },
        {
          "indexed": true,
          "internalType": "address",
          "name": "operator",
          "type": "address"
        },
        {
          "indexed": false,
          "internalType": "bool",
          "name": "approved",
          "type": "bool"
        }
      ],
      "name": "ApprovalForAll",
      "type": "event"
    },
    {
      "anonymous": false,
      "inputs": [
        {
          "indexed": true,
          "internalType": "address",
          "name": "operator",
          "type": "address"
        },
        {
          "indexed": true,
          "internalType": "address",
          "name": "from",
          "type": "address"
        },
        {
          "indexed": true,
          "internalType": "address",
          "name": "to",
          "type": "address"
        },
        {
          "indexed": false,
          "internalType": "uint256[]",
          "name": "ids",
          "type": "uint256[]"
        },
        {
          "indexed": false,
          "internalType": "uint256[]",
          "name": "values",
          "type": "uint256[]"
        }
      ],
      "name": "TransferBatch",
      "type": "event"
    },
    {
      "anonymous": false,
      "inputs": [
        {
          "indexed": true,
          "internalType": "address",
          "name": "operator",
          "type": "address"
        },
        {
          "indexed": true,
          "internalType": "address",
          "name": "from",
          "type": "address"
        },
        {
          "indexed": true,
          "internalType": "address",
          "name": "to",
          "type": "address"
        },
        {
          "indexed": false,
          "internalType": "uint256",
          "name": "id",
          "type": "uint256"
        },
        {
          "indexed": false,
          "internalType": "uint256",
          "name": "value",
          "type": "uint256"
        }
      ],
      "name": "TransferSingle",
      "type": "event"
    },
    {
      "anonymous": false,
      "inputs": [
        {
          "indexed": false,
          "internalType": "string",
          "name": "value",
          "type": "string"
        },
        {
          "indexed": true,
          "internalType": "uint256",
          "name": "id",
          "type": "uint256"
        }
      ],
      "name": "URI",
      "type": "event"
    },
    {
      "inputs": [
        {
          "internalType": "address",
          "name": "account",
          "type": "address"
        },
        {
          "internalType": "uint256",
          "name": "id",
          "type": "uint256"
        }
      ],
      "name": "balanceOf",
      "outputs": [
        {
          "internalType": "uint256",
          "name": "",
          "type": "uint256"
        }
      ],
      "stateMutability": "view",
      "type": "function"
    },
    {
      "inputs": [
        {
          "internalType": "address[]",
          "name": "accounts",
          "type": "address[]"
        },
        {
          "internalType": "uint256[]",
          "name": "ids",
          "type": "uint256[]"
        }
      ],
      "name": "balanceOfBatch",
      "outputs": [
        {
          "internalType": "uint256[]",
          "name": "",
          "type": "uint256[]"
        }
      ],
      "stateMutability": "view",
      "type": "function"
    },
    {
      "inputs": [
        {
          "internalType": "address",
          "name": "token",
          "type": "address"
        },
        {
          "internalType": "address",
          "name": "user",
          "type": "address"
        }
      ],
      "name": "balanceOfERC20",
      "outputs": [
        {
          "internalType": "uint256",
          "name": "",
          "type": "uint256"
        }
      ],
      "stateMutability": "view",
      "type": "function"
    },
    {
      "inputs": [
        {
          "internalType": "address",
          "name": "token",
          "type": "address"
        },
        {
          "internalType": "uint256",
          "name": "amount",
          "type": "uint256"
        }
      ],
      "name": "burn",
      "outputs": [],
      "stateMutability": "nonpayable",
      "type": "function"
    },
    {
      "inputs": [
        {
          "internalType": "uint256",
          "name": "",
          "type": "uint256"
        }
      ],
      "name": "getUnderlyingRate",
      "outputs": [
        {
          "internalType": "uint256",
          "name": "",
          "type": "uint256"
        }
      ],
      "stateMutability": "view",
      "type": "function"
    },
    {
      "inputs": [
        {
          "internalType": "uint256",
          "name": "id",
          "type": "uint256"
        }
      ],
      "name": "getUnderlyingToken",
      "outputs": [
        {
          "internalType": "address",
          "name": "",
          "type": "address"
        }
      ],
      "stateMutability": "view",
      "type": "function"
    },
    {
      "inputs": [
        {
          "internalType": "address",
          "name": "account",
          "type": "address"
        },
        {
          "internalType": "address",
          "name": "operator",
          "type": "address"
        }
      ],
      "name": "isApprovedForAll",
      "outputs": [
        {
          "internalType": "bool",
          "name": "",
          "type": "bool"
        }
      ],
      "stateMutability": "view",
      "type": "function"
    },
    {
      "inputs": [
        {
          "internalType": "address",
          "name": "token",
          "type": "address"
        },
        {
          "internalType": "uint256",
          "name": "amount",
          "type": "uint256"
        }
      ],
      "name": "mint",
      "outputs": [],
      "stateMutability": "nonpayable",
      "type": "function"
    },
    {
      "inputs": [
        {
          "internalType": "address",
          "name": "from",
          "type": "address"
        },
        {
          "internalType": "address",
          "name": "to",
          "type": "address"
        },
        {
          "internalType": "uint256[]",
          "name": "ids",
          "type": "uint256[]"
        },
        {
          "internalType": "uint256[]",
          "name": "amounts",
          "type": "uint256[]"
        },
        {
          "internalType": "bytes",
          "name": "data",
          "type": "bytes"
        }
      ],
      "name": "safeBatchTransferFrom",
      "outputs": [],
      "stateMutability": "nonpayable",
      "type": "function"
    },
    {
      "inputs": [
        {
          "internalType": "address",
          "name": "from",
          "type": "address"
        },
        {
          "internalType": "address",
          "name": "to",
          "type": "address"
        },
        {
          "internalType": "uint256",
          "name": "id",
          "type": "uint256"
        },
        {
          "internalType": "uint256",
          "name": "amount",
          "type": "uint256"
        },
        {
          "internalType": "bytes",
          "name": "data",
          "type": "bytes"
        }
      ],
      "name": "safeTransferFrom",
      "outputs": [],
      "stateMutability": "nonpayable",
      "type": "function"
    },
    {
      "inputs": [
        {
          "internalType": "address",
          "name": "operator",
          "type": "address"
        },
        {
          "internalType": "bool",
          "name": "approved",
          "type": "bool"
        }
      ],
      "name": "setApprovalForAll",
      "outputs": [],
      "stateMutability": "nonpayable",
      "type": "function"
    },
    {
      "inputs": [
        {
          "internalType": "bytes4",
          "name": "interfaceId",
          "type": "bytes4"
        }
      ],
      "name": "supportsInterface",
      "outputs": [
        {
          "internalType": "bool",
          "name": "",
          "type": "bool"
        }
      ],
      "stateMutability": "view",
      "type": "function"
    },
    {
      "inputs": [
        {
          "internalType": "uint256",
          "name": "",
          "type": "uint256"
        }
      ],
      "name": "uri",
      "outputs": [
        {
          "internalType": "string",
          "name": "",
          "type": "string"
        }
      ],
      "stateMutability": "view",
      "type": "function"
    }
  ],
  "bytecode": "0x60806040523480156200001157600080fd5b506040518060400160405280600681526020017f5745524332300000000000000000000000000000000000000000000000000000815250620000606301ffc9a760e01b620000b060201b60201c565b6200007181620001b960201b60201c565b6200008963d9b67a2660e01b620000b060201b60201c565b620000a1630e89341c60e01b620000b060201b60201c565b5060016004819055506200027b565b63ffffffff60e01b817bffffffffffffffffffffffffffffffffffffffffffffffffffffffff191614156200014d576040517f08c379a000000000000000000000000000000000000000000000000000000000815260040180806020018281038252601c8152602001807f4552433136353a20696e76616c696420696e746572666163652069640000000081525060200191505060405180910390fd5b6001600080837bffffffffffffffffffffffffffffffffffffffffffffffffffffffff19167bffffffffffffffffffffffffffffffffffffffffffffffffffffffff1916815260200190815260200160002060006101000a81548160ff02191690831515021790555050565b8060039080519060200190620001d1929190620001d5565b5050565b828054600181600116156101000203166002900490600052602060002090601f016020900481019282601f106200021857805160ff191683800117855562000249565b8280016001018555821562000249579182015b82811115620002485782518255916020019190600101906200022b565b5b5090506200025891906200025c565b5090565b5b80821115620002775760008160009055506001016200025d565b5090565b612f81806200028b6000396000f3fe608060405234801561001057600080fd5b50600436106100ce5760003560e01c80637e50205e1161008c578063a477577211610066578063a477577214610767578063af8002df146107bf578063e985e9c514610801578063f242432a1461087b576100ce565b80637e50205e146106515780639dc29fac146106c9578063a22cb46514610717576100ce565b8062fdd58e146100d357806301ffc9a7146101355780630e89341c146101985780632eb2c2d61461023f57806340c10f19146104625780634e1273f4146104b0575b600080fd5b61011f600480360360408110156100e957600080fd5b81019080803573ffffffffffffffffffffffffffffffffffffffff1690602001909291908035906020019092919050505061098a565b6040518082815260200191505060405180910390f35b6101806004803603602081101561014b57600080fd5b8101908080357bffffffffffffffffffffffffffffffffffffffffffffffffffffffff19169060200190929190505050610a6a565b60405180821515815260200191505060405180910390f35b6101c4600480360360208110156101ae57600080fd5b8101908080359060200190929190505050610ad1565b6040518080602001828103825283818151815260200191508051906020019080838360005b838110156102045780820151818401526020810190506101e9565b50505050905090810190601f1680156102315780820380516001836020036101000a031916815260200191505b509250505060405180910390f35b610460600480360360a081101561025557600080fd5b81019080803573ffffffffffffffffffffffffffffffffffffffff169060200190929190803573ffffffffffffffffffffffffffffffffffffffff169060200190929190803590602001906401000000008111156102b257600080fd5b8201836020820111156102c457600080fd5b803590602001918460208302840111640100000000831117156102e657600080fd5b919080806020026020016040519081016040528093929190818152602001838360200280828437600081840152601f19601f8201169050808301925050505050505091929192908035906020019064010000000081111561034657600080fd5b82018360208201111561035857600080fd5b8035906020019184602083028401116401000000008311171561037a57600080fd5b919080806020026020016040519081016040528093929190818152602001838360200280828437600081840152601f19601f820116905080830192505050505050509192919290803590602001906401000000008111156103da57600080fd5b8201836020820111156103ec57600080fd5b8035906020019184600183028401116401000000008311171561040e57600080fd5b91908080601f016020809104026020016040519081016040528093929190818152602001838380828437600081840152601f19601f820116905080830192505050505050509192919290505050610b75565b005b6104ae6004803603604081101561047857600080fd5b81019080803573ffffffffffffffffffffffffffffffffffffffff16906020019092919080359060200190929190505050611000565b005b6105fa600480360360408110156104c657600080fd5b81019080803590602001906401000000008111156104e357600080fd5b8201836020820111156104f557600080fd5b8035906020019184602083028401116401000000008311171561051757600080fd5b919080806020026020016040519081016040528093929190818152602001838360200280828437600081840152601f19601f8201169050808301925050505050505091929192908035906020019064010000000081111561057757600080fd5b82018360208201111561058957600080fd5b803590602001918460208302840111640100000000831117156105ab57600080fd5b919080806020026020016040519081016040528093929190818152602001838360200280828437600081840152601f19601f82011690508083019250505050505050919291929050505061123b565b6040518080602001828103825283818151815260200191508051906020019060200280838360005b8381101561063d578082015181840152602081019050610622565b505050509050019250505060405180910390f35b6106b36004803603604081101561066757600080fd5b81019080803573ffffffffffffffffffffffffffffffffffffffff169060200190929190803573ffffffffffffffffffffffffffffffffffffffff16906020019092919050505061134d565b6040518082815260200191505060405180910390f35b610715600480360360408110156106df57600080fd5b81019080803573ffffffffffffffffffffffffffffffffffffffff16906020019092919080359060200190929190505050611377565b005b6107656004803603604081101561072d57600080fd5b81019080803573ffffffffffffffffffffffffffffffffffffffff169060200190929190803515159060200190929190505050611450565b005b6107936004803603602081101561077d57600080fd5b81019080803590602001909291905050506115e9565b604051808273ffffffffffffffffffffffffffffffffffffffff16815260200191505060405180910390f35b6107eb600480360360208110156107d557600080fd5b8101908080359060200190929190505050611683565b6040518082815260200191505060405180910390f35b6108636004803603604081101561081757600080fd5b81019080803573ffffffffffffffffffffffffffffffffffffffff169060200190929190803573ffffffffffffffffffffffffffffffffffffffff16906020019092919050505061169c565b60405180821515815260200191505060405180910390f35b610988600480360360a081101561089157600080fd5b81019080803573ffffffffffffffffffffffffffffffffffffffff169060200190929190803573ffffffffffffffffffffffffffffffffffffffff16906020019092919080359060200190929190803590602001909291908035906020019064010000000081111561090257600080fd5b82018360208201111561091457600080fd5b8035906020019184600183028401116401000000008311171561093657600080fd5b91908080601f016020809104026020016040519081016040528093929190818152602001838380828437600081840152601f19601f820116905080830192505050505050509192919290505050611730565b005b60008073ffffffffffffffffffffffffffffffffffffffff168373ffffffffffffffffffffffffffffffffffffffff161415610a11576040517f08c379a000000000000000000000000000000000000000000000000000000000815260040180806020018281038252602b815260200180612d45602b913960400191505060405180910390fd5b6001600083815260200190815260200160002060008473ffffffffffffffffffffffffffffffffffffffff1673ffffffffffffffffffffffffffffffffffffffff16815260200190815260200160002054905092915050565b6000806000837bffffffffffffffffffffffffffffffffffffffffffffffffffffffff19167bffffffffffffffffffffffffffffffffffffffffffffffffffffffff1916815260200190815260200160002060009054906101000a900460ff169050919050565b606060038054600181600116156101000203166002900480601f016020809104026020016040519081016040528092919081815260200182805460018160011615610100020316600290048015610b695780601f10610b3e57610100808354040283529160200191610b69565b820191906000526020600020905b815481529060010190602001808311610b4c57829003601f168201915b50505050509050919050565b8151835114610bcf576040517f08c379a0000000000000000000000000000000000000000000000000000000008152600401808060200182810382526028815260200180612f036028913960400191505060405180910390fd5b600073ffffffffffffffffffffffffffffffffffffffff168473ffffffffffffffffffffffffffffffffffffffff161415610c55576040517f08c379a0000000000000000000000000000000000000000000000000000000008152600401808060200182810382526025815260200180612de36025913960400191505060405180910390fd5b610c5d611aa5565b73ffffffffffffffffffffffffffffffffffffffff168573ffffffffffffffffffffffffffffffffffffffff161480610ca35750610ca285610c9d611aa5565b61169c565b5b610cf8576040517f08c379a0000000000000000000000000000000000000000000000000000000008152600401808060200182810382526032815260200180612e086032913960400191505060405180910390fd5b6000610d02611aa5565b9050610d12818787878787611aad565b60005b8451811015610ee3576000858281518110610d2c57fe5b602002602001015190506000858381518110610d4457fe5b60200260200101519050610dcb816040518060600160405280602a8152602001612e5d602a91396001600086815260200190815260200160002060008d73ffffffffffffffffffffffffffffffffffffffff1673ffffffffffffffffffffffffffffffffffffffff16815260200190815260200160002054611ab59092919063ffffffff16565b6001600084815260200190815260200160002060008b73ffffffffffffffffffffffffffffffffffffffff1673ffffffffffffffffffffffffffffffffffffffff16815260200190815260200160002081905550610e82816001600085815260200190815260200160002060008b73ffffffffffffffffffffffffffffffffffffffff1673ffffffffffffffffffffffffffffffffffffffff16815260200190815260200160002054611b6f90919063ffffffff16565b6001600084815260200190815260200160002060008a73ffffffffffffffffffffffffffffffffffffffff1673ffffffffffffffffffffffffffffffffffffffff168152602001908152602001600020819055505050806001019050610d15565b508473ffffffffffffffffffffffffffffffffffffffff168673ffffffffffffffffffffffffffffffffffffffff168273ffffffffffffffffffffffffffffffffffffffff167f4a39dc06d4c0dbc64b70af90fd698a233a518aa5d07e595d983b8c0526c8f7fb8787604051808060200180602001838103835285818151815260200191508051906020019060200280838360005b83811015610f93578082015181840152602081019050610f78565b50505050905001838103825284818151815260200191508051906020019060200280838360005b83811015610fd5578082015181840152602081019050610fba565b5050505090500194505050505060405180910390a4610ff8818787878787611bf7565b505050505050565b60026004541415611079576040517f08c379a000000000000000000000000000000000000000000000000000000000815260040180806020018281038252601f8152602001807f5265656e7472616e637947756172643a207265656e7472616e742063616c6c0081525060200191505060405180910390fd5b600260048190555060008273ffffffffffffffffffffffffffffffffffffffff166370a08231306040518263ffffffff1660e01b8152600401808273ffffffffffffffffffffffffffffffffffffffff16815260200191505060206040518083038186803b1580156110ea57600080fd5b505afa1580156110fe573d6000803e3d6000fd5b505050506040513d602081101561111457600080fd5b810190808051906020019092919050505090506111543330848673ffffffffffffffffffffffffffffffffffffffff16611f86909392919063ffffffff16565b60008373ffffffffffffffffffffffffffffffffffffffff166370a08231306040518263ffffffff1660e01b8152600401808273ffffffffffffffffffffffffffffffffffffffff16815260200191505060206040518083038186803b1580156111bd57600080fd5b505afa1580156111d1573d6000803e3d6000fd5b505050506040513d60208110156111e757600080fd5b8101908080519060200190929190505050905061122d338573ffffffffffffffffffffffffffffffffffffffff1684840360405180602001604052806000815250612047565b505060016004819055505050565b60608151835114611297576040517f08c379a0000000000000000000000000000000000000000000000000000000008152600401808060200182810382526029815260200180612eda6029913960400191505060405180910390fd5b6060835167ffffffffffffffff811180156112b157600080fd5b506040519080825280602002602001820160405280156112e05781602001602082028036833780820191505090505b50905060005b84518110156113425761131f8582815181106112fe57fe5b602002602001015185838151811061131257fe5b602002602001015161098a565b82828151811061132b57fe5b6020026020010181815250508060010190506112e6565b508091505092915050565b600061136f828473ffffffffffffffffffffffffffffffffffffffff1661098a565b905092915050565b600260045414156113f0576040517f08c379a000000000000000000000000000000000000000000000000000000000815260040180806020018281038252601f8152602001807f5265656e7472616e637947756172643a207265656e7472616e742063616c6c0081525060200191505060405180910390fd5b6002600481905550611419338373ffffffffffffffffffffffffffffffffffffffff168361224a565b61144433828473ffffffffffffffffffffffffffffffffffffffff166124669092919063ffffffff16565b60016004819055505050565b8173ffffffffffffffffffffffffffffffffffffffff1661146f611aa5565b73ffffffffffffffffffffffffffffffffffffffff1614156114dc576040517f08c379a0000000000000000000000000000000000000000000000000000000008152600401808060200182810382526029815260200180612e876029913960400191505060405180910390fd5b80600260006114e9611aa5565b73ffffffffffffffffffffffffffffffffffffffff1673ffffffffffffffffffffffffffffffffffffffff16815260200190815260200160002060008473ffffffffffffffffffffffffffffffffffffffff1673ffffffffffffffffffffffffffffffffffffffff16815260200190815260200160002060006101000a81548160ff0219169083151502179055508173ffffffffffffffffffffffffffffffffffffffff16611596611aa5565b73ffffffffffffffffffffffffffffffffffffffff167f17307eab39ab6107e8899845ad3d59bd9653f200f220920489ca2b5937696c318360405180821515815260200191505060405180910390a35050565b600080829050828173ffffffffffffffffffffffffffffffffffffffff161461167a576040517f08c379a000000000000000000000000000000000000000000000000000000000815260040180806020018281038252600b8152602001807f6964206f766572666c6f7700000000000000000000000000000000000000000081525060200191505060405180910390fd5b80915050919050565b60006e0100000000000000000000000000009050919050565b6000600260008473ffffffffffffffffffffffffffffffffffffffff1673ffffffffffffffffffffffffffffffffffffffff16815260200190815260200160002060008373ffffffffffffffffffffffffffffffffffffffff1673ffffffffffffffffffffffffffffffffffffffff16815260200190815260200160002060009054906101000a900460ff16905092915050565b600073ffffffffffffffffffffffffffffffffffffffff168473ffffffffffffffffffffffffffffffffffffffff1614156117b6576040517f08c379a0000000000000000000000000000000000000000000000000000000008152600401808060200182810382526025815260200180612de36025913960400191505060405180910390fd5b6117be611aa5565b73ffffffffffffffffffffffffffffffffffffffff168573ffffffffffffffffffffffffffffffffffffffff1614806118045750611803856117fe611aa5565b61169c565b5b611859576040517f08c379a0000000000000000000000000000000000000000000000000000000008152600401808060200182810382526029815260200180612d946029913960400191505060405180910390fd5b6000611863611aa5565b905061188381878761187488612508565b61187d88612508565b87611aad565b611900836040518060600160405280602a8152602001612e5d602a91396001600088815260200190815260200160002060008a73ffffffffffffffffffffffffffffffffffffffff1673ffffffffffffffffffffffffffffffffffffffff16815260200190815260200160002054611ab59092919063ffffffff16565b6001600086815260200190815260200160002060008873ffffffffffffffffffffffffffffffffffffffff1673ffffffffffffffffffffffffffffffffffffffff168152602001908152602001600020819055506119b7836001600087815260200190815260200160002060008873ffffffffffffffffffffffffffffffffffffffff1673ffffffffffffffffffffffffffffffffffffffff16815260200190815260200160002054611b6f90919063ffffffff16565b6001600086815260200190815260200160002060008773ffffffffffffffffffffffffffffffffffffffff1673ffffffffffffffffffffffffffffffffffffffff168152602001908152602001600020819055508473ffffffffffffffffffffffffffffffffffffffff168673ffffffffffffffffffffffffffffffffffffffff168273ffffffffffffffffffffffffffffffffffffffff167fc3d58168c5ae7397731d063d5bbf3d657854427343f4c083240f7aacaa2d0f628787604051808381526020018281526020019250505060405180910390a4611a9d818787878787612578565b505050505050565b600033905090565b505050505050565b6000838311158290611b62576040517f08c379a00000000000000000000000000000000000000000000000000000000081526004018080602001828103825283818151815260200191508051906020019080838360005b83811015611b27578082015181840152602081019050611b0c565b50505050905090810190601f168015611b545780820380516001836020036101000a031916815260200191505b509250505060405180910390fd5b5082840390509392505050565b600080828401905083811015611bed576040517f08c379a000000000000000000000000000000000000000000000000000000000815260040180806020018281038252601b8152602001807f536166654d6174683a206164646974696f6e206f766572666c6f77000000000081525060200191505060405180910390fd5b8091505092915050565b611c168473ffffffffffffffffffffffffffffffffffffffff16612885565b15611f7e578373ffffffffffffffffffffffffffffffffffffffff1663bc197c8187878686866040518663ffffffff1660e01b8152600401808673ffffffffffffffffffffffffffffffffffffffff1681526020018573ffffffffffffffffffffffffffffffffffffffff168152602001806020018060200180602001848103845287818151815260200191508051906020019060200280838360005b83811015611cce578082015181840152602081019050611cb3565b50505050905001848103835286818151815260200191508051906020019060200280838360005b83811015611d10578082015181840152602081019050611cf5565b50505050905001848103825285818151815260200191508051906020019080838360005b83811015611d4f578082015181840152602081019050611d34565b50505050905090810190601f168015611d7c5780820380516001836020036101000a031916815260200191505b5098505050505050505050602060405180830381600087803b158015611da157600080fd5b505af1925050508015611dd557506040513d6020811015611dc157600080fd5b810190808051906020019092919050505060015b611edf57611de1612c32565b80611dec5750611e8e565b806040517f08c379a00000000000000000000000000000000000000000000000000000000081526004018080602001828103825283818151815260200191508051906020019080838360005b83811015611e53578082015181840152602081019050611e38565b50505050905090810190601f168015611e805780820380516001836020036101000a031916815260200191505b509250505060405180910390fd5b6040517f08c379a0000000000000000000000000000000000000000000000000000000008152600401808060200182810382526034815260200180612ce96034913960400191505060405180910390fd5b63bc197c8160e01b7bffffffffffffffffffffffffffffffffffffffffffffffffffffffff1916817bffffffffffffffffffffffffffffffffffffffffffffffffffffffff191614611f7c576040517f08c379a0000000000000000000000000000000000000000000000000000000008152600401808060200182810382526028815260200180612d1d6028913960400191505060405180910390fd5b505b505050505050565b612041846323b872dd60e01b858585604051602401808473ffffffffffffffffffffffffffffffffffffffff1681526020018373ffffffffffffffffffffffffffffffffffffffff1681526020018281526020019350505050604051602081830303815290604052907bffffffffffffffffffffffffffffffffffffffffffffffffffffffff19166020820180517bffffffffffffffffffffffffffffffffffffffffffffffffffffffff8381831617835250505050612898565b50505050565b600073ffffffffffffffffffffffffffffffffffffffff168473ffffffffffffffffffffffffffffffffffffffff1614156120cd576040517f08c379a0000000000000000000000000000000000000000000000000000000008152600401808060200182810382526021815260200180612f2b6021913960400191505060405180910390fd5b60006120d7611aa5565b90506120f8816000876120e988612508565b6120f288612508565b87611aad565b61215b836001600087815260200190815260200160002060008873ffffffffffffffffffffffffffffffffffffffff1673ffffffffffffffffffffffffffffffffffffffff16815260200190815260200160002054611b6f90919063ffffffff16565b6001600086815260200190815260200160002060008773ffffffffffffffffffffffffffffffffffffffff1673ffffffffffffffffffffffffffffffffffffffff168152602001908152602001600020819055508473ffffffffffffffffffffffffffffffffffffffff16600073ffffffffffffffffffffffffffffffffffffffff168273ffffffffffffffffffffffffffffffffffffffff167fc3d58168c5ae7397731d063d5bbf3d657854427343f4c083240f7aacaa2d0f628787604051808381526020018281526020019250505060405180910390a461224381600087878787612578565b5050505050565b600073ffffffffffffffffffffffffffffffffffffffff168373ffffffffffffffffffffffffffffffffffffffff1614156122d0576040517f08c379a0000000000000000000000000000000000000000000000000000000008152600401808060200182810382526023815260200180612e3a6023913960400191505060405180910390fd5b60006122da611aa5565b905061230a818560006122ec87612508565b6122f587612508565b60405180602001604052806000815250611aad565b61238782604051806060016040528060248152602001612d70602491396001600087815260200190815260200160002060008873ffffffffffffffffffffffffffffffffffffffff1673ffffffffffffffffffffffffffffffffffffffff16815260200190815260200160002054611ab59092919063ffffffff16565b6001600085815260200190815260200160002060008673ffffffffffffffffffffffffffffffffffffffff1673ffffffffffffffffffffffffffffffffffffffff16815260200190815260200160002081905550600073ffffffffffffffffffffffffffffffffffffffff168473ffffffffffffffffffffffffffffffffffffffff168273ffffffffffffffffffffffffffffffffffffffff167fc3d58168c5ae7397731d063d5bbf3d657854427343f4c083240f7aacaa2d0f628686604051808381526020018281526020019250505060405180910390a450505050565b6125038363a9059cbb60e01b8484604051602401808373ffffffffffffffffffffffffffffffffffffffff16815260200182815260200192505050604051602081830303815290604052907bffffffffffffffffffffffffffffffffffffffffffffffffffffffff19166020820180517bffffffffffffffffffffffffffffffffffffffffffffffffffffffff8381831617835250505050612898565b505050565b606080600167ffffffffffffffff8111801561252357600080fd5b506040519080825280602002602001820160405280156125525781602001602082028036833780820191505090505b509050828160008151811061256357fe5b60200260200101818152505080915050919050565b6125978473ffffffffffffffffffffffffffffffffffffffff16612885565b1561287d578373ffffffffffffffffffffffffffffffffffffffff1663f23a6e6187878686866040518663ffffffff1660e01b8152600401808673ffffffffffffffffffffffffffffffffffffffff1681526020018573ffffffffffffffffffffffffffffffffffffffff16815260200184815260200183815260200180602001828103825283818151815260200191508051906020019080838360005b83811015612650578082015181840152602081019050612635565b50505050905090810190601f16801561267d5780820380516001836020036101000a031916815260200191505b509650505050505050602060405180830381600087803b1580156126a057600080fd5b505af19250505080156126d457506040513d60208110156126c057600080fd5b810190808051906020019092919050505060015b6127de576126e0612c32565b806126eb575061278d565b806040517f08c379a00000000000000000000000000000000000000000000000000000000081526004018080602001828103825283818151815260200191508051906020019080838360005b83811015612752578082015181840152602081019050612737565b50505050905090810190601f16801561277f5780820380516001836020036101000a031916815260200191505b509250505060405180910390fd5b6040517f08c379a0000000000000000000000000000000000000000000000000000000008152600401808060200182810382526034815260200180612ce96034913960400191505060405180910390fd5b63f23a6e6160e01b7bffffffffffffffffffffffffffffffffffffffffffffffffffffffff1916817bffffffffffffffffffffffffffffffffffffffffffffffffffffffff19161461287b576040517f08c379a0000000000000000000000000000000000000000000000000000000008152600401808060200182810382526028815260200180612d1d6028913960400191505060405180910390fd5b505b505050505050565b600080823b905060008111915050919050565b60606128fa826040518060400160405280602081526020017f5361666545524332303a206c6f772d6c6576656c2063616c6c206661696c65648152508573ffffffffffffffffffffffffffffffffffffffff166129879092919063ffffffff16565b90506000815111156129825780806020019051602081101561291b57600080fd5b8101908080519060200190929190505050612981576040517f08c379a000000000000000000000000000000000000000000000000000000000815260040180806020018281038252602a815260200180612eb0602a913960400191505060405180910390fd5b5b505050565b6060612996848460008561299f565b90509392505050565b6060824710156129fa576040517f08c379a0000000000000000000000000000000000000000000000000000000008152600401808060200182810382526026815260200180612dbd6026913960400191505060405180910390fd5b612a0385612885565b612a75576040517f08c379a000000000000000000000000000000000000000000000000000000000815260040180806020018281038252601d8152602001807f416464726573733a2063616c6c20746f206e6f6e2d636f6e747261637400000081525060200191505060405180910390fd5b600060608673ffffffffffffffffffffffffffffffffffffffff1685876040518082805190602001908083835b60208310612ac55780518252602082019150602081019050602083039250612aa2565b6001836020036101000a03801982511681845116808217855250505050505090500191505060006040518083038185875af1925050503d8060008114612b27576040519150601f19603f3d011682016040523d82523d6000602084013e612b2c565b606091505b5091509150612b3c828286612b48565b92505050949350505050565b60608315612b5857829050612c0d565b600083511115612b6b5782518084602001fd5b816040517f08c379a00000000000000000000000000000000000000000000000000000000081526004018080602001828103825283818151815260200191508051906020019080838360005b83811015612bd2578082015181840152602081019050612bb7565b50505050905090810190601f168015612bff5780820380516001836020036101000a031916815260200191505b509250505060405180910390fd5b9392505050565b6000601f19601f8301169050919050565b60008160e01c9050919050565b600060443d1015612c4257612ce5565b60046000803e612c53600051612c25565b6308c379a08114612c645750612ce5565b60405160043d036004823e80513d602482011167ffffffffffffffff82111715612c9057505050612ce5565b808201805167ffffffffffffffff811115612caf575050505050612ce5565b8060208301013d8501811115612cca57505050505050612ce5565b612cd382612c14565b60208401016040528296505050505050505b9056fe455243313135353a207472616e7366657220746f206e6f6e2045524331313535526563656976657220696d706c656d656e746572455243313135353a204552433131353552656365697665722072656a656374656420746f6b656e73455243313135353a2062616c616e636520717565727920666f7220746865207a65726f2061646472657373455243313135353a206275726e20616d6f756e7420657863656564732062616c616e6365455243313135353a2063616c6c6572206973206e6f74206f776e6572206e6f7220617070726f766564416464726573733a20696e73756666696369656e742062616c616e636520666f722063616c6c455243313135353a207472616e7366657220746f20746865207a65726f2061646472657373455243313135353a207472616e736665722063616c6c6572206973206e6f74206f776e6572206e6f7220617070726f766564455243313135353a206275726e2066726f6d20746865207a65726f2061646472657373455243313135353a20696e73756666696369656e742062616c616e636520666f72207472616e73666572455243313135353a2073657474696e6720617070726f76616c2073746174757320666f722073656c665361666545524332303a204552433230206f7065726174696f6e20646964206e6f742073756363656564455243313135353a206163636f756e747320616e6420696473206c656e677468206d69736d61746368455243313135353a2069647320616e6420616d6f756e7473206c656e677468206d69736d61746368455243313135353a206d696e7420746f20746865207a65726f2061646472657373a2646970667358221220b74569f1379e011a578a6d6c514c4ffd1b23f3da62eae8f16bad732334f3187564736f6c634300060c0033",
  "linkReferences": {},
  "deployedLinkReferences": {}
}