{
  "_format": "hh-sol-artifact-1",
  "contractName": "HouseHoldSpell",
  "sourceName": "contracts/spell/HouseHoldSpell.sol",
  "abi": [
    {
      "inputs": [
        {
          "internalType": "contract IBank",
          "name": "_bank",
          "type": "address"
        },
        {
          "internalType": "address",
          "name": "_werc20",
          "type": "address"
        },
        {
          "internalType": "address",
          "name": "_weth",
          "type": "address"
        }
      ],
      "stateMutability": "nonpayable",
      "type": "constructor"
    },
    {
      "inputs": [
        {
          "internalType": "address",
          "name": "",
          "type": "address"
        },
        {
          "internalType": "address",
          "name": "",
          "type": "address"
        }
      ],
      "name": "approved",
      "outputs": [
        {
          "internalType": "bool",
          "name": "",
          "type": "bool"
        }
      ],
      "stateMutability": "view",
      "type": "function"
    },
    {
      "inputs": [],
      "name": "bank",
      "outputs": [
        {
          "internalType": "contract IBank",
          "name": "",
          "type": "address"
        }
      ],
      "stateMutability": "view",
      "type": "function"
    },
    {
      "inputs": [
        {
          "internalType": "address",
          "name": "token",
          "type": "address"
        },
        {
          "internalType": "uint256",
          "name": "amount",
          "type": "uint256"
        }
      ],
      "name": "borrow",
      "outputs": [],
      "stateMutability": "nonpayable",
      "type": "function"
    },
    {
      "inputs": [
        {
          "internalType": "uint256",
          "name": "amount",
          "type": "uint256"
        }
      ],
      "name": "borrowETH",
      "outputs": [],
      "stateMutability": "nonpayable",
      "type": "function"
    },
    {
      "inputs": [
        {
          "internalType": "address",
          "name": "",
          "type": "address"
        },
        {
          "internalType": "address",
          "name": "",
          "type": "address"
        },
        {
          "internalType": "uint256[]",
          "name": "",
          "type": "uint256[]"
        },
        {
          "internalType": "uint256[]",
          "name": "",
          "type": "uint256[]"
        },
        {
          "internalType": "bytes",
          "name": "",
          "type": "bytes"
        }
      ],
      "name": "onERC1155BatchReceived",
      "outputs": [
        {
          "internalType": "bytes4",
          "name": "",
          "type": "bytes4"
        }
      ],
      "stateMutability": "nonpayable",
      "type": "function"
    },
    {
      "inputs": [
        {
          "internalType": "address",
          "name": "",
          "type": "address"
        },
        {
          "internalType": "address",
          "name": "",
          "type": "address"
        },
        {
          "internalType": "uint256",
          "name": "",
          "type": "uint256"
        },
        {
          "internalType": "uint256",
          "name": "",
          "type": "uint256"
        },
        {
          "internalType": "bytes",
          "name": "",
          "type": "bytes"
        }
      ],
      "name": "onERC1155Received",
      "outputs": [
        {
          "internalType": "bytes4",
          "name": "",
          "type": "bytes4"
        }
      ],
      "stateMutability": "nonpayable",
      "type": "function"
    },
    {
      "inputs": [
        {
          "internalType": "address",
          "name": "token",
          "type": "address"
        },
        {
          "internalType": "uint256",
          "name": "amount",
          "type": "uint256"
        }
      ],
      "name": "putCollateral",
      "outputs": [],
      "stateMutability": "nonpayable",
      "type": "function"
    },
    {
      "inputs": [
        {
          "internalType": "address",
          "name": "token",
          "type": "address"
        },
        {
          "internalType": "uint256",
          "name": "amount",
          "type": "uint256"
        }
      ],
      "name": "repay",
      "outputs": [],
      "stateMutability": "nonpayable",
      "type": "function"
    },
    {
      "inputs": [
        {
          "internalType": "uint256",
          "name": "amount",
          "type": "uint256"
        }
      ],
      "name": "repayETH",
      "outputs": [],
      "stateMutability": "payable",
      "type": "function"
    },
    {
      "inputs": [
        {
          "internalType": "bytes4",
          "name": "interfaceId",
          "type": "bytes4"
        }
      ],
      "name": "supportsInterface",
      "outputs": [
        {
          "internalType": "bool",
          "name": "",
          "type": "bool"
        }
      ],
      "stateMutability": "view",
      "type": "function"
    },
    {
      "inputs": [
        {
          "internalType": "address",
          "name": "token",
          "type": "address"
        },
        {
          "internalType": "uint256",
          "name": "amount",
          "type": "uint256"
        }
      ],
      "name": "takeCollateral",
      "outputs": [],
      "stateMutability": "nonpayable",
      "type": "function"
    },
    {
      "inputs": [],
      "name": "werc20",
      "outputs": [
        {
          "internalType": "contract IWERC20",
          "name": "",
          "type": "address"
        }
      ],
      "stateMutability": "view",
      "type": "function"
    },
    {
      "inputs": [],
      "name": "weth",
      "outputs": [
        {
          "internalType": "address",
          "name": "",
          "type": "address"
        }
      ],
      "stateMutability": "view",
      "type": "function"
    },
    {
      "stateMutability": "payable",
      "type": "receive"
    }
  ],
  "bytecode": "0x60e06040523480156200001157600080fd5b5060405162002a8538038062002a85833981810160405260608110156200003757600080fd5b81019080805190602001909291908051906020019092919080519060200190929190505050828282620000776301ffc9a760e01b620001e960201b60201c565b6200009863bc197c8160e01b63f23a6e6160e01b18620001e960201b60201c565b8273ffffffffffffffffffffffffffffffffffffffff1660808173ffffffffffffffffffffffffffffffffffffffff1660601b815250508173ffffffffffffffffffffffffffffffffffffffff1660a08173ffffffffffffffffffffffffffffffffffffffff1660601b815250508073ffffffffffffffffffffffffffffffffffffffff1660c08173ffffffffffffffffffffffffffffffffffffffff1660601b815250506200014f8184620002f260201b60201c565b8173ffffffffffffffffffffffffffffffffffffffff1663a22cb4658460016040518363ffffffff1660e01b8152600401808373ffffffffffffffffffffffffffffffffffffffff168152602001821515815260200192505050600060405180830381600087803b158015620001c457600080fd5b505af1158015620001d9573d6000803e3d6000fd5b50505050505050505050620009ff565b63ffffffff60e01b817bffffffffffffffffffffffffffffffffffffffffffffffffffffffff1916141562000286576040517f08c379a000000000000000000000000000000000000000000000000000000000815260040180806020018281038252601c8152602001807f4552433136353a20696e76616c696420696e746572666163652069640000000081525060200191505060405180910390fd5b6001600080837bffffffffffffffffffffffffffffffffffffffffffffffffffffffff19167bffffffffffffffffffffffffffffffffffffffffffffffffffffffff1916815260200190815260200160002060006101000a81548160ff02191690831515021790555050565b604160008373ffffffffffffffffffffffffffffffffffffffff1673ffffffffffffffffffffffffffffffffffffffff16815260200190815260200160002060008273ffffffffffffffffffffffffffffffffffffffff1673ffffffffffffffffffffffffffffffffffffffff16815260200190815260200160002060009054906101000a900460ff166200046957620003d3817fffffffffffffffffffffffffffffffffffffffffffffffffffffffffffffffff8473ffffffffffffffffffffffffffffffffffffffff166200046d60201b62000b14179092919060201c565b6001604160008473ffffffffffffffffffffffffffffffffffffffff1673ffffffffffffffffffffffffffffffffffffffff16815260200190815260200160002060008373ffffffffffffffffffffffffffffffffffffffff1673ffffffffffffffffffffffffffffffffffffffff16815260200190815260200160002060006101000a81548160ff0219169083151502179055505b5050565b60008114806200053f575060008373ffffffffffffffffffffffffffffffffffffffff1663dd62ed3e30856040518363ffffffff1660e01b8152600401808373ffffffffffffffffffffffffffffffffffffffff1681526020018273ffffffffffffffffffffffffffffffffffffffff1681526020019250505060206040518083038186803b1580156200050057600080fd5b505afa15801562000515573d6000803e3d6000fd5b505050506040513d60208110156200052c57600080fd5b8101908080519060200190929190505050145b62000596576040517f08c379a000000000000000000000000000000000000000000000000000000000815260040180806020018281038252603681526020018062002a4f6036913960400191505060405180910390fd5b6200063b8363095ea7b360e01b8484604051602401808373ffffffffffffffffffffffffffffffffffffffff16815260200182815260200192505050604051602081830303815290604052907bffffffffffffffffffffffffffffffffffffffffffffffffffffffff19166020820180517bffffffffffffffffffffffffffffffffffffffffffffffffffffffff83818316178352505050506200064060201b60201c565b505050565b6060620006a9826040518060400160405280602081526020017f5361666545524332303a206c6f772d6c6576656c2063616c6c206661696c65648152508573ffffffffffffffffffffffffffffffffffffffff166200073a60201b62000cd9179092919060201c565b90506000815111156200073557808060200190516020811015620006cc57600080fd5b810190808051906020019092919050505062000734576040517f08c379a000000000000000000000000000000000000000000000000000000000815260040180806020018281038252602a81526020018062002a25602a913960400191505060405180910390fd5b5b505050565b60606200075184846000856200075a60201b60201c565b90509392505050565b606082471015620007b7576040517f08c379a0000000000000000000000000000000000000000000000000000000008152600401808060200182810382526026815260200180620029ff6026913960400191505060405180910390fd5b620007c8856200091a60201b60201c565b6200083b576040517f08c379a000000000000000000000000000000000000000000000000000000000815260040180806020018281038252601d8152602001807f416464726573733a2063616c6c20746f206e6f6e2d636f6e747261637400000081525060200191505060405180910390fd5b600060608673ffffffffffffffffffffffffffffffffffffffff1685876040518082805190602001908083835b602083106200088d578051825260208201915060208101905060208303925062000868565b6001836020036101000a03801982511681845116808217855250505050505090500191505060006040518083038185875af1925050503d8060008114620008f1576040519150601f19603f3d011682016040523d82523d6000602084013e620008f6565b606091505b50915091506200090e8282866200092d60201b60201c565b92505050949350505050565b600080823b905060008111915050919050565b606083156200093f57829050620009f8565b600083511115620009535782518084602001fd5b816040517f08c379a00000000000000000000000000000000000000000000000000000000081526004018080602001828103825283818151815260200191508051906020019080838360005b83811015620009bc5780820151818401526020810190506200099f565b50505050905090810190601f168015620009ea5780820380516001836020036101000a031916815260200191505b509250505060405180910390fd5b9392505050565b60805160601c60a05160601c60c05160601c611f6762000a986000398060cd528061084652806109315280610a875280610cfc5280610e635280610f32525080610a3c528061129d52806112c352806113a85280611592528061163d525080610a605280610d8d5280610db35280610fbf52806111e2528061136c52806114895280611556528061179d52806118735250611f676000f3fe6080604052600436106100c65760003560e01c80634b8a35291161007f5780637b2af625116100595780637b2af62514610460578063bc197c811461049b578063f23a6e611461063e578063f4b160451461074b5761018e565b80634b8a3529146103835780635741229c146103de57806376cdb03b1461041f5761018e565b806301ffc9a7146101935780632247463e1461020357806322867d78146102315780633fc8cef31461028c578063451a036e146102cd57806349d63489146103285761018e565b3661018e577f000000000000000000000000000000000000000000000000000000000000000073ffffffffffffffffffffffffffffffffffffffff163373ffffffffffffffffffffffffffffffffffffffff161461018c576040517f08c379a00000000000000000000000000000000000000000000000000000000081526004018080602001828103825260178152602001807f455448206d75737420636f6d652066726f6d205745544800000000000000000081525060200191505060405180910390fd5b005b600080fd5b34801561019f57600080fd5b506101eb600480360360208110156101b657600080fd5b8101908080357bffffffffffffffffffffffffffffffffffffffffffffffffffffffff191690602001909291905050506107d2565b60405180821515815260200191505060405180910390f35b61022f6004803603602081101561021957600080fd5b8101908080359060200190929190505050610839565b005b34801561023d57600080fd5b5061028a6004803603604081101561025457600080fd5b81019080803573ffffffffffffffffffffffffffffffffffffffff16906020019092919080359060200190929190505050610876565b005b34801561029857600080fd5b506102a161092f565b604051808273ffffffffffffffffffffffffffffffffffffffff16815260200191505060405180910390f35b3480156102d957600080fd5b50610326600480360360408110156102f057600080fd5b81019080803573ffffffffffffffffffffffffffffffffffffffff16906020019092919080359060200190929190505050610953565b005b34801561033457600080fd5b506103816004803603604081101561034b57600080fd5b81019080803573ffffffffffffffffffffffffffffffffffffffff16906020019092919080359060200190929190505050610a0c565b005b34801561038f57600080fd5b506103dc600480360360408110156103a657600080fd5b81019080803573ffffffffffffffffffffffffffffffffffffffff16906020019092919080359060200190929190505050610a23565b005b3480156103ea57600080fd5b506103f3610a3a565b604051808273ffffffffffffffffffffffffffffffffffffffff16815260200191505060405180910390f35b34801561042b57600080fd5b50610434610a5e565b604051808273ffffffffffffffffffffffffffffffffffffffff16815260200191505060405180910390f35b34801561046c57600080fd5b506104996004803603602081101561048357600080fd5b8101908080359060200190929190505050610a82565b005b3480156104a757600080fd5b50610609600480360360a08110156104be57600080fd5b81019080803573ffffffffffffffffffffffffffffffffffffffff169060200190929190803573ffffffffffffffffffffffffffffffffffffffff1690602001909291908035906020019064010000000081111561051b57600080fd5b82018360208201111561052d57600080fd5b8035906020019184602083028401116401000000008311171561054f57600080fd5b90919293919293908035906020019064010000000081111561057057600080fd5b82018360208201111561058257600080fd5b803590602001918460208302840111640100000000831117156105a457600080fd5b9091929391929390803590602001906401000000008111156105c557600080fd5b8201836020820111156105d757600080fd5b803590602001918460018302840111640100000000831117156105f957600080fd5b9091929391929390505050610ab7565b60405180827bffffffffffffffffffffffffffffffffffffffffffffffffffffffff1916815260200191505060405180910390f35b34801561064a57600080fd5b50610716600480360360a081101561066157600080fd5b81019080803573ffffffffffffffffffffffffffffffffffffffff169060200190929190803573ffffffffffffffffffffffffffffffffffffffff1690602001909291908035906020019092919080359060200190929190803590602001906401000000008111156106d257600080fd5b8201836020820111156106e457600080fd5b8035906020019184600183028401116401000000008311171561070657600080fd5b9091929391929390505050610acf565b60405180827bffffffffffffffffffffffffffffffffffffffffffffffffffffffff1916815260200191505060405180910390f35b34801561075757600080fd5b506107ba6004803603604081101561076e57600080fd5b81019080803573ffffffffffffffffffffffffffffffffffffffff169060200190929190803573ffffffffffffffffffffffffffffffffffffffff169060200190929190505050610ae5565b60405180821515815260200191505060405180910390f35b6000806000837bffffffffffffffffffffffffffffffffffffffffffffffffffffffff19167bffffffffffffffffffffffffffffffffffffffffffffffffffffffff1916815260200190815260200160002060009054906101000a900460ff169050919050565b610841610cf1565b61086b7f000000000000000000000000000000000000000000000000000000000000000082610d7e565b610873610e5f565b50565b61088082826111d7565b61092b828373ffffffffffffffffffffffffffffffffffffffff166370a08231306040518263ffffffff1660e01b8152600401808273ffffffffffffffffffffffffffffffffffffffff16815260200191505060206040518083038186803b1580156108eb57600080fd5b505afa1580156108ff573d6000803e3d6000fd5b505050506040513d602081101561091557600080fd5b8101908080519060200190929190505050610d7e565b5050565b7f000000000000000000000000000000000000000000000000000000000000000081565b61095d82826111d7565b610a08828373ffffffffffffffffffffffffffffffffffffffff166370a08231306040518263ffffffff1660e01b8152600401808273ffffffffffffffffffffffffffffffffffffffff16815260200191505060206040518083038186803b1580156109c857600080fd5b505afa1580156109dc573d6000803e3d6000fd5b505050506040513d60208110156109f257600080fd5b810190808051906020019092919050505061128e565b5050565b610a168282611456565b610a1f826116e9565b5050565b610a2d8282611868565b610a36826116e9565b5050565b7f000000000000000000000000000000000000000000000000000000000000000081565b7f000000000000000000000000000000000000000000000000000000000000000081565b610aac7f000000000000000000000000000000000000000000000000000000000000000082611868565b610ab4610e5f565b50565b600063bc197c8160e01b905098975050505050505050565b600063f23a6e6160e01b90509695505050505050565b60416020528160005260406000206020528060005260406000206000915091509054906101000a900460ff1681565b6000811480610be2575060008373ffffffffffffffffffffffffffffffffffffffff1663dd62ed3e30856040518363ffffffff1660e01b8152600401808373ffffffffffffffffffffffffffffffffffffffff1681526020018273ffffffffffffffffffffffffffffffffffffffff1681526020019250505060206040518083038186803b158015610ba557600080fd5b505afa158015610bb9573d6000803e3d6000fd5b505050506040513d6020811015610bcf57600080fd5b8101908080519060200190929190505050145b610c37576040517f08c379a0000000000000000000000000000000000000000000000000000000008152600401808060200182810382526036815260200180611efc6036913960400191505060405180910390fd5b610cd48363095ea7b360e01b8484604051602401808373ffffffffffffffffffffffffffffffffffffffff16815260200182815260200192505050604051602081830303815290604052907bffffffffffffffffffffffffffffffffffffffffffffffffffffffff19166020820180517bffffffffffffffffffffffffffffffffffffffffffffffffffffffff838183161783525050505061191f565b505050565b6060610ce88484600085611a0e565b90509392505050565b6000341115610d7c577f000000000000000000000000000000000000000000000000000000000000000073ffffffffffffffffffffffffffffffffffffffff1663d0e30db0346040518263ffffffff1660e01b81526004016000604051808303818588803b158015610d6257600080fd5b505af1158015610d76573d6000803e3d6000fd5b50505050505b565b6000811115610e5b57610db1827f0000000000000000000000000000000000000000000000000000000000000000611bb7565b7f000000000000000000000000000000000000000000000000000000000000000073ffffffffffffffffffffffffffffffffffffffff166322867d7883836040518363ffffffff1660e01b8152600401808373ffffffffffffffffffffffffffffffffffffffff16815260200182815260200192505050600060405180830381600087803b158015610e4257600080fd5b505af1158015610e56573d6000803e3d6000fd5b505050505b5050565b60007f000000000000000000000000000000000000000000000000000000000000000073ffffffffffffffffffffffffffffffffffffffff166370a08231306040518263ffffffff1660e01b8152600401808273ffffffffffffffffffffffffffffffffffffffff168152602001915050602060405180830381600087803b158015610eea57600080fd5b505af1158015610efe573d6000803e3d6000fd5b505050506040513d6020811015610f1457600080fd5b8101908080519060200190929190505050905060008111156111d4577f000000000000000000000000000000000000000000000000000000000000000073ffffffffffffffffffffffffffffffffffffffff16632e1a7d4d826040518263ffffffff1660e01b815260040180828152602001915050600060405180830381600087803b158015610fa357600080fd5b505af1158015610fb7573d6000803e3d6000fd5b5050505060007f000000000000000000000000000000000000000000000000000000000000000073ffffffffffffffffffffffffffffffffffffffff1663630dc7cb6040518163ffffffff1660e01b815260040160206040518083038186803b15801561102357600080fd5b505afa158015611037573d6000803e3d6000fd5b505050506040513d602081101561104d57600080fd5b810190808051906020019092919050505073ffffffffffffffffffffffffffffffffffffffff1682600067ffffffffffffffff8111801561108d57600080fd5b506040519080825280601f01601f1916602001820160405280156110c05781602001600182028036833780820191505090505b506040518082805190602001908083835b602083106110f457805182526020820191506020810190506020830392506110d1565b6001836020036101000a03801982511681845116808217855250505050505090500191505060006040518083038185875af1925050503d8060008114611156576040519150601f19603f3d011682016040523d82523d6000602084013e61115b565b606091505b50509050806111d2576040517f08c379a00000000000000000000000000000000000000000000000000000000081526004018080602001828103825260118152602001807f726566756e6420455448206661696c656400000000000000000000000000000081525060200191505060405180910390fd5b505b50565b600081111561128a577f000000000000000000000000000000000000000000000000000000000000000073ffffffffffffffffffffffffffffffffffffffff166348d6bbc283836040518363ffffffff1660e01b8152600401808373ffffffffffffffffffffffffffffffffffffffff16815260200182815260200192505050600060405180830381600087803b15801561127157600080fd5b505af1158015611285573d6000803e3d6000fd5b505050505b5050565b6000811115611452576112c1827f0000000000000000000000000000000000000000000000000000000000000000611bb7565b7f000000000000000000000000000000000000000000000000000000000000000073ffffffffffffffffffffffffffffffffffffffff166340c10f1983836040518363ffffffff1660e01b8152600401808373ffffffffffffffffffffffffffffffffffffffff16815260200182815260200192505050600060405180830381600087803b15801561135257600080fd5b505af1158015611366573d6000803e3d6000fd5b505050507f000000000000000000000000000000000000000000000000000000000000000073ffffffffffffffffffffffffffffffffffffffff1663314568d97f00000000000000000000000000000000000000000000000000000000000000008473ffffffffffffffffffffffffffffffffffffffff16846040518463ffffffff1660e01b8152600401808473ffffffffffffffffffffffffffffffffffffffff1681526020018381526020018281526020019350505050600060405180830381600087803b15801561143957600080fd5b505af115801561144d573d6000803e3d6000fd5b505050505b5050565b60008111156116e5577fffffffffffffffffffffffffffffffffffffffffffffffffffffffffffffffff811415611554577f000000000000000000000000000000000000000000000000000000000000000073ffffffffffffffffffffffffffffffffffffffff1663f70aedd96040518163ffffffff1660e01b815260040160806040518083038186803b1580156114ed57600080fd5b505afa158015611501573d6000803e3d6000fd5b505050506040513d608081101561151757600080fd5b8101908080519060200190929190805190602001909291908051906020019092919080519060200190929190505050909192509091509050809150505b7f000000000000000000000000000000000000000000000000000000000000000073ffffffffffffffffffffffffffffffffffffffff166368eb4ba87f00000000000000000000000000000000000000000000000000000000000000008473ffffffffffffffffffffffffffffffffffffffff16846040518463ffffffff1660e01b8152600401808473ffffffffffffffffffffffffffffffffffffffff1681526020018381526020018281526020019350505050600060405180830381600087803b15801561162357600080fd5b505af1158015611637573d6000803e3d6000fd5b505050507f000000000000000000000000000000000000000000000000000000000000000073ffffffffffffffffffffffffffffffffffffffff16639dc29fac83836040518363ffffffff1660e01b8152600401808373ffffffffffffffffffffffffffffffffffffffff16815260200182815260200192505050600060405180830381600087803b1580156116cc57600080fd5b505af11580156116e0573d6000803e3d6000fd5b505050505b5050565b60008173ffffffffffffffffffffffffffffffffffffffff166370a08231306040518263ffffffff1660e01b8152600401808273ffffffffffffffffffffffffffffffffffffffff16815260200191505060206040518083038186803b15801561175257600080fd5b505afa158015611766573d6000803e3d6000fd5b505050506040513d602081101561177c57600080fd5b810190808051906020019092919050505090506000811115611864576118637f000000000000000000000000000000000000000000000000000000000000000073ffffffffffffffffffffffffffffffffffffffff1663630dc7cb6040518163ffffffff1660e01b815260040160206040518083038186803b15801561180157600080fd5b505afa158015611815573d6000803e3d6000fd5b505050506040513d602081101561182b57600080fd5b8101908080519060200190929190505050828473ffffffffffffffffffffffffffffffffffffffff16611d2a9092919063ffffffff16565b5b5050565b600081111561191b577f000000000000000000000000000000000000000000000000000000000000000073ffffffffffffffffffffffffffffffffffffffff16634b8a352983836040518363ffffffff1660e01b8152600401808373ffffffffffffffffffffffffffffffffffffffff16815260200182815260200192505050600060405180830381600087803b15801561190257600080fd5b505af1158015611916573d6000803e3d6000fd5b505050505b5050565b6060611981826040518060400160405280602081526020017f5361666545524332303a206c6f772d6c6576656c2063616c6c206661696c65648152508573ffffffffffffffffffffffffffffffffffffffff16610cd99092919063ffffffff16565b9050600081511115611a09578080602001905160208110156119a257600080fd5b8101908080519060200190929190505050611a08576040517f08c379a000000000000000000000000000000000000000000000000000000000815260040180806020018281038252602a815260200180611ed2602a913960400191505060405180910390fd5b5b505050565b606082471015611a69576040517f08c379a0000000000000000000000000000000000000000000000000000000008152600401808060200182810382526026815260200180611eac6026913960400191505060405180910390fd5b611a7285611dcc565b611ae4576040517f08c379a000000000000000000000000000000000000000000000000000000000815260040180806020018281038252601d8152602001807f416464726573733a2063616c6c20746f206e6f6e2d636f6e747261637400000081525060200191505060405180910390fd5b600060608673ffffffffffffffffffffffffffffffffffffffff1685876040518082805190602001908083835b60208310611b345780518252602082019150602081019050602083039250611b11565b6001836020036101000a03801982511681845116808217855250505050505090500191505060006040518083038185875af1925050503d8060008114611b96576040519150601f19603f3d011682016040523d82523d6000602084013e611b9b565b606091505b5091509150611bab828286611ddf565b92505050949350505050565b604160008373ffffffffffffffffffffffffffffffffffffffff1673ffffffffffffffffffffffffffffffffffffffff16815260200190815260200160002060008273ffffffffffffffffffffffffffffffffffffffff1673ffffffffffffffffffffffffffffffffffffffff16815260200190815260200160002060009054906101000a900460ff16611d2657611c90817fffffffffffffffffffffffffffffffffffffffffffffffffffffffffffffffff8473ffffffffffffffffffffffffffffffffffffffff16610b149092919063ffffffff16565b6001604160008473ffffffffffffffffffffffffffffffffffffffff1673ffffffffffffffffffffffffffffffffffffffff16815260200190815260200160002060008373ffffffffffffffffffffffffffffffffffffffff1673ffffffffffffffffffffffffffffffffffffffff16815260200190815260200160002060006101000a81548160ff0219169083151502179055505b5050565b611dc78363a9059cbb60e01b8484604051602401808373ffffffffffffffffffffffffffffffffffffffff16815260200182815260200192505050604051602081830303815290604052907bffffffffffffffffffffffffffffffffffffffffffffffffffffffff19166020820180517bffffffffffffffffffffffffffffffffffffffffffffffffffffffff838183161783525050505061191f565b505050565b600080823b905060008111915050919050565b60608315611def57829050611ea4565b600083511115611e025782518084602001fd5b816040517f08c379a00000000000000000000000000000000000000000000000000000000081526004018080602001828103825283818151815260200191508051906020019080838360005b83811015611e69578082015181840152602081019050611e4e565b50505050905090810190601f168015611e965780820380516001836020036101000a031916815260200191505b509250505060405180910390fd5b939250505056fe416464726573733a20696e73756666696369656e742062616c616e636520666f722063616c6c5361666545524332303a204552433230206f7065726174696f6e20646964206e6f7420737563636565645361666545524332303a20617070726f76652066726f6d206e6f6e2d7a65726f20746f206e6f6e2d7a65726f20616c6c6f77616e6365a2646970667358221220b9f8850be6754ebf7a57c24462afcc20b4d2bf396646b53ccfff4a967ffb8b0364736f6c634300060c0033416464726573733a20696e73756666696369656e742062616c616e636520666f722063616c6c5361666545524332303a204552433230206f7065726174696f6e20646964206e6f7420737563636565645361666545524332303a20617070726f76652066726f6d206e6f6e2d7a65726f20746f206e6f6e2d7a65726f20616c6c6f77616e6365",
  "linkReferences": {},
  "deployedLinkReferences": {}
}