{
  "_format": "hh-sol-artifact-1",
  "contractName": "IbETHRouterV2",
  "sourceName": "contracts/IbETHRouterV2.sol",
  "abi": [
    {
      "inputs": [
        {
          "internalType": "contract IERC20",
          "name": "_alpha",
          "type": "address"
        },
        {
          "internalType": "contract IbETHRouterV2IbETHv2",
          "name": "_ibETHv2",
          "type": "address"
        },
        {
          "internalType": "contract IbETHRouterV2UniswapRouter",
          "name": "_router",
          "type": "address"
        }
      ],
      "stateMutability": "nonpayable",
      "type": "constructor"
    },
    {
      "inputs": [
        {
          "internalType": "uint256",
          "name": "amountAlpha",
          "type": "uint256"
        },
        {
          "internalType": "uint256",
          "name": "minLp",
          "type": "uint256"
        },
        {
          "internalType": "address",
          "name": "to",
          "type": "address"
        },
        {
          "internalType": "uint256",
          "name": "deadline",
          "type": "uint256"
        }
      ],
      "name": "addLiquidityETHAlphaOptimal",
      "outputs": [],
      "stateMutability": "payable",
      "type": "function"
    },
    {
      "inputs": [
        {
          "internalType": "uint256",
          "name": "amountIbETHv2",
          "type": "uint256"
        },
        {
          "internalType": "uint256",
          "name": "amountAlpha",
          "type": "uint256"
        },
        {
          "internalType": "uint256",
          "name": "minLp",
          "type": "uint256"
        },
        {
          "internalType": "address",
          "name": "to",
          "type": "address"
        },
        {
          "internalType": "uint256",
          "name": "deadline",
          "type": "uint256"
        }
      ],
      "name": "addLiquidityIbETHv2AlphaOptimal",
      "outputs": [],
      "stateMutability": "nonpayable",
      "type": "function"
    },
    {
      "inputs": [],
      "name": "alpha",
      "outputs": [
        {
          "internalType": "contract IERC20",
          "name": "",
          "type": "address"
        }
      ],
      "stateMutability": "view",
      "type": "function"
    },
    {
      "inputs": [],
      "name": "ibETHv2",
      "outputs": [
        {
          "internalType": "contract IbETHRouterV2IbETHv2",
          "name": "",
          "type": "address"
        }
      ],
      "stateMutability": "view",
      "type": "function"
    },
    {
      "inputs": [],
      "name": "lpToken",
      "outputs": [
        {
          "internalType": "contract IbETHRouterV2UniswapPair",
          "name": "",
          "type": "address"
        }
      ],
      "stateMutability": "view",
      "type": "function"
    },
    {
      "inputs": [
        {
          "internalType": "uint256",
          "name": "liquidity",
          "type": "uint256"
        },
        {
          "internalType": "uint256",
          "name": "minAlpha",
          "type": "uint256"
        },
        {
          "internalType": "address",
          "name": "to",
          "type": "address"
        },
        {
          "internalType": "uint256",
          "name": "deadline",
          "type": "uint256"
        }
      ],
      "name": "removeLiquidityAlphaOnly",
      "outputs": [],
      "stateMutability": "nonpayable",
      "type": "function"
    },
    {
      "inputs": [
        {
          "internalType": "uint256",
          "name": "liquidity",
          "type": "uint256"
        },
        {
          "internalType": "uint256",
          "name": "minETH",
          "type": "uint256"
        },
        {
          "internalType": "uint256",
          "name": "minAlpha",
          "type": "uint256"
        },
        {
          "internalType": "address",
          "name": "to",
          "type": "address"
        },
        {
          "internalType": "uint256",
          "name": "deadline",
          "type": "uint256"
        }
      ],
      "name": "removeLiquidityETHAlpha",
      "outputs": [],
      "stateMutability": "nonpayable",
      "type": "function"
    },
    {
      "inputs": [],
      "name": "router",
      "outputs": [
        {
          "internalType": "contract IbETHRouterV2UniswapRouter",
          "name": "",
          "type": "address"
        }
      ],
      "stateMutability": "view",
      "type": "function"
    },
    {
      "inputs": [
        {
          "internalType": "uint256",
          "name": "amountIn",
          "type": "uint256"
        },
        {
          "internalType": "uint256",
          "name": "amountOutMin",
          "type": "uint256"
        },
        {
          "internalType": "address",
          "name": "to",
          "type": "address"
        },
        {
          "internalType": "uint256",
          "name": "deadline",
          "type": "uint256"
        }
      ],
      "name": "swapExactAlphaToETH",
      "outputs": [],
      "stateMutability": "nonpayable",
      "type": "function"
    },
    {
      "inputs": [
        {
          "internalType": "uint256",
          "name": "amountOutMin",
          "type": "uint256"
        },
        {
          "internalType": "address",
          "name": "to",
          "type": "address"
        },
        {
          "internalType": "uint256",
          "name": "deadline",
          "type": "uint256"
        }
      ],
      "name": "swapExactETHToAlpha",
      "outputs": [],
      "stateMutability": "payable",
      "type": "function"
    },
    {
      "stateMutability": "payable",
      "type": "receive"
    }
  ],
  "bytecode": "0x6101006040523480156200001257600080fd5b5060405162004c5a38038062004c5a833981810160405260608110156200003857600080fd5b8101908080519060200190929190805190602001909291908051906020019092919050505060008173ffffffffffffffffffffffffffffffffffffffff1663c45a01556040518163ffffffff1660e01b815260040160206040518083038186803b158015620000a657600080fd5b505afa158015620000bb573d6000803e3d6000fd5b505050506040513d6020811015620000d257600080fd5b810190808051906020019092919050505073ffffffffffffffffffffffffffffffffffffffff1663e6a4390585856040518363ffffffff1660e01b8152600401808373ffffffffffffffffffffffffffffffffffffffff1681526020018273ffffffffffffffffffffffffffffffffffffffff1681526020019250505060206040518083038186803b1580156200016857600080fd5b505afa1580156200017d573d6000803e3d6000fd5b505050506040513d60208110156200019457600080fd5b810190808051906020019092919050505090508373ffffffffffffffffffffffffffffffffffffffff1660808173ffffffffffffffffffffffffffffffffffffffff1660601b815250508273ffffffffffffffffffffffffffffffffffffffff1660a08173ffffffffffffffffffffffffffffffffffffffff1660601b815250508073ffffffffffffffffffffffffffffffffffffffff1660c08173ffffffffffffffffffffffffffffffffffffffff1660601b815250508173ffffffffffffffffffffffffffffffffffffffff1660e08173ffffffffffffffffffffffffffffffffffffffff1660601b81525050620002d5827fffffffffffffffffffffffffffffffffffffffffffffffffffffffffffffffff8673ffffffffffffffffffffffffffffffffffffffff166200038360201b6200352f179092919060201c565b62000327827fffffffffffffffffffffffffffffffffffffffffffffffffffffffffffffffff8573ffffffffffffffffffffffffffffffffffffffff166200038360201b6200352f179092919060201c565b62000379827fffffffffffffffffffffffffffffffffffffffffffffffffffffffffffffffff8373ffffffffffffffffffffffffffffffffffffffff166200038360201b6200352f179092919060201c565b5050505062000915565b600081148062000455575060008373ffffffffffffffffffffffffffffffffffffffff1663dd62ed3e30856040518363ffffffff1660e01b8152600401808373ffffffffffffffffffffffffffffffffffffffff1681526020018273ffffffffffffffffffffffffffffffffffffffff1681526020019250505060206040518083038186803b1580156200041657600080fd5b505afa1580156200042b573d6000803e3d6000fd5b505050506040513d60208110156200044257600080fd5b8101908080519060200190929190505050145b620004ac576040517f08c379a000000000000000000000000000000000000000000000000000000000815260040180806020018281038252603681526020018062004c246036913960400191505060405180910390fd5b620005518363095ea7b360e01b8484604051602401808373ffffffffffffffffffffffffffffffffffffffff16815260200182815260200192505050604051602081830303815290604052907bffffffffffffffffffffffffffffffffffffffffffffffffffffffff19166020820180517bffffffffffffffffffffffffffffffffffffffffffffffffffffffff83818316178352505050506200055660201b60201c565b505050565b6060620005bf826040518060400160405280602081526020017f5361666545524332303a206c6f772d6c6576656c2063616c6c206661696c65648152508573ffffffffffffffffffffffffffffffffffffffff166200065060201b620036f4179092919060201c565b90506000815111156200064b57808060200190516020811015620005e257600080fd5b81019080805190602001909291905050506200064a576040517f08c379a000000000000000000000000000000000000000000000000000000000815260040180806020018281038252602a81526020018062004bfa602a913960400191505060405180910390fd5b5b505050565b60606200066784846000856200067060201b60201c565b90509392505050565b606082471015620006cd576040517f08c379a000000000000000000000000000000000000000000000000000000000815260040180806020018281038252602681526020018062004bd46026913960400191505060405180910390fd5b620006de856200083060201b60201c565b62000751576040517f08c379a000000000000000000000000000000000000000000000000000000000815260040180806020018281038252601d8152602001807f416464726573733a2063616c6c20746f206e6f6e2d636f6e747261637400000081525060200191505060405180910390fd5b600060608673ffffffffffffffffffffffffffffffffffffffff1685876040518082805190602001908083835b60208310620007a357805182526020820191506020810190506020830392506200077e565b6001836020036101000a03801982511681845116808217855250505050505090500191505060006040518083038185875af1925050503d806000811462000807576040519150601f19603f3d011682016040523d82523d6000602084013e6200080c565b606091505b5091509150620008248282866200084360201b60201c565b92505050949350505050565b600080823b905060008111915050919050565b6060831562000855578290506200090e565b600083511115620008695782518084602001fd5b816040517f08c379a00000000000000000000000000000000000000000000000000000000081526004018080602001828103825283818151815260200191508051906020019080838360005b83811015620008d2578082015181840152602081019050620008b5565b50505050905090810190601f168015620009005780820380516001836020036101000a031916815260200191505b509250505060405180910390fd5b9392505050565b60805160601c60a05160601c60c05160601c60e05160601c61414d62000a87600039806106d75280610a495280610cd152806116ea52806118af5280611e3952806128995280612a5e5280612ecc528061350d5250806104f2528061095e52806113a6528061149a528061255552806126495280612de1525080609c5280610516528061053a528061060752806107135280610aa65280610c015280610d0d528061125952806112dc528061146352806115d6528061163e528061190c52806119ef5280611dd15280611ffa528061203652806124635280612612528061278552806127ed5280612abb5280612b9e5280612f2952806131c6528061320252508061066f5280610a855280610c695280610f55528061108f528061116d52806115f7528061161d52806118eb528061192d5280611c325280611d695280612341528061236e52806127a652806127cc5280612a9a5280612adc5280612f0852806130385280613075525061414d6000f3fe6080604052600436106100955760003560e01c8063b9d95ee211610059578063b9d95ee21461030d578063db1d0fd51461037c578063e52bc129146103bd578063e9d3999014610436578063f887ea40146104af5761015d565b80635fcbd2851461016257806371d5bd10146101a357806384b8b37a146101e45780639fe8c24c1461023c578063b057e457146102ab5761015d565b3661015d577f000000000000000000000000000000000000000000000000000000000000000073ffffffffffffffffffffffffffffffffffffffff163373ffffffffffffffffffffffffffffffffffffffff161461015b576040517f08c379a00000000000000000000000000000000000000000000000000000000081526004018080602001828103825260088152602001807f216962455448763200000000000000000000000000000000000000000000000081525060200191505060405180910390fd5b005b600080fd5b34801561016e57600080fd5b506101776104f0565b604051808273ffffffffffffffffffffffffffffffffffffffff16815260200191505060405180910390f35b3480156101af57600080fd5b506101b8610514565b604051808273ffffffffffffffffffffffffffffffffffffffff16815260200191505060405180910390f35b61023a600480360360608110156101fa57600080fd5b8101908080359060200190929190803573ffffffffffffffffffffffffffffffffffffffff16906020019092919080359060200190929190505050610538565b005b34801561024857600080fd5b506102a96004803603608081101561025f57600080fd5b810190808035906020019092919080359060200190929190803573ffffffffffffffffffffffffffffffffffffffff1690602001909291908035906020019092919050505061095c565b005b61030b600480360360808110156102c157600080fd5b810190808035906020019092919080359060200190929190803573ffffffffffffffffffffffffffffffffffffffff16906020019092919080359060200190929190505050611162565b005b34801561031957600080fd5b5061037a6004803603608081101561033057600080fd5b810190808035906020019092919080359060200190929190803573ffffffffffffffffffffffffffffffffffffffff16906020019092919080359060200190929190505050611c30565b005b34801561038857600080fd5b5061039161233f565b604051808273ffffffffffffffffffffffffffffffffffffffff16815260200191505060405180910390f35b3480156103c957600080fd5b50610434600480360360a08110156103e057600080fd5b81019080803590602001909291908035906020019092919080359060200190929190803573ffffffffffffffffffffffffffffffffffffffff16906020019092919080359060200190929190505050612363565b005b34801561044257600080fd5b506104ad600480360360a081101561045957600080fd5b81019080803590602001909291908035906020019092919080359060200190929190803573ffffffffffffffffffffffffffffffffffffffff16906020019092919080359060200190929190505050612ddf565b005b3480156104bb57600080fd5b506104c461350b565b604051808273ffffffffffffffffffffffffffffffffffffffff16815260200191505060405180910390f35b7f000000000000000000000000000000000000000000000000000000000000000081565b7f000000000000000000000000000000000000000000000000000000000000000081565b7f000000000000000000000000000000000000000000000000000000000000000073ffffffffffffffffffffffffffffffffffffffff1663d0e30db0346040518263ffffffff1660e01b81526004016000604051808303818588803b1580156105a057600080fd5b505af11580156105b4573d6000803e3d6000fd5b50505050506060600267ffffffffffffffff811180156105d357600080fd5b506040519080825280602002602001820160405280156106025781602001602082028036833780820191505090505b5090507f00000000000000000000000000000000000000000000000000000000000000008160008151811061063357fe5b602002602001019073ffffffffffffffffffffffffffffffffffffffff16908173ffffffffffffffffffffffffffffffffffffffff16815250507f00000000000000000000000000000000000000000000000000000000000000008160018151811061069b57fe5b602002602001019073ffffffffffffffffffffffffffffffffffffffff16908173ffffffffffffffffffffffffffffffffffffffff16815250507f000000000000000000000000000000000000000000000000000000000000000073ffffffffffffffffffffffffffffffffffffffff166338ed17397f000000000000000000000000000000000000000000000000000000000000000073ffffffffffffffffffffffffffffffffffffffff166370a08231306040518263ffffffff1660e01b8152600401808273ffffffffffffffffffffffffffffffffffffffff16815260200191505060206040518083038186803b15801561079857600080fd5b505afa1580156107ac573d6000803e3d6000fd5b505050506040513d60208110156107c257600080fd5b8101908080519060200190929190505050868487876040518663ffffffff1660e01b815260040180868152602001858152602001806020018473ffffffffffffffffffffffffffffffffffffffff168152602001838152602001828103825285818151815260200191508051906020019060200280838360005b8381101561085757808201518184015260208101905061083c565b505050509050019650505050505050600060405180830381600087803b15801561088057600080fd5b505af1158015610894573d6000803e3d6000fd5b505050506040513d6000823e3d601f19601f8201168201806040525060208110156108be57600080fd5b81019080805160405193929190846401000000008211156108de57600080fd5b838201915060208201858111156108f457600080fd5b825186602082028301116401000000008211171561091157600080fd5b8083526020830192505050908051906020019060200280838360005b8381101561094857808201518184015260208101905061092d565b505050509050016040525050505050505050565b7f000000000000000000000000000000000000000000000000000000000000000073ffffffffffffffffffffffffffffffffffffffff166323b872dd3330876040518463ffffffff1660e01b8152600401808473ffffffffffffffffffffffffffffffffffffffff1681526020018373ffffffffffffffffffffffffffffffffffffffff1681526020018281526020019350505050602060405180830381600087803b158015610a0b57600080fd5b505af1158015610a1f573d6000803e3d6000fd5b505050506040513d6020811015610a3557600080fd5b8101908080519060200190929190505050507f000000000000000000000000000000000000000000000000000000000000000073ffffffffffffffffffffffffffffffffffffffff1663baa2abde7f00000000000000000000000000000000000000000000000000000000000000007f00000000000000000000000000000000000000000000000000000000000000008760008030886040518863ffffffff1660e01b8152600401808873ffffffffffffffffffffffffffffffffffffffff1681526020018773ffffffffffffffffffffffffffffffffffffffff1681526020018681526020018581526020018481526020018373ffffffffffffffffffffffffffffffffffffffff1681526020018281526020019750505050505050506040805180830381600087803b158015610b6c57600080fd5b505af1158015610b80573d6000803e3d6000fd5b505050506040513d6040811015610b9657600080fd5b81019080805190602001909291908051906020019092919050505050506060600267ffffffffffffffff81118015610bcd57600080fd5b50604051908082528060200260200182016040528015610bfc5781602001602082028036833780820191505090505b5090507f000000000000000000000000000000000000000000000000000000000000000081600081518110610c2d57fe5b602002602001019073ffffffffffffffffffffffffffffffffffffffff16908173ffffffffffffffffffffffffffffffffffffffff16815250507f000000000000000000000000000000000000000000000000000000000000000081600181518110610c9557fe5b602002602001019073ffffffffffffffffffffffffffffffffffffffff16908173ffffffffffffffffffffffffffffffffffffffff16815250507f000000000000000000000000000000000000000000000000000000000000000073ffffffffffffffffffffffffffffffffffffffff166338ed17397f000000000000000000000000000000000000000000000000000000000000000073ffffffffffffffffffffffffffffffffffffffff166370a08231306040518263ffffffff1660e01b8152600401808273ffffffffffffffffffffffffffffffffffffffff16815260200191505060206040518083038186803b158015610d9257600080fd5b505afa158015610da6573d6000803e3d6000fd5b505050506040513d6020811015610dbc57600080fd5b810190808051906020019092919050505060008430876040518663ffffffff1660e01b815260040180868152602001858152602001806020018473ffffffffffffffffffffffffffffffffffffffff168152602001838152602001828103825285818151815260200191508051906020019060200280838360005b83811015610e52578082015181840152602081019050610e37565b505050509050019650505050505050600060405180830381600087803b158015610e7b57600080fd5b505af1158015610e8f573d6000803e3d6000fd5b505050506040513d6000823e3d601f19601f820116820180604052506020811015610eb957600080fd5b8101908080516040519392919084640100000000821115610ed957600080fd5b83820191506020820185811115610eef57600080fd5b8251866020820283011164010000000082111715610f0c57600080fd5b8083526020830192505050908051906020019060200280838360005b83811015610f43578082015181840152602081019050610f28565b505050509050016040525050505060007f000000000000000000000000000000000000000000000000000000000000000073ffffffffffffffffffffffffffffffffffffffff166370a08231306040518263ffffffff1660e01b8152600401808273ffffffffffffffffffffffffffffffffffffffff16815260200191505060206040518083038186803b158015610fda57600080fd5b505afa158015610fee573d6000803e3d6000fd5b505050506040513d602081101561100457600080fd5b810190808051906020019092919050505090508481101561108d576040517f08c379a00000000000000000000000000000000000000000000000000000000081526004018080602001828103825260098152602001807f216d696e416c706861000000000000000000000000000000000000000000000081525060200191505060405180910390fd5b7f000000000000000000000000000000000000000000000000000000000000000073ffffffffffffffffffffffffffffffffffffffff1663a9059cbb85836040518363ffffffff1660e01b8152600401808373ffffffffffffffffffffffffffffffffffffffff16815260200182815260200192505050602060405180830381600087803b15801561111e57600080fd5b505af1158015611132573d6000803e3d6000fd5b505050506040513d602081101561114857600080fd5b810190808051906020019092919050505050505050505050565b6000841115611257577f000000000000000000000000000000000000000000000000000000000000000073ffffffffffffffffffffffffffffffffffffffff166323b872dd3330876040518463ffffffff1660e01b8152600401808473ffffffffffffffffffffffffffffffffffffffff1681526020018373ffffffffffffffffffffffffffffffffffffffff1681526020018281526020019350505050602060405180830381600087803b15801561121a57600080fd5b505af115801561122e573d6000803e3d6000fd5b505050506040513d602081101561124457600080fd5b8101908080519060200190929190505050505b7f000000000000000000000000000000000000000000000000000000000000000073ffffffffffffffffffffffffffffffffffffffff1663d0e30db0346040518263ffffffff1660e01b81526004016000604051808303818588803b1580156112bf57600080fd5b505af11580156112d3573d6000803e3d6000fd5b505050505060007f000000000000000000000000000000000000000000000000000000000000000073ffffffffffffffffffffffffffffffffffffffff166370a08231306040518263ffffffff1660e01b8152600401808273ffffffffffffffffffffffffffffffffffffffff16815260200191505060206040518083038186803b15801561136157600080fd5b505afa158015611375573d6000803e3d6000fd5b505050506040513d602081101561138b57600080fd5b810190808051906020019092919050505090506000806000807f000000000000000000000000000000000000000000000000000000000000000073ffffffffffffffffffffffffffffffffffffffff16630902f1ac6040518163ffffffff1660e01b815260040160606040518083038186803b15801561140a57600080fd5b505afa15801561141e573d6000803e3d6000fd5b505050506040513d606081101561143457600080fd5b8101908080519060200190929190805190602001909291908051906020019092919050505050915091506000807f000000000000000000000000000000000000000000000000000000000000000073ffffffffffffffffffffffffffffffffffffffff167f000000000000000000000000000000000000000000000000000000000000000073ffffffffffffffffffffffffffffffffffffffff16630dfe16816040518163ffffffff1660e01b815260040160206040518083038186803b1580156114fe57600080fd5b505afa158015611512573d6000803e3d6000fd5b505050506040513d602081101561152857600080fd5b810190808051906020019092919050505073ffffffffffffffffffffffffffffffffffffffff161461155b57828461155e565b83835b9150915061156e878c848461370c565b80965081975050505050505060008211156118ab576060600267ffffffffffffffff8111801561159d57600080fd5b506040519080825280602002602001820160405280156115cc5781602001602082028036833780820191505090505b5090508161161b577f00000000000000000000000000000000000000000000000000000000000000007f000000000000000000000000000000000000000000000000000000000000000061165e565b7f00000000000000000000000000000000000000000000000000000000000000007f00000000000000000000000000000000000000000000000000000000000000005b8260008151811061166b57fe5b602002602001018360018151811061167f57fe5b602002602001018273ffffffffffffffffffffffffffffffffffffffff1673ffffffffffffffffffffffffffffffffffffffff168152508273ffffffffffffffffffffffffffffffffffffffff1673ffffffffffffffffffffffffffffffffffffffff1681525050507f000000000000000000000000000000000000000000000000000000000000000073ffffffffffffffffffffffffffffffffffffffff166338ed173984600084308a6040518663ffffffff1660e01b815260040180868152602001858152602001806020018473ffffffffffffffffffffffffffffffffffffffff168152602001838152602001828103825285818151815260200191508051906020019060200280838360005b838110156117aa57808201518184015260208101905061178f565b505050509050019650505050505050600060405180830381600087803b1580156117d357600080fd5b505af11580156117e7573d6000803e3d6000fd5b505050506040513d6000823e3d601f19601f82011682018060405250602081101561181157600080fd5b810190808051604051939291908464010000000082111561183157600080fd5b8382019150602082018581111561184757600080fd5b825186602082028301116401000000008211171561186457600080fd5b8083526020830192505050908051906020019060200280838360005b8381101561189b578082015181840152602081019050611880565b5050505090500160405250505050505b60007f000000000000000000000000000000000000000000000000000000000000000073ffffffffffffffffffffffffffffffffffffffff1663e8e337007f00000000000000000000000000000000000000000000000000000000000000007f00000000000000000000000000000000000000000000000000000000000000007f000000000000000000000000000000000000000000000000000000000000000073ffffffffffffffffffffffffffffffffffffffff166370a08231306040518263ffffffff1660e01b8152600401808273ffffffffffffffffffffffffffffffffffffffff16815260200191505060206040518083038186803b1580156119b257600080fd5b505afa1580156119c6573d6000803e3d6000fd5b505050506040513d60208110156119dc57600080fd5b81019080805190602001909291905050507f000000000000000000000000000000000000000000000000000000000000000073ffffffffffffffffffffffffffffffffffffffff166370a08231306040518263ffffffff1660e01b8152600401808273ffffffffffffffffffffffffffffffffffffffff16815260200191505060206040518083038186803b158015611a7457600080fd5b505afa158015611a88573d6000803e3d6000fd5b505050506040513d6020811015611a9e57600080fd5b81019080805190602001909291905050506000808d8d6040518963ffffffff1660e01b8152600401808973ffffffffffffffffffffffffffffffffffffffff1681526020018873ffffffffffffffffffffffffffffffffffffffff1681526020018781526020018681526020018581526020018481526020018373ffffffffffffffffffffffffffffffffffffffff16815260200182815260200198505050505050505050606060405180830381600087803b158015611b5d57600080fd5b505af1158015611b71573d6000803e3d6000fd5b505050506040513d6060811015611b8757600080fd5b810190808051906020019092919080519060200190929190805190602001909291905050509250505086811015611c26576040517f08c379a00000000000000000000000000000000000000000000000000000000081526004018080602001828103825260068152602001807f216d696e4c50000000000000000000000000000000000000000000000000000081525060200191505060405180910390fd5b5050505050505050565b7f000000000000000000000000000000000000000000000000000000000000000073ffffffffffffffffffffffffffffffffffffffff166323b872dd3330876040518463ffffffff1660e01b8152600401808473ffffffffffffffffffffffffffffffffffffffff1681526020018373ffffffffffffffffffffffffffffffffffffffff1681526020018281526020019350505050602060405180830381600087803b158015611cdf57600080fd5b505af1158015611cf3573d6000803e3d6000fd5b505050506040513d6020811015611d0957600080fd5b8101908080519060200190929190505050506060600267ffffffffffffffff81118015611d3557600080fd5b50604051908082528060200260200182016040528015611d645781602001602082028036833780820191505090505b5090507f000000000000000000000000000000000000000000000000000000000000000081600081518110611d9557fe5b602002602001019073ffffffffffffffffffffffffffffffffffffffff16908173ffffffffffffffffffffffffffffffffffffffff16815250507f000000000000000000000000000000000000000000000000000000000000000081600181518110611dfd57fe5b602002602001019073ffffffffffffffffffffffffffffffffffffffff16908173ffffffffffffffffffffffffffffffffffffffff16815250507f000000000000000000000000000000000000000000000000000000000000000073ffffffffffffffffffffffffffffffffffffffff166338ed17398660008430876040518663ffffffff1660e01b815260040180868152602001858152602001806020018473ffffffffffffffffffffffffffffffffffffffff168152602001838152602001828103825285818151815260200191508051906020019060200280838360005b83811015611ef9578082015181840152602081019050611ede565b505050509050019650505050505050600060405180830381600087803b158015611f2257600080fd5b505af1158015611f36573d6000803e3d6000fd5b505050506040513d6000823e3d601f19601f820116820180604052506020811015611f6057600080fd5b8101908080516040519392919084640100000000821115611f8057600080fd5b83820191506020820185811115611f9657600080fd5b8251866020820283011164010000000082111715611fb357600080fd5b8083526020830192505050908051906020019060200280838360005b83811015611fea578082015181840152602081019050611fcf565b50505050905001604052505050507f000000000000000000000000000000000000000000000000000000000000000073ffffffffffffffffffffffffffffffffffffffff16632e1a7d4d7f000000000000000000000000000000000000000000000000000000000000000073ffffffffffffffffffffffffffffffffffffffff166370a08231306040518263ffffffff1660e01b8152600401808273ffffffffffffffffffffffffffffffffffffffff16815260200191505060206040518083038186803b1580156120bb57600080fd5b505afa1580156120cf573d6000803e3d6000fd5b505050506040513d60208110156120e557600080fd5b81019080805190602001909291905050506040518263ffffffff1660e01b815260040180828152602001915050600060405180830381600087803b15801561212c57600080fd5b505af1158015612140573d6000803e3d6000fd5b505050506000479050848110156121bf576040517f08c379a000000000000000000000000000000000000000000000000000000000815260040180806020018281038252600d8152602001807f21616d6f756e744f75744d696e0000000000000000000000000000000000000081525060200191505060405180910390fd5b60008473ffffffffffffffffffffffffffffffffffffffff1682600067ffffffffffffffff811180156121f157600080fd5b506040519080825280601f01601f1916602001820160405280156122245781602001600182028036833780820191505090505b506040518082805190602001908083835b602083106122585780518252602082019150602081019050602083039250612235565b6001836020036101000a03801982511681845116808217855250505050505090500191505060006040518083038185875af1925050503d80600081146122ba576040519150601f19603f3d011682016040523d82523d6000602084013e6122bf565b606091505b5050905080612336576040517f08c379a00000000000000000000000000000000000000000000000000000000081526004018080602001828103825260048152602001807f216574680000000000000000000000000000000000000000000000000000000081525060200191505060405180910390fd5b50505050505050565b7f000000000000000000000000000000000000000000000000000000000000000081565b6000841115612458577f000000000000000000000000000000000000000000000000000000000000000073ffffffffffffffffffffffffffffffffffffffff166323b872dd3330876040518463ffffffff1660e01b8152600401808473ffffffffffffffffffffffffffffffffffffffff1681526020018373ffffffffffffffffffffffffffffffffffffffff1681526020018281526020019350505050602060405180830381600087803b15801561241b57600080fd5b505af115801561242f573d6000803e3d6000fd5b505050506040513d602081101561244557600080fd5b8101908080519060200190929190505050505b600085111561254d577f000000000000000000000000000000000000000000000000000000000000000073ffffffffffffffffffffffffffffffffffffffff166323b872dd3330886040518463ffffffff1660e01b8152600401808473ffffffffffffffffffffffffffffffffffffffff1681526020018373ffffffffffffffffffffffffffffffffffffffff1681526020018281526020019350505050602060405180830381600087803b15801561251057600080fd5b505af1158015612524573d6000803e3d6000fd5b505050506040513d602081101561253a57600080fd5b8101908080519060200190929190505050505b6000806000807f000000000000000000000000000000000000000000000000000000000000000073ffffffffffffffffffffffffffffffffffffffff16630902f1ac6040518163ffffffff1660e01b815260040160606040518083038186803b1580156125b957600080fd5b505afa1580156125cd573d6000803e3d6000fd5b505050506040513d60608110156125e357600080fd5b8101908080519060200190929190805190602001909291908051906020019092919050505050915091506000807f000000000000000000000000000000000000000000000000000000000000000073ffffffffffffffffffffffffffffffffffffffff167f000000000000000000000000000000000000000000000000000000000000000073ffffffffffffffffffffffffffffffffffffffff16630dfe16816040518163ffffffff1660e01b815260040160206040518083038186803b1580156126ad57600080fd5b505afa1580156126c1573d6000803e3d6000fd5b505050506040513d60208110156126d757600080fd5b810190808051906020019092919050505073ffffffffffffffffffffffffffffffffffffffff161461270a57828461270d565b83835b9150915061271d8b8b848461370c565b8096508197505050505050506000821115612a5a576060600267ffffffffffffffff8111801561274c57600080fd5b5060405190808252806020026020018201604052801561277b5781602001602082028036833780820191505090505b509050816127ca577f00000000000000000000000000000000000000000000000000000000000000007f000000000000000000000000000000000000000000000000000000000000000061280d565b7f00000000000000000000000000000000000000000000000000000000000000007f00000000000000000000000000000000000000000000000000000000000000005b8260008151811061281a57fe5b602002602001018360018151811061282e57fe5b602002602001018273ffffffffffffffffffffffffffffffffffffffff1673ffffffffffffffffffffffffffffffffffffffff168152508273ffffffffffffffffffffffffffffffffffffffff1673ffffffffffffffffffffffffffffffffffffffff1681525050507f000000000000000000000000000000000000000000000000000000000000000073ffffffffffffffffffffffffffffffffffffffff166338ed17398460008430896040518663ffffffff1660e01b815260040180868152602001858152602001806020018473ffffffffffffffffffffffffffffffffffffffff168152602001838152602001828103825285818151815260200191508051906020019060200280838360005b8381101561295957808201518184015260208101905061293e565b505050509050019650505050505050600060405180830381600087803b15801561298257600080fd5b505af1158015612996573d6000803e3d6000fd5b505050506040513d6000823e3d601f19601f8201168201806040525060208110156129c057600080fd5b81019080805160405193929190846401000000008211156129e057600080fd5b838201915060208201858111156129f657600080fd5b8251866020820283011164010000000082111715612a1357600080fd5b8083526020830192505050908051906020019060200280838360005b83811015612a4a578082015181840152602081019050612a2f565b5050505090500160405250505050505b60007f000000000000000000000000000000000000000000000000000000000000000073ffffffffffffffffffffffffffffffffffffffff1663e8e337007f00000000000000000000000000000000000000000000000000000000000000007f00000000000000000000000000000000000000000000000000000000000000007f000000000000000000000000000000000000000000000000000000000000000073ffffffffffffffffffffffffffffffffffffffff166370a08231306040518263ffffffff1660e01b8152600401808273ffffffffffffffffffffffffffffffffffffffff16815260200191505060206040518083038186803b158015612b6157600080fd5b505afa158015612b75573d6000803e3d6000fd5b505050506040513d6020811015612b8b57600080fd5b81019080805190602001909291905050507f000000000000000000000000000000000000000000000000000000000000000073ffffffffffffffffffffffffffffffffffffffff166370a08231306040518263ffffffff1660e01b8152600401808273ffffffffffffffffffffffffffffffffffffffff16815260200191505060206040518083038186803b158015612c2357600080fd5b505afa158015612c37573d6000803e3d6000fd5b505050506040513d6020811015612c4d57600080fd5b81019080805190602001909291905050506000808c8c6040518963ffffffff1660e01b8152600401808973ffffffffffffffffffffffffffffffffffffffff1681526020018873ffffffffffffffffffffffffffffffffffffffff1681526020018781526020018681526020018581526020018481526020018373ffffffffffffffffffffffffffffffffffffffff16815260200182815260200198505050505050505050606060405180830381600087803b158015612d0c57600080fd5b505af1158015612d20573d6000803e3d6000fd5b505050506040513d6060811015612d3657600080fd5b810190808051906020019092919080519060200190929190805190602001909291905050509250505085811015612dd5576040517f08c379a00000000000000000000000000000000000000000000000000000000081526004018080602001828103825260068152602001807f216d696e4c50000000000000000000000000000000000000000000000000000081525060200191505060405180910390fd5b5050505050505050565b7f000000000000000000000000000000000000000000000000000000000000000073ffffffffffffffffffffffffffffffffffffffff166323b872dd3330886040518463ffffffff1660e01b8152600401808473ffffffffffffffffffffffffffffffffffffffff1681526020018373ffffffffffffffffffffffffffffffffffffffff1681526020018281526020019350505050602060405180830381600087803b158015612e8e57600080fd5b505af1158015612ea2573d6000803e3d6000fd5b505050506040513d6020811015612eb857600080fd5b8101908080519060200190929190505050507f000000000000000000000000000000000000000000000000000000000000000073ffffffffffffffffffffffffffffffffffffffff1663baa2abde7f00000000000000000000000000000000000000000000000000000000000000007f00000000000000000000000000000000000000000000000000000000000000008887600030886040518863ffffffff1660e01b8152600401808873ffffffffffffffffffffffffffffffffffffffff1681526020018773ffffffffffffffffffffffffffffffffffffffff1681526020018681526020018581526020018481526020018373ffffffffffffffffffffffffffffffffffffffff1681526020018281526020019750505050505050506040805180830381600087803b158015612fef57600080fd5b505af1158015613003573d6000803e3d6000fd5b505050506040513d604081101561301957600080fd5b81019080805190602001909291908051906020019092919050505050507f000000000000000000000000000000000000000000000000000000000000000073ffffffffffffffffffffffffffffffffffffffff1663a9059cbb337f000000000000000000000000000000000000000000000000000000000000000073ffffffffffffffffffffffffffffffffffffffff166370a08231306040518263ffffffff1660e01b8152600401808273ffffffffffffffffffffffffffffffffffffffff16815260200191505060206040518083038186803b1580156130fa57600080fd5b505afa15801561310e573d6000803e3d6000fd5b505050506040513d602081101561312457600080fd5b81019080805190602001909291905050506040518363ffffffff1660e01b8152600401808373ffffffffffffffffffffffffffffffffffffffff16815260200182815260200192505050602060405180830381600087803b15801561318857600080fd5b505af115801561319c573d6000803e3d6000fd5b505050506040513d60208110156131b257600080fd5b8101908080519060200190929190505050507f000000000000000000000000000000000000000000000000000000000000000073ffffffffffffffffffffffffffffffffffffffff16632e1a7d4d7f000000000000000000000000000000000000000000000000000000000000000073ffffffffffffffffffffffffffffffffffffffff166370a08231306040518263ffffffff1660e01b8152600401808273ffffffffffffffffffffffffffffffffffffffff16815260200191505060206040518083038186803b15801561328757600080fd5b505afa15801561329b573d6000803e3d6000fd5b505050506040513d60208110156132b157600080fd5b81019080805190602001909291905050506040518263ffffffff1660e01b815260040180828152602001915050600060405180830381600087803b1580156132f857600080fd5b505af115801561330c573d6000803e3d6000fd5b5050505060004790508481101561338b576040517f08c379a00000000000000000000000000000000000000000000000000000000081526004018080602001828103825260078152602001807f216d696e4554480000000000000000000000000000000000000000000000000081525060200191505060405180910390fd5b60008373ffffffffffffffffffffffffffffffffffffffff1682600067ffffffffffffffff811180156133bd57600080fd5b506040519080825280601f01601f1916602001820160405280156133f05781602001600182028036833780820191505090505b506040518082805190602001908083835b602083106134245780518252602082019150602081019050602083039250613401565b6001836020036101000a03801982511681845116808217855250505050505090500191505060006040518083038185875af1925050503d8060008114613486576040519150601f19603f3d011682016040523d82523d6000602084013e61348b565b606091505b5050905080613502576040517f08c379a00000000000000000000000000000000000000000000000000000000081526004018080602001828103825260048152602001807f216574680000000000000000000000000000000000000000000000000000000081525060200191505060405180910390fd5b50505050505050565b7f000000000000000000000000000000000000000000000000000000000000000081565b60008114806135fd575060008373ffffffffffffffffffffffffffffffffffffffff1663dd62ed3e30856040518363ffffffff1660e01b8152600401808373ffffffffffffffffffffffffffffffffffffffff1681526020018273ffffffffffffffffffffffffffffffffffffffff1681526020019250505060206040518083038186803b1580156135c057600080fd5b505afa1580156135d4573d6000803e3d6000fd5b505050506040513d60208110156135ea57600080fd5b8101908080519060200190929190505050145b613652576040517f08c379a00000000000000000000000000000000000000000000000000000000081526004018080602001828103825260368152602001806140e26036913960400191505060405180910390fd5b6136ef8363095ea7b360e01b8484604051602401808373ffffffffffffffffffffffffffffffffffffffff16815260200182815260200192505050604051602081830303815290604052907bffffffffffffffffffffffffffffffffffffffffffffffffffffffff19166020820180517bffffffffffffffffffffffffffffffffffffffffffffffffffffffff838183161783525050505061376d565b505050565b6060613703848460008561385c565b90509392505050565b6000806137228486613a0590919063ffffffff16565b6137358488613a0590919063ffffffff16565b106137515761374686868686613a8b565b915060009050613764565b61375d85878587613a8b565b9150600190505b94509492505050565b60606137cf826040518060400160405280602081526020017f5361666545524332303a206c6f772d6c6576656c2063616c6c206661696c65648152508573ffffffffffffffffffffffffffffffffffffffff166136f49092919063ffffffff16565b9050600081511115613857578080602001905160208110156137f057600080fd5b8101908080519060200190929190505050613856576040517f08c379a000000000000000000000000000000000000000000000000000000000815260040180806020018281038252602a8152602001806140b8602a913960400191505060405180910390fd5b5b505050565b6060824710156138b7576040517f08c379a00000000000000000000000000000000000000000000000000000000081526004018080602001828103825260268152602001806140716026913960400191505060405180910390fd5b6138c085613c80565b613932576040517f08c379a000000000000000000000000000000000000000000000000000000000815260040180806020018281038252601d8152602001807f416464726573733a2063616c6c20746f206e6f6e2d636f6e747261637400000081525060200191505060405180910390fd5b600060608673ffffffffffffffffffffffffffffffffffffffff1685876040518082805190602001908083835b60208310613982578051825260208201915060208101905060208303925061395f565b6001836020036101000a03801982511681845116808217855250505050505090500191505060006040518083038185875af1925050503d80600081146139e4576040519150601f19603f3d011682016040523d82523d6000602084013e6139e9565b606091505b50915091506139f9828286613c93565b92505050949350505050565b600080831415613a185760009050613a85565b6000828402905082848281613a2957fe5b0414613a80576040517f08c379a00000000000000000000000000000000000000000000000000000000081526004018080602001828103825260218152602001806140976021913960400191505060405180910390fd5b809150505b92915050565b6000613aa08385613a0590919063ffffffff16565b613ab38387613a0590919063ffffffff16565b1015613b27576040517f08c379a00000000000000000000000000000000000000000000000000000000081526004018080602001828103825260088152602001807f526576657273656400000000000000000000000000000000000000000000000081525060200191505060405180910390fd5b60006103e590506000613b45856107cd613a0590919063ffffffff16565b90506000613b80613b5f8789613a0590919063ffffffff16565b613b72878b613a0590919063ffffffff16565b613d5f90919063ffffffff16565b90506000613bcf87613bc1613b9e898c613de290919063ffffffff16565b613bb36103e887613a0590919063ffffffff16565b613e6a90919063ffffffff16565b613a0590919063ffffffff16565b90506000613bf96004613beb8488613a0590919063ffffffff16565b613a0590919063ffffffff16565b90506000613c2a613c2583613c178889613a0590919063ffffffff16565b613de290919063ffffffff16565b613ef3565b90506000613c418683613d5f90919063ffffffff16565b90506000613c59600289613a0590919063ffffffff16565b9050613c6e8183613e6a90919063ffffffff16565b98505050505050505050949350505050565b600080823b905060008111915050919050565b60608315613ca357829050613d58565b600083511115613cb65782518084602001fd5b816040517f08c379a00000000000000000000000000000000000000000000000000000000081526004018080602001828103825283818151815260200191508051906020019080838360005b83811015613d1d578082015181840152602081019050613d02565b50505050905090810190601f168015613d4a5780820380516001836020036101000a031916815260200191505b509250505060405180910390fd5b9392505050565b600082821115613dd7576040517f08c379a000000000000000000000000000000000000000000000000000000000815260040180806020018281038252601e8152602001807f536166654d6174683a207375627472616374696f6e206f766572666c6f77000081525060200191505060405180910390fd5b818303905092915050565b600080828401905083811015613e60576040517f08c379a000000000000000000000000000000000000000000000000000000000815260040180806020018281038252601b8152602001807f536166654d6174683a206164646974696f6e206f766572666c6f77000000000081525060200191505060405180910390fd5b8091505092915050565b6000808211613ee1576040517f08c379a000000000000000000000000000000000000000000000000000000000815260040180806020018281038252601a8152602001807f536166654d6174683a206469766973696f6e206279207a65726f00000000000081525060200191505060405180910390fd5b818381613eea57fe5b04905092915050565b600080821415613f06576000905061406b565b60008290506000600190507001000000000000000000000000000000008210613f3857608082901c9150604081901b90505b680100000000000000008210613f5757604082901c9150602081901b90505b6401000000008210613f7257602082901c9150601081901b90505b620100008210613f8b57601082901c9150600881901b90505b6101008210613fa357600882901c9150600481901b90505b60108210613fba57600482901c9150600281901b90505b60088210613fca57600181901b90505b6001818581613fd557fe5b048201901c90506001818581613fe757fe5b048201901c90506001818581613ff957fe5b048201901c9050600181858161400b57fe5b048201901c9050600181858161401d57fe5b048201901c9050600181858161402f57fe5b048201901c9050600181858161404157fe5b048201901c9050600081858161405357fe5b0490508082106140635780614065565b815b93505050505b91905056fe416464726573733a20696e73756666696369656e742062616c616e636520666f722063616c6c536166654d6174683a206d756c7469706c69636174696f6e206f766572666c6f775361666545524332303a204552433230206f7065726174696f6e20646964206e6f7420737563636565645361666545524332303a20617070726f76652066726f6d206e6f6e2d7a65726f20746f206e6f6e2d7a65726f20616c6c6f77616e6365a2646970667358221220d815e3956a49d8448972f64b8623cfbe81c57e318c21aaffbd994079cbb436d564736f6c634300060c0033416464726573733a20696e73756666696369656e742062616c616e636520666f722063616c6c5361666545524332303a204552433230206f7065726174696f6e20646964206e6f7420737563636565645361666545524332303a20617070726f76652066726f6d206e6f6e2d7a65726f20746f206e6f6e2d7a65726f20616c6c6f77616e6365",
  "linkReferences": {},
  "deployedLinkReferences": {}
}