{
  "_format": "hh-sol-artifact-1",
  "contractName": "CurveSpellV1",
  "sourceName": "contracts/spell/CurveSpellV1.sol",
  "abi": [
    {
      "inputs": [
        {
          "internalType": "contract IBank",
          "name": "_bank",
          "type": "address"
        },
        {
          "internalType": "address",
          "name": "_werc20",
          "type": "address"
        },
        {
          "internalType": "address",
          "name": "_weth",
          "type": "address"
        },
        {
          "internalType": "address",
          "name": "_wgauge",
          "type": "address"
        }
      ],
      "stateMutability": "nonpayable",
      "type": "constructor"
    },
    {
      "anonymous": false,
      "inputs": [
        {
          "indexed": false,
          "internalType": "address",
          "name": "governor",
          "type": "address"
        }
      ],
      "name": "AcceptGovernor",
      "type": "event"
    },
    {
      "anonymous": false,
      "inputs": [
        {
          "indexed": false,
          "internalType": "address",
          "name": "governor",
          "type": "address"
        }
      ],
      "name": "SetGovernor",
      "type": "event"
    },
    {
      "anonymous": false,
      "inputs": [
        {
          "indexed": false,
          "internalType": "address",
          "name": "pendingGovernor",
          "type": "address"
        }
      ],
      "name": "SetPendingGovernor",
      "type": "event"
    },
    {
      "inputs": [],
      "name": "acceptGovernor",
      "outputs": [],
      "stateMutability": "nonpayable",
      "type": "function"
    },
    {
      "inputs": [
        {
          "internalType": "address",
          "name": "lp",
          "type": "address"
        },
        {
          "internalType": "uint256[2]",
          "name": "amtsUser",
          "type": "uint256[2]"
        },
        {
          "internalType": "uint256",
          "name": "amtLPUser",
          "type": "uint256"
        },
        {
          "internalType": "uint256[2]",
          "name": "amtsBorrow",
          "type": "uint256[2]"
        },
        {
          "internalType": "uint256",
          "name": "amtLPBorrow",
          "type": "uint256"
        },
        {
          "internalType": "uint256",
          "name": "minLPMint",
          "type": "uint256"
        },
        {
          "internalType": "uint256",
          "name": "pid",
          "type": "uint256"
        },
        {
          "internalType": "uint256",
          "name": "gid",
          "type": "uint256"
        }
      ],
      "name": "addLiquidity2",
      "outputs": [],
      "stateMutability": "nonpayable",
      "type": "function"
    },
    {
      "inputs": [
        {
          "internalType": "address",
          "name": "lp",
          "type": "address"
        },
        {
          "internalType": "uint256[3]",
          "name": "amtsUser",
          "type": "uint256[3]"
        },
        {
          "internalType": "uint256",
          "name": "amtLPUser",
          "type": "uint256"
        },
        {
          "internalType": "uint256[3]",
          "name": "amtsBorrow",
          "type": "uint256[3]"
        },
        {
          "internalType": "uint256",
          "name": "amtLPBorrow",
          "type": "uint256"
        },
        {
          "internalType": "uint256",
          "name": "minLPMint",
          "type": "uint256"
        },
        {
          "internalType": "uint256",
          "name": "pid",
          "type": "uint256"
        },
        {
          "internalType": "uint256",
          "name": "gid",
          "type": "uint256"
        }
      ],
      "name": "addLiquidity3",
      "outputs": [],
      "stateMutability": "nonpayable",
      "type": "function"
    },
    {
      "inputs": [
        {
          "internalType": "address",
          "name": "lp",
          "type": "address"
        },
        {
          "internalType": "uint256[4]",
          "name": "amtsUser",
          "type": "uint256[4]"
        },
        {
          "internalType": "uint256",
          "name": "amtLPUser",
          "type": "uint256"
        },
        {
          "internalType": "uint256[4]",
          "name": "amtsBorrow",
          "type": "uint256[4]"
        },
        {
          "internalType": "uint256",
          "name": "amtLPBorrow",
          "type": "uint256"
        },
        {
          "internalType": "uint256",
          "name": "minLPMint",
          "type": "uint256"
        },
        {
          "internalType": "uint256",
          "name": "pid",
          "type": "uint256"
        },
        {
          "internalType": "uint256",
          "name": "gid",
          "type": "uint256"
        }
      ],
      "name": "addLiquidity4",
      "outputs": [],
      "stateMutability": "nonpayable",
      "type": "function"
    },
    {
      "inputs": [
        {
          "internalType": "address",
          "name": "",
          "type": "address"
        },
        {
          "internalType": "address",
          "name": "",
          "type": "address"
        }
      ],
      "name": "approved",
      "outputs": [
        {
          "internalType": "bool",
          "name": "",
          "type": "bool"
        }
      ],
      "stateMutability": "view",
      "type": "function"
    },
    {
      "inputs": [],
      "name": "bank",
      "outputs": [
        {
          "internalType": "contract IBank",
          "name": "",
          "type": "address"
        }
      ],
      "stateMutability": "view",
      "type": "function"
    },
    {
      "inputs": [],
      "name": "crv",
      "outputs": [
        {
          "internalType": "address",
          "name": "",
          "type": "address"
        }
      ],
      "stateMutability": "view",
      "type": "function"
    },
    {
      "inputs": [
        {
          "internalType": "address",
          "name": "lp",
          "type": "address"
        },
        {
          "internalType": "uint256",
          "name": "n",
          "type": "uint256"
        }
      ],
      "name": "ensureApproveN",
      "outputs": [],
      "stateMutability": "nonpayable",
      "type": "function"
    },
    {
      "inputs": [
        {
          "internalType": "address",
          "name": "lp",
          "type": "address"
        }
      ],
      "name": "getPool",
      "outputs": [
        {
          "internalType": "address",
          "name": "",
          "type": "address"
        }
      ],
      "stateMutability": "nonpayable",
      "type": "function"
    },
    {
      "inputs": [],
      "name": "governor",
      "outputs": [
        {
          "internalType": "address",
          "name": "",
          "type": "address"
        }
      ],
      "stateMutability": "view",
      "type": "function"
    },
    {
      "inputs": [],
      "name": "harvest",
      "outputs": [],
      "stateMutability": "nonpayable",
      "type": "function"
    },
    {
      "inputs": [
        {
          "internalType": "address",
          "name": "",
          "type": "address"
        },
        {
          "internalType": "address",
          "name": "",
          "type": "address"
        },
        {
          "internalType": "uint256[]",
          "name": "",
          "type": "uint256[]"
        },
        {
          "internalType": "uint256[]",
          "name": "",
          "type": "uint256[]"
        },
        {
          "internalType": "bytes",
          "name": "",
          "type": "bytes"
        }
      ],
      "name": "onERC1155BatchReceived",
      "outputs": [
        {
          "internalType": "bytes4",
          "name": "",
          "type": "bytes4"
        }
      ],
      "stateMutability": "nonpayable",
      "type": "function"
    },
    {
      "inputs": [
        {
          "internalType": "address",
          "name": "",
          "type": "address"
        },
        {
          "internalType": "address",
          "name": "",
          "type": "address"
        },
        {
          "internalType": "uint256",
          "name": "",
          "type": "uint256"
        },
        {
          "internalType": "uint256",
          "name": "",
          "type": "uint256"
        },
        {
          "internalType": "bytes",
          "name": "",
          "type": "bytes"
        }
      ],
      "name": "onERC1155Received",
      "outputs": [
        {
          "internalType": "bytes4",
          "name": "",
          "type": "bytes4"
        }
      ],
      "stateMutability": "nonpayable",
      "type": "function"
    },
    {
      "inputs": [],
      "name": "pendingGovernor",
      "outputs": [
        {
          "internalType": "address",
          "name": "",
          "type": "address"
        }
      ],
      "stateMutability": "view",
      "type": "function"
    },
    {
      "inputs": [
        {
          "internalType": "address",
          "name": "",
          "type": "address"
        }
      ],
      "name": "poolOf",
      "outputs": [
        {
          "internalType": "address",
          "name": "",
          "type": "address"
        }
      ],
      "stateMutability": "view",
      "type": "function"
    },
    {
      "inputs": [],
      "name": "registry",
      "outputs": [
        {
          "internalType": "contract ICurveRegistry",
          "name": "",
          "type": "address"
        }
      ],
      "stateMutability": "view",
      "type": "function"
    },
    {
      "inputs": [
        {
          "internalType": "address",
          "name": "lp",
          "type": "address"
        },
        {
          "internalType": "uint256",
          "name": "amtLPTake",
          "type": "uint256"
        },
        {
          "internalType": "uint256",
          "name": "amtLPWithdraw",
          "type": "uint256"
        },
        {
          "internalType": "uint256[2]",
          "name": "amtsRepay",
          "type": "uint256[2]"
        },
        {
          "internalType": "uint256",
          "name": "amtLPRepay",
          "type": "uint256"
        },
        {
          "internalType": "uint256[2]",
          "name": "amtsMin",
          "type": "uint256[2]"
        }
      ],
      "name": "removeLiquidity2",
      "outputs": [],
      "stateMutability": "nonpayable",
      "type": "function"
    },
    {
      "inputs": [
        {
          "internalType": "address",
          "name": "lp",
          "type": "address"
        },
        {
          "internalType": "uint256",
          "name": "amtLPTake",
          "type": "uint256"
        },
        {
          "internalType": "uint256",
          "name": "amtLPWithdraw",
          "type": "uint256"
        },
        {
          "internalType": "uint256[3]",
          "name": "amtsRepay",
          "type": "uint256[3]"
        },
        {
          "internalType": "uint256",
          "name": "amtLPRepay",
          "type": "uint256"
        },
        {
          "internalType": "uint256[3]",
          "name": "amtsMin",
          "type": "uint256[3]"
        }
      ],
      "name": "removeLiquidity3",
      "outputs": [],
      "stateMutability": "nonpayable",
      "type": "function"
    },
    {
      "inputs": [
        {
          "internalType": "address",
          "name": "lp",
          "type": "address"
        },
        {
          "internalType": "uint256",
          "name": "amtLPTake",
          "type": "uint256"
        },
        {
          "internalType": "uint256",
          "name": "amtLPWithdraw",
          "type": "uint256"
        },
        {
          "internalType": "uint256[4]",
          "name": "amtsRepay",
          "type": "uint256[4]"
        },
        {
          "internalType": "uint256",
          "name": "amtLPRepay",
          "type": "uint256"
        },
        {
          "internalType": "uint256[4]",
          "name": "amtsMin",
          "type": "uint256[4]"
        }
      ],
      "name": "removeLiquidity4",
      "outputs": [],
      "stateMutability": "nonpayable",
      "type": "function"
    },
    {
      "inputs": [
        {
          "internalType": "address",
          "name": "_pendingGovernor",
          "type": "address"
        }
      ],
      "name": "setPendingGovernor",
      "outputs": [],
      "stateMutability": "nonpayable",
      "type": "function"
    },
    {
      "inputs": [
        {
          "internalType": "address[]",
          "name": "lpTokens",
          "type": "address[]"
        },
        {
          "internalType": "bool[]",
          "name": "statuses",
          "type": "bool[]"
        }
      ],
      "name": "setWhitelistLPTokens",
      "outputs": [],
      "stateMutability": "nonpayable",
      "type": "function"
    },
    {
      "inputs": [
        {
          "internalType": "bytes4",
          "name": "interfaceId",
          "type": "bytes4"
        }
      ],
      "name": "supportsInterface",
      "outputs": [
        {
          "internalType": "bool",
          "name": "",
          "type": "bool"
        }
      ],
      "stateMutability": "view",
      "type": "function"
    },
    {
      "inputs": [
        {
          "internalType": "address",
          "name": "",
          "type": "address"
        },
        {
          "internalType": "uint256",
          "name": "",
          "type": "uint256"
        }
      ],
      "name": "ulTokens",
      "outputs": [
        {
          "internalType": "address",
          "name": "",
          "type": "address"
        }
      ],
      "stateMutability": "view",
      "type": "function"
    },
    {
      "inputs": [],
      "name": "werc20",
      "outputs": [
        {
          "internalType": "contract IWERC20",
          "name": "",
          "type": "address"
        }
      ],
      "stateMutability": "view",
      "type": "function"
    },
    {
      "inputs": [],
      "name": "weth",
      "outputs": [
        {
          "internalType": "address",
          "name": "",
          "type": "address"
        }
      ],
      "stateMutability": "view",
      "type": "function"
    },
    {
      "inputs": [],
      "name": "wgauge",
      "outputs": [
        {
          "internalType": "contract IWLiquidityGauge",
          "name": "",
          "type": "address"
        }
      ],
      "stateMutability": "view",
      "type": "function"
    },
    {
      "inputs": [
        {
          "internalType": "address",
          "name": "",
          "type": "address"
        }
      ],
      "name": "whitelistedLpTokens",
      "outputs": [
        {
          "internalType": "bool",
          "name": "",
          "type": "bool"
        }
      ],
      "stateMutability": "view",
      "type": "function"
    },
    {
      "stateMutability": "payable",
      "type": "receive"
    }
  ],
  "bytecode": "0x6101406040523480156200001257600080fd5b5060405162009b0438038062009b04833981810160405281019062000038919062000cd2565b838383828282620000566301ffc9a760e01b620003df60201b60201c565b6200007763bc197c8160e01b63f23a6e6160e01b18620003df60201b60201c565b8273ffffffffffffffffffffffffffffffffffffffff1660808173ffffffffffffffffffffffffffffffffffffffff1660601b815250508173ffffffffffffffffffffffffffffffffffffffff1660a08173ffffffffffffffffffffffffffffffffffffffff1660601b815250508073ffffffffffffffffffffffffffffffffffffffff1660c08173ffffffffffffffffffffffffffffffffffffffff1660601b815250506200012e8184620004b760201b60201c565b8173ffffffffffffffffffffffffffffffffffffffff1663a22cb4658460016040518363ffffffff1660e01b81526004016200016c92919062001105565b600060405180830381600087803b1580156200018757600080fd5b505af11580156200019c573d6000803e3d6000fd5b50505050505050620001b36200063260201b60201c565b5050508073ffffffffffffffffffffffffffffffffffffffff166101008173ffffffffffffffffffffffffffffffffffffffff1660601b815250508073ffffffffffffffffffffffffffffffffffffffff1663a22cb4658560016040518363ffffffff1660e01b81526004016200022c92919062001105565b600060405180830381600087803b1580156200024757600080fd5b505af11580156200025c573d6000803e3d6000fd5b505050508073ffffffffffffffffffffffffffffffffffffffff16637b1039996040518163ffffffff1660e01b8152600401602060405180830381600087803b158015620002a957600080fd5b505af1158015620002be573d6000803e3d6000fd5b505050506040513d601f19601f82011682018060405250810190620002e4919062000d3e565b73ffffffffffffffffffffffffffffffffffffffff1660e08173ffffffffffffffffffffffffffffffffffffffff1660601b815250508073ffffffffffffffffffffffffffffffffffffffff16636a4874a16040518163ffffffff1660e01b8152600401602060405180830381600087803b1580156200036357600080fd5b505af115801562000378573d6000803e3d6000fd5b505050506040513d601f19601f820116820180604052508101906200039e919062000d6a565b73ffffffffffffffffffffffffffffffffffffffff166101208173ffffffffffffffffffffffffffffffffffffffff1660601b815250505050505062001426565b63ffffffff60e01b817bffffffffffffffffffffffffffffffffffffffffffffffffffffffff191614156200044b576040517f08c379a0000000000000000000000000000000000000000000000000000000008152600401620004429062001183565b60405180910390fd5b6001600080837bffffffffffffffffffffffffffffffffffffffffffffffffffffffff19167bffffffffffffffffffffffffffffffffffffffffffffffffffffffff1916815260200190815260200160002060006101000a81548160ff02191690831515021790555050565b604160008373ffffffffffffffffffffffffffffffffffffffff1673ffffffffffffffffffffffffffffffffffffffff16815260200190815260200160002060008273ffffffffffffffffffffffffffffffffffffffff1673ffffffffffffffffffffffffffffffffffffffff16815260200190815260200160002060009054906101000a900460ff166200062e5762000598817fffffffffffffffffffffffffffffffffffffffffffffffffffffffffffffffff8473ffffffffffffffffffffffffffffffffffffffff16620007ea60201b62005ec4179092919060201c565b6001604160008473ffffffffffffffffffffffffffffffffffffffff1673ffffffffffffffffffffffffffffffffffffffff16815260200190815260200160002060008373ffffffffffffffffffffffffffffffffffffffff1673ffffffffffffffffffffffffffffffffffffffff16815260200190815260200160002060006101000a81548160ff0219169083151502179055505b5050565b604260019054906101000a900460ff16806200065a5750620006596200095c60201b60201c565b5b80620006735750604260009054906101000a900460ff16155b620006b5576040517f08c379a0000000000000000000000000000000000000000000000000000000008152600401620006ac90620011c7565b60405180910390fd5b6000604260019054906101000a900460ff16159050801562000708576001604260016101000a81548160ff0219169083151502179055506001604260006101000a81548160ff0219169083151502179055505b33604260026101000a81548173ffffffffffffffffffffffffffffffffffffffff021916908373ffffffffffffffffffffffffffffffffffffffff1602179055506000604360006101000a81548173ffffffffffffffffffffffffffffffffffffffff021916908373ffffffffffffffffffffffffffffffffffffffff1602179055507fbce074c8369e26e70e1ae2f14fc944da352cfe6f52e2de9572f0c9942a24b7fc33604051620007bc9190620010bb565b60405180910390a18015620007e7576000604260016101000a81548160ff0219169083151502179055505b50565b60008114806200088a575060008373ffffffffffffffffffffffffffffffffffffffff1663dd62ed3e30856040518363ffffffff1660e01b815260040162000834929190620010d8565b60206040518083038186803b1580156200084d57600080fd5b505afa15801562000862573d6000803e3d6000fd5b505050506040513d601f19601f8201168201806040525081019062000888919062000d96565b145b620008cc576040517f08c379a0000000000000000000000000000000000000000000000000000000008152600401620008c3906200122d565b60405180910390fd5b620009578363095ea7b360e01b8484604051602401620008ee92919062001132565b604051602081830303815290604052907bffffffffffffffffffffffffffffffffffffffffffffffffffffffff19166020820180517bffffffffffffffffffffffffffffffffffffffffffffffffffffffff83818316178352505050506200097a60201b60201c565b505050565b6000620009743062000a4e60201b620060221760201c565b15905090565b6060620009e3826040518060400160405280602081526020017f5361666545524332303a206c6f772d6c6576656c2063616c6c206661696c65648152508573ffffffffffffffffffffffffffffffffffffffff1662000a6160201b62006035179092919060201c565b905060008151111562000a49578080602001905181019062000a06919062000ca6565b62000a48576040517f08c379a000000000000000000000000000000000000000000000000000000000815260040162000a3f906200120b565b60405180910390fd5b5b505050565b600080823b905060008111915050919050565b606062000a78848460008562000a8160201b60201c565b90509392505050565b60608247101562000ac9576040517f08c379a000000000000000000000000000000000000000000000000000000000815260040162000ac090620011a5565b60405180910390fd5b62000ada8562000a4e60201b60201c565b62000b1c576040517f08c379a000000000000000000000000000000000000000000000000000000000815260040162000b1390620011e9565b60405180910390fd5b600060608673ffffffffffffffffffffffffffffffffffffffff16858760405162000b489190620010a2565b60006040518083038185875af1925050503d806000811462000b87576040519150601f19603f3d011682016040523d82523d6000602084013e62000b8c565b606091505b509150915062000ba482828662000bb060201b60201c565b92505050949350505050565b6060831562000bc25782905062000c15565b60008351111562000bd65782518084602001fd5b816040517f08c379a000000000000000000000000000000000000000000000000000000000815260040162000c0c91906200115f565b60405180910390fd5b9392505050565b60008151905062000c2d816200138a565b92915050565b60008151905062000c4481620013a4565b92915050565b60008151905062000c5b81620013be565b92915050565b60008151905062000c7281620013d8565b92915050565b60008151905062000c8981620013f2565b92915050565b60008151905062000ca0816200140c565b92915050565b60006020828403121562000cb957600080fd5b600062000cc98482850162000c33565b91505092915050565b6000806000806080858703121562000ce957600080fd5b600062000cf98782880162000c4a565b945050602062000d0c8782880162000c1c565b935050604062000d1f8782880162000c1c565b925050606062000d328782880162000c1c565b91505092959194509250565b60006020828403121562000d5157600080fd5b600062000d618482850162000c61565b91505092915050565b60006020828403121562000d7d57600080fd5b600062000d8d8482850162000c78565b91505092915050565b60006020828403121562000da957600080fd5b600062000db98482850162000c8f565b91505092915050565b62000dcd8162001307565b82525050565b62000dde8162001281565b82525050565b62000def8162001295565b82525050565b600062000e02826200124f565b62000e0e818562001265565b935062000e2081856020860162001343565b80840191505092915050565b600062000e39826200125a565b62000e45818562001270565b935062000e5781856020860162001343565b62000e628162001379565b840191505092915050565b600062000e7c601c8362001270565b91507f4552433136353a20696e76616c696420696e74657266616365206964000000006000830152602082019050919050565b600062000ebe60268362001270565b91507f416464726573733a20696e73756666696369656e742062616c616e636520666f60008301527f722063616c6c00000000000000000000000000000000000000000000000000006020830152604082019050919050565b600062000f26602e8362001270565b91507f496e697469616c697a61626c653a20636f6e747261637420697320616c72656160008301527f647920696e697469616c697a65640000000000000000000000000000000000006020830152604082019050919050565b600062000f8e601d8362001270565b91507f416464726573733a2063616c6c20746f206e6f6e2d636f6e74726163740000006000830152602082019050919050565b600062000fd0602a8362001270565b91507f5361666545524332303a204552433230206f7065726174696f6e20646964206e60008301527f6f742073756363656564000000000000000000000000000000000000000000006020830152604082019050919050565b60006200103860368362001270565b91507f5361666545524332303a20617070726f76652066726f6d206e6f6e2d7a65726f60008301527f20746f206e6f6e2d7a65726f20616c6c6f77616e6365000000000000000000006020830152604082019050919050565b6200109c81620012fd565b82525050565b6000620010b0828462000df5565b915081905092915050565b6000602082019050620010d2600083018462000dc2565b92915050565b6000604082019050620010ef600083018562000dd3565b620010fe602083018462000dd3565b9392505050565b60006040820190506200111c600083018562000dd3565b6200112b602083018462000de4565b9392505050565b600060408201905062001149600083018562000dd3565b62001158602083018462001091565b9392505050565b600060208201905081810360008301526200117b818462000e2c565b905092915050565b600060208201905081810360008301526200119e8162000e6d565b9050919050565b60006020820190508181036000830152620011c08162000eaf565b9050919050565b60006020820190508181036000830152620011e28162000f17565b9050919050565b60006020820190508181036000830152620012048162000f7f565b9050919050565b60006020820190508181036000830152620012268162000fc1565b9050919050565b60006020820190508181036000830152620012488162001029565b9050919050565b600081519050919050565b600081519050919050565b600081905092915050565b600082825260208201905092915050565b60006200128e82620012dd565b9050919050565b60008115159050919050565b6000620012ae8262001281565b9050919050565b6000620012c28262001281565b9050919050565b6000620012d68262001281565b9050919050565b600073ffffffffffffffffffffffffffffffffffffffff82169050919050565b6000819050919050565b600062001314826200131b565b9050919050565b600062001328826200132f565b9050919050565b60006200133c82620012dd565b9050919050565b60005b838110156200136357808201518184015260208101905062001346565b8381111562001373576000848401525b50505050565b6000601f19601f8301169050919050565b620013958162001281565b8114620013a157600080fd5b50565b620013af8162001295565b8114620013bb57600080fd5b50565b620013c981620012a1565b8114620013d557600080fd5b50565b620013e381620012b5565b8114620013ef57600080fd5b50565b620013fd81620012c9565b81146200140957600080fd5b50565b6200141781620012fd565b81146200142357600080fd5b50565b60805160601c60a05160601c60c05160601c60e05160601c6101005160601c6101205160601c6184e86200161c60003980610e675280610eff5280611c9f5280612dcf528061395252806143e652806150085280615e9052508061087952806109295280610a605280610b2a5280610b9d5280610cdc5280610d045280610df15280610edb52806112bf528061153e5280611639528061170352806117765280611a4f5280611b045280611bf152806123d35280612652528061274d5280612817528061288a5280612b7f5280612c345280612d215280612f3a52806131b952806132b4528061337e52806133f1528061370252806137b752806138a45280613c6b5280613fb7528061402a52806148715280614bbd5280614c3052806157315280615a7d5280615af0525080610f475280611e2a5280611fc552806120785250806101a752806107a8525080610eb75250806107d15280610aee5280610db55280610f23528061148d52806116c75280611bb552806125a152806127db5280612ce55280613108528061334252806138685280613a235280613ac65280613e2d5280613f7b528061462952806146cc5280614a335280614b81528061514a52806154e9528061558c52806158f35280615a41528061625b528061632e52806163c9528061650d528061653352506184e86000f3fe6080604052600436106101a05760003560e01c8063a4052dec116100ec578063e58bb6391161008a578063f235757f11610064578063f235757f1461064d578063f23a6e6114610676578063f4b16045146106b3578063f9c61fb7146106f057610235565b8063e58bb639146105e4578063e81667ea146105fb578063ee42c6f41461062457610235565b8063be0ca465116100c6578063be0ca4651461053e578063c3d34ea114610567578063ce26f24214610590578063e3056a34146105b957610235565b8063a4052dec14610487578063bbe4f6db146104c4578063bc197c811461050157610235565b806368526a78116101595780637b103999116101335780637b103999146103cd57806380852cb1146103f8578063988b1fa7146104215780639a3234701461045e57610235565b806368526a781461034c5780636a4874a11461037757806376cdb03b146103a257610235565b806301ffc9a71461023a5780630c340a24146102775780633fc8cef3146102a25780634641257d146102cd5780634bab09f6146102e45780635741229c1461032157610235565b36610235577f000000000000000000000000000000000000000000000000000000000000000073ffffffffffffffffffffffffffffffffffffffff163373ffffffffffffffffffffffffffffffffffffffff1614610233576040517f08c379a000000000000000000000000000000000000000000000000000000000815260040161022a90617fd1565b60405180910390fd5b005b600080fd5b34801561024657600080fd5b50610261600480360381019061025c919061739e565b610719565b60405161026e9190617d8d565b60405180910390f35b34801561028357600080fd5b5061028c610780565b6040516102999190617c53565b60405180910390f35b3480156102ae57600080fd5b506102b76107a6565b6040516102c49190617c53565b60405180910390f35b3480156102d957600080fd5b506102e26107ca565b005b3480156102f057600080fd5b5061030b60048036038101906103069190616c63565b610e95565b6040516103189190617d8d565b60405180910390f35b34801561032d57600080fd5b50610336610eb5565b6040516103439190617df9565b60405180910390f35b34801561035857600080fd5b50610361610ed9565b60405161036e9190617e14565b60405180910390f35b34801561038357600080fd5b5061038c610efd565b6040516103999190617c53565b60405180910390f35b3480156103ae57600080fd5b506103b7610f21565b6040516103c49190617dc3565b60405180910390f35b3480156103d957600080fd5b506103e2610f45565b6040516103ef9190617dde565b60405180910390f35b34801561040457600080fd5b5061041f600480360381019061041a91906170d2565b610f69565b005b34801561042d57600080fd5b5061044860048036038101906104439190616c63565b611155565b6040516104559190617c53565b60405180910390f35b34801561046a57600080fd5b5061048560048036038101906104809190616eb2565b611188565b005b34801561049357600080fd5b506104ae60048036038101906104a991906170d2565b611cd3565b6040516104bb9190617c53565b60405180910390f35b3480156104d057600080fd5b506104eb60048036038101906104e69190616c63565b611d1e565b6040516104f89190617c53565b60405180910390f35b34801561050d57600080fd5b5061052860048036038101906105239190616cf1565b612284565b6040516105359190617da8565b60405180910390f35b34801561054a57600080fd5b5061056560048036038101906105609190616f66565b61229c565b005b34801561057357600080fd5b5061058e6004803603810190610589919061701c565b612e03565b005b34801561059c57600080fd5b506105b760048036038101906105b29190617198565b613986565b005b3480156105c557600080fd5b506105ce61441a565b6040516105db9190617c53565b60405180910390f35b3480156105f057600080fd5b506105f9614440565b005b34801561060757600080fd5b50610622600480360381019061061d9190617222565b61458c565b005b34801561063057600080fd5b5061064b600480360381019061064691906172d7565b61503c565b005b34801561065957600080fd5b50610674600480360381019061066f9190616c63565b6152fc565b005b34801561068257600080fd5b5061069d60048036038101906106989190616e20565b615407565b6040516106aa9190617da8565b60405180910390f35b3480156106bf57600080fd5b506106da60048036038101906106d59190616cb5565b61541d565b6040516106e79190617d8d565b60405180910390f35b3480156106fc57600080fd5b506107176004803603810190610712919061710e565b61544c565b005b6000806000837bffffffffffffffffffffffffffffffffffffffffffffffffffffffff19167bffffffffffffffffffffffffffffffffffffffffffffffffffffffff1916815260200190815260200160002060009054906101000a900460ff169050919050565b604260029054906101000a900473ffffffffffffffffffffffffffffffffffffffff1681565b7f000000000000000000000000000000000000000000000000000000000000000081565b60008060007f000000000000000000000000000000000000000000000000000000000000000073ffffffffffffffffffffffffffffffffffffffff1663f70aedd96040518163ffffffff1660e01b815260040160806040518083038186803b15801561083557600080fd5b505afa158015610849573d6000803e3d6000fd5b505050506040513d601f19601f8201168201806040525081019061086d9190616dbd565b935093509350506000807f000000000000000000000000000000000000000000000000000000000000000073ffffffffffffffffffffffffffffffffffffffff1663dc20c6fa856040518263ffffffff1660e01b81526004016108d091906180b1565b60606040518083038186803b1580156108e857600080fd5b505afa1580156108fc573d6000803e3d6000fd5b505050506040513d601f19601f82011682018060405250810190610920919061742c565b509150915060007f000000000000000000000000000000000000000000000000000000000000000073ffffffffffffffffffffffffffffffffffffffff1663a4775772866040518263ffffffff1660e01b815260040161098091906180b1565b60206040518083038186803b15801561099857600080fd5b505afa1580156109ac573d6000803e3d6000fd5b505050506040513d601f19601f820116820180604052508101906109d09190616c8c565b9050608460008273ffffffffffffffffffffffffffffffffffffffff1673ffffffffffffffffffffffffffffffffffffffff16815260200190815260200160002060009054906101000a900460ff16610a5e576040517f08c379a0000000000000000000000000000000000000000000000000000000008152600401610a5590617f91565b60405180910390fd5b7f000000000000000000000000000000000000000000000000000000000000000073ffffffffffffffffffffffffffffffffffffffff168673ffffffffffffffffffffffffffffffffffffffff1614610aec576040517f08c379a0000000000000000000000000000000000000000000000000000000008152600401610ae390617ed1565b60405180910390fd5b7f000000000000000000000000000000000000000000000000000000000000000073ffffffffffffffffffffffffffffffffffffffff166368eb4ba87f000000000000000000000000000000000000000000000000000000000000000087876040518463ffffffff1660e01b8152600401610b6993929190617cdb565b600060405180830381600087803b158015610b8357600080fd5b505af1158015610b97573d6000803e3d6000fd5b505050507f000000000000000000000000000000000000000000000000000000000000000073ffffffffffffffffffffffffffffffffffffffff1663b390c0ab86866040518363ffffffff1660e01b8152600401610bf6929190618170565b602060405180830381600087803b158015610c1057600080fd5b505af1158015610c24573d6000803e3d6000fd5b505050506040513d601f19601f82011682018060405250810190610c4891906173c7565b5060008173ffffffffffffffffffffffffffffffffffffffff166370a08231306040518263ffffffff1660e01b8152600401610c849190617c6e565b60206040518083038186803b158015610c9c57600080fd5b505afa158015610cb0573d6000803e3d6000fd5b505050506040513d601f19601f82011682018060405250810190610cd491906173c7565b9050610d00827f000000000000000000000000000000000000000000000000000000000000000061604d565b60007f000000000000000000000000000000000000000000000000000000000000000073ffffffffffffffffffffffffffffffffffffffff166302acc94b8686856040518463ffffffff1660e01b8152600401610d5f93929190618199565b602060405180830381600087803b158015610d7957600080fd5b505af1158015610d8d573d6000803e3d6000fd5b505050506040513d601f19601f82011682018060405250810190610db191906173c7565b90507f000000000000000000000000000000000000000000000000000000000000000073ffffffffffffffffffffffffffffffffffffffff1663314568d97f000000000000000000000000000000000000000000000000000000000000000083856040518463ffffffff1660e01b8152600401610e3093929190617cdb565b600060405180830381600087803b158015610e4a57600080fd5b505af1158015610e5e573d6000803e3d6000fd5b50505050610e8b7f00000000000000000000000000000000000000000000000000000000000000006161c0565b5050505050505050565b60846020528060005260406000206000915054906101000a900460ff1681565b7f000000000000000000000000000000000000000000000000000000000000000081565b7f000000000000000000000000000000000000000000000000000000000000000081565b7f000000000000000000000000000000000000000000000000000000000000000081565b7f000000000000000000000000000000000000000000000000000000000000000081565b7f000000000000000000000000000000000000000000000000000000000000000081565b80608560008473ffffffffffffffffffffffffffffffffffffffff1673ffffffffffffffffffffffffffffffffffffffff1681526020019081526020016000208054905014610fed576040517f08c379a0000000000000000000000000000000000000000000000000000000008152600401610fe490618091565b60405180910390fd5b6000608660008473ffffffffffffffffffffffffffffffffffffffff1673ffffffffffffffffffffffffffffffffffffffff16815260200190815260200160002060009054906101000a900473ffffffffffffffffffffffffffffffffffffffff1690506060608560008573ffffffffffffffffffffffffffffffffffffffff1673ffffffffffffffffffffffffffffffffffffffff16815260200190815260200160002080548060200260200160405190810160405280929190818152602001828054801561111257602002820191906000526020600020905b8160009054906101000a900473ffffffffffffffffffffffffffffffffffffffff1673ffffffffffffffffffffffffffffffffffffffff16815260200190600101908083116110c8575b5050505050905060005b8381101561114e5761114182828151811061113357fe5b60200260200101518461604d565b808060010191505061111c565b5050505050565b60866020528060005260406000206000915054906101000a900473ffffffffffffffffffffffffffffffffffffffff1681565b608460008973ffffffffffffffffffffffffffffffffffffffff1673ffffffffffffffffffffffffffffffffffffffff16815260200190815260200160002060009054906101000a900460ff16611214576040517f08c379a000000000000000000000000000000000000000000000000000000000815260040161120b90617f91565b60405180910390fd5b600061121f89611d1e565b90506002608560008b73ffffffffffffffffffffffffffffffffffffffff1673ffffffffffffffffffffffffffffffffffffffff16815260200190815260200160002080549050146112a6576040517f08c379a000000000000000000000000000000000000000000000000000000000815260040161129d90618091565b60405180910390fd5b8873ffffffffffffffffffffffffffffffffffffffff167f000000000000000000000000000000000000000000000000000000000000000073ffffffffffffffffffffffffffffffffffffffff1663a9b4e6fe85856040518363ffffffff1660e01b8152600401611318929190618170565b60206040518083038186803b15801561133057600080fd5b505afa158015611344573d6000803e3d6000fd5b505050506040513d601f19601f820116820180604052508101906113689190616c8c565b73ffffffffffffffffffffffffffffffffffffffff16146113be576040517f08c379a00000000000000000000000000000000000000000000000000000000081526004016113b590618031565b60405180910390fd5b6060608560008b73ffffffffffffffffffffffffffffffffffffffff1673ffffffffffffffffffffffffffffffffffffffff16815260200190815260200160002080548060200260200160405190810160405280929190818152602001828054801561147f57602002820191906000526020600020905b8160009054906101000a900473ffffffffffffffffffffffffffffffffffffffff1673ffffffffffffffffffffffffffffffffffffffff1681526020019060010190808311611435575b5050505050905060008060007f000000000000000000000000000000000000000000000000000000000000000073ffffffffffffffffffffffffffffffffffffffff1663f70aedd96040518163ffffffff1660e01b815260040160806040518083038186803b1580156114f157600080fd5b505afa158015611505573d6000803e3d6000fd5b505050506040513d601f19601f820116820180604052508101906115299190616dbd565b935093509350506000811115611825576000807f000000000000000000000000000000000000000000000000000000000000000073ffffffffffffffffffffffffffffffffffffffff1663dc20c6fa856040518263ffffffff1660e01b815260040161159591906180b1565b60606040518083038186803b1580156115ad57600080fd5b505afa1580156115c1573d6000803e3d6000fd5b505050506040513d601f19601f820116820180604052508101906115e5919061742c565b509150915088821480156115f857508781145b611637576040517f08c379a000000000000000000000000000000000000000000000000000000000815260040161162e90617fb1565b60405180910390fd5b7f000000000000000000000000000000000000000000000000000000000000000073ffffffffffffffffffffffffffffffffffffffff168573ffffffffffffffffffffffffffffffffffffffff16146116c5576040517f08c379a00000000000000000000000000000000000000000000000000000000081526004016116bc90617ed1565b60405180910390fd5b7f000000000000000000000000000000000000000000000000000000000000000073ffffffffffffffffffffffffffffffffffffffff166368eb4ba87f000000000000000000000000000000000000000000000000000000000000000086866040518463ffffffff1660e01b815260040161174293929190617cdb565b600060405180830381600087803b15801561175c57600080fd5b505af1158015611770573d6000803e3d6000fd5b505050507f000000000000000000000000000000000000000000000000000000000000000073ffffffffffffffffffffffffffffffffffffffff1663b390c0ab85856040518363ffffffff1660e01b81526004016117cf929190618170565b602060405180830381600087803b1580156117e957600080fd5b505af11580156117fd573d6000803e3d6000fd5b505050506040513d601f19601f8201168201806040525081019061182191906173c7565b5050505b6118308d6002610f69565b60005b60028110156118765761186985828151811061184b57fe5b60200260200101518e836002811061185f57fe5b6020020135616323565b8080600101915050611833565b506118818d8c616323565b60005b60028110156118c7576118ba85828151811061189c57fe5b60200260200101518c83600281106118b057fe5b60200201356163be565b8080600101915050611884565b506118d28d8a6163be565b6118da61688c565b60005b60028110156119a4578581815181106118f257fe5b602002602001015173ffffffffffffffffffffffffffffffffffffffff166370a08231306040518263ffffffff1660e01b81526004016119329190617c6e565b60206040518083038186803b15801561194a57600080fd5b505afa15801561195e573d6000803e3d6000fd5b505050506040513d601f19601f8201168201806040525081019061198291906173c7565b82826002811061198e57fe5b60200201818152505080806001019150506118dd565b506000816000600281106119b457fe5b602002015111806119d657506000816001600281106119cf57fe5b6020020151115b15611a49578573ffffffffffffffffffffffffffffffffffffffff16630b4c7e4d828b6040518363ffffffff1660e01b8152600401611a16929190617d12565b600060405180830381600087803b158015611a3057600080fd5b505af1158015611a44573d6000803e3d6000fd5b505050505b611a738e7f000000000000000000000000000000000000000000000000000000000000000061604d565b60008e73ffffffffffffffffffffffffffffffffffffffff166370a08231306040518263ffffffff1660e01b8152600401611aae9190617c6e565b60206040518083038186803b158015611ac657600080fd5b505afa158015611ada573d6000803e3d6000fd5b505050506040513d601f19601f82011682018060405250810190611afe91906173c7565b905060007f000000000000000000000000000000000000000000000000000000000000000073ffffffffffffffffffffffffffffffffffffffff166302acc94b8b8b856040518463ffffffff1660e01b8152600401611b5f93929190618199565b602060405180830381600087803b158015611b7957600080fd5b505af1158015611b8d573d6000803e3d6000fd5b505050506040513d601f19601f82011682018060405250810190611bb191906173c7565b90507f000000000000000000000000000000000000000000000000000000000000000073ffffffffffffffffffffffffffffffffffffffff1663314568d97f000000000000000000000000000000000000000000000000000000000000000083856040518463ffffffff1660e01b8152600401611c3093929190617cdb565b600060405180830381600087803b158015611c4a57600080fd5b505af1158015611c5e573d6000803e3d6000fd5b50505050505060005b6002811015611c9957611c8c868281518110611c7f57fe5b60200260200101516161c0565b8080600101915050611c67565b50611cc37f00000000000000000000000000000000000000000000000000000000000000006161c0565b5050505050505050505050505050565b60856020528160005260406000208181548110611cec57fe5b906000526020600020016000915091509054906101000a900473ffffffffffffffffffffffffffffffffffffffff1681565b600080608660008473ffffffffffffffffffffffffffffffffffffffff1673ffffffffffffffffffffffffffffffffffffffff16815260200190815260200160002060009054906101000a900473ffffffffffffffffffffffffffffffffffffffff169050600073ffffffffffffffffffffffffffffffffffffffff168173ffffffffffffffffffffffffffffffffffffffff16141561227b57600073ffffffffffffffffffffffffffffffffffffffff168373ffffffffffffffffffffffffffffffffffffffff161415611e28576040517f08c379a0000000000000000000000000000000000000000000000000000000008152600401611e1f90617f71565b60405180910390fd5b7f000000000000000000000000000000000000000000000000000000000000000073ffffffffffffffffffffffffffffffffffffffff1663bdf475c3846040518263ffffffff1660e01b8152600401611e819190617c53565b60206040518083038186803b158015611e9957600080fd5b505afa158015611ead573d6000803e3d6000fd5b505050506040513d601f19601f82011682018060405250810190611ed19190616c8c565b9050600073ffffffffffffffffffffffffffffffffffffffff168173ffffffffffffffffffffffffffffffffffffffff161415611f43576040517f08c379a0000000000000000000000000000000000000000000000000000000008152600401611f3a90617ff1565b60405180910390fd5b80608660008573ffffffffffffffffffffffffffffffffffffffff1673ffffffffffffffffffffffffffffffffffffffff16815260200190815260200160002060006101000a81548173ffffffffffffffffffffffffffffffffffffffff021916908373ffffffffffffffffffffffffffffffffffffffff16021790555060007f000000000000000000000000000000000000000000000000000000000000000073ffffffffffffffffffffffffffffffffffffffff1663940494f1836040518263ffffffff1660e01b815260040161201c9190617c53565b604080518083038186803b15801561203357600080fd5b505afa158015612047573d6000803e3d6000fd5b505050506040513d601f19601f8201168201806040525081019061206b91906173f0565b5090506120766168ae565b7f000000000000000000000000000000000000000000000000000000000000000073ffffffffffffffffffffffffffffffffffffffff16639ac90d3d846040518263ffffffff1660e01b81526004016120cf9190617c53565b6101006040518083038186803b1580156120e857600080fd5b505afa1580156120fc573d6000803e3d6000fd5b505050506040513d601f19601f8201168201806040525081019061212091906172ad565b90508167ffffffffffffffff8111801561213957600080fd5b506040519080825280602002602001820160405280156121685781602001602082028036833780820191505090505b50608560008773ffffffffffffffffffffffffffffffffffffffff1673ffffffffffffffffffffffffffffffffffffffff16815260200190815260200160002090805190602001906121bb9291906168d1565b5060005b82811015612277578181600881106121d357fe5b6020020151608560008873ffffffffffffffffffffffffffffffffffffffff1673ffffffffffffffffffffffffffffffffffffffff168152602001908152602001600020828154811061222257fe5b9060005260206000200160006101000a81548173ffffffffffffffffffffffffffffffffffffffff021916908373ffffffffffffffffffffffffffffffffffffffff16021790555080806001019150506121bf565b5050505b80915050919050565b600063bc197c8160e01b905098975050505050505050565b608460008973ffffffffffffffffffffffffffffffffffffffff1673ffffffffffffffffffffffffffffffffffffffff16815260200190815260200160002060009054906101000a900460ff16612328576040517f08c379a000000000000000000000000000000000000000000000000000000000815260040161231f90617f91565b60405180910390fd5b600061233389611d1e565b90506003608560008b73ffffffffffffffffffffffffffffffffffffffff1673ffffffffffffffffffffffffffffffffffffffff16815260200190815260200160002080549050146123ba576040517f08c379a00000000000000000000000000000000000000000000000000000000081526004016123b190618091565b60405180910390fd5b8873ffffffffffffffffffffffffffffffffffffffff167f000000000000000000000000000000000000000000000000000000000000000073ffffffffffffffffffffffffffffffffffffffff1663a9b4e6fe85856040518363ffffffff1660e01b815260040161242c929190618170565b60206040518083038186803b15801561244457600080fd5b505afa158015612458573d6000803e3d6000fd5b505050506040513d601f19601f8201168201806040525081019061247c9190616c8c565b73ffffffffffffffffffffffffffffffffffffffff16146124d2576040517f08c379a00000000000000000000000000000000000000000000000000000000081526004016124c990618031565b60405180910390fd5b6060608560008b73ffffffffffffffffffffffffffffffffffffffff1673ffffffffffffffffffffffffffffffffffffffff16815260200190815260200160002080548060200260200160405190810160405280929190818152602001828054801561259357602002820191906000526020600020905b8160009054906101000a900473ffffffffffffffffffffffffffffffffffffffff1673ffffffffffffffffffffffffffffffffffffffff1681526020019060010190808311612549575b5050505050905060008060007f000000000000000000000000000000000000000000000000000000000000000073ffffffffffffffffffffffffffffffffffffffff1663f70aedd96040518163ffffffff1660e01b815260040160806040518083038186803b15801561260557600080fd5b505afa158015612619573d6000803e3d6000fd5b505050506040513d601f19601f8201168201806040525081019061263d9190616dbd565b935093509350506000811115612939576000807f000000000000000000000000000000000000000000000000000000000000000073ffffffffffffffffffffffffffffffffffffffff1663dc20c6fa856040518263ffffffff1660e01b81526004016126a991906180b1565b60606040518083038186803b1580156126c157600080fd5b505afa1580156126d5573d6000803e3d6000fd5b505050506040513d601f19601f820116820180604052508101906126f9919061742c565b5091509150888214801561270c57508781145b61274b576040517f08c379a000000000000000000000000000000000000000000000000000000000815260040161274290617e51565b60405180910390fd5b7f000000000000000000000000000000000000000000000000000000000000000073ffffffffffffffffffffffffffffffffffffffff168573ffffffffffffffffffffffffffffffffffffffff16146127d9576040517f08c379a00000000000000000000000000000000000000000000000000000000081526004016127d090617ed1565b60405180910390fd5b7f000000000000000000000000000000000000000000000000000000000000000073ffffffffffffffffffffffffffffffffffffffff166368eb4ba87f000000000000000000000000000000000000000000000000000000000000000086866040518463ffffffff1660e01b815260040161285693929190617cdb565b600060405180830381600087803b15801561287057600080fd5b505af1158015612884573d6000803e3d6000fd5b505050507f000000000000000000000000000000000000000000000000000000000000000073ffffffffffffffffffffffffffffffffffffffff1663b390c0ab85856040518363ffffffff1660e01b81526004016128e3929190618170565b602060405180830381600087803b1580156128fd57600080fd5b505af1158015612911573d6000803e3d6000fd5b505050506040513d601f19601f8201168201806040525081019061293591906173c7565b5050505b6129448d6003610f69565b60005b600381101561298a5761297d85828151811061295f57fe5b60200260200101518e836003811061297357fe5b6020020135616323565b8080600101915050612947565b506129958d8c616323565b60005b60038110156129db576129ce8582815181106129b057fe5b60200260200101518c83600381106129c457fe5b60200201356163be565b8080600101915050612998565b506129e68d8a6163be565b6129ee61695b565b60005b6003811015612ab857858181518110612a0657fe5b602002602001015173ffffffffffffffffffffffffffffffffffffffff166370a08231306040518263ffffffff1660e01b8152600401612a469190617c6e565b60206040518083038186803b158015612a5e57600080fd5b505afa158015612a72573d6000803e3d6000fd5b505050506040513d601f19601f82011682018060405250810190612a9691906173c7565b828260038110612aa257fe5b60200201818152505080806001019150506129f1565b50600081600060038110612ac857fe5b60200201511180612aea5750600081600160038110612ae357fe5b6020020151115b80612b065750600081600260038110612aff57fe5b6020020151115b15612b79578573ffffffffffffffffffffffffffffffffffffffff16634515cef3828b6040518363ffffffff1660e01b8152600401612b46929190617d3b565b600060405180830381600087803b158015612b6057600080fd5b505af1158015612b74573d6000803e3d6000fd5b505050505b612ba38e7f000000000000000000000000000000000000000000000000000000000000000061604d565b60008e73ffffffffffffffffffffffffffffffffffffffff166370a08231306040518263ffffffff1660e01b8152600401612bde9190617c6e565b60206040518083038186803b158015612bf657600080fd5b505afa158015612c0a573d6000803e3d6000fd5b505050506040513d601f19601f82011682018060405250810190612c2e91906173c7565b905060007f000000000000000000000000000000000000000000000000000000000000000073ffffffffffffffffffffffffffffffffffffffff166302acc94b8b8b856040518463ffffffff1660e01b8152600401612c8f93929190618199565b602060405180830381600087803b158015612ca957600080fd5b505af1158015612cbd573d6000803e3d6000fd5b505050506040513d601f19601f82011682018060405250810190612ce191906173c7565b90507f000000000000000000000000000000000000000000000000000000000000000073ffffffffffffffffffffffffffffffffffffffff1663314568d97f000000000000000000000000000000000000000000000000000000000000000083856040518463ffffffff1660e01b8152600401612d6093929190617cdb565b600060405180830381600087803b158015612d7a57600080fd5b505af1158015612d8e573d6000803e3d6000fd5b50505050505060005b6003811015612dc957612dbc868281518110612daf57fe5b60200260200101516161c0565b8080600101915050612d97565b50612df37f00000000000000000000000000000000000000000000000000000000000000006161c0565b5050505050505050505050505050565b608460008973ffffffffffffffffffffffffffffffffffffffff1673ffffffffffffffffffffffffffffffffffffffff16815260200190815260200160002060009054906101000a900460ff16612e8f576040517f08c379a0000000000000000000000000000000000000000000000000000000008152600401612e8690617f91565b60405180910390fd5b6000612e9a89611d1e565b90506004608560008b73ffffffffffffffffffffffffffffffffffffffff1673ffffffffffffffffffffffffffffffffffffffff1681526020019081526020016000208054905014612f21576040517f08c379a0000000000000000000000000000000000000000000000000000000008152600401612f1890618091565b60405180910390fd5b8873ffffffffffffffffffffffffffffffffffffffff167f000000000000000000000000000000000000000000000000000000000000000073ffffffffffffffffffffffffffffffffffffffff1663a9b4e6fe85856040518363ffffffff1660e01b8152600401612f93929190618170565b60206040518083038186803b158015612fab57600080fd5b505afa158015612fbf573d6000803e3d6000fd5b505050506040513d601f19601f82011682018060405250810190612fe39190616c8c565b73ffffffffffffffffffffffffffffffffffffffff1614613039576040517f08c379a000000000000000000000000000000000000000000000000000000000815260040161303090618031565b60405180910390fd5b6060608560008b73ffffffffffffffffffffffffffffffffffffffff1673ffffffffffffffffffffffffffffffffffffffff1681526020019081526020016000208054806020026020016040519081016040528092919081815260200182805480156130fa57602002820191906000526020600020905b8160009054906101000a900473ffffffffffffffffffffffffffffffffffffffff1673ffffffffffffffffffffffffffffffffffffffff16815260200190600101908083116130b0575b5050505050905060008060007f000000000000000000000000000000000000000000000000000000000000000073ffffffffffffffffffffffffffffffffffffffff1663f70aedd96040518163ffffffff1660e01b815260040160806040518083038186803b15801561316c57600080fd5b505afa158015613180573d6000803e3d6000fd5b505050506040513d601f19601f820116820180604052508101906131a49190616dbd565b9350935093505060008111156134a0576000807f000000000000000000000000000000000000000000000000000000000000000073ffffffffffffffffffffffffffffffffffffffff1663dc20c6fa856040518263ffffffff1660e01b815260040161321091906180b1565b60606040518083038186803b15801561322857600080fd5b505afa15801561323c573d6000803e3d6000fd5b505050506040513d601f19601f82011682018060405250810190613260919061742c565b5091509150888214801561327357508781145b6132b2576040517f08c379a00000000000000000000000000000000000000000000000000000000081526004016132a990617e51565b60405180910390fd5b7f000000000000000000000000000000000000000000000000000000000000000073ffffffffffffffffffffffffffffffffffffffff168573ffffffffffffffffffffffffffffffffffffffff1614613340576040517f08c379a000000000000000000000000000000000000000000000000000000000815260040161333790617ed1565b60405180910390fd5b7f000000000000000000000000000000000000000000000000000000000000000073ffffffffffffffffffffffffffffffffffffffff166368eb4ba87f000000000000000000000000000000000000000000000000000000000000000086866040518463ffffffff1660e01b81526004016133bd93929190617cdb565b600060405180830381600087803b1580156133d757600080fd5b505af11580156133eb573d6000803e3d6000fd5b505050507f000000000000000000000000000000000000000000000000000000000000000073ffffffffffffffffffffffffffffffffffffffff1663b390c0ab85856040518363ffffffff1660e01b815260040161344a929190618170565b602060405180830381600087803b15801561346457600080fd5b505af1158015613478573d6000803e3d6000fd5b505050506040513d601f19601f8201168201806040525081019061349c91906173c7565b5050505b6134ab8d6004610f69565b60005b60048110156134f1576134e48582815181106134c657fe5b60200260200101518e83600481106134da57fe5b6020020135616323565b80806001019150506134ae565b506134fc8d8c616323565b60005b60048110156135425761353585828151811061351757fe5b60200260200101518c836004811061352b57fe5b60200201356163be565b80806001019150506134ff565b5061354d8d8a6163be565b61355561697d565b60005b600481101561361f5785818151811061356d57fe5b602002602001015173ffffffffffffffffffffffffffffffffffffffff166370a08231306040518263ffffffff1660e01b81526004016135ad9190617c6e565b60206040518083038186803b1580156135c557600080fd5b505afa1580156135d9573d6000803e3d6000fd5b505050506040513d601f19601f820116820180604052508101906135fd91906173c7565b82826004811061360957fe5b6020020181815250508080600101915050613558565b5060008160006004811061362f57fe5b60200201511180613651575060008160016004811061364a57fe5b6020020151115b8061366d575060008160026004811061366657fe5b6020020151115b80613689575060008160036004811061368257fe5b6020020151115b156136fc578573ffffffffffffffffffffffffffffffffffffffff1663029b2f34828b6040518363ffffffff1660e01b81526004016136c9929190617d64565b600060405180830381600087803b1580156136e357600080fd5b505af11580156136f7573d6000803e3d6000fd5b505050505b6137268e7f000000000000000000000000000000000000000000000000000000000000000061604d565b60008e73ffffffffffffffffffffffffffffffffffffffff166370a08231306040518263ffffffff1660e01b81526004016137619190617c6e565b60206040518083038186803b15801561377957600080fd5b505afa15801561378d573d6000803e3d6000fd5b505050506040513d601f19601f820116820180604052508101906137b191906173c7565b905060007f000000000000000000000000000000000000000000000000000000000000000073ffffffffffffffffffffffffffffffffffffffff166302acc94b8b8b856040518463ffffffff1660e01b815260040161381293929190618199565b602060405180830381600087803b15801561382c57600080fd5b505af1158015613840573d6000803e3d6000fd5b505050506040513d601f19601f8201168201806040525081019061386491906173c7565b90507f000000000000000000000000000000000000000000000000000000000000000073ffffffffffffffffffffffffffffffffffffffff1663314568d97f000000000000000000000000000000000000000000000000000000000000000083856040518463ffffffff1660e01b81526004016138e393929190617cdb565b600060405180830381600087803b1580156138fd57600080fd5b505af1158015613911573d6000803e3d6000fd5b50505050505060005b600481101561394c5761393f86828151811061393257fe5b60200260200101516161c0565b808060010191505061391a565b506139767f00000000000000000000000000000000000000000000000000000000000000006161c0565b5050505050505050505050505050565b608460008773ffffffffffffffffffffffffffffffffffffffff1673ffffffffffffffffffffffffffffffffffffffff16815260200190815260200160002060009054906101000a900460ff16613a12576040517f08c379a0000000000000000000000000000000000000000000000000000000008152600401613a0990617f91565b60405180910390fd5b6000613a1d87611d1e565b905060007f000000000000000000000000000000000000000000000000000000000000000073ffffffffffffffffffffffffffffffffffffffff1663d7ac71ff6040518163ffffffff1660e01b815260040160206040518083038186803b158015613a8757600080fd5b505afa158015613a9b573d6000803e3d6000fd5b505050506040513d601f19601f82011682018060405250810190613abf91906173c7565b90506000807f000000000000000000000000000000000000000000000000000000000000000073ffffffffffffffffffffffffffffffffffffffff1663519f5099846040518263ffffffff1660e01b8152600401613b1d91906180b1565b60806040518083038186803b158015613b3557600080fd5b505afa158015613b49573d6000803e3d6000fd5b505050506040513d601f19601f82011682018060405250810190613b6d9190616dbd565b5092509250508973ffffffffffffffffffffffffffffffffffffffff168273ffffffffffffffffffffffffffffffffffffffff1663a4775772836040518263ffffffff1660e01b8152600401613bc391906180b1565b60206040518083038186803b158015613bdb57600080fd5b505afa158015613bef573d6000803e3d6000fd5b505050506040513d601f19601f82011682018060405250810190613c139190616c8c565b73ffffffffffffffffffffffffffffffffffffffff1614613c69576040517f08c379a0000000000000000000000000000000000000000000000000000000008152600401613c6090618031565b60405180910390fd5b7f000000000000000000000000000000000000000000000000000000000000000073ffffffffffffffffffffffffffffffffffffffff168273ffffffffffffffffffffffffffffffffffffffff1614613cf7576040517f08c379a0000000000000000000000000000000000000000000000000000000008152600401613cee90617ed1565b60405180910390fd5b6060608560008c73ffffffffffffffffffffffffffffffffffffffff1673ffffffffffffffffffffffffffffffffffffffff168152602001908152602001600020805480602002602001604051908101604052809291908181526020018280548015613db857602002820191906000526020600020905b8160009054906101000a900473ffffffffffffffffffffffffffffffffffffffff1673ffffffffffffffffffffffffffffffffffffffff1681526020019060010190808311613d6e575b50505050509050613dca8b6003610f69565b613dd261695b565b60005b6003811015613f0e577fffffffffffffffffffffffffffffffffffffffffffffffffffffffffffffffff8a8260038110613e0b57fe5b602002013514613e2b57898160038110613e2157fe5b6020020135613eec565b7f000000000000000000000000000000000000000000000000000000000000000073ffffffffffffffffffffffffffffffffffffffff166382a2fb9c87858481518110613e7457fe5b60200260200101516040518363ffffffff1660e01b8152600401613e999291906180cc565b602060405180830381600087803b158015613eb357600080fd5b505af1158015613ec7573d6000803e3d6000fd5b505050506040513d601f19601f82011682018060405250810190613eeb91906173c7565b5b828260038110613ef857fe5b6020020181815250508080600101915050613dd5565b50613f1761695b565b60005b6003811015613f7857613f56898260038110613f3257fe5b6020020135848360038110613f4357fe5b602002015161645990919063ffffffff16565b828260038110613f6257fe5b6020020181815250508080600101915050613f1a565b507f000000000000000000000000000000000000000000000000000000000000000073ffffffffffffffffffffffffffffffffffffffff166368eb4ba87f0000000000000000000000000000000000000000000000000000000000000000868f6040518463ffffffff1660e01b8152600401613ff693929190617cdb565b600060405180830381600087803b15801561401057600080fd5b505af1158015614024573d6000803e3d6000fd5b505050507f000000000000000000000000000000000000000000000000000000000000000073ffffffffffffffffffffffffffffffffffffffff1663b390c0ab858e6040518363ffffffff1660e01b8152600401614083929190618170565b602060405180830381600087803b15801561409d57600080fd5b505af11580156140b1573d6000803e3d6000fd5b505050506040513d601f19601f820116820180604052508101906140d591906173c7565b50600080826000600381106140e657fe5b60200201511180614108575060008260016003811061410157fe5b6020020151115b80614124575060008260026003811061411d57fe5b6020020151115b15614234576141c48c8f73ffffffffffffffffffffffffffffffffffffffff166370a08231306040518263ffffffff1660e01b81526004016141669190617c6e565b60206040518083038186803b15801561417e57600080fd5b505afa158015614192573d6000803e3d6000fd5b505050506040513d601f19601f820116820180604052508101906141b691906173c7565b6164ae90919063ffffffff16565b90508773ffffffffffffffffffffffffffffffffffffffff16639fdaea0c83836040518363ffffffff1660e01b8152600401614201929190617d3b565b600060405180830381600087803b15801561421b57600080fd5b505af115801561422f573d6000803e3d6000fd5b505050505b6142cf8c8f73ffffffffffffffffffffffffffffffffffffffff166370a08231306040518263ffffffff1660e01b81526004016142719190617c6e565b60206040518083038186803b15801561428957600080fd5b505afa15801561429d573d6000803e3d6000fd5b505050506040513d601f19601f820116820180604052508101906142c191906173c7565b6164ae90919063ffffffff16565b90506000811115614351576142e261695b565b8873ffffffffffffffffffffffffffffffffffffffff1663ecb586a583836040518363ffffffff1660e01b815260040161431d92919061811e565b600060405180830381600087803b15801561433757600080fd5b505af115801561434b573d6000803e3d6000fd5b50505050505b60005b60038110156143975761438a85828151811061436c57fe5b602002602001015185836003811061438057fe5b60200201516164fe565b8080600101915050614354565b506143a28e8b6164fe565b60005b60038110156143d7576143ca8582815181106143bd57fe5b60200260200101516161c0565b80806001019150506143a5565b506143e18e6161c0565b61440a7f00000000000000000000000000000000000000000000000000000000000000006161c0565b5050505050505050505050505050565b604360009054906101000a900473ffffffffffffffffffffffffffffffffffffffff1681565b604360009054906101000a900473ffffffffffffffffffffffffffffffffffffffff1673ffffffffffffffffffffffffffffffffffffffff163373ffffffffffffffffffffffffffffffffffffffff16146144d0576040517f08c379a00000000000000000000000000000000000000000000000000000000081526004016144c790617e71565b60405180910390fd5b6000604360006101000a81548173ffffffffffffffffffffffffffffffffffffffff021916908373ffffffffffffffffffffffffffffffffffffffff16021790555033604260026101000a81548173ffffffffffffffffffffffffffffffffffffffff021916908373ffffffffffffffffffffffffffffffffffffffff1602179055507fd345d81ce68c70b119a17eee79dc1421700bd9cb21ca148a62dc90983964e82f336040516145829190617c6e565b60405180910390a1565b608460008773ffffffffffffffffffffffffffffffffffffffff1673ffffffffffffffffffffffffffffffffffffffff16815260200190815260200160002060009054906101000a900460ff16614618576040517f08c379a000000000000000000000000000000000000000000000000000000000815260040161460f90617f91565b60405180910390fd5b600061462387611d1e565b905060007f000000000000000000000000000000000000000000000000000000000000000073ffffffffffffffffffffffffffffffffffffffff1663d7ac71ff6040518163ffffffff1660e01b815260040160206040518083038186803b15801561468d57600080fd5b505afa1580156146a1573d6000803e3d6000fd5b505050506040513d601f19601f820116820180604052508101906146c591906173c7565b90506000807f000000000000000000000000000000000000000000000000000000000000000073ffffffffffffffffffffffffffffffffffffffff1663519f5099846040518263ffffffff1660e01b815260040161472391906180b1565b60806040518083038186803b15801561473b57600080fd5b505afa15801561474f573d6000803e3d6000fd5b505050506040513d601f19601f820116820180604052508101906147739190616dbd565b5092509250508973ffffffffffffffffffffffffffffffffffffffff168273ffffffffffffffffffffffffffffffffffffffff1663a4775772836040518263ffffffff1660e01b81526004016147c991906180b1565b60206040518083038186803b1580156147e157600080fd5b505afa1580156147f5573d6000803e3d6000fd5b505050506040513d601f19601f820116820180604052508101906148199190616c8c565b73ffffffffffffffffffffffffffffffffffffffff161461486f576040517f08c379a000000000000000000000000000000000000000000000000000000000815260040161486690618031565b60405180910390fd5b7f000000000000000000000000000000000000000000000000000000000000000073ffffffffffffffffffffffffffffffffffffffff168273ffffffffffffffffffffffffffffffffffffffff16146148fd576040517f08c379a00000000000000000000000000000000000000000000000000000000081526004016148f490617ed1565b60405180910390fd5b6060608560008c73ffffffffffffffffffffffffffffffffffffffff1673ffffffffffffffffffffffffffffffffffffffff1681526020019081526020016000208054806020026020016040519081016040528092919081815260200182805480156149be57602002820191906000526020600020905b8160009054906101000a900473ffffffffffffffffffffffffffffffffffffffff1673ffffffffffffffffffffffffffffffffffffffff1681526020019060010190808311614974575b505050505090506149d08b6004610f69565b6149d861697d565b60005b6004811015614b14577fffffffffffffffffffffffffffffffffffffffffffffffffffffffffffffffff8a8260048110614a1157fe5b602002013514614a3157898160048110614a2757fe5b6020020135614af2565b7f000000000000000000000000000000000000000000000000000000000000000073ffffffffffffffffffffffffffffffffffffffff166382a2fb9c87858481518110614a7a57fe5b60200260200101516040518363ffffffff1660e01b8152600401614a9f9291906180cc565b602060405180830381600087803b158015614ab957600080fd5b505af1158015614acd573d6000803e3d6000fd5b505050506040513d601f19601f82011682018060405250810190614af191906173c7565b5b828260048110614afe57fe5b60200201818152505080806001019150506149db565b50614b1d61697d565b60005b6004811015614b7e57614b5c898260048110614b3857fe5b6020020135848360048110614b4957fe5b602002015161645990919063ffffffff16565b828260048110614b6857fe5b6020020181815250508080600101915050614b20565b507f000000000000000000000000000000000000000000000000000000000000000073ffffffffffffffffffffffffffffffffffffffff166368eb4ba87f0000000000000000000000000000000000000000000000000000000000000000868f6040518463ffffffff1660e01b8152600401614bfc93929190617cdb565b600060405180830381600087803b158015614c1657600080fd5b505af1158015614c2a573d6000803e3d6000fd5b505050507f000000000000000000000000000000000000000000000000000000000000000073ffffffffffffffffffffffffffffffffffffffff1663b390c0ab858e6040518363ffffffff1660e01b8152600401614c89929190618170565b602060405180830381600087803b158015614ca357600080fd5b505af1158015614cb7573d6000803e3d6000fd5b505050506040513d601f19601f82011682018060405250810190614cdb91906173c7565b5060008082600060048110614cec57fe5b60200201511180614d0e5750600082600160048110614d0757fe5b6020020151115b80614d2a5750600082600260048110614d2357fe5b6020020151115b80614d465750600082600360048110614d3f57fe5b6020020151115b15614e5657614de68c8f73ffffffffffffffffffffffffffffffffffffffff166370a08231306040518263ffffffff1660e01b8152600401614d889190617c6e565b60206040518083038186803b158015614da057600080fd5b505afa158015614db4573d6000803e3d6000fd5b505050506040513d601f19601f82011682018060405250810190614dd891906173c7565b6164ae90919063ffffffff16565b90508773ffffffffffffffffffffffffffffffffffffffff166318a7bd7683836040518363ffffffff1660e01b8152600401614e23929190617d64565b600060405180830381600087803b158015614e3d57600080fd5b505af1158015614e51573d6000803e3d6000fd5b505050505b614ef18c8f73ffffffffffffffffffffffffffffffffffffffff166370a08231306040518263ffffffff1660e01b8152600401614e939190617c6e565b60206040518083038186803b158015614eab57600080fd5b505afa158015614ebf573d6000803e3d6000fd5b505050506040513d601f19601f82011682018060405250810190614ee391906173c7565b6164ae90919063ffffffff16565b90506000811115614f7357614f0461697d565b8873ffffffffffffffffffffffffffffffffffffffff16637d49d87583836040518363ffffffff1660e01b8152600401614f3f929190618147565b600060405180830381600087803b158015614f5957600080fd5b505af1158015614f6d573d6000803e3d6000fd5b50505050505b60005b6004811015614fb957614fac858281518110614f8e57fe5b6020026020010151858360048110614fa257fe5b60200201516164fe565b8080600101915050614f76565b50614fc48e8b6164fe565b60005b6004811015614ff957614fec858281518110614fdf57fe5b60200260200101516161c0565b8080600101915050614fc7565b506150038e6161c0565b61502c7f00000000000000000000000000000000000000000000000000000000000000006161c0565b5050505050505050505050505050565b604260029054906101000a900473ffffffffffffffffffffffffffffffffffffffff1673ffffffffffffffffffffffffffffffffffffffff163373ffffffffffffffffffffffffffffffffffffffff16146150cc576040517f08c379a00000000000000000000000000000000000000000000000000000000081526004016150c390617f31565b60405180910390fd5b818190508484905014615114576040517f08c379a000000000000000000000000000000000000000000000000000000000815260040161510b90617f51565b60405180910390fd5b60005b848490508110156152f55782828281811061512e57fe5b9050602002016020810190615143919061734c565b15615251577f000000000000000000000000000000000000000000000000000000000000000073ffffffffffffffffffffffffffffffffffffffff1663e660cc0886868481811061519057fe5b90506020020160208101906151a59190616c63565b6040518263ffffffff1660e01b81526004016151c19190617c53565b60206040518083038186803b1580156151d957600080fd5b505afa1580156151ed573d6000803e3d6000fd5b505050506040513d601f19601f820116820180604052508101906152119190617375565b615250576040517f08c379a000000000000000000000000000000000000000000000000000000000815260040161524790617eb1565b60405180910390fd5b5b82828281811061525d57fe5b9050602002016020810190615272919061734c565b6084600087878581811061528257fe5b90506020020160208101906152979190616c63565b73ffffffffffffffffffffffffffffffffffffffff1673ffffffffffffffffffffffffffffffffffffffff16815260200190815260200160002060006101000a81548160ff0219169083151502179055508080600101915050615117565b5050505050565b604260029054906101000a900473ffffffffffffffffffffffffffffffffffffffff1673ffffffffffffffffffffffffffffffffffffffff163373ffffffffffffffffffffffffffffffffffffffff161461538c576040517f08c379a000000000000000000000000000000000000000000000000000000000815260040161538390617f31565b60405180910390fd5b80604360006101000a81548173ffffffffffffffffffffffffffffffffffffffff021916908373ffffffffffffffffffffffffffffffffffffffff1602179055507f964dea888b00b2ab53f13dfe7ca334b46e99338c222ae232d98547a1da019f60816040516153fc9190617c53565b60405180910390a150565b600063f23a6e6160e01b90509695505050505050565b60416020528160005260406000206020528060005260406000206000915091509054906101000a900460ff1681565b608460008773ffffffffffffffffffffffffffffffffffffffff1673ffffffffffffffffffffffffffffffffffffffff16815260200190815260200160002060009054906101000a900460ff166154d8576040517f08c379a00000000000000000000000000000000000000000000000000000000081526004016154cf90617f91565b60405180910390fd5b60006154e387611d1e565b905060007f000000000000000000000000000000000000000000000000000000000000000073ffffffffffffffffffffffffffffffffffffffff1663d7ac71ff6040518163ffffffff1660e01b815260040160206040518083038186803b15801561554d57600080fd5b505afa158015615561573d6000803e3d6000fd5b505050506040513d601f19601f8201168201806040525081019061558591906173c7565b90506000807f000000000000000000000000000000000000000000000000000000000000000073ffffffffffffffffffffffffffffffffffffffff1663519f5099846040518263ffffffff1660e01b81526004016155e391906180b1565b60806040518083038186803b1580156155fb57600080fd5b505afa15801561560f573d6000803e3d6000fd5b505050506040513d601f19601f820116820180604052508101906156339190616dbd565b5092509250508973ffffffffffffffffffffffffffffffffffffffff168273ffffffffffffffffffffffffffffffffffffffff1663a4775772836040518263ffffffff1660e01b815260040161568991906180b1565b60206040518083038186803b1580156156a157600080fd5b505afa1580156156b5573d6000803e3d6000fd5b505050506040513d601f19601f820116820180604052508101906156d99190616c8c565b73ffffffffffffffffffffffffffffffffffffffff161461572f576040517f08c379a000000000000000000000000000000000000000000000000000000000815260040161572690618031565b60405180910390fd5b7f000000000000000000000000000000000000000000000000000000000000000073ffffffffffffffffffffffffffffffffffffffff168273ffffffffffffffffffffffffffffffffffffffff16146157bd576040517f08c379a00000000000000000000000000000000000000000000000000000000081526004016157b490617ed1565b60405180910390fd5b6060608560008c73ffffffffffffffffffffffffffffffffffffffff1673ffffffffffffffffffffffffffffffffffffffff16815260200190815260200160002080548060200260200160405190810160405280929190818152602001828054801561587e57602002820191906000526020600020905b8160009054906101000a900473ffffffffffffffffffffffffffffffffffffffff1673ffffffffffffffffffffffffffffffffffffffff1681526020019060010190808311615834575b505050505090506158908b6002610f69565b61589861688c565b60005b60028110156159d4577fffffffffffffffffffffffffffffffffffffffffffffffffffffffffffffffff8a82600281106158d157fe5b6020020135146158f1578981600281106158e757fe5b60200201356159b2565b7f000000000000000000000000000000000000000000000000000000000000000073ffffffffffffffffffffffffffffffffffffffff166382a2fb9c8785848151811061593a57fe5b60200260200101516040518363ffffffff1660e01b815260040161595f9291906180cc565b602060405180830381600087803b15801561597957600080fd5b505af115801561598d573d6000803e3d6000fd5b505050506040513d601f19601f820116820180604052508101906159b191906173c7565b5b8282600281106159be57fe5b602002018181525050808060010191505061589b565b506159dd61688c565b60005b6002811015615a3e57615a1c8982600281106159f857fe5b6020020135848360028110615a0957fe5b602002015161645990919063ffffffff16565b828260028110615a2857fe5b60200201818152505080806001019150506159e0565b507f000000000000000000000000000000000000000000000000000000000000000073ffffffffffffffffffffffffffffffffffffffff166368eb4ba87f0000000000000000000000000000000000000000000000000000000000000000868f6040518463ffffffff1660e01b8152600401615abc93929190617cdb565b600060405180830381600087803b158015615ad657600080fd5b505af1158015615aea573d6000803e3d6000fd5b505050507f000000000000000000000000000000000000000000000000000000000000000073ffffffffffffffffffffffffffffffffffffffff1663b390c0ab858e6040518363ffffffff1660e01b8152600401615b49929190618170565b602060405180830381600087803b158015615b6357600080fd5b505af1158015615b77573d6000803e3d6000fd5b505050506040513d601f19601f82011682018060405250810190615b9b91906173c7565b5060008082600060028110615bac57fe5b60200201511180615bce5750600082600160028110615bc757fe5b6020020151115b15615cde57615c6e8c8f73ffffffffffffffffffffffffffffffffffffffff166370a08231306040518263ffffffff1660e01b8152600401615c109190617c6e565b60206040518083038186803b158015615c2857600080fd5b505afa158015615c3c573d6000803e3d6000fd5b505050506040513d601f19601f82011682018060405250810190615c6091906173c7565b6164ae90919063ffffffff16565b90508773ffffffffffffffffffffffffffffffffffffffff1663e310327383836040518363ffffffff1660e01b8152600401615cab929190617d12565b600060405180830381600087803b158015615cc557600080fd5b505af1158015615cd9573d6000803e3d6000fd5b505050505b615d798c8f73ffffffffffffffffffffffffffffffffffffffff166370a08231306040518263ffffffff1660e01b8152600401615d1b9190617c6e565b60206040518083038186803b158015615d3357600080fd5b505afa158015615d47573d6000803e3d6000fd5b505050506040513d601f19601f82011682018060405250810190615d6b91906173c7565b6164ae90919063ffffffff16565b90506000811115615dfb57615d8c61688c565b8873ffffffffffffffffffffffffffffffffffffffff16635b36389c83836040518363ffffffff1660e01b8152600401615dc79291906180f5565b600060405180830381600087803b158015615de157600080fd5b505af1158015615df5573d6000803e3d6000fd5b50505050505b60005b6002811015615e4157615e34858281518110615e1657fe5b6020026020010151858360028110615e2a57fe5b60200201516164fe565b8080600101915050615dfe565b50615e4c8e8b6164fe565b60005b6002811015615e8157615e74858281518110615e6757fe5b60200260200101516161c0565b8080600101915050615e4f565b50615e8b8e6161c0565b615eb47f00000000000000000000000000000000000000000000000000000000000000006161c0565b5050505050505050505050505050565b6000811480615f5d575060008373ffffffffffffffffffffffffffffffffffffffff1663dd62ed3e30856040518363ffffffff1660e01b8152600401615f0b929190617c89565b60206040518083038186803b158015615f2357600080fd5b505afa158015615f37573d6000803e3d6000fd5b505050506040513d601f19601f82011682018060405250810190615f5b91906173c7565b145b615f9c576040517f08c379a0000000000000000000000000000000000000000000000000000000008152600401615f9390618071565b60405180910390fd5b61601d8363095ea7b360e01b8484604051602401615fbb929190617cb2565b604051602081830303815290604052907bffffffffffffffffffffffffffffffffffffffffffffffffffffffff19166020820180517bffffffffffffffffffffffffffffffffffffffffffffffffffffffff83818316178352505050506165c3565b505050565b600080823b905060008111915050919050565b6060616044848460008561668a565b90509392505050565b604160008373ffffffffffffffffffffffffffffffffffffffff1673ffffffffffffffffffffffffffffffffffffffff16815260200190815260200160002060008273ffffffffffffffffffffffffffffffffffffffff1673ffffffffffffffffffffffffffffffffffffffff16815260200190815260200160002060009054906101000a900460ff166161bc57616126817fffffffffffffffffffffffffffffffffffffffffffffffffffffffffffffffff8473ffffffffffffffffffffffffffffffffffffffff16615ec49092919063ffffffff16565b6001604160008473ffffffffffffffffffffffffffffffffffffffff1673ffffffffffffffffffffffffffffffffffffffff16815260200190815260200160002060008373ffffffffffffffffffffffffffffffffffffffff1673ffffffffffffffffffffffffffffffffffffffff16815260200190815260200160002060006101000a81548160ff0219169083151502179055505b5050565b60008173ffffffffffffffffffffffffffffffffffffffff166370a08231306040518263ffffffff1660e01b81526004016161fb9190617c6e565b60206040518083038186803b15801561621357600080fd5b505afa158015616227573d6000803e3d6000fd5b505050506040513d601f19601f8201168201806040525081019061624b91906173c7565b9050600081111561631f5761631e7f000000000000000000000000000000000000000000000000000000000000000073ffffffffffffffffffffffffffffffffffffffff1663630dc7cb6040518163ffffffff1660e01b815260040160206040518083038186803b1580156162bf57600080fd5b505afa1580156162d3573d6000803e3d6000fd5b505050506040513d601f19601f820116820180604052508101906162f79190616c8c565b828473ffffffffffffffffffffffffffffffffffffffff1661679f9092919063ffffffff16565b5b5050565b60008111156163ba577f000000000000000000000000000000000000000000000000000000000000000073ffffffffffffffffffffffffffffffffffffffff166348d6bbc283836040518363ffffffff1660e01b8152600401616387929190617cb2565b600060405180830381600087803b1580156163a157600080fd5b505af11580156163b5573d6000803e3d6000fd5b505050505b5050565b6000811115616455577f000000000000000000000000000000000000000000000000000000000000000073ffffffffffffffffffffffffffffffffffffffff16634b8a352983836040518363ffffffff1660e01b8152600401616422929190617cb2565b600060405180830381600087803b15801561643c57600080fd5b505af1158015616450573d6000803e3d6000fd5b505050505b5050565b6000808284019050838110156164a4576040517f08c379a000000000000000000000000000000000000000000000000000000000815260040161649b90617e91565b60405180910390fd5b8091505092915050565b6000828211156164f3576040517f08c379a00000000000000000000000000000000000000000000000000000000081526004016164ea90617ef1565b60405180910390fd5b818303905092915050565b60008111156165bf57616531827f000000000000000000000000000000000000000000000000000000000000000061604d565b7f000000000000000000000000000000000000000000000000000000000000000073ffffffffffffffffffffffffffffffffffffffff166322867d7883836040518363ffffffff1660e01b815260040161658c929190617cb2565b600060405180830381600087803b1580156165a657600080fd5b505af11580156165ba573d6000803e3d6000fd5b505050505b5050565b6060616625826040518060400160405280602081526020017f5361666545524332303a206c6f772d6c6576656c2063616c6c206661696c65648152508573ffffffffffffffffffffffffffffffffffffffff166160359092919063ffffffff16565b905060008151111561668557808060200190518101906166459190617375565b616684576040517f08c379a000000000000000000000000000000000000000000000000000000000815260040161667b90618051565b60405180910390fd5b5b505050565b6060824710156166cf576040517f08c379a00000000000000000000000000000000000000000000000000000000081526004016166c690617f11565b60405180910390fd5b6166d885616022565b616717576040517f08c379a000000000000000000000000000000000000000000000000000000000815260040161670e90618011565b60405180910390fd5b600060608673ffffffffffffffffffffffffffffffffffffffff1685876040516167419190617c3c565b60006040518083038185875af1925050503d806000811461677e576040519150601f19603f3d011682016040523d82523d6000602084013e616783565b606091505b5091509150616793828286616825565b92505050949350505050565b6168208363a9059cbb60e01b84846040516024016167be929190617cb2565b604051602081830303815290604052907bffffffffffffffffffffffffffffffffffffffffffffffffffffffff19166020820180517bffffffffffffffffffffffffffffffffffffffffffffffffffffffff83818316178352505050506165c3565b505050565b6060831561683557829050616885565b6000835111156168485782518084602001fd5b816040517f08c379a000000000000000000000000000000000000000000000000000000000815260040161687c9190617e2f565b60405180910390fd5b9392505050565b6040518060400160405280600290602082028036833780820191505090505090565b604051806101000160405280600890602082028036833780820191505090505090565b82805482825590600052602060002090810192821561694a579160200282015b828111156169495782518260006101000a81548173ffffffffffffffffffffffffffffffffffffffff021916908373ffffffffffffffffffffffffffffffffffffffff160217905550916020019190600101906168f1565b5b509050616957919061699f565b5090565b6040518060600160405280600390602082028036833780820191505090505090565b6040518060800160405280600490602082028036833780820191505090505090565b5b808211156169d657600081816101000a81549073ffffffffffffffffffffffffffffffffffffffff0219169055506001016169a0565b5090565b6000813590506169e981618456565b92915050565b6000815190506169fe81618456565b92915050565b600082601f830112616a1557600080fd5b6008616a28616a23826181fd565b6181d0565b91508183856020840282011115616a3e57600080fd5b60005b83811015616a6e5781616a5488826169ef565b845260208401935060208301925050600181019050616a41565b5050505092915050565b60008083601f840112616a8a57600080fd5b8235905067ffffffffffffffff811115616aa357600080fd5b602083019150836020820283011115616abb57600080fd5b9250929050565b60008083601f840112616ad457600080fd5b8235905067ffffffffffffffff811115616aed57600080fd5b602083019150836020820283011115616b0557600080fd5b9250929050565b600081905082602060020282011115616b2457600080fd5b92915050565b600081905082602060030282011115616b4257600080fd5b92915050565b600081905082602060040282011115616b6057600080fd5b92915050565b60008083601f840112616b7857600080fd5b8235905067ffffffffffffffff811115616b9157600080fd5b602083019150836020820283011115616ba957600080fd5b9250929050565b600081359050616bbf8161846d565b92915050565b600081519050616bd48161846d565b92915050565b600081359050616be981618484565b92915050565b60008083601f840112616c0157600080fd5b8235905067ffffffffffffffff811115616c1a57600080fd5b602083019150836001820283011115616c3257600080fd5b9250929050565b600081359050616c488161849b565b92915050565b600081519050616c5d8161849b565b92915050565b600060208284031215616c7557600080fd5b6000616c83848285016169da565b91505092915050565b600060208284031215616c9e57600080fd5b6000616cac848285016169ef565b91505092915050565b60008060408385031215616cc857600080fd5b6000616cd6858286016169da565b9250506020616ce7858286016169da565b9150509250929050565b60008060008060008060008060a0898b031215616d0d57600080fd5b6000616d1b8b828c016169da565b9850506020616d2c8b828c016169da565b975050604089013567ffffffffffffffff811115616d4957600080fd5b616d558b828c01616b66565b9650965050606089013567ffffffffffffffff811115616d7457600080fd5b616d808b828c01616b66565b9450945050608089013567ffffffffffffffff811115616d9f57600080fd5b616dab8b828c01616bef565b92509250509295985092959890939650565b60008060008060808587031215616dd357600080fd5b6000616de1878288016169ef565b9450506020616df2878288016169ef565b9350506040616e0387828801616c4e565b9250506060616e1487828801616c4e565b91505092959194509250565b60008060008060008060a08789031215616e3957600080fd5b6000616e4789828a016169da565b9650506020616e5889828a016169da565b9550506040616e6989828a01616c39565b9450506060616e7a89828a01616c39565b935050608087013567ffffffffffffffff811115616e9757600080fd5b616ea389828a01616bef565b92509250509295509295509295565b600080600080600080600080610140898b031215616ecf57600080fd5b6000616edd8b828c016169da565b9850506020616eee8b828c01616b0c565b9750506060616eff8b828c01616c39565b9650506080616f108b828c01616b0c565b95505060c0616f218b828c01616c39565b94505060e0616f328b828c01616c39565b935050610100616f448b828c01616c39565b925050610120616f568b828c01616c39565b9150509295985092959890939650565b600080600080600080600080610180898b031215616f8357600080fd5b6000616f918b828c016169da565b9850506020616fa28b828c01616b2a565b9750506080616fb38b828c01616c39565b96505060a0616fc48b828c01616b2a565b955050610100616fd68b828c01616c39565b945050610120616fe88b828c01616c39565b935050610140616ffa8b828c01616c39565b92505061016061700c8b828c01616c39565b9150509295985092959890939650565b6000806000806000806000806101c0898b03121561703957600080fd5b60006170478b828c016169da565b98505060206170588b828c01616b48565b97505060a06170698b828c01616c39565b96505060c061707a8b828c01616b48565b95505061014061708c8b828c01616c39565b94505061016061709e8b828c01616c39565b9350506101806170b08b828c01616c39565b9250506101a06170c28b828c01616c39565b9150509295985092959890939650565b600080604083850312156170e557600080fd5b60006170f3858286016169da565b925050602061710485828601616c39565b9150509250929050565b600080600080600080610100878903121561712857600080fd5b600061713689828a016169da565b965050602061714789828a01616c39565b955050604061715889828a01616c39565b945050606061716989828a01616b0c565b93505060a061717a89828a01616c39565b92505060c061718b89828a01616b0c565b9150509295509295509295565b60008060008060008061014087890312156171b257600080fd5b60006171c089828a016169da565b96505060206171d189828a01616c39565b95505060406171e289828a01616c39565b94505060606171f389828a01616b2a565b93505060c061720489828a01616c39565b92505060e061721589828a01616b2a565b9150509295509295509295565b600080600080600080610180878903121561723c57600080fd5b600061724a89828a016169da565b965050602061725b89828a01616c39565b955050604061726c89828a01616c39565b945050606061727d89828a01616b48565b93505060e061728e89828a01616c39565b9250506101006172a089828a01616b48565b9150509295509295509295565b600061010082840312156172c057600080fd5b60006172ce84828501616a04565b91505092915050565b600080600080604085870312156172ed57600080fd5b600085013567ffffffffffffffff81111561730757600080fd5b61731387828801616a78565b9450945050602085013567ffffffffffffffff81111561733257600080fd5b61733e87828801616ac2565b925092505092959194509250565b60006020828403121561735e57600080fd5b600061736c84828501616bb0565b91505092915050565b60006020828403121561738757600080fd5b600061739584828501616bc5565b91505092915050565b6000602082840312156173b057600080fd5b60006173be84828501616bda565b91505092915050565b6000602082840312156173d957600080fd5b60006173e784828501616c4e565b91505092915050565b6000806040838503121561740357600080fd5b600061741185828601616c4e565b925050602061742285828601616c4e565b9150509250929050565b60008060006060848603121561744157600080fd5b600061744f86828701616c4e565b935050602061746086828701616c4e565b925050604061747186828701616c4e565b9150509250925092565b60006174878383617c1e565b60208301905092915050565b61749c8161834c565b82525050565b6174ab816182d8565b82525050565b6174ba8161823d565b6174c4818461829b565b92506174cf8261821f565b8060005b838110156175005781516174e7878261747b565b96506174f283618274565b9250506001810190506174d3565b505050505050565b61751181618248565b61751b81846182a6565b925061752682618229565b8060005b8381101561755757815161753e878261747b565b965061754983618281565b92505060018101905061752a565b505050505050565b61756881618253565b61757281846182b1565b925061757d82618233565b8060005b838110156175ae578151617595878261747b565b96506175a08361828e565b925050600181019050617581565b505050505050565b6175bf816182ea565b82525050565b6175ce816182f6565b82525050565b60006175df8261825e565b6175e981856182bc565b93506175f9818560208601618412565b80840191505092915050565b61760e8161835e565b82525050565b61761d81618382565b82525050565b61762c816183a6565b82525050565b61763b816183ca565b82525050565b600061764c82618269565b61765681856182c7565b9350617666818560208601618412565b61766f81618445565b840191505092915050565b60006176876011836182c7565b91507f696e636f727265637420636f6c6c2069640000000000000000000000000000006000830152602082019050919050565b60006176c76018836182c7565b91507f6e6f74207468652070656e64696e6720676f7665726e6f7200000000000000006000830152602082019050919050565b6000617707601b836182c7565b91507f536166654d6174683a206164646974696f6e206f766572666c6f7700000000006000830152602082019050919050565b6000617747601b836182c7565b91507f6f7261636c65206e6f7420737570706f7274206c7020746f6b656e00000000006000830152602082019050919050565b60006177876024836182c7565b91507f636f6c6c61746572616c20746f6b656e202620776761756765206d69736d617460008301527f63686564000000000000000000000000000000000000000000000000000000006020830152604082019050919050565b60006177ed601e836182c7565b91507f536166654d6174683a207375627472616374696f6e206f766572666c6f7700006000830152602082019050919050565b600061782d6026836182c7565b91507f416464726573733a20696e73756666696369656e742062616c616e636520666f60008301527f722063616c6c00000000000000000000000000000000000000000000000000006020830152604082019050919050565b60006178936010836182c7565b91507f6e6f742074686520676f7665726e6f72000000000000000000000000000000006000830152602082019050919050565b60006178d36025836182c7565b91507f6c70546f6b656e732026207374617475736573206c656e677468206d69736d6160008301527f74636865640000000000000000000000000000000000000000000000000000006020830152604082019050919050565b6000617939600b836182c7565b91507f6e6f206c7020746f6b656e0000000000000000000000000000000000000000006000830152602082019050919050565b60006179796018836182c7565b91507f6c7020746f6b656e206e6f742077686974656c697374656400000000000000006000830152602082019050919050565b60006179b9600e836182c7565b91507f62616420706964206f72206769640000000000000000000000000000000000006000830152602082019050919050565b60006179f96017836182c7565b91507f455448206d75737420636f6d652066726f6d20574554480000000000000000006000830152602082019050919050565b6000617a396022836182c7565b91507f6e6f20636f72726573706f6e64696e6720706f6f6c20666f72206c7020746f6b60008301527f656e0000000000000000000000000000000000000000000000000000000000006020830152604082019050919050565b6000617a9f601d836182c7565b91507f416464726573733a2063616c6c20746f206e6f6e2d636f6e74726163740000006000830152602082019050919050565b6000617adf6014836182c7565b91507f696e636f727265637420756e6465726c79696e670000000000000000000000006000830152602082019050919050565b6000617b1f602a836182c7565b91507f5361666545524332303a204552433230206f7065726174696f6e20646964206e60008301527f6f742073756363656564000000000000000000000000000000000000000000006020830152604082019050919050565b6000617b856036836182c7565b91507f5361666545524332303a20617070726f76652066726f6d206e6f6e2d7a65726f60008301527f20746f206e6f6e2d7a65726f20616c6c6f77616e6365000000000000000000006020830152604082019050919050565b6000617beb6015836182c7565b91507f696e636f727265637420706f6f6c206c656e67746800000000000000000000006000830152602082019050919050565b617c2781618342565b82525050565b617c3681618342565b82525050565b6000617c4882846175d4565b915081905092915050565b6000602082019050617c6860008301846174a2565b92915050565b6000602082019050617c836000830184617493565b92915050565b6000604082019050617c9e60008301856174a2565b617cab60208301846174a2565b9392505050565b6000604082019050617cc760008301856174a2565b617cd46020830184617c2d565b9392505050565b6000606082019050617cf060008301866174a2565b617cfd6020830185617c2d565b617d0a6040830184617c2d565b949350505050565b6000606082019050617d2760008301856174b1565b617d346040830184617c2d565b9392505050565b6000608082019050617d506000830185617508565b617d5d6060830184617c2d565b9392505050565b600060a082019050617d79600083018561755f565b617d866080830184617c2d565b9392505050565b6000602082019050617da260008301846175b6565b92915050565b6000602082019050617dbd60008301846175c5565b92915050565b6000602082019050617dd86000830184617605565b92915050565b6000602082019050617df36000830184617614565b92915050565b6000602082019050617e0e6000830184617623565b92915050565b6000602082019050617e296000830184617632565b92915050565b60006020820190508181036000830152617e498184617641565b905092915050565b60006020820190508181036000830152617e6a8161767a565b9050919050565b60006020820190508181036000830152617e8a816176ba565b9050919050565b60006020820190508181036000830152617eaa816176fa565b9050919050565b60006020820190508181036000830152617eca8161773a565b9050919050565b60006020820190508181036000830152617eea8161777a565b9050919050565b60006020820190508181036000830152617f0a816177e0565b9050919050565b60006020820190508181036000830152617f2a81617820565b9050919050565b60006020820190508181036000830152617f4a81617886565b9050919050565b60006020820190508181036000830152617f6a816178c6565b9050919050565b60006020820190508181036000830152617f8a8161792c565b9050919050565b60006020820190508181036000830152617faa8161796c565b9050919050565b60006020820190508181036000830152617fca816179ac565b9050919050565b60006020820190508181036000830152617fea816179ec565b9050919050565b6000602082019050818103600083015261800a81617a2c565b9050919050565b6000602082019050818103600083015261802a81617a92565b9050919050565b6000602082019050818103600083015261804a81617ad2565b9050919050565b6000602082019050818103600083015261806a81617b12565b9050919050565b6000602082019050818103600083015261808a81617b78565b9050919050565b600060208201905081810360008301526180aa81617bde565b9050919050565b60006020820190506180c66000830184617c2d565b92915050565b60006040820190506180e16000830185617c2d565b6180ee60208301846174a2565b9392505050565b600060608201905061810a6000830185617c2d565b61811760208301846174b1565b9392505050565b60006080820190506181336000830185617c2d565b6181406020830184617508565b9392505050565b600060a08201905061815c6000830185617c2d565b618169602083018461755f565b9392505050565b60006040820190506181856000830185617c2d565b6181926020830184617c2d565b9392505050565b60006060820190506181ae6000830186617c2d565b6181bb6020830185617c2d565b6181c86040830184617c2d565b949350505050565b6000604051905081810181811067ffffffffffffffff821117156181f357600080fd5b8060405250919050565b600067ffffffffffffffff82111561821457600080fd5b602082029050919050565b6000819050919050565b6000819050919050565b6000819050919050565b600060029050919050565b600060039050919050565b600060049050919050565b600081519050919050565b600081519050919050565b6000602082019050919050565b6000602082019050919050565b6000602082019050919050565b600081905092915050565b600081905092915050565b600081905092915050565b600081905092915050565b600082825260208201905092915050565b60006182e382618322565b9050919050565b60008115159050919050565b60007fffffffff0000000000000000000000000000000000000000000000000000000082169050919050565b600073ffffffffffffffffffffffffffffffffffffffff82169050919050565b6000819050919050565b6000618357826183ee565b9050919050565b600061836982618370565b9050919050565b600061837b82618322565b9050919050565b600061838d82618394565b9050919050565b600061839f82618322565b9050919050565b60006183b1826183b8565b9050919050565b60006183c382618322565b9050919050565b60006183d5826183dc565b9050919050565b60006183e782618322565b9050919050565b60006183f982618400565b9050919050565b600061840b82618322565b9050919050565b60005b83811015618430578082015181840152602081019050618415565b8381111561843f576000848401525b50505050565b6000601f19601f8301169050919050565b61845f816182d8565b811461846a57600080fd5b50565b618476816182ea565b811461848157600080fd5b50565b61848d816182f6565b811461849857600080fd5b50565b6184a481618342565b81146184af57600080fd5b5056fea264697066735822122050351e119ee2060c0d371218ea7a0d9fb2e14aa461b050783382eb99139562b164736f6c634300060c0033",
  "linkReferences": {},
  "deployedLinkReferences": {}
}